{
	"contracts/Exercise.sol": {
		"HelloWorld": {
			"abi": [
				{
					"inputs": [
						{
							"internalType": "string",
							"name": "_name",
							"type": "string"
						},
						{
							"internalType": "uint256",
							"name": "_amount",
							"type": "uint256"
						}
					],
					"name": "eatHamburgers",
					"outputs": [],
					"stateMutability": "nonpayable",
					"type": "function"
				},
				{
					"inputs": [],
					"name": "myUnsignedInteger2",
					"outputs": [
						{
							"internalType": "uint256",
							"name": "",
							"type": "uint256"
						}
					],
					"stateMutability": "view",
					"type": "function"
				},
				{
					"inputs": [],
					"name": "sayHello",
					"outputs": [
						{
							"internalType": "string",
							"name": "",
							"type": "string"
						}
					],
					"stateMutability": "view",
					"type": "function"
				},
				{
					"inputs": [],
					"name": "x",
					"outputs": [
						{
							"internalType": "uint256",
							"name": "",
							"type": "uint256"
						}
					],
					"stateMutability": "view",
					"type": "function"
				},
				{
					"inputs": [
						{
							"internalType": "uint256",
							"name": "",
							"type": "uint256"
						}
					],
					"name": "zombies",
					"outputs": [
						{
							"internalType": "string",
							"name": "name",
							"type": "string"
						},
						{
							"internalType": "uint256",
							"name": "dna",
							"type": "uint256"
						}
					],
					"stateMutability": "view",
					"type": "function"
				}
			],
			"devdoc": {
				"kind": "dev",
				"methods": {},
				"version": 1
			},
			"evm": {
				"assembly": "    /* \"contracts/Exercise.sol\":57:1063  contract HelloWorld {... */\n  mstore(0x40, 0x80)\n    /* \"contracts/Exercise.sol\":154:157  100 */\n  0x64\n    /* \"contracts/Exercise.sol\":126:157  uint256 myUnsignedInteger = 100 */\n  0x00\n  sstore\n    /* \"contracts/Exercise.sol\":223:226  100 */\n  0x64\n    /* \"contracts/Exercise.sol\":187:226  uint256 public myUnsignedInteger2 = 100 */\n  0x01\n  sstore\n    /* \"contracts/Exercise.sol\":251:255  5**2 */\n  0x19\n    /* \"contracts/Exercise.sol\":232:255  uint256 public x = 5**2 */\n  0x02\n  sstore\n    /* \"contracts/Exercise.sol\":754:787  string greeting = \"What's up dog\" */\n  mload(0x40)\n  dup1\n  0x40\n  add\n  0x40\n  mstore\n  dup1\n  0x0d\n  dup2\n  mstore\n  0x20\n  add\n  0x57686174277320757020646f6700000000000000000000000000000000000000\n  dup2\n  mstore\n  pop\n  0x09\n  swap1\n  dup2\n  tag_1\n  swap2\n  swap1\n  tag_2\n  jump\t// in\ntag_1:\n  pop\n    /* \"contracts/Exercise.sol\":57:1063  contract HelloWorld {... */\n  callvalue\n  dup1\n  iszero\n  tag_3\n  jumpi\n  0x00\n  dup1\n  revert\ntag_3:\n  pop\n  jump(tag_4)\n    /* \"#utility.yul\":7:106   */\ntag_5:\n    /* \"#utility.yul\":59:65   */\n  0x00\n    /* \"#utility.yul\":93:98   */\n  dup2\n    /* \"#utility.yul\":87:99   */\n  mload\n    /* \"#utility.yul\":77:99   */\n  swap1\n  pop\n    /* \"#utility.yul\":7:106   */\n  swap2\n  swap1\n  pop\n  jump\t// out\n    /* \"#utility.yul\":112:292   */\ntag_6:\n    /* \"#utility.yul\":160:237   */\n  0x4e487b7100000000000000000000000000000000000000000000000000000000\n    /* \"#utility.yul\":157:158   */\n  0x00\n    /* \"#utility.yul\":150:238   */\n  mstore\n    /* \"#utility.yul\":257:261   */\n  0x41\n    /* \"#utility.yul\":254:255   */\n  0x04\n    /* \"#utility.yul\":247:262   */\n  mstore\n    /* \"#utility.yul\":281:285   */\n  0x24\n    /* \"#utility.yul\":278:279   */\n  0x00\n    /* \"#utility.yul\":271:286   */\n  revert\n    /* \"#utility.yul\":298:478   */\ntag_7:\n    /* \"#utility.yul\":346:423   */\n  0x4e487b7100000000000000000000000000000000000000000000000000000000\n    /* \"#utility.yul\":343:344   */\n  0x00\n    /* \"#utility.yul\":336:424   */\n  mstore\n    /* \"#utility.yul\":443:447   */\n  0x22\n    /* \"#utility.yul\":440:441   */\n  0x04\n    /* \"#utility.yul\":433:448   */\n  mstore\n    /* \"#utility.yul\":467:471   */\n  0x24\n    /* \"#utility.yul\":464:465   */\n  0x00\n    /* \"#utility.yul\":457:472   */\n  revert\n    /* \"#utility.yul\":484:804   */\ntag_8:\n    /* \"#utility.yul\":528:534   */\n  0x00\n    /* \"#utility.yul\":565:566   */\n  0x02\n    /* \"#utility.yul\":559:563   */\n  dup3\n    /* \"#utility.yul\":555:567   */\n  div\n    /* \"#utility.yul\":545:567   */\n  swap1\n  pop\n    /* \"#utility.yul\":612:613   */\n  0x01\n    /* \"#utility.yul\":606:610   */\n  dup3\n    /* \"#utility.yul\":602:614   */\n  and\n    /* \"#utility.yul\":633:651   */\n  dup1\n    /* \"#utility.yul\":623:704   */\n  tag_30\n  jumpi\n    /* \"#utility.yul\":689:693   */\n  0x7f\n    /* \"#utility.yul\":681:687   */\n  dup3\n    /* \"#utility.yul\":677:694   */\n  and\n    /* \"#utility.yul\":667:694   */\n  swap2\n  pop\n    /* \"#utility.yul\":623:704   */\ntag_30:\n    /* \"#utility.yul\":751:753   */\n  0x20\n    /* \"#utility.yul\":743:749   */\n  dup3\n    /* \"#utility.yul\":740:754   */\n  lt\n    /* \"#utility.yul\":720:738   */\n  dup2\n    /* \"#utility.yul\":717:755   */\n  sub\n    /* \"#utility.yul\":714:798   */\n  tag_31\n  jumpi\n    /* \"#utility.yul\":770:788   */\n  tag_32\n  tag_7\n  jump\t// in\ntag_32:\n    /* \"#utility.yul\":714:798   */\ntag_31:\n    /* \"#utility.yul\":535:804   */\n  pop\n    /* \"#utility.yul\":484:804   */\n  swap2\n  swap1\n  pop\n  jump\t// out\n    /* \"#utility.yul\":810:951   */\ntag_9:\n    /* \"#utility.yul\":859:863   */\n  0x00\n    /* \"#utility.yul\":882:885   */\n  dup2\n    /* \"#utility.yul\":874:885   */\n  swap1\n  pop\n    /* \"#utility.yul\":905:908   */\n  dup2\n    /* \"#utility.yul\":902:903   */\n  0x00\n    /* \"#utility.yul\":895:909   */\n  mstore\n    /* \"#utility.yul\":939:943   */\n  0x20\n    /* \"#utility.yul\":936:937   */\n  0x00\n    /* \"#utility.yul\":926:944   */\n  keccak256\n    /* \"#utility.yul\":918:944   */\n  swap1\n  pop\n    /* \"#utility.yul\":810:951   */\n  swap2\n  swap1\n  pop\n  jump\t// out\n    /* \"#utility.yul\":957:1050   */\ntag_10:\n    /* \"#utility.yul\":994:1000   */\n  0x00\n    /* \"#utility.yul\":1041:1043   */\n  0x20\n    /* \"#utility.yul\":1036:1038   */\n  0x1f\n    /* \"#utility.yul\":1029:1034   */\n  dup4\n    /* \"#utility.yul\":1025:1039   */\n  add\n    /* \"#utility.yul\":1021:1044   */\n  div\n    /* \"#utility.yul\":1011:1044   */\n  swap1\n  pop\n    /* \"#utility.yul\":957:1050   */\n  swap2\n  swap1\n  pop\n  jump\t// out\n    /* \"#utility.yul\":1056:1163   */\ntag_11:\n    /* \"#utility.yul\":1100:1108   */\n  0x00\n    /* \"#utility.yul\":1150:1155   */\n  dup3\n    /* \"#utility.yul\":1144:1148   */\n  dup3\n    /* \"#utility.yul\":1140:1156   */\n  shl\n    /* \"#utility.yul\":1119:1156   */\n  swap1\n  pop\n    /* \"#utility.yul\":1056:1163   */\n  swap3\n  swap2\n  pop\n  pop\n  jump\t// out\n    /* \"#utility.yul\":1169:1562   */\ntag_12:\n    /* \"#utility.yul\":1238:1244   */\n  0x00\n    /* \"#utility.yul\":1288:1289   */\n  0x08\n    /* \"#utility.yul\":1276:1286   */\n  dup4\n    /* \"#utility.yul\":1272:1290   */\n  mul\n    /* \"#utility.yul\":1311:1408   */\n  tag_37\n    /* \"#utility.yul\":1341:1407   */\n  0xffffffffffffffffffffffffffffffffffffffffffffffffffffffffffffffff\n    /* \"#utility.yul\":1330:1339   */\n  dup3\n    /* \"#utility.yul\":1311:1408   */\n  tag_11\n  jump\t// in\ntag_37:\n    /* \"#utility.yul\":1429:1468   */\n  tag_38\n    /* \"#utility.yul\":1459:1467   */\n  dup7\n    /* \"#utility.yul\":1448:1457   */\n  dup4\n    /* \"#utility.yul\":1429:1468   */\n  tag_11\n  jump\t// in\ntag_38:\n    /* \"#utility.yul\":1417:1468   */\n  swap6\n  pop\n    /* \"#utility.yul\":1501:1505   */\n  dup1\n    /* \"#utility.yul\":1497:1506   */\n  not\n    /* \"#utility.yul\":1490:1495   */\n  dup5\n    /* \"#utility.yul\":1486:1507   */\n  and\n    /* \"#utility.yul\":1477:1507   */\n  swap4\n  pop\n    /* \"#utility.yul\":1550:1554   */\n  dup1\n    /* \"#utility.yul\":1540:1548   */\n  dup7\n    /* \"#utility.yul\":1536:1555   */\n  and\n    /* \"#utility.yul\":1529:1534   */\n  dup5\n    /* \"#utility.yul\":1526:1556   */\n  or\n    /* \"#utility.yul\":1516:1556   */\n  swap3\n  pop\n    /* \"#utility.yul\":1245:1562   */\n  pop\n  pop\n    /* \"#utility.yul\":1169:1562   */\n  swap4\n  swap3\n  pop\n  pop\n  pop\n  jump\t// out\n    /* \"#utility.yul\":1568:1645   */\ntag_13:\n    /* \"#utility.yul\":1605:1612   */\n  0x00\n    /* \"#utility.yul\":1634:1639   */\n  dup2\n    /* \"#utility.yul\":1623:1639   */\n  swap1\n  pop\n    /* \"#utility.yul\":1568:1645   */\n  swap2\n  swap1\n  pop\n  jump\t// out\n    /* \"#utility.yul\":1651:1711   */\ntag_14:\n    /* \"#utility.yul\":1679:1682   */\n  0x00\n    /* \"#utility.yul\":1700:1705   */\n  dup2\n    /* \"#utility.yul\":1693:1705   */\n  swap1\n  pop\n    /* \"#utility.yul\":1651:1711   */\n  swap2\n  swap1\n  pop\n  jump\t// out\n    /* \"#utility.yul\":1717:1859   */\ntag_15:\n    /* \"#utility.yul\":1767:1776   */\n  0x00\n    /* \"#utility.yul\":1800:1853   */\n  tag_42\n    /* \"#utility.yul\":1818:1852   */\n  tag_43\n    /* \"#utility.yul\":1827:1851   */\n  tag_44\n    /* \"#utility.yul\":1845:1850   */\n  dup5\n    /* \"#utility.yul\":1827:1851   */\n  tag_13\n  jump\t// in\ntag_44:\n    /* \"#utility.yul\":1818:1852   */\n  tag_14\n  jump\t// in\ntag_43:\n    /* \"#utility.yul\":1800:1853   */\n  tag_13\n  jump\t// in\ntag_42:\n    /* \"#utility.yul\":1787:1853   */\n  swap1\n  pop\n    /* \"#utility.yul\":1717:1859   */\n  swap2\n  swap1\n  pop\n  jump\t// out\n    /* \"#utility.yul\":1865:1940   */\ntag_16:\n    /* \"#utility.yul\":1908:1911   */\n  0x00\n    /* \"#utility.yul\":1929:1934   */\n  dup2\n    /* \"#utility.yul\":1922:1934   */\n  swap1\n  pop\n    /* \"#utility.yul\":1865:1940   */\n  swap2\n  swap1\n  pop\n  jump\t// out\n    /* \"#utility.yul\":1946:2215   */\ntag_17:\n    /* \"#utility.yul\":2056:2095   */\n  tag_47\n    /* \"#utility.yul\":2087:2094   */\n  dup4\n    /* \"#utility.yul\":2056:2095   */\n  tag_15\n  jump\t// in\ntag_47:\n    /* \"#utility.yul\":2117:2208   */\n  tag_48\n    /* \"#utility.yul\":2166:2207   */\n  tag_49\n    /* \"#utility.yul\":2190:2206   */\n  dup3\n    /* \"#utility.yul\":2166:2207   */\n  tag_16\n  jump\t// in\ntag_49:\n    /* \"#utility.yul\":2158:2164   */\n  dup5\n    /* \"#utility.yul\":2151:2155   */\n  dup5\n    /* \"#utility.yul\":2145:2156   */\n  sload\n    /* \"#utility.yul\":2117:2208   */\n  tag_12\n  jump\t// in\ntag_48:\n    /* \"#utility.yul\":2111:2115   */\n  dup3\n    /* \"#utility.yul\":2104:2209   */\n  sstore\n    /* \"#utility.yul\":2022:2215   */\n  pop\n    /* \"#utility.yul\":1946:2215   */\n  pop\n  pop\n  pop\n  jump\t// out\n    /* \"#utility.yul\":2221:2294   */\ntag_18:\n    /* \"#utility.yul\":2266:2269   */\n  0x00\n    /* \"#utility.yul\":2221:2294   */\n  swap1\n  jump\t// out\n    /* \"#utility.yul\":2300:2489   */\ntag_19:\n    /* \"#utility.yul\":2377:2409   */\n  tag_52\n  tag_18\n  jump\t// in\ntag_52:\n    /* \"#utility.yul\":2418:2483   */\n  tag_53\n    /* \"#utility.yul\":2476:2482   */\n  dup2\n    /* \"#utility.yul\":2468:2474   */\n  dup5\n    /* \"#utility.yul\":2462:2466   */\n  dup5\n    /* \"#utility.yul\":2418:2483   */\n  tag_17\n  jump\t// in\ntag_53:\n    /* \"#utility.yul\":2353:2489   */\n  pop\n    /* \"#utility.yul\":2300:2489   */\n  pop\n  pop\n  jump\t// out\n    /* \"#utility.yul\":2495:2681   */\ntag_20:\n    /* \"#utility.yul\":2555:2675   */\ntag_55:\n    /* \"#utility.yul\":2572:2575   */\n  dup2\n    /* \"#utility.yul\":2565:2570   */\n  dup2\n    /* \"#utility.yul\":2562:2576   */\n  lt\n    /* \"#utility.yul\":2555:2675   */\n  iszero\n  tag_57\n  jumpi\n    /* \"#utility.yul\":2626:2665   */\n  tag_58\n    /* \"#utility.yul\":2663:2664   */\n  0x00\n    /* \"#utility.yul\":2656:2661   */\n  dup3\n    /* \"#utility.yul\":2626:2665   */\n  tag_19\n  jump\t// in\ntag_58:\n    /* \"#utility.yul\":2599:2600   */\n  0x01\n    /* \"#utility.yul\":2592:2597   */\n  dup2\n    /* \"#utility.yul\":2588:2601   */\n  add\n    /* \"#utility.yul\":2579:2601   */\n  swap1\n  pop\n    /* \"#utility.yul\":2555:2675   */\n  jump(tag_55)\ntag_57:\n    /* \"#utility.yul\":2495:2681   */\n  pop\n  pop\n  jump\t// out\n    /* \"#utility.yul\":2687:3230   */\ntag_21:\n    /* \"#utility.yul\":2788:2790   */\n  0x1f\n    /* \"#utility.yul\":2783:2786   */\n  dup3\n    /* \"#utility.yul\":2780:2791   */\n  gt\n    /* \"#utility.yul\":2777:3223   */\n  iszero\n  tag_60\n  jumpi\n    /* \"#utility.yul\":2822:2860   */\n  tag_61\n    /* \"#utility.yul\":2854:2859   */\n  dup2\n    /* \"#utility.yul\":2822:2860   */\n  tag_9\n  jump\t// in\ntag_61:\n    /* \"#utility.yul\":2906:2935   */\n  tag_62\n    /* \"#utility.yul\":2924:2934   */\n  dup5\n    /* \"#utility.yul\":2906:2935   */\n  tag_10\n  jump\t// in\ntag_62:\n    /* \"#utility.yul\":2896:2904   */\n  dup2\n    /* \"#utility.yul\":2892:2936   */\n  add\n    /* \"#utility.yul\":3089:3091   */\n  0x20\n    /* \"#utility.yul\":3077:3087   */\n  dup6\n    /* \"#utility.yul\":3074:3092   */\n  lt\n    /* \"#utility.yul\":3071:3120   */\n  iszero\n  tag_63\n  jumpi\n    /* \"#utility.yul\":3110:3118   */\n  dup2\n    /* \"#utility.yul\":3095:3118   */\n  swap1\n  pop\n    /* \"#utility.yul\":3071:3120   */\ntag_63:\n    /* \"#utility.yul\":3133:3213   */\n  tag_64\n    /* \"#utility.yul\":3189:3211   */\n  tag_65\n    /* \"#utility.yul\":3207:3210   */\n  dup6\n    /* \"#utility.yul\":3189:3211   */\n  tag_10\n  jump\t// in\ntag_65:\n    /* \"#utility.yul\":3179:3187   */\n  dup4\n    /* \"#utility.yul\":3175:3212   */\n  add\n    /* \"#utility.yul\":3162:3173   */\n  dup3\n    /* \"#utility.yul\":3133:3213   */\n  tag_20\n  jump\t// in\ntag_64:\n    /* \"#utility.yul\":2792:3223   */\n  pop\n  pop\n    /* \"#utility.yul\":2777:3223   */\ntag_60:\n    /* \"#utility.yul\":2687:3230   */\n  pop\n  pop\n  pop\n  jump\t// out\n    /* \"#utility.yul\":3236:3353   */\ntag_22:\n    /* \"#utility.yul\":3290:3298   */\n  0x00\n    /* \"#utility.yul\":3340:3345   */\n  dup3\n    /* \"#utility.yul\":3334:3338   */\n  dup3\n    /* \"#utility.yul\":3330:3346   */\n  shr\n    /* \"#utility.yul\":3309:3346   */\n  swap1\n  pop\n    /* \"#utility.yul\":3236:3353   */\n  swap3\n  swap2\n  pop\n  pop\n  jump\t// out\n    /* \"#utility.yul\":3359:3528   */\ntag_23:\n    /* \"#utility.yul\":3403:3409   */\n  0x00\n    /* \"#utility.yul\":3436:3487   */\n  tag_68\n    /* \"#utility.yul\":3484:3485   */\n  0x00\n    /* \"#utility.yul\":3480:3486   */\n  not\n    /* \"#utility.yul\":3472:3477   */\n  dup5\n    /* \"#utility.yul\":3469:3470   */\n  0x08\n    /* \"#utility.yul\":3465:3478   */\n  mul\n    /* \"#utility.yul\":3436:3487   */\n  tag_22\n  jump\t// in\ntag_68:\n    /* \"#utility.yul\":3432:3488   */\n  not\n    /* \"#utility.yul\":3517:3521   */\n  dup1\n    /* \"#utility.yul\":3511:3515   */\n  dup4\n    /* \"#utility.yul\":3507:3522   */\n  and\n    /* \"#utility.yul\":3497:3522   */\n  swap2\n  pop\n    /* \"#utility.yul\":3410:3528   */\n  pop\n    /* \"#utility.yul\":3359:3528   */\n  swap3\n  swap2\n  pop\n  pop\n  jump\t// out\n    /* \"#utility.yul\":3533:3828   */\ntag_24:\n    /* \"#utility.yul\":3609:3613   */\n  0x00\n    /* \"#utility.yul\":3755:3784   */\n  tag_70\n    /* \"#utility.yul\":3780:3783   */\n  dup4\n    /* \"#utility.yul\":3774:3778   */\n  dup4\n    /* \"#utility.yul\":3755:3784   */\n  tag_23\n  jump\t// in\ntag_70:\n    /* \"#utility.yul\":3747:3784   */\n  swap2\n  pop\n    /* \"#utility.yul\":3817:3820   */\n  dup3\n    /* \"#utility.yul\":3814:3815   */\n  0x02\n    /* \"#utility.yul\":3810:3821   */\n  mul\n    /* \"#utility.yul\":3804:3808   */\n  dup3\n    /* \"#utility.yul\":3801:3822   */\n  or\n    /* \"#utility.yul\":3793:3822   */\n  swap1\n  pop\n    /* \"#utility.yul\":3533:3828   */\n  swap3\n  swap2\n  pop\n  pop\n  jump\t// out\n    /* \"#utility.yul\":3833:5228   */\ntag_2:\n    /* \"#utility.yul\":3950:3987   */\n  tag_72\n    /* \"#utility.yul\":3983:3986   */\n  dup3\n    /* \"#utility.yul\":3950:3987   */\n  tag_5\n  jump\t// in\ntag_72:\n    /* \"#utility.yul\":4052:4070   */\n  0xffffffffffffffff\n    /* \"#utility.yul\":4044:4050   */\n  dup2\n    /* \"#utility.yul\":4041:4071   */\n  gt\n    /* \"#utility.yul\":4038:4094   */\n  iszero\n  tag_73\n  jumpi\n    /* \"#utility.yul\":4074:4092   */\n  tag_74\n  tag_6\n  jump\t// in\ntag_74:\n    /* \"#utility.yul\":4038:4094   */\ntag_73:\n    /* \"#utility.yul\":4118:4156   */\n  tag_75\n    /* \"#utility.yul\":4150:4154   */\n  dup3\n    /* \"#utility.yul\":4144:4155   */\n  sload\n    /* \"#utility.yul\":4118:4156   */\n  tag_8\n  jump\t// in\ntag_75:\n    /* \"#utility.yul\":4203:4270   */\n  tag_76\n    /* \"#utility.yul\":4263:4269   */\n  dup3\n    /* \"#utility.yul\":4255:4261   */\n  dup3\n    /* \"#utility.yul\":4249:4253   */\n  dup6\n    /* \"#utility.yul\":4203:4270   */\n  tag_21\n  jump\t// in\ntag_76:\n    /* \"#utility.yul\":4297:4298   */\n  0x00\n    /* \"#utility.yul\":4321:4325   */\n  0x20\n    /* \"#utility.yul\":4308:4325   */\n  swap1\n  pop\n    /* \"#utility.yul\":4353:4355   */\n  0x1f\n    /* \"#utility.yul\":4345:4351   */\n  dup4\n    /* \"#utility.yul\":4342:4356   */\n  gt\n    /* \"#utility.yul\":4370:4371   */\n  0x01\n    /* \"#utility.yul\":4365:4983   */\n  dup2\n  eq\n  tag_78\n  jumpi\n    /* \"#utility.yul\":5027:5028   */\n  0x00\n    /* \"#utility.yul\":5044:5050   */\n  dup5\n    /* \"#utility.yul\":5041:5118   */\n  iszero\n  tag_79\n  jumpi\n    /* \"#utility.yul\":5093:5102   */\n  dup3\n    /* \"#utility.yul\":5088:5091   */\n  dup8\n    /* \"#utility.yul\":5084:5103   */\n  add\n    /* \"#utility.yul\":5078:5104   */\n  mload\n    /* \"#utility.yul\":5069:5104   */\n  swap1\n  pop\n    /* \"#utility.yul\":5041:5118   */\ntag_79:\n    /* \"#utility.yul\":5144:5211   */\n  tag_80\n    /* \"#utility.yul\":5204:5210   */\n  dup6\n    /* \"#utility.yul\":5197:5202   */\n  dup3\n    /* \"#utility.yul\":5144:5211   */\n  tag_24\n  jump\t// in\ntag_80:\n    /* \"#utility.yul\":5138:5142   */\n  dup7\n    /* \"#utility.yul\":5131:5212   */\n  sstore\n    /* \"#utility.yul\":5000:5222   */\n  pop\n    /* \"#utility.yul\":4335:5222   */\n  jump(tag_77)\n    /* \"#utility.yul\":4365:4983   */\ntag_78:\n    /* \"#utility.yul\":4417:4421   */\n  0x1f\n    /* \"#utility.yul\":4413:4422   */\n  not\n    /* \"#utility.yul\":4405:4411   */\n  dup5\n    /* \"#utility.yul\":4401:4423   */\n  and\n    /* \"#utility.yul\":4451:4488   */\n  tag_81\n    /* \"#utility.yul\":4483:4487   */\n  dup7\n    /* \"#utility.yul\":4451:4488   */\n  tag_9\n  jump\t// in\ntag_81:\n    /* \"#utility.yul\":4510:4511   */\n  0x00\n    /* \"#utility.yul\":4524:4732   */\ntag_82:\n    /* \"#utility.yul\":4538:4545   */\n  dup3\n    /* \"#utility.yul\":4535:4536   */\n  dup2\n    /* \"#utility.yul\":4532:4546   */\n  lt\n    /* \"#utility.yul\":4524:4732   */\n  iszero\n  tag_84\n  jumpi\n    /* \"#utility.yul\":4617:4626   */\n  dup5\n    /* \"#utility.yul\":4612:4615   */\n  dup10\n    /* \"#utility.yul\":4608:4627   */\n  add\n    /* \"#utility.yul\":4602:4628   */\n  mload\n    /* \"#utility.yul\":4594:4600   */\n  dup3\n    /* \"#utility.yul\":4587:4629   */\n  sstore\n    /* \"#utility.yul\":4668:4669   */\n  0x01\n    /* \"#utility.yul\":4660:4666   */\n  dup3\n    /* \"#utility.yul\":4656:4670   */\n  add\n    /* \"#utility.yul\":4646:4670   */\n  swap2\n  pop\n    /* \"#utility.yul\":4715:4717   */\n  0x20\n    /* \"#utility.yul\":4704:4713   */\n  dup6\n    /* \"#utility.yul\":4700:4718   */\n  add\n    /* \"#utility.yul\":4687:4718   */\n  swap5\n  pop\n    /* \"#utility.yul\":4561:4565   */\n  0x20\n    /* \"#utility.yul\":4558:4559   */\n  dup2\n    /* \"#utility.yul\":4554:4566   */\n  add\n    /* \"#utility.yul\":4549:4566   */\n  swap1\n  pop\n    /* \"#utility.yul\":4524:4732   */\n  jump(tag_82)\ntag_84:\n    /* \"#utility.yul\":4760:4766   */\n  dup7\n    /* \"#utility.yul\":4751:4758   */\n  dup4\n    /* \"#utility.yul\":4748:4767   */\n  lt\n    /* \"#utility.yul\":4745:4924   */\n  iszero\n  tag_85\n  jumpi\n    /* \"#utility.yul\":4818:4827   */\n  dup5\n    /* \"#utility.yul\":4813:4816   */\n  dup10\n    /* \"#utility.yul\":4809:4828   */\n  add\n    /* \"#utility.yul\":4803:4829   */\n  mload\n    /* \"#utility.yul\":4861:4909   */\n  tag_86\n    /* \"#utility.yul\":4903:4907   */\n  0x1f\n    /* \"#utility.yul\":4895:4901   */\n  dup10\n    /* \"#utility.yul\":4891:4908   */\n  and\n    /* \"#utility.yul\":4880:4889   */\n  dup3\n    /* \"#utility.yul\":4861:4909   */\n  tag_23\n  jump\t// in\ntag_86:\n    /* \"#utility.yul\":4853:4859   */\n  dup4\n    /* \"#utility.yul\":4846:4910   */\n  sstore\n    /* \"#utility.yul\":4768:4924   */\n  pop\n    /* \"#utility.yul\":4745:4924   */\ntag_85:\n    /* \"#utility.yul\":4970:4971   */\n  0x01\n    /* \"#utility.yul\":4966:4967   */\n  0x02\n    /* \"#utility.yul\":4958:4964   */\n  dup9\n    /* \"#utility.yul\":4954:4968   */\n  mul\n    /* \"#utility.yul\":4950:4972   */\n  add\n    /* \"#utility.yul\":4944:4948   */\n  dup9\n    /* \"#utility.yul\":4937:4973   */\n  sstore\n    /* \"#utility.yul\":4372:4983   */\n  pop\n  pop\n  pop\n    /* \"#utility.yul\":4335:5222   */\ntag_77:\n  pop\n    /* \"#utility.yul\":3925:5228   */\n  pop\n  pop\n  pop\n    /* \"#utility.yul\":3833:5228   */\n  pop\n  pop\n  jump\t// out\n    /* \"contracts/Exercise.sol\":57:1063  contract HelloWorld {... */\ntag_4:\n  dataSize(sub_0)\n  dup1\n  dataOffset(sub_0)\n  0x00\n  codecopy\n  0x00\n  return\nstop\n\nsub_0: assembly {\n        /* \"contracts/Exercise.sol\":57:1063  contract HelloWorld {... */\n      mstore(0x40, 0x80)\n      callvalue\n      dup1\n      iszero\n      tag_1\n      jumpi\n      0x00\n      dup1\n      revert\n    tag_1:\n      pop\n      jumpi(tag_2, lt(calldatasize, 0x04))\n      shr(0xe0, calldataload(0x00))\n      dup1\n      0x0c55699c\n      eq\n      tag_3\n      jumpi\n      dup1\n      0x2052465e\n      eq\n      tag_4\n      jumpi\n      dup1\n      0x53c90ad3\n      eq\n      tag_5\n      jumpi\n      dup1\n      0xef5fb05b\n      eq\n      tag_6\n      jumpi\n      dup1\n      0xf8d4953d\n      eq\n      tag_7\n      jumpi\n    tag_2:\n      0x00\n      dup1\n      revert\n        /* \"contracts/Exercise.sol\":232:255  uint256 public x = 5**2 */\n    tag_3:\n      tag_8\n      tag_9\n      jump\t// in\n    tag_8:\n      mload(0x40)\n      tag_10\n      swap2\n      swap1\n      tag_11\n      jump\t// in\n    tag_10:\n      mload(0x40)\n      dup1\n      swap2\n      sub\n      swap1\n      return\n        /* \"contracts/Exercise.sol\":330:353  Zombie[] public zombies */\n    tag_4:\n      tag_12\n      0x04\n      dup1\n      calldatasize\n      sub\n      dup2\n      add\n      swap1\n      tag_13\n      swap2\n      swap1\n      tag_14\n      jump\t// in\n    tag_13:\n      tag_15\n      jump\t// in\n    tag_12:\n      mload(0x40)\n      tag_16\n      swap3\n      swap2\n      swap1\n      tag_17\n      jump\t// in\n    tag_16:\n      mload(0x40)\n      dup1\n      swap2\n      sub\n      swap1\n      return\n        /* \"contracts/Exercise.sol\":187:226  uint256 public myUnsignedInteger2 = 100 */\n    tag_5:\n      tag_18\n      tag_19\n      jump\t// in\n    tag_18:\n      mload(0x40)\n      tag_20\n      swap2\n      swap1\n      tag_11\n      jump\t// in\n    tag_20:\n      mload(0x40)\n      dup1\n      swap2\n      sub\n      swap1\n      return\n        /* \"contracts/Exercise.sol\":794:882  function sayHello() public view returns (string memory) {... */\n    tag_6:\n      tag_21\n      tag_22\n      jump\t// in\n    tag_21:\n      mload(0x40)\n      tag_23\n      swap2\n      swap1\n      tag_24\n      jump\t// in\n    tag_23:\n      mload(0x40)\n      dup1\n      swap2\n      sub\n      swap1\n      return\n        /* \"contracts/Exercise.sol\":541:748  function eatHamburgers(string memory _name, uint256 _amount) public {... */\n    tag_7:\n      tag_25\n      0x04\n      dup1\n      calldatasize\n      sub\n      dup2\n      add\n      swap1\n      tag_26\n      swap2\n      swap1\n      tag_27\n      jump\t// in\n    tag_26:\n      tag_28\n      jump\t// in\n    tag_25:\n      stop\n        /* \"contracts/Exercise.sol\":232:255  uint256 public x = 5**2 */\n    tag_9:\n      sload(0x02)\n      dup2\n      jump\t// out\n        /* \"contracts/Exercise.sol\":330:353  Zombie[] public zombies */\n    tag_15:\n      0x03\n      dup2\n      dup2\n      sload\n      dup2\n      lt\n      tag_29\n      jumpi\n      0x00\n      dup1\n      revert\n    tag_29:\n      swap1\n      0x00\n      mstore\n      keccak256(0x00, 0x20)\n      swap1\n      0x02\n      mul\n      add\n      0x00\n      swap2\n      pop\n      swap1\n      pop\n      dup1\n      0x00\n      add\n      dup1\n      sload\n      tag_31\n      swap1\n      tag_32\n      jump\t// in\n    tag_31:\n      dup1\n      0x1f\n      add\n      0x20\n      dup1\n      swap2\n      div\n      mul\n      0x20\n      add\n      mload(0x40)\n      swap1\n      dup2\n      add\n      0x40\n      mstore\n      dup1\n      swap3\n      swap2\n      swap1\n      dup2\n      dup2\n      mstore\n      0x20\n      add\n      dup3\n      dup1\n      sload\n      tag_33\n      swap1\n      tag_32\n      jump\t// in\n    tag_33:\n      dup1\n      iszero\n      tag_34\n      jumpi\n      dup1\n      0x1f\n      lt\n      tag_35\n      jumpi\n      0x0100\n      dup1\n      dup4\n      sload\n      div\n      mul\n      dup4\n      mstore\n      swap2\n      0x20\n      add\n      swap2\n      jump(tag_34)\n    tag_35:\n      dup3\n      add\n      swap2\n      swap1\n      0x00\n      mstore\n      keccak256(0x00, 0x20)\n      swap1\n    tag_36:\n      dup2\n      sload\n      dup2\n      mstore\n      swap1\n      0x01\n      add\n      swap1\n      0x20\n      add\n      dup1\n      dup4\n      gt\n      tag_36\n      jumpi\n      dup3\n      swap1\n      sub\n      0x1f\n      and\n      dup3\n      add\n      swap2\n    tag_34:\n      pop\n      pop\n      pop\n      pop\n      pop\n      swap1\n      dup1\n      0x01\n      add\n      sload\n      swap1\n      pop\n      dup3\n      jump\t// out\n        /* \"contracts/Exercise.sol\":187:226  uint256 public myUnsignedInteger2 = 100 */\n    tag_19:\n      sload(0x01)\n      dup2\n      jump\t// out\n        /* \"contracts/Exercise.sol\":794:882  function sayHello() public view returns (string memory) {... */\n    tag_22:\n        /* \"contracts/Exercise.sol\":835:848  string memory */\n      0x60\n        /* \"contracts/Exercise.sol\":867:875  greeting */\n      0x09\n        /* \"contracts/Exercise.sol\":860:875  return greeting */\n      dup1\n      sload\n      tag_38\n      swap1\n      tag_32\n      jump\t// in\n    tag_38:\n      dup1\n      0x1f\n      add\n      0x20\n      dup1\n      swap2\n      div\n      mul\n      0x20\n      add\n      mload(0x40)\n      swap1\n      dup2\n      add\n      0x40\n      mstore\n      dup1\n      swap3\n      swap2\n      swap1\n      dup2\n      dup2\n      mstore\n      0x20\n      add\n      dup3\n      dup1\n      sload\n      tag_39\n      swap1\n      tag_32\n      jump\t// in\n    tag_39:\n      dup1\n      iszero\n      tag_40\n      jumpi\n      dup1\n      0x1f\n      lt\n      tag_41\n      jumpi\n      0x0100\n      dup1\n      dup4\n      sload\n      div\n      mul\n      dup4\n      mstore\n      swap2\n      0x20\n      add\n      swap2\n      jump(tag_40)\n    tag_41:\n      dup3\n      add\n      swap2\n      swap1\n      0x00\n      mstore\n      keccak256(0x00, 0x20)\n      swap1\n    tag_42:\n      dup2\n      sload\n      dup2\n      mstore\n      swap1\n      0x01\n      add\n      swap1\n      0x20\n      add\n      dup1\n      dup4\n      gt\n      tag_42\n      jumpi\n      dup3\n      swap1\n      sub\n      0x1f\n      and\n      dup3\n      add\n      swap2\n    tag_40:\n      pop\n      pop\n      pop\n      pop\n      pop\n      swap1\n      pop\n        /* \"contracts/Exercise.sol\":794:882  function sayHello() public view returns (string memory) {... */\n      swap1\n      jump\t// out\n        /* \"contracts/Exercise.sol\":541:748  function eatHamburgers(string memory _name, uint256 _amount) public {... */\n    tag_28:\n        /* \"contracts/Exercise.sol\":619:640  Zombie memory satoshi */\n      0x00\n        /* \"contracts/Exercise.sol\":643:665  Zombie(_name, _amount) */\n      mload(0x40)\n      dup1\n      0x40\n      add\n      0x40\n      mstore\n      dup1\n        /* \"contracts/Exercise.sol\":650:655  _name */\n      dup5\n        /* \"contracts/Exercise.sol\":643:665  Zombie(_name, _amount) */\n      dup2\n      mstore\n      0x20\n      add\n        /* \"contracts/Exercise.sol\":657:664  _amount */\n      dup4\n        /* \"contracts/Exercise.sol\":643:665  Zombie(_name, _amount) */\n      dup2\n      mstore\n      pop\n        /* \"contracts/Exercise.sol\":619:665  Zombie memory satoshi = Zombie(_name, _amount) */\n      swap1\n      pop\n        /* \"contracts/Exercise.sol\":675:682  zombies */\n      0x03\n        /* \"contracts/Exercise.sol\":688:695  satoshi */\n      dup2\n        /* \"contracts/Exercise.sol\":675:696  zombies.push(satoshi) */\n      swap1\n      dup1\n      0x01\n      dup2\n      sload\n      add\n      dup1\n      dup3\n      sstore\n      dup1\n      swap2\n      pop\n      pop\n      0x01\n      swap1\n      sub\n      swap1\n      0x00\n      mstore\n      keccak256(0x00, 0x20)\n      swap1\n      0x02\n      mul\n      add\n      0x00\n      swap1\n      swap2\n      swap1\n      swap2\n      swap1\n      swap2\n      pop\n      0x00\n      dup3\n      add\n      mload\n      dup2\n      0x00\n      add\n      swap1\n      dup2\n      tag_45\n      swap2\n      swap1\n      tag_46\n      jump\t// in\n    tag_45:\n      pop\n      0x20\n      dup3\n      add\n      mload\n      dup2\n      0x01\n      add\n      sstore\n      pop\n      pop\n        /* \"contracts/Exercise.sol\":706:713  zombies */\n      0x03\n        /* \"contracts/Exercise.sol\":719:740  Zombie(\"Vitalik\", 16) */\n      mload(0x40)\n      dup1\n      0x40\n      add\n      0x40\n      mstore\n      dup1\n      mload(0x40)\n      dup1\n      0x40\n      add\n      0x40\n      mstore\n      dup1\n      0x07\n      dup2\n      mstore\n      0x20\n      add\n      0x566974616c696b00000000000000000000000000000000000000000000000000\n      dup2\n      mstore\n      pop\n      dup2\n      mstore\n      0x20\n      add\n        /* \"contracts/Exercise.sol\":737:739  16 */\n      0x10\n        /* \"contracts/Exercise.sol\":719:740  Zombie(\"Vitalik\", 16) */\n      dup2\n      mstore\n      pop\n        /* \"contracts/Exercise.sol\":706:741  zombies.push(Zombie(\"Vitalik\", 16)) */\n      swap1\n      dup1\n      0x01\n      dup2\n      sload\n      add\n      dup1\n      dup3\n      sstore\n      dup1\n      swap2\n      pop\n      pop\n      0x01\n      swap1\n      sub\n      swap1\n      0x00\n      mstore\n      keccak256(0x00, 0x20)\n      swap1\n      0x02\n      mul\n      add\n      0x00\n      swap1\n      swap2\n      swap1\n      swap2\n      swap1\n      swap2\n      pop\n      0x00\n      dup3\n      add\n      mload\n      dup2\n      0x00\n      add\n      swap1\n      dup2\n      tag_48\n      swap2\n      swap1\n      tag_46\n      jump\t// in\n    tag_48:\n      pop\n      0x20\n      dup3\n      add\n      mload\n      dup2\n      0x01\n      add\n      sstore\n      pop\n      pop\n        /* \"contracts/Exercise.sol\":609:748  {... */\n      pop\n        /* \"contracts/Exercise.sol\":541:748  function eatHamburgers(string memory _name, uint256 _amount) public {... */\n      pop\n      pop\n      jump\t// out\n        /* \"#utility.yul\":7:84   */\n    tag_49:\n        /* \"#utility.yul\":44:51   */\n      0x00\n        /* \"#utility.yul\":73:78   */\n      dup2\n        /* \"#utility.yul\":62:78   */\n      swap1\n      pop\n        /* \"#utility.yul\":7:84   */\n      swap2\n      swap1\n      pop\n      jump\t// out\n        /* \"#utility.yul\":90:208   */\n    tag_50:\n        /* \"#utility.yul\":177:201   */\n      tag_89\n        /* \"#utility.yul\":195:200   */\n      dup2\n        /* \"#utility.yul\":177:201   */\n      tag_49\n      jump\t// in\n    tag_89:\n        /* \"#utility.yul\":172:175   */\n      dup3\n        /* \"#utility.yul\":165:202   */\n      mstore\n        /* \"#utility.yul\":90:208   */\n      pop\n      pop\n      jump\t// out\n        /* \"#utility.yul\":214:436   */\n    tag_11:\n        /* \"#utility.yul\":307:311   */\n      0x00\n        /* \"#utility.yul\":345:347   */\n      0x20\n        /* \"#utility.yul\":334:343   */\n      dup3\n        /* \"#utility.yul\":330:348   */\n      add\n        /* \"#utility.yul\":322:348   */\n      swap1\n      pop\n        /* \"#utility.yul\":358:429   */\n      tag_91\n        /* \"#utility.yul\":426:427   */\n      0x00\n        /* \"#utility.yul\":415:424   */\n      dup4\n        /* \"#utility.yul\":411:428   */\n      add\n        /* \"#utility.yul\":402:408   */\n      dup5\n        /* \"#utility.yul\":358:429   */\n      tag_50\n      jump\t// in\n    tag_91:\n        /* \"#utility.yul\":214:436   */\n      swap3\n      swap2\n      pop\n      pop\n      jump\t// out\n        /* \"#utility.yul\":442:517   */\n    tag_51:\n        /* \"#utility.yul\":475:481   */\n      0x00\n        /* \"#utility.yul\":508:510   */\n      0x40\n        /* \"#utility.yul\":502:511   */\n      mload\n        /* \"#utility.yul\":492:511   */\n      swap1\n      pop\n        /* \"#utility.yul\":442:517   */\n      swap1\n      jump\t// out\n        /* \"#utility.yul\":523:640   */\n    tag_52:\n        /* \"#utility.yul\":632:633   */\n      0x00\n        /* \"#utility.yul\":629:630   */\n      dup1\n        /* \"#utility.yul\":622:634   */\n      revert\n        /* \"#utility.yul\":646:763   */\n    tag_53:\n        /* \"#utility.yul\":755:756   */\n      0x00\n        /* \"#utility.yul\":752:753   */\n      dup1\n        /* \"#utility.yul\":745:757   */\n      revert\n        /* \"#utility.yul\":769:891   */\n    tag_54:\n        /* \"#utility.yul\":842:866   */\n      tag_96\n        /* \"#utility.yul\":860:865   */\n      dup2\n        /* \"#utility.yul\":842:866   */\n      tag_49\n      jump\t// in\n    tag_96:\n        /* \"#utility.yul\":835:840   */\n      dup2\n        /* \"#utility.yul\":832:867   */\n      eq\n        /* \"#utility.yul\":822:885   */\n      tag_97\n      jumpi\n        /* \"#utility.yul\":881:882   */\n      0x00\n        /* \"#utility.yul\":878:879   */\n      dup1\n        /* \"#utility.yul\":871:883   */\n      revert\n        /* \"#utility.yul\":822:885   */\n    tag_97:\n        /* \"#utility.yul\":769:891   */\n      pop\n      jump\t// out\n        /* \"#utility.yul\":897:1036   */\n    tag_55:\n        /* \"#utility.yul\":943:948   */\n      0x00\n        /* \"#utility.yul\":981:987   */\n      dup2\n        /* \"#utility.yul\":968:988   */\n      calldataload\n        /* \"#utility.yul\":959:988   */\n      swap1\n      pop\n        /* \"#utility.yul\":997:1030   */\n      tag_99\n        /* \"#utility.yul\":1024:1029   */\n      dup2\n        /* \"#utility.yul\":997:1030   */\n      tag_54\n      jump\t// in\n    tag_99:\n        /* \"#utility.yul\":897:1036   */\n      swap3\n      swap2\n      pop\n      pop\n      jump\t// out\n        /* \"#utility.yul\":1042:1371   */\n    tag_14:\n        /* \"#utility.yul\":1101:1107   */\n      0x00\n        /* \"#utility.yul\":1150:1152   */\n      0x20\n        /* \"#utility.yul\":1138:1147   */\n      dup3\n        /* \"#utility.yul\":1129:1136   */\n      dup5\n        /* \"#utility.yul\":1125:1148   */\n      sub\n        /* \"#utility.yul\":1121:1153   */\n      slt\n        /* \"#utility.yul\":1118:1237   */\n      iszero\n      tag_101\n      jumpi\n        /* \"#utility.yul\":1156:1235   */\n      tag_102\n      tag_52\n      jump\t// in\n    tag_102:\n        /* \"#utility.yul\":1118:1237   */\n    tag_101:\n        /* \"#utility.yul\":1276:1277   */\n      0x00\n        /* \"#utility.yul\":1301:1354   */\n      tag_103\n        /* \"#utility.yul\":1346:1353   */\n      dup5\n        /* \"#utility.yul\":1337:1343   */\n      dup3\n        /* \"#utility.yul\":1326:1335   */\n      dup6\n        /* \"#utility.yul\":1322:1344   */\n      add\n        /* \"#utility.yul\":1301:1354   */\n      tag_55\n      jump\t// in\n    tag_103:\n        /* \"#utility.yul\":1291:1354   */\n      swap2\n      pop\n        /* \"#utility.yul\":1247:1364   */\n      pop\n        /* \"#utility.yul\":1042:1371   */\n      swap3\n      swap2\n      pop\n      pop\n      jump\t// out\n        /* \"#utility.yul\":1377:1476   */\n    tag_56:\n        /* \"#utility.yul\":1429:1435   */\n      0x00\n        /* \"#utility.yul\":1463:1468   */\n      dup2\n        /* \"#utility.yul\":1457:1469   */\n      mload\n        /* \"#utility.yul\":1447:1469   */\n      swap1\n      pop\n        /* \"#utility.yul\":1377:1476   */\n      swap2\n      swap1\n      pop\n      jump\t// out\n        /* \"#utility.yul\":1482:1651   */\n    tag_57:\n        /* \"#utility.yul\":1566:1577   */\n      0x00\n        /* \"#utility.yul\":1600:1606   */\n      dup3\n        /* \"#utility.yul\":1595:1598   */\n      dup3\n        /* \"#utility.yul\":1588:1607   */\n      mstore\n        /* \"#utility.yul\":1640:1644   */\n      0x20\n        /* \"#utility.yul\":1635:1638   */\n      dup3\n        /* \"#utility.yul\":1631:1645   */\n      add\n        /* \"#utility.yul\":1616:1645   */\n      swap1\n      pop\n        /* \"#utility.yul\":1482:1651   */\n      swap3\n      swap2\n      pop\n      pop\n      jump\t// out\n        /* \"#utility.yul\":1657:1903   */\n    tag_58:\n        /* \"#utility.yul\":1738:1739   */\n      0x00\n        /* \"#utility.yul\":1748:1861   */\n    tag_107:\n        /* \"#utility.yul\":1762:1768   */\n      dup4\n        /* \"#utility.yul\":1759:1760   */\n      dup2\n        /* \"#utility.yul\":1756:1769   */\n      lt\n        /* \"#utility.yul\":1748:1861   */\n      iszero\n      tag_109\n      jumpi\n        /* \"#utility.yul\":1847:1848   */\n      dup1\n        /* \"#utility.yul\":1842:1845   */\n      dup3\n        /* \"#utility.yul\":1838:1849   */\n      add\n        /* \"#utility.yul\":1832:1850   */\n      mload\n        /* \"#utility.yul\":1828:1829   */\n      dup2\n        /* \"#utility.yul\":1823:1826   */\n      dup5\n        /* \"#utility.yul\":1819:1830   */\n      add\n        /* \"#utility.yul\":1812:1851   */\n      mstore\n        /* \"#utility.yul\":1784:1786   */\n      0x20\n        /* \"#utility.yul\":1781:1782   */\n      dup2\n        /* \"#utility.yul\":1777:1787   */\n      add\n        /* \"#utility.yul\":1772:1787   */\n      swap1\n      pop\n        /* \"#utility.yul\":1748:1861   */\n      jump(tag_107)\n    tag_109:\n        /* \"#utility.yul\":1895:1896   */\n      0x00\n        /* \"#utility.yul\":1886:1892   */\n      dup5\n        /* \"#utility.yul\":1881:1884   */\n      dup5\n        /* \"#utility.yul\":1877:1893   */\n      add\n        /* \"#utility.yul\":1870:1897   */\n      mstore\n        /* \"#utility.yul\":1719:1903   */\n      pop\n        /* \"#utility.yul\":1657:1903   */\n      pop\n      pop\n      pop\n      jump\t// out\n        /* \"#utility.yul\":1909:2011   */\n    tag_59:\n        /* \"#utility.yul\":1950:1956   */\n      0x00\n        /* \"#utility.yul\":2001:2003   */\n      0x1f\n        /* \"#utility.yul\":1997:2004   */\n      not\n        /* \"#utility.yul\":1992:1994   */\n      0x1f\n        /* \"#utility.yul\":1985:1990   */\n      dup4\n        /* \"#utility.yul\":1981:1995   */\n      add\n        /* \"#utility.yul\":1977:2005   */\n      and\n        /* \"#utility.yul\":1967:2005   */\n      swap1\n      pop\n        /* \"#utility.yul\":1909:2011   */\n      swap2\n      swap1\n      pop\n      jump\t// out\n        /* \"#utility.yul\":2017:2394   */\n    tag_60:\n        /* \"#utility.yul\":2105:2108   */\n      0x00\n        /* \"#utility.yul\":2133:2172   */\n      tag_112\n        /* \"#utility.yul\":2166:2171   */\n      dup3\n        /* \"#utility.yul\":2133:2172   */\n      tag_56\n      jump\t// in\n    tag_112:\n        /* \"#utility.yul\":2188:2259   */\n      tag_113\n        /* \"#utility.yul\":2252:2258   */\n      dup2\n        /* \"#utility.yul\":2247:2250   */\n      dup6\n        /* \"#utility.yul\":2188:2259   */\n      tag_57\n      jump\t// in\n    tag_113:\n        /* \"#utility.yul\":2181:2259   */\n      swap4\n      pop\n        /* \"#utility.yul\":2268:2333   */\n      tag_114\n        /* \"#utility.yul\":2326:2332   */\n      dup2\n        /* \"#utility.yul\":2321:2324   */\n      dup6\n        /* \"#utility.yul\":2314:2318   */\n      0x20\n        /* \"#utility.yul\":2307:2312   */\n      dup7\n        /* \"#utility.yul\":2303:2319   */\n      add\n        /* \"#utility.yul\":2268:2333   */\n      tag_58\n      jump\t// in\n    tag_114:\n        /* \"#utility.yul\":2358:2387   */\n      tag_115\n        /* \"#utility.yul\":2380:2386   */\n      dup2\n        /* \"#utility.yul\":2358:2387   */\n      tag_59\n      jump\t// in\n    tag_115:\n        /* \"#utility.yul\":2353:2356   */\n      dup5\n        /* \"#utility.yul\":2349:2388   */\n      add\n        /* \"#utility.yul\":2342:2388   */\n      swap2\n      pop\n        /* \"#utility.yul\":2109:2394   */\n      pop\n        /* \"#utility.yul\":2017:2394   */\n      swap3\n      swap2\n      pop\n      pop\n      jump\t// out\n        /* \"#utility.yul\":2400:2823   */\n    tag_17:\n        /* \"#utility.yul\":2541:2545   */\n      0x00\n        /* \"#utility.yul\":2579:2581   */\n      0x40\n        /* \"#utility.yul\":2568:2577   */\n      dup3\n        /* \"#utility.yul\":2564:2582   */\n      add\n        /* \"#utility.yul\":2556:2582   */\n      swap1\n      pop\n        /* \"#utility.yul\":2628:2637   */\n      dup2\n        /* \"#utility.yul\":2622:2626   */\n      dup2\n        /* \"#utility.yul\":2618:2638   */\n      sub\n        /* \"#utility.yul\":2614:2615   */\n      0x00\n        /* \"#utility.yul\":2603:2612   */\n      dup4\n        /* \"#utility.yul\":2599:2616   */\n      add\n        /* \"#utility.yul\":2592:2639   */\n      mstore\n        /* \"#utility.yul\":2656:2734   */\n      tag_117\n        /* \"#utility.yul\":2729:2733   */\n      dup2\n        /* \"#utility.yul\":2720:2726   */\n      dup6\n        /* \"#utility.yul\":2656:2734   */\n      tag_60\n      jump\t// in\n    tag_117:\n        /* \"#utility.yul\":2648:2734   */\n      swap1\n      pop\n        /* \"#utility.yul\":2744:2816   */\n      tag_118\n        /* \"#utility.yul\":2812:2814   */\n      0x20\n        /* \"#utility.yul\":2801:2810   */\n      dup4\n        /* \"#utility.yul\":2797:2815   */\n      add\n        /* \"#utility.yul\":2788:2794   */\n      dup5\n        /* \"#utility.yul\":2744:2816   */\n      tag_50\n      jump\t// in\n    tag_118:\n        /* \"#utility.yul\":2400:2823   */\n      swap4\n      swap3\n      pop\n      pop\n      pop\n      jump\t// out\n        /* \"#utility.yul\":2829:3142   */\n    tag_24:\n        /* \"#utility.yul\":2942:2946   */\n      0x00\n        /* \"#utility.yul\":2980:2982   */\n      0x20\n        /* \"#utility.yul\":2969:2978   */\n      dup3\n        /* \"#utility.yul\":2965:2983   */\n      add\n        /* \"#utility.yul\":2957:2983   */\n      swap1\n      pop\n        /* \"#utility.yul\":3029:3038   */\n      dup2\n        /* \"#utility.yul\":3023:3027   */\n      dup2\n        /* \"#utility.yul\":3019:3039   */\n      sub\n        /* \"#utility.yul\":3015:3016   */\n      0x00\n        /* \"#utility.yul\":3004:3013   */\n      dup4\n        /* \"#utility.yul\":3000:3017   */\n      add\n        /* \"#utility.yul\":2993:3040   */\n      mstore\n        /* \"#utility.yul\":3057:3135   */\n      tag_120\n        /* \"#utility.yul\":3130:3134   */\n      dup2\n        /* \"#utility.yul\":3121:3127   */\n      dup5\n        /* \"#utility.yul\":3057:3135   */\n      tag_60\n      jump\t// in\n    tag_120:\n        /* \"#utility.yul\":3049:3135   */\n      swap1\n      pop\n        /* \"#utility.yul\":2829:3142   */\n      swap3\n      swap2\n      pop\n      pop\n      jump\t// out\n        /* \"#utility.yul\":3148:3265   */\n    tag_61:\n        /* \"#utility.yul\":3257:3258   */\n      0x00\n        /* \"#utility.yul\":3254:3255   */\n      dup1\n        /* \"#utility.yul\":3247:3259   */\n      revert\n        /* \"#utility.yul\":3271:3388   */\n    tag_62:\n        /* \"#utility.yul\":3380:3381   */\n      0x00\n        /* \"#utility.yul\":3377:3378   */\n      dup1\n        /* \"#utility.yul\":3370:3382   */\n      revert\n        /* \"#utility.yul\":3394:3574   */\n    tag_63:\n        /* \"#utility.yul\":3442:3519   */\n      0x4e487b7100000000000000000000000000000000000000000000000000000000\n        /* \"#utility.yul\":3439:3440   */\n      0x00\n        /* \"#utility.yul\":3432:3520   */\n      mstore\n        /* \"#utility.yul\":3539:3543   */\n      0x41\n        /* \"#utility.yul\":3536:3537   */\n      0x04\n        /* \"#utility.yul\":3529:3544   */\n      mstore\n        /* \"#utility.yul\":3563:3567   */\n      0x24\n        /* \"#utility.yul\":3560:3561   */\n      0x00\n        /* \"#utility.yul\":3553:3568   */\n      revert\n        /* \"#utility.yul\":3580:3861   */\n    tag_64:\n        /* \"#utility.yul\":3663:3690   */\n      tag_125\n        /* \"#utility.yul\":3685:3689   */\n      dup3\n        /* \"#utility.yul\":3663:3690   */\n      tag_59\n      jump\t// in\n    tag_125:\n        /* \"#utility.yul\":3655:3661   */\n      dup2\n        /* \"#utility.yul\":3651:3691   */\n      add\n        /* \"#utility.yul\":3793:3799   */\n      dup2\n        /* \"#utility.yul\":3781:3791   */\n      dup2\n        /* \"#utility.yul\":3778:3800   */\n      lt\n        /* \"#utility.yul\":3757:3775   */\n      0xffffffffffffffff\n        /* \"#utility.yul\":3745:3755   */\n      dup3\n        /* \"#utility.yul\":3742:3776   */\n      gt\n        /* \"#utility.yul\":3739:3801   */\n      or\n        /* \"#utility.yul\":3736:3824   */\n      iszero\n      tag_126\n      jumpi\n        /* \"#utility.yul\":3804:3822   */\n      tag_127\n      tag_63\n      jump\t// in\n    tag_127:\n        /* \"#utility.yul\":3736:3824   */\n    tag_126:\n        /* \"#utility.yul\":3844:3854   */\n      dup1\n        /* \"#utility.yul\":3840:3842   */\n      0x40\n        /* \"#utility.yul\":3833:3855   */\n      mstore\n        /* \"#utility.yul\":3623:3861   */\n      pop\n        /* \"#utility.yul\":3580:3861   */\n      pop\n      pop\n      jump\t// out\n        /* \"#utility.yul\":3867:3996   */\n    tag_65:\n        /* \"#utility.yul\":3901:3907   */\n      0x00\n        /* \"#utility.yul\":3928:3948   */\n      tag_129\n      tag_51\n      jump\t// in\n    tag_129:\n        /* \"#utility.yul\":3918:3948   */\n      swap1\n      pop\n        /* \"#utility.yul\":3957:3990   */\n      tag_130\n        /* \"#utility.yul\":3985:3989   */\n      dup3\n        /* \"#utility.yul\":3977:3983   */\n      dup3\n        /* \"#utility.yul\":3957:3990   */\n      tag_64\n      jump\t// in\n    tag_130:\n        /* \"#utility.yul\":3867:3996   */\n      swap2\n      swap1\n      pop\n      jump\t// out\n        /* \"#utility.yul\":4002:4310   */\n    tag_66:\n        /* \"#utility.yul\":4064:4068   */\n      0x00\n        /* \"#utility.yul\":4154:4172   */\n      0xffffffffffffffff\n        /* \"#utility.yul\":4146:4152   */\n      dup3\n        /* \"#utility.yul\":4143:4173   */\n      gt\n        /* \"#utility.yul\":4140:4196   */\n      iszero\n      tag_132\n      jumpi\n        /* \"#utility.yul\":4176:4194   */\n      tag_133\n      tag_63\n      jump\t// in\n    tag_133:\n        /* \"#utility.yul\":4140:4196   */\n    tag_132:\n        /* \"#utility.yul\":4214:4243   */\n      tag_134\n        /* \"#utility.yul\":4236:4242   */\n      dup3\n        /* \"#utility.yul\":4214:4243   */\n      tag_59\n      jump\t// in\n    tag_134:\n        /* \"#utility.yul\":4206:4243   */\n      swap1\n      pop\n        /* \"#utility.yul\":4298:4302   */\n      0x20\n        /* \"#utility.yul\":4292:4296   */\n      dup2\n        /* \"#utility.yul\":4288:4303   */\n      add\n        /* \"#utility.yul\":4280:4303   */\n      swap1\n      pop\n        /* \"#utility.yul\":4002:4310   */\n      swap2\n      swap1\n      pop\n      jump\t// out\n        /* \"#utility.yul\":4316:4462   */\n    tag_67:\n        /* \"#utility.yul\":4413:4419   */\n      dup3\n        /* \"#utility.yul\":4408:4411   */\n      dup2\n        /* \"#utility.yul\":4403:4406   */\n      dup4\n        /* \"#utility.yul\":4390:4420   */\n      calldatacopy\n        /* \"#utility.yul\":4454:4455   */\n      0x00\n        /* \"#utility.yul\":4445:4451   */\n      dup4\n        /* \"#utility.yul\":4440:4443   */\n      dup4\n        /* \"#utility.yul\":4436:4452   */\n      add\n        /* \"#utility.yul\":4429:4456   */\n      mstore\n        /* \"#utility.yul\":4316:4462   */\n      pop\n      pop\n      pop\n      jump\t// out\n        /* \"#utility.yul\":4468:4893   */\n    tag_68:\n        /* \"#utility.yul\":4546:4551   */\n      0x00\n        /* \"#utility.yul\":4571:4637   */\n      tag_137\n        /* \"#utility.yul\":4587:4636   */\n      tag_138\n        /* \"#utility.yul\":4629:4635   */\n      dup5\n        /* \"#utility.yul\":4587:4636   */\n      tag_66\n      jump\t// in\n    tag_138:\n        /* \"#utility.yul\":4571:4637   */\n      tag_65\n      jump\t// in\n    tag_137:\n        /* \"#utility.yul\":4562:4637   */\n      swap1\n      pop\n        /* \"#utility.yul\":4660:4666   */\n      dup3\n        /* \"#utility.yul\":4653:4658   */\n      dup2\n        /* \"#utility.yul\":4646:4667   */\n      mstore\n        /* \"#utility.yul\":4698:4702   */\n      0x20\n        /* \"#utility.yul\":4691:4696   */\n      dup2\n        /* \"#utility.yul\":4687:4703   */\n      add\n        /* \"#utility.yul\":4736:4739   */\n      dup5\n        /* \"#utility.yul\":4727:4733   */\n      dup5\n        /* \"#utility.yul\":4722:4725   */\n      dup5\n        /* \"#utility.yul\":4718:4734   */\n      add\n        /* \"#utility.yul\":4715:4740   */\n      gt\n        /* \"#utility.yul\":4712:4824   */\n      iszero\n      tag_139\n      jumpi\n        /* \"#utility.yul\":4743:4822   */\n      tag_140\n      tag_62\n      jump\t// in\n    tag_140:\n        /* \"#utility.yul\":4712:4824   */\n    tag_139:\n        /* \"#utility.yul\":4833:4887   */\n      tag_141\n        /* \"#utility.yul\":4880:4886   */\n      dup5\n        /* \"#utility.yul\":4875:4878   */\n      dup3\n        /* \"#utility.yul\":4870:4873   */\n      dup6\n        /* \"#utility.yul\":4833:4887   */\n      tag_67\n      jump\t// in\n    tag_141:\n        /* \"#utility.yul\":4552:4893   */\n      pop\n        /* \"#utility.yul\":4468:4893   */\n      swap4\n      swap3\n      pop\n      pop\n      pop\n      jump\t// out\n        /* \"#utility.yul\":4913:5253   */\n    tag_69:\n        /* \"#utility.yul\":4969:4974   */\n      0x00\n        /* \"#utility.yul\":5018:5021   */\n      dup3\n        /* \"#utility.yul\":5011:5015   */\n      0x1f\n        /* \"#utility.yul\":5003:5009   */\n      dup4\n        /* \"#utility.yul\":4999:5016   */\n      add\n        /* \"#utility.yul\":4995:5022   */\n      slt\n        /* \"#utility.yul\":4985:5107   */\n      tag_143\n      jumpi\n        /* \"#utility.yul\":5026:5105   */\n      tag_144\n      tag_61\n      jump\t// in\n    tag_144:\n        /* \"#utility.yul\":4985:5107   */\n    tag_143:\n        /* \"#utility.yul\":5143:5149   */\n      dup2\n        /* \"#utility.yul\":5130:5150   */\n      calldataload\n        /* \"#utility.yul\":5168:5247   */\n      tag_145\n        /* \"#utility.yul\":5243:5246   */\n      dup5\n        /* \"#utility.yul\":5235:5241   */\n      dup3\n        /* \"#utility.yul\":5228:5232   */\n      0x20\n        /* \"#utility.yul\":5220:5226   */\n      dup7\n        /* \"#utility.yul\":5216:5233   */\n      add\n        /* \"#utility.yul\":5168:5247   */\n      tag_68\n      jump\t// in\n    tag_145:\n        /* \"#utility.yul\":5159:5247   */\n      swap2\n      pop\n        /* \"#utility.yul\":4975:5253   */\n      pop\n        /* \"#utility.yul\":4913:5253   */\n      swap3\n      swap2\n      pop\n      pop\n      jump\t// out\n        /* \"#utility.yul\":5259:5913   */\n    tag_27:\n        /* \"#utility.yul\":5337:5343   */\n      0x00\n        /* \"#utility.yul\":5345:5351   */\n      dup1\n        /* \"#utility.yul\":5394:5396   */\n      0x40\n        /* \"#utility.yul\":5382:5391   */\n      dup4\n        /* \"#utility.yul\":5373:5380   */\n      dup6\n        /* \"#utility.yul\":5369:5392   */\n      sub\n        /* \"#utility.yul\":5365:5397   */\n      slt\n        /* \"#utility.yul\":5362:5481   */\n      iszero\n      tag_147\n      jumpi\n        /* \"#utility.yul\":5400:5479   */\n      tag_148\n      tag_52\n      jump\t// in\n    tag_148:\n        /* \"#utility.yul\":5362:5481   */\n    tag_147:\n        /* \"#utility.yul\":5548:5549   */\n      0x00\n        /* \"#utility.yul\":5537:5546   */\n      dup4\n        /* \"#utility.yul\":5533:5550   */\n      add\n        /* \"#utility.yul\":5520:5551   */\n      calldataload\n        /* \"#utility.yul\":5578:5596   */\n      0xffffffffffffffff\n        /* \"#utility.yul\":5570:5576   */\n      dup2\n        /* \"#utility.yul\":5567:5597   */\n      gt\n        /* \"#utility.yul\":5564:5681   */\n      iszero\n      tag_149\n      jumpi\n        /* \"#utility.yul\":5600:5679   */\n      tag_150\n      tag_53\n      jump\t// in\n    tag_150:\n        /* \"#utility.yul\":5564:5681   */\n    tag_149:\n        /* \"#utility.yul\":5705:5768   */\n      tag_151\n        /* \"#utility.yul\":5760:5767   */\n      dup6\n        /* \"#utility.yul\":5751:5757   */\n      dup3\n        /* \"#utility.yul\":5740:5749   */\n      dup7\n        /* \"#utility.yul\":5736:5758   */\n      add\n        /* \"#utility.yul\":5705:5768   */\n      tag_69\n      jump\t// in\n    tag_151:\n        /* \"#utility.yul\":5695:5768   */\n      swap3\n      pop\n        /* \"#utility.yul\":5491:5778   */\n      pop\n        /* \"#utility.yul\":5817:5819   */\n      0x20\n        /* \"#utility.yul\":5843:5896   */\n      tag_152\n        /* \"#utility.yul\":5888:5895   */\n      dup6\n        /* \"#utility.yul\":5879:5885   */\n      dup3\n        /* \"#utility.yul\":5868:5877   */\n      dup7\n        /* \"#utility.yul\":5864:5886   */\n      add\n        /* \"#utility.yul\":5843:5896   */\n      tag_55\n      jump\t// in\n    tag_152:\n        /* \"#utility.yul\":5833:5896   */\n      swap2\n      pop\n        /* \"#utility.yul\":5788:5906   */\n      pop\n        /* \"#utility.yul\":5259:5913   */\n      swap3\n      pop\n      swap3\n      swap1\n      pop\n      jump\t// out\n        /* \"#utility.yul\":5919:6099   */\n    tag_70:\n        /* \"#utility.yul\":5967:6044   */\n      0x4e487b7100000000000000000000000000000000000000000000000000000000\n        /* \"#utility.yul\":5964:5965   */\n      0x00\n        /* \"#utility.yul\":5957:6045   */\n      mstore\n        /* \"#utility.yul\":6064:6068   */\n      0x22\n        /* \"#utility.yul\":6061:6062   */\n      0x04\n        /* \"#utility.yul\":6054:6069   */\n      mstore\n        /* \"#utility.yul\":6088:6092   */\n      0x24\n        /* \"#utility.yul\":6085:6086   */\n      0x00\n        /* \"#utility.yul\":6078:6093   */\n      revert\n        /* \"#utility.yul\":6105:6425   */\n    tag_32:\n        /* \"#utility.yul\":6149:6155   */\n      0x00\n        /* \"#utility.yul\":6186:6187   */\n      0x02\n        /* \"#utility.yul\":6180:6184   */\n      dup3\n        /* \"#utility.yul\":6176:6188   */\n      div\n        /* \"#utility.yul\":6166:6188   */\n      swap1\n      pop\n        /* \"#utility.yul\":6233:6234   */\n      0x01\n        /* \"#utility.yul\":6227:6231   */\n      dup3\n        /* \"#utility.yul\":6223:6235   */\n      and\n        /* \"#utility.yul\":6254:6272   */\n      dup1\n        /* \"#utility.yul\":6244:6325   */\n      tag_155\n      jumpi\n        /* \"#utility.yul\":6310:6314   */\n      0x7f\n        /* \"#utility.yul\":6302:6308   */\n      dup3\n        /* \"#utility.yul\":6298:6315   */\n      and\n        /* \"#utility.yul\":6288:6315   */\n      swap2\n      pop\n        /* \"#utility.yul\":6244:6325   */\n    tag_155:\n        /* \"#utility.yul\":6372:6374   */\n      0x20\n        /* \"#utility.yul\":6364:6370   */\n      dup3\n        /* \"#utility.yul\":6361:6375   */\n      lt\n        /* \"#utility.yul\":6341:6359   */\n      dup2\n        /* \"#utility.yul\":6338:6376   */\n      sub\n        /* \"#utility.yul\":6335:6419   */\n      tag_156\n      jumpi\n        /* \"#utility.yul\":6391:6409   */\n      tag_157\n      tag_70\n      jump\t// in\n    tag_157:\n        /* \"#utility.yul\":6335:6419   */\n    tag_156:\n        /* \"#utility.yul\":6156:6425   */\n      pop\n        /* \"#utility.yul\":6105:6425   */\n      swap2\n      swap1\n      pop\n      jump\t// out\n        /* \"#utility.yul\":6431:6572   */\n    tag_71:\n        /* \"#utility.yul\":6480:6484   */\n      0x00\n        /* \"#utility.yul\":6503:6506   */\n      dup2\n        /* \"#utility.yul\":6495:6506   */\n      swap1\n      pop\n        /* \"#utility.yul\":6526:6529   */\n      dup2\n        /* \"#utility.yul\":6523:6524   */\n      0x00\n        /* \"#utility.yul\":6516:6530   */\n      mstore\n        /* \"#utility.yul\":6560:6564   */\n      0x20\n        /* \"#utility.yul\":6557:6558   */\n      0x00\n        /* \"#utility.yul\":6547:6565   */\n      keccak256\n        /* \"#utility.yul\":6539:6565   */\n      swap1\n      pop\n        /* \"#utility.yul\":6431:6572   */\n      swap2\n      swap1\n      pop\n      jump\t// out\n        /* \"#utility.yul\":6578:6671   */\n    tag_72:\n        /* \"#utility.yul\":6615:6621   */\n      0x00\n        /* \"#utility.yul\":6662:6664   */\n      0x20\n        /* \"#utility.yul\":6657:6659   */\n      0x1f\n        /* \"#utility.yul\":6650:6655   */\n      dup4\n        /* \"#utility.yul\":6646:6660   */\n      add\n        /* \"#utility.yul\":6642:6665   */\n      div\n        /* \"#utility.yul\":6632:6665   */\n      swap1\n      pop\n        /* \"#utility.yul\":6578:6671   */\n      swap2\n      swap1\n      pop\n      jump\t// out\n        /* \"#utility.yul\":6677:6784   */\n    tag_73:\n        /* \"#utility.yul\":6721:6729   */\n      0x00\n        /* \"#utility.yul\":6771:6776   */\n      dup3\n        /* \"#utility.yul\":6765:6769   */\n      dup3\n        /* \"#utility.yul\":6761:6777   */\n      shl\n        /* \"#utility.yul\":6740:6777   */\n      swap1\n      pop\n        /* \"#utility.yul\":6677:6784   */\n      swap3\n      swap2\n      pop\n      pop\n      jump\t// out\n        /* \"#utility.yul\":6790:7183   */\n    tag_74:\n        /* \"#utility.yul\":6859:6865   */\n      0x00\n        /* \"#utility.yul\":6909:6910   */\n      0x08\n        /* \"#utility.yul\":6897:6907   */\n      dup4\n        /* \"#utility.yul\":6893:6911   */\n      mul\n        /* \"#utility.yul\":6932:7029   */\n      tag_162\n        /* \"#utility.yul\":6962:7028   */\n      0xffffffffffffffffffffffffffffffffffffffffffffffffffffffffffffffff\n        /* \"#utility.yul\":6951:6960   */\n      dup3\n        /* \"#utility.yul\":6932:7029   */\n      tag_73\n      jump\t// in\n    tag_162:\n        /* \"#utility.yul\":7050:7089   */\n      tag_163\n        /* \"#utility.yul\":7080:7088   */\n      dup7\n        /* \"#utility.yul\":7069:7078   */\n      dup4\n        /* \"#utility.yul\":7050:7089   */\n      tag_73\n      jump\t// in\n    tag_163:\n        /* \"#utility.yul\":7038:7089   */\n      swap6\n      pop\n        /* \"#utility.yul\":7122:7126   */\n      dup1\n        /* \"#utility.yul\":7118:7127   */\n      not\n        /* \"#utility.yul\":7111:7116   */\n      dup5\n        /* \"#utility.yul\":7107:7128   */\n      and\n        /* \"#utility.yul\":7098:7128   */\n      swap4\n      pop\n        /* \"#utility.yul\":7171:7175   */\n      dup1\n        /* \"#utility.yul\":7161:7169   */\n      dup7\n        /* \"#utility.yul\":7157:7176   */\n      and\n        /* \"#utility.yul\":7150:7155   */\n      dup5\n        /* \"#utility.yul\":7147:7177   */\n      or\n        /* \"#utility.yul\":7137:7177   */\n      swap3\n      pop\n        /* \"#utility.yul\":6866:7183   */\n      pop\n      pop\n        /* \"#utility.yul\":6790:7183   */\n      swap4\n      swap3\n      pop\n      pop\n      pop\n      jump\t// out\n        /* \"#utility.yul\":7189:7249   */\n    tag_75:\n        /* \"#utility.yul\":7217:7220   */\n      0x00\n        /* \"#utility.yul\":7238:7243   */\n      dup2\n        /* \"#utility.yul\":7231:7243   */\n      swap1\n      pop\n        /* \"#utility.yul\":7189:7249   */\n      swap2\n      swap1\n      pop\n      jump\t// out\n        /* \"#utility.yul\":7255:7397   */\n    tag_76:\n        /* \"#utility.yul\":7305:7314   */\n      0x00\n        /* \"#utility.yul\":7338:7391   */\n      tag_166\n        /* \"#utility.yul\":7356:7390   */\n      tag_167\n        /* \"#utility.yul\":7365:7389   */\n      tag_168\n        /* \"#utility.yul\":7383:7388   */\n      dup5\n        /* \"#utility.yul\":7365:7389   */\n      tag_49\n      jump\t// in\n    tag_168:\n        /* \"#utility.yul\":7356:7390   */\n      tag_75\n      jump\t// in\n    tag_167:\n        /* \"#utility.yul\":7338:7391   */\n      tag_49\n      jump\t// in\n    tag_166:\n        /* \"#utility.yul\":7325:7391   */\n      swap1\n      pop\n        /* \"#utility.yul\":7255:7397   */\n      swap2\n      swap1\n      pop\n      jump\t// out\n        /* \"#utility.yul\":7403:7478   */\n    tag_77:\n        /* \"#utility.yul\":7446:7449   */\n      0x00\n        /* \"#utility.yul\":7467:7472   */\n      dup2\n        /* \"#utility.yul\":7460:7472   */\n      swap1\n      pop\n        /* \"#utility.yul\":7403:7478   */\n      swap2\n      swap1\n      pop\n      jump\t// out\n        /* \"#utility.yul\":7484:7753   */\n    tag_78:\n        /* \"#utility.yul\":7594:7633   */\n      tag_171\n        /* \"#utility.yul\":7625:7632   */\n      dup4\n        /* \"#utility.yul\":7594:7633   */\n      tag_76\n      jump\t// in\n    tag_171:\n        /* \"#utility.yul\":7655:7746   */\n      tag_172\n        /* \"#utility.yul\":7704:7745   */\n      tag_173\n        /* \"#utility.yul\":7728:7744   */\n      dup3\n        /* \"#utility.yul\":7704:7745   */\n      tag_77\n      jump\t// in\n    tag_173:\n        /* \"#utility.yul\":7696:7702   */\n      dup5\n        /* \"#utility.yul\":7689:7693   */\n      dup5\n        /* \"#utility.yul\":7683:7694   */\n      sload\n        /* \"#utility.yul\":7655:7746   */\n      tag_74\n      jump\t// in\n    tag_172:\n        /* \"#utility.yul\":7649:7653   */\n      dup3\n        /* \"#utility.yul\":7642:7747   */\n      sstore\n        /* \"#utility.yul\":7560:7753   */\n      pop\n        /* \"#utility.yul\":7484:7753   */\n      pop\n      pop\n      pop\n      jump\t// out\n        /* \"#utility.yul\":7759:7832   */\n    tag_79:\n        /* \"#utility.yul\":7804:7807   */\n      0x00\n        /* \"#utility.yul\":7759:7832   */\n      swap1\n      jump\t// out\n        /* \"#utility.yul\":7838:8027   */\n    tag_80:\n        /* \"#utility.yul\":7915:7947   */\n      tag_176\n      tag_79\n      jump\t// in\n    tag_176:\n        /* \"#utility.yul\":7956:8021   */\n      tag_177\n        /* \"#utility.yul\":8014:8020   */\n      dup2\n        /* \"#utility.yul\":8006:8012   */\n      dup5\n        /* \"#utility.yul\":8000:8004   */\n      dup5\n        /* \"#utility.yul\":7956:8021   */\n      tag_78\n      jump\t// in\n    tag_177:\n        /* \"#utility.yul\":7891:8027   */\n      pop\n        /* \"#utility.yul\":7838:8027   */\n      pop\n      pop\n      jump\t// out\n        /* \"#utility.yul\":8033:8219   */\n    tag_81:\n        /* \"#utility.yul\":8093:8213   */\n    tag_179:\n        /* \"#utility.yul\":8110:8113   */\n      dup2\n        /* \"#utility.yul\":8103:8108   */\n      dup2\n        /* \"#utility.yul\":8100:8114   */\n      lt\n        /* \"#utility.yul\":8093:8213   */\n      iszero\n      tag_181\n      jumpi\n        /* \"#utility.yul\":8164:8203   */\n      tag_182\n        /* \"#utility.yul\":8201:8202   */\n      0x00\n        /* \"#utility.yul\":8194:8199   */\n      dup3\n        /* \"#utility.yul\":8164:8203   */\n      tag_80\n      jump\t// in\n    tag_182:\n        /* \"#utility.yul\":8137:8138   */\n      0x01\n        /* \"#utility.yul\":8130:8135   */\n      dup2\n        /* \"#utility.yul\":8126:8139   */\n      add\n        /* \"#utility.yul\":8117:8139   */\n      swap1\n      pop\n        /* \"#utility.yul\":8093:8213   */\n      jump(tag_179)\n    tag_181:\n        /* \"#utility.yul\":8033:8219   */\n      pop\n      pop\n      jump\t// out\n        /* \"#utility.yul\":8225:8768   */\n    tag_82:\n        /* \"#utility.yul\":8326:8328   */\n      0x1f\n        /* \"#utility.yul\":8321:8324   */\n      dup3\n        /* \"#utility.yul\":8318:8329   */\n      gt\n        /* \"#utility.yul\":8315:8761   */\n      iszero\n      tag_184\n      jumpi\n        /* \"#utility.yul\":8360:8398   */\n      tag_185\n        /* \"#utility.yul\":8392:8397   */\n      dup2\n        /* \"#utility.yul\":8360:8398   */\n      tag_71\n      jump\t// in\n    tag_185:\n        /* \"#utility.yul\":8444:8473   */\n      tag_186\n        /* \"#utility.yul\":8462:8472   */\n      dup5\n        /* \"#utility.yul\":8444:8473   */\n      tag_72\n      jump\t// in\n    tag_186:\n        /* \"#utility.yul\":8434:8442   */\n      dup2\n        /* \"#utility.yul\":8430:8474   */\n      add\n        /* \"#utility.yul\":8627:8629   */\n      0x20\n        /* \"#utility.yul\":8615:8625   */\n      dup6\n        /* \"#utility.yul\":8612:8630   */\n      lt\n        /* \"#utility.yul\":8609:8658   */\n      iszero\n      tag_187\n      jumpi\n        /* \"#utility.yul\":8648:8656   */\n      dup2\n        /* \"#utility.yul\":8633:8656   */\n      swap1\n      pop\n        /* \"#utility.yul\":8609:8658   */\n    tag_187:\n        /* \"#utility.yul\":8671:8751   */\n      tag_188\n        /* \"#utility.yul\":8727:8749   */\n      tag_189\n        /* \"#utility.yul\":8745:8748   */\n      dup6\n        /* \"#utility.yul\":8727:8749   */\n      tag_72\n      jump\t// in\n    tag_189:\n        /* \"#utility.yul\":8717:8725   */\n      dup4\n        /* \"#utility.yul\":8713:8750   */\n      add\n        /* \"#utility.yul\":8700:8711   */\n      dup3\n        /* \"#utility.yul\":8671:8751   */\n      tag_81\n      jump\t// in\n    tag_188:\n        /* \"#utility.yul\":8330:8761   */\n      pop\n      pop\n        /* \"#utility.yul\":8315:8761   */\n    tag_184:\n        /* \"#utility.yul\":8225:8768   */\n      pop\n      pop\n      pop\n      jump\t// out\n        /* \"#utility.yul\":8774:8891   */\n    tag_83:\n        /* \"#utility.yul\":8828:8836   */\n      0x00\n        /* \"#utility.yul\":8878:8883   */\n      dup3\n        /* \"#utility.yul\":8872:8876   */\n      dup3\n        /* \"#utility.yul\":8868:8884   */\n      shr\n        /* \"#utility.yul\":8847:8884   */\n      swap1\n      pop\n        /* \"#utility.yul\":8774:8891   */\n      swap3\n      swap2\n      pop\n      pop\n      jump\t// out\n        /* \"#utility.yul\":8897:9066   */\n    tag_84:\n        /* \"#utility.yul\":8941:8947   */\n      0x00\n        /* \"#utility.yul\":8974:9025   */\n      tag_192\n        /* \"#utility.yul\":9022:9023   */\n      0x00\n        /* \"#utility.yul\":9018:9024   */\n      not\n        /* \"#utility.yul\":9010:9015   */\n      dup5\n        /* \"#utility.yul\":9007:9008   */\n      0x08\n        /* \"#utility.yul\":9003:9016   */\n      mul\n        /* \"#utility.yul\":8974:9025   */\n      tag_83\n      jump\t// in\n    tag_192:\n        /* \"#utility.yul\":8970:9026   */\n      not\n        /* \"#utility.yul\":9055:9059   */\n      dup1\n        /* \"#utility.yul\":9049:9053   */\n      dup4\n        /* \"#utility.yul\":9045:9060   */\n      and\n        /* \"#utility.yul\":9035:9060   */\n      swap2\n      pop\n        /* \"#utility.yul\":8948:9066   */\n      pop\n        /* \"#utility.yul\":8897:9066   */\n      swap3\n      swap2\n      pop\n      pop\n      jump\t// out\n        /* \"#utility.yul\":9071:9366   */\n    tag_85:\n        /* \"#utility.yul\":9147:9151   */\n      0x00\n        /* \"#utility.yul\":9293:9322   */\n      tag_194\n        /* \"#utility.yul\":9318:9321   */\n      dup4\n        /* \"#utility.yul\":9312:9316   */\n      dup4\n        /* \"#utility.yul\":9293:9322   */\n      tag_84\n      jump\t// in\n    tag_194:\n        /* \"#utility.yul\":9285:9322   */\n      swap2\n      pop\n        /* \"#utility.yul\":9355:9358   */\n      dup3\n        /* \"#utility.yul\":9352:9353   */\n      0x02\n        /* \"#utility.yul\":9348:9359   */\n      mul\n        /* \"#utility.yul\":9342:9346   */\n      dup3\n        /* \"#utility.yul\":9339:9360   */\n      or\n        /* \"#utility.yul\":9331:9360   */\n      swap1\n      pop\n        /* \"#utility.yul\":9071:9366   */\n      swap3\n      swap2\n      pop\n      pop\n      jump\t// out\n        /* \"#utility.yul\":9371:10766   */\n    tag_46:\n        /* \"#utility.yul\":9488:9525   */\n      tag_196\n        /* \"#utility.yul\":9521:9524   */\n      dup3\n        /* \"#utility.yul\":9488:9525   */\n      tag_56\n      jump\t// in\n    tag_196:\n        /* \"#utility.yul\":9590:9608   */\n      0xffffffffffffffff\n        /* \"#utility.yul\":9582:9588   */\n      dup2\n        /* \"#utility.yul\":9579:9609   */\n      gt\n        /* \"#utility.yul\":9576:9632   */\n      iszero\n      tag_197\n      jumpi\n        /* \"#utility.yul\":9612:9630   */\n      tag_198\n      tag_63\n      jump\t// in\n    tag_198:\n        /* \"#utility.yul\":9576:9632   */\n    tag_197:\n        /* \"#utility.yul\":9656:9694   */\n      tag_199\n        /* \"#utility.yul\":9688:9692   */\n      dup3\n        /* \"#utility.yul\":9682:9693   */\n      sload\n        /* \"#utility.yul\":9656:9694   */\n      tag_32\n      jump\t// in\n    tag_199:\n        /* \"#utility.yul\":9741:9808   */\n      tag_200\n        /* \"#utility.yul\":9801:9807   */\n      dup3\n        /* \"#utility.yul\":9793:9799   */\n      dup3\n        /* \"#utility.yul\":9787:9791   */\n      dup6\n        /* \"#utility.yul\":9741:9808   */\n      tag_82\n      jump\t// in\n    tag_200:\n        /* \"#utility.yul\":9835:9836   */\n      0x00\n        /* \"#utility.yul\":9859:9863   */\n      0x20\n        /* \"#utility.yul\":9846:9863   */\n      swap1\n      pop\n        /* \"#utility.yul\":9891:9893   */\n      0x1f\n        /* \"#utility.yul\":9883:9889   */\n      dup4\n        /* \"#utility.yul\":9880:9894   */\n      gt\n        /* \"#utility.yul\":9908:9909   */\n      0x01\n        /* \"#utility.yul\":9903:10521   */\n      dup2\n      eq\n      tag_202\n      jumpi\n        /* \"#utility.yul\":10565:10566   */\n      0x00\n        /* \"#utility.yul\":10582:10588   */\n      dup5\n        /* \"#utility.yul\":10579:10656   */\n      iszero\n      tag_203\n      jumpi\n        /* \"#utility.yul\":10631:10640   */\n      dup3\n        /* \"#utility.yul\":10626:10629   */\n      dup8\n        /* \"#utility.yul\":10622:10641   */\n      add\n        /* \"#utility.yul\":10616:10642   */\n      mload\n        /* \"#utility.yul\":10607:10642   */\n      swap1\n      pop\n        /* \"#utility.yul\":10579:10656   */\n    tag_203:\n        /* \"#utility.yul\":10682:10749   */\n      tag_204\n        /* \"#utility.yul\":10742:10748   */\n      dup6\n        /* \"#utility.yul\":10735:10740   */\n      dup3\n        /* \"#utility.yul\":10682:10749   */\n      tag_85\n      jump\t// in\n    tag_204:\n        /* \"#utility.yul\":10676:10680   */\n      dup7\n        /* \"#utility.yul\":10669:10750   */\n      sstore\n        /* \"#utility.yul\":10538:10760   */\n      pop\n        /* \"#utility.yul\":9873:10760   */\n      jump(tag_201)\n        /* \"#utility.yul\":9903:10521   */\n    tag_202:\n        /* \"#utility.yul\":9955:9959   */\n      0x1f\n        /* \"#utility.yul\":9951:9960   */\n      not\n        /* \"#utility.yul\":9943:9949   */\n      dup5\n        /* \"#utility.yul\":9939:9961   */\n      and\n        /* \"#utility.yul\":9989:10026   */\n      tag_205\n        /* \"#utility.yul\":10021:10025   */\n      dup7\n        /* \"#utility.yul\":9989:10026   */\n      tag_71\n      jump\t// in\n    tag_205:\n        /* \"#utility.yul\":10048:10049   */\n      0x00\n        /* \"#utility.yul\":10062:10270   */\n    tag_206:\n        /* \"#utility.yul\":10076:10083   */\n      dup3\n        /* \"#utility.yul\":10073:10074   */\n      dup2\n        /* \"#utility.yul\":10070:10084   */\n      lt\n        /* \"#utility.yul\":10062:10270   */\n      iszero\n      tag_208\n      jumpi\n        /* \"#utility.yul\":10155:10164   */\n      dup5\n        /* \"#utility.yul\":10150:10153   */\n      dup10\n        /* \"#utility.yul\":10146:10165   */\n      add\n        /* \"#utility.yul\":10140:10166   */\n      mload\n        /* \"#utility.yul\":10132:10138   */\n      dup3\n        /* \"#utility.yul\":10125:10167   */\n      sstore\n        /* \"#utility.yul\":10206:10207   */\n      0x01\n        /* \"#utility.yul\":10198:10204   */\n      dup3\n        /* \"#utility.yul\":10194:10208   */\n      add\n        /* \"#utility.yul\":10184:10208   */\n      swap2\n      pop\n        /* \"#utility.yul\":10253:10255   */\n      0x20\n        /* \"#utility.yul\":10242:10251   */\n      dup6\n        /* \"#utility.yul\":10238:10256   */\n      add\n        /* \"#utility.yul\":10225:10256   */\n      swap5\n      pop\n        /* \"#utility.yul\":10099:10103   */\n      0x20\n        /* \"#utility.yul\":10096:10097   */\n      dup2\n        /* \"#utility.yul\":10092:10104   */\n      add\n        /* \"#utility.yul\":10087:10104   */\n      swap1\n      pop\n        /* \"#utility.yul\":10062:10270   */\n      jump(tag_206)\n    tag_208:\n        /* \"#utility.yul\":10298:10304   */\n      dup7\n        /* \"#utility.yul\":10289:10296   */\n      dup4\n        /* \"#utility.yul\":10286:10305   */\n      lt\n        /* \"#utility.yul\":10283:10462   */\n      iszero\n      tag_209\n      jumpi\n        /* \"#utility.yul\":10356:10365   */\n      dup5\n        /* \"#utility.yul\":10351:10354   */\n      dup10\n        /* \"#utility.yul\":10347:10366   */\n      add\n        /* \"#utility.yul\":10341:10367   */\n      mload\n        /* \"#utility.yul\":10399:10447   */\n      tag_210\n        /* \"#utility.yul\":10441:10445   */\n      0x1f\n        /* \"#utility.yul\":10433:10439   */\n      dup10\n        /* \"#utility.yul\":10429:10446   */\n      and\n        /* \"#utility.yul\":10418:10427   */\n      dup3\n        /* \"#utility.yul\":10399:10447   */\n      tag_84\n      jump\t// in\n    tag_210:\n        /* \"#utility.yul\":10391:10397   */\n      dup4\n        /* \"#utility.yul\":10384:10448   */\n      sstore\n        /* \"#utility.yul\":10306:10462   */\n      pop\n        /* \"#utility.yul\":10283:10462   */\n    tag_209:\n        /* \"#utility.yul\":10508:10509   */\n      0x01\n        /* \"#utility.yul\":10504:10505   */\n      0x02\n        /* \"#utility.yul\":10496:10502   */\n      dup9\n        /* \"#utility.yul\":10492:10506   */\n      mul\n        /* \"#utility.yul\":10488:10510   */\n      add\n        /* \"#utility.yul\":10482:10486   */\n      dup9\n        /* \"#utility.yul\":10475:10511   */\n      sstore\n        /* \"#utility.yul\":9910:10521   */\n      pop\n      pop\n      pop\n        /* \"#utility.yul\":9873:10760   */\n    tag_201:\n      pop\n        /* \"#utility.yul\":9463:10766   */\n      pop\n      pop\n      pop\n        /* \"#utility.yul\":9371:10766   */\n      pop\n      pop\n      jump\t// out\n\n    auxdata: 0xa26469706673582212206e657e61891292e5edc1a74ce3cdd8a69254cc4296292bdb623473edf58bf53c64736f6c63430008120033\n}\n",
				"bytecode": {
					"linkReferences": {},
					"object": "60806040526064600055606460015560196002556040518060400160405280600d81526020017f57686174277320757020646f670000000000000000000000000000000000000081525060099081620000599190620002e8565b503480156200006757600080fd5b50620003cf565b600081519050919050565b7f4e487b7100000000000000000000000000000000000000000000000000000000600052604160045260246000fd5b7f4e487b7100000000000000000000000000000000000000000000000000000000600052602260045260246000fd5b60006002820490506001821680620000f057607f821691505b602082108103620001065762000105620000a8565b5b50919050565b60008190508160005260206000209050919050565b60006020601f8301049050919050565b600082821b905092915050565b600060088302620001707fffffffffffffffffffffffffffffffffffffffffffffffffffffffffffffffff8262000131565b6200017c868362000131565b95508019841693508086168417925050509392505050565b6000819050919050565b6000819050919050565b6000620001c9620001c3620001bd8462000194565b6200019e565b62000194565b9050919050565b6000819050919050565b620001e583620001a8565b620001fd620001f482620001d0565b8484546200013e565b825550505050565b600090565b6200021462000205565b62000221818484620001da565b505050565b5b8181101562000249576200023d6000826200020a565b60018101905062000227565b5050565b601f821115620002985762000262816200010c565b6200026d8462000121565b810160208510156200027d578190505b620002956200028c8562000121565b83018262000226565b50505b505050565b600082821c905092915050565b6000620002bd600019846008026200029d565b1980831691505092915050565b6000620002d88383620002aa565b9150826002028217905092915050565b620002f3826200006e565b67ffffffffffffffff8111156200030f576200030e62000079565b5b6200031b8254620000d7565b620003288282856200024d565b600060209050601f8311600181146200036057600084156200034b578287015190505b620003578582620002ca565b865550620003c7565b601f19841662000370866200010c565b60005b828110156200039a5784890151825560018201915060208501945060208101905062000373565b86831015620003ba5784890151620003b6601f891682620002aa565b8355505b6001600288020188555050505b505050505050565b61098980620003df6000396000f3fe608060405234801561001057600080fd5b50600436106100575760003560e01c80630c55699c1461005c5780632052465e1461007a57806353c90ad3146100ab578063ef5fb05b146100c9578063f8d4953d146100e7575b600080fd5b610064610103565b604051610071919061037a565b60405180910390f35b610094600480360381019061008f91906103d5565b610109565b6040516100a2929190610492565b60405180910390f35b6100b36101c5565b6040516100c0919061037a565b60405180910390f35b6100d16101cb565b6040516100de91906104c2565b60405180910390f35b61010160048036038101906100fc9190610619565b61025d565b005b60025481565b6003818154811061011957600080fd5b906000526020600020906002020160009150905080600001805461013c906106a4565b80601f0160208091040260200160405190810160405280929190818152602001828054610168906106a4565b80156101b55780601f1061018a576101008083540402835291602001916101b5565b820191906000526020600020905b81548152906001019060200180831161019857829003601f168201915b5050505050908060010154905082565b60015481565b6060600980546101da906106a4565b80601f0160208091040260200160405190810160405280929190818152602001828054610206906106a4565b80156102535780601f1061022857610100808354040283529160200191610253565b820191906000526020600020905b81548152906001019060200180831161023657829003601f168201915b5050505050905090565b60006040518060400160405280848152602001838152509050600381908060018154018082558091505060019003906000526020600020906002020160009091909190915060008201518160000190816102b79190610881565b50602082015181600101555050600360405180604001604052806040518060400160405280600781526020017f566974616c696b00000000000000000000000000000000000000000000000000815250815260200160108152509080600181540180825580915050600190039060005260206000209060020201600090919091909150600082015181600001908161034f9190610881565b50602082015181600101555050505050565b6000819050919050565b61037481610361565b82525050565b600060208201905061038f600083018461036b565b92915050565b6000604051905090565b600080fd5b600080fd5b6103b281610361565b81146103bd57600080fd5b50565b6000813590506103cf816103a9565b92915050565b6000602082840312156103eb576103ea61039f565b5b60006103f9848285016103c0565b91505092915050565b600081519050919050565b600082825260208201905092915050565b60005b8381101561043c578082015181840152602081019050610421565b60008484015250505050565b6000601f19601f8301169050919050565b600061046482610402565b61046e818561040d565b935061047e81856020860161041e565b61048781610448565b840191505092915050565b600060408201905081810360008301526104ac8185610459565b90506104bb602083018461036b565b9392505050565b600060208201905081810360008301526104dc8184610459565b905092915050565b600080fd5b600080fd5b7f4e487b7100000000000000000000000000000000000000000000000000000000600052604160045260246000fd5b61052682610448565b810181811067ffffffffffffffff82111715610545576105446104ee565b5b80604052505050565b6000610558610395565b9050610564828261051d565b919050565b600067ffffffffffffffff821115610584576105836104ee565b5b61058d82610448565b9050602081019050919050565b82818337600083830152505050565b60006105bc6105b784610569565b61054e565b9050828152602081018484840111156105d8576105d76104e9565b5b6105e384828561059a565b509392505050565b600082601f830112610600576105ff6104e4565b5b81356106108482602086016105a9565b91505092915050565b600080604083850312156106305761062f61039f565b5b600083013567ffffffffffffffff81111561064e5761064d6103a4565b5b61065a858286016105eb565b925050602061066b858286016103c0565b9150509250929050565b7f4e487b7100000000000000000000000000000000000000000000000000000000600052602260045260246000fd5b600060028204905060018216806106bc57607f821691505b6020821081036106cf576106ce610675565b5b50919050565b60008190508160005260206000209050919050565b60006020601f8301049050919050565b600082821b905092915050565b6000600883026107377fffffffffffffffffffffffffffffffffffffffffffffffffffffffffffffffff826106fa565b61074186836106fa565b95508019841693508086168417925050509392505050565b6000819050919050565b600061077e61077961077484610361565b610759565b610361565b9050919050565b6000819050919050565b61079883610763565b6107ac6107a482610785565b848454610707565b825550505050565b600090565b6107c16107b4565b6107cc81848461078f565b505050565b5b818110156107f0576107e56000826107b9565b6001810190506107d2565b5050565b601f82111561083557610806816106d5565b61080f846106ea565b8101602085101561081e578190505b61083261082a856106ea565b8301826107d1565b50505b505050565b600082821c905092915050565b60006108586000198460080261083a565b1980831691505092915050565b60006108718383610847565b9150826002028217905092915050565b61088a82610402565b67ffffffffffffffff8111156108a3576108a26104ee565b5b6108ad82546106a4565b6108b88282856107f4565b600060209050601f8311600181146108eb57600084156108d9578287015190505b6108e38582610865565b86555061094b565b601f1984166108f9866106d5565b60005b82811015610921578489015182556001820191506020850194506020810190506108fc565b8683101561093e578489015161093a601f891682610847565b8355505b6001600288020188555050505b50505050505056fea26469706673582212206e657e61891292e5edc1a74ce3cdd8a69254cc4296292bdb623473edf58bf53c64736f6c63430008120033",
					"opcodes": "PUSH1 0x80 PUSH1 0x40 MSTORE PUSH1 0x64 PUSH1 0x0 SSTORE PUSH1 0x64 PUSH1 0x1 SSTORE PUSH1 0x19 PUSH1 0x2 SSTORE PUSH1 0x40 MLOAD DUP1 PUSH1 0x40 ADD PUSH1 0x40 MSTORE DUP1 PUSH1 0xD DUP2 MSTORE PUSH1 0x20 ADD PUSH32 0x57686174277320757020646F6700000000000000000000000000000000000000 DUP2 MSTORE POP PUSH1 0x9 SWAP1 DUP2 PUSH3 0x59 SWAP2 SWAP1 PUSH3 0x2E8 JUMP JUMPDEST POP CALLVALUE DUP1 ISZERO PUSH3 0x67 JUMPI PUSH1 0x0 DUP1 REVERT JUMPDEST POP PUSH3 0x3CF JUMP JUMPDEST PUSH1 0x0 DUP2 MLOAD SWAP1 POP SWAP2 SWAP1 POP JUMP JUMPDEST PUSH32 0x4E487B7100000000000000000000000000000000000000000000000000000000 PUSH1 0x0 MSTORE PUSH1 0x41 PUSH1 0x4 MSTORE PUSH1 0x24 PUSH1 0x0 REVERT JUMPDEST PUSH32 0x4E487B7100000000000000000000000000000000000000000000000000000000 PUSH1 0x0 MSTORE PUSH1 0x22 PUSH1 0x4 MSTORE PUSH1 0x24 PUSH1 0x0 REVERT JUMPDEST PUSH1 0x0 PUSH1 0x2 DUP3 DIV SWAP1 POP PUSH1 0x1 DUP3 AND DUP1 PUSH3 0xF0 JUMPI PUSH1 0x7F DUP3 AND SWAP2 POP JUMPDEST PUSH1 0x20 DUP3 LT DUP2 SUB PUSH3 0x106 JUMPI PUSH3 0x105 PUSH3 0xA8 JUMP JUMPDEST JUMPDEST POP SWAP2 SWAP1 POP JUMP JUMPDEST PUSH1 0x0 DUP2 SWAP1 POP DUP2 PUSH1 0x0 MSTORE PUSH1 0x20 PUSH1 0x0 KECCAK256 SWAP1 POP SWAP2 SWAP1 POP JUMP JUMPDEST PUSH1 0x0 PUSH1 0x20 PUSH1 0x1F DUP4 ADD DIV SWAP1 POP SWAP2 SWAP1 POP JUMP JUMPDEST PUSH1 0x0 DUP3 DUP3 SHL SWAP1 POP SWAP3 SWAP2 POP POP JUMP JUMPDEST PUSH1 0x0 PUSH1 0x8 DUP4 MUL PUSH3 0x170 PUSH32 0xFFFFFFFFFFFFFFFFFFFFFFFFFFFFFFFFFFFFFFFFFFFFFFFFFFFFFFFFFFFFFFFF DUP3 PUSH3 0x131 JUMP JUMPDEST PUSH3 0x17C DUP7 DUP4 PUSH3 0x131 JUMP JUMPDEST SWAP6 POP DUP1 NOT DUP5 AND SWAP4 POP DUP1 DUP7 AND DUP5 OR SWAP3 POP POP POP SWAP4 SWAP3 POP POP POP JUMP JUMPDEST PUSH1 0x0 DUP2 SWAP1 POP SWAP2 SWAP1 POP JUMP JUMPDEST PUSH1 0x0 DUP2 SWAP1 POP SWAP2 SWAP1 POP JUMP JUMPDEST PUSH1 0x0 PUSH3 0x1C9 PUSH3 0x1C3 PUSH3 0x1BD DUP5 PUSH3 0x194 JUMP JUMPDEST PUSH3 0x19E JUMP JUMPDEST PUSH3 0x194 JUMP JUMPDEST SWAP1 POP SWAP2 SWAP1 POP JUMP JUMPDEST PUSH1 0x0 DUP2 SWAP1 POP SWAP2 SWAP1 POP JUMP JUMPDEST PUSH3 0x1E5 DUP4 PUSH3 0x1A8 JUMP JUMPDEST PUSH3 0x1FD PUSH3 0x1F4 DUP3 PUSH3 0x1D0 JUMP JUMPDEST DUP5 DUP5 SLOAD PUSH3 0x13E JUMP JUMPDEST DUP3 SSTORE POP POP POP POP JUMP JUMPDEST PUSH1 0x0 SWAP1 JUMP JUMPDEST PUSH3 0x214 PUSH3 0x205 JUMP JUMPDEST PUSH3 0x221 DUP2 DUP5 DUP5 PUSH3 0x1DA JUMP JUMPDEST POP POP POP JUMP JUMPDEST JUMPDEST DUP2 DUP2 LT ISZERO PUSH3 0x249 JUMPI PUSH3 0x23D PUSH1 0x0 DUP3 PUSH3 0x20A JUMP JUMPDEST PUSH1 0x1 DUP2 ADD SWAP1 POP PUSH3 0x227 JUMP JUMPDEST POP POP JUMP JUMPDEST PUSH1 0x1F DUP3 GT ISZERO PUSH3 0x298 JUMPI PUSH3 0x262 DUP2 PUSH3 0x10C JUMP JUMPDEST PUSH3 0x26D DUP5 PUSH3 0x121 JUMP JUMPDEST DUP2 ADD PUSH1 0x20 DUP6 LT ISZERO PUSH3 0x27D JUMPI DUP2 SWAP1 POP JUMPDEST PUSH3 0x295 PUSH3 0x28C DUP6 PUSH3 0x121 JUMP JUMPDEST DUP4 ADD DUP3 PUSH3 0x226 JUMP JUMPDEST POP POP JUMPDEST POP POP POP JUMP JUMPDEST PUSH1 0x0 DUP3 DUP3 SHR SWAP1 POP SWAP3 SWAP2 POP POP JUMP JUMPDEST PUSH1 0x0 PUSH3 0x2BD PUSH1 0x0 NOT DUP5 PUSH1 0x8 MUL PUSH3 0x29D JUMP JUMPDEST NOT DUP1 DUP4 AND SWAP2 POP POP SWAP3 SWAP2 POP POP JUMP JUMPDEST PUSH1 0x0 PUSH3 0x2D8 DUP4 DUP4 PUSH3 0x2AA JUMP JUMPDEST SWAP2 POP DUP3 PUSH1 0x2 MUL DUP3 OR SWAP1 POP SWAP3 SWAP2 POP POP JUMP JUMPDEST PUSH3 0x2F3 DUP3 PUSH3 0x6E JUMP JUMPDEST PUSH8 0xFFFFFFFFFFFFFFFF DUP2 GT ISZERO PUSH3 0x30F JUMPI PUSH3 0x30E PUSH3 0x79 JUMP JUMPDEST JUMPDEST PUSH3 0x31B DUP3 SLOAD PUSH3 0xD7 JUMP JUMPDEST PUSH3 0x328 DUP3 DUP3 DUP6 PUSH3 0x24D JUMP JUMPDEST PUSH1 0x0 PUSH1 0x20 SWAP1 POP PUSH1 0x1F DUP4 GT PUSH1 0x1 DUP2 EQ PUSH3 0x360 JUMPI PUSH1 0x0 DUP5 ISZERO PUSH3 0x34B JUMPI DUP3 DUP8 ADD MLOAD SWAP1 POP JUMPDEST PUSH3 0x357 DUP6 DUP3 PUSH3 0x2CA JUMP JUMPDEST DUP7 SSTORE POP PUSH3 0x3C7 JUMP JUMPDEST PUSH1 0x1F NOT DUP5 AND PUSH3 0x370 DUP7 PUSH3 0x10C JUMP JUMPDEST PUSH1 0x0 JUMPDEST DUP3 DUP2 LT ISZERO PUSH3 0x39A JUMPI DUP5 DUP10 ADD MLOAD DUP3 SSTORE PUSH1 0x1 DUP3 ADD SWAP2 POP PUSH1 0x20 DUP6 ADD SWAP5 POP PUSH1 0x20 DUP2 ADD SWAP1 POP PUSH3 0x373 JUMP JUMPDEST DUP7 DUP4 LT ISZERO PUSH3 0x3BA JUMPI DUP5 DUP10 ADD MLOAD PUSH3 0x3B6 PUSH1 0x1F DUP10 AND DUP3 PUSH3 0x2AA JUMP JUMPDEST DUP4 SSTORE POP JUMPDEST PUSH1 0x1 PUSH1 0x2 DUP9 MUL ADD DUP9 SSTORE POP POP POP JUMPDEST POP POP POP POP POP POP JUMP JUMPDEST PUSH2 0x989 DUP1 PUSH3 0x3DF PUSH1 0x0 CODECOPY PUSH1 0x0 RETURN INVALID PUSH1 0x80 PUSH1 0x40 MSTORE CALLVALUE DUP1 ISZERO PUSH2 0x10 JUMPI PUSH1 0x0 DUP1 REVERT JUMPDEST POP PUSH1 0x4 CALLDATASIZE LT PUSH2 0x57 JUMPI PUSH1 0x0 CALLDATALOAD PUSH1 0xE0 SHR DUP1 PUSH4 0xC55699C EQ PUSH2 0x5C JUMPI DUP1 PUSH4 0x2052465E EQ PUSH2 0x7A JUMPI DUP1 PUSH4 0x53C90AD3 EQ PUSH2 0xAB JUMPI DUP1 PUSH4 0xEF5FB05B EQ PUSH2 0xC9 JUMPI DUP1 PUSH4 0xF8D4953D EQ PUSH2 0xE7 JUMPI JUMPDEST PUSH1 0x0 DUP1 REVERT JUMPDEST PUSH2 0x64 PUSH2 0x103 JUMP JUMPDEST PUSH1 0x40 MLOAD PUSH2 0x71 SWAP2 SWAP1 PUSH2 0x37A JUMP JUMPDEST PUSH1 0x40 MLOAD DUP1 SWAP2 SUB SWAP1 RETURN JUMPDEST PUSH2 0x94 PUSH1 0x4 DUP1 CALLDATASIZE SUB DUP2 ADD SWAP1 PUSH2 0x8F SWAP2 SWAP1 PUSH2 0x3D5 JUMP JUMPDEST PUSH2 0x109 JUMP JUMPDEST PUSH1 0x40 MLOAD PUSH2 0xA2 SWAP3 SWAP2 SWAP1 PUSH2 0x492 JUMP JUMPDEST PUSH1 0x40 MLOAD DUP1 SWAP2 SUB SWAP1 RETURN JUMPDEST PUSH2 0xB3 PUSH2 0x1C5 JUMP JUMPDEST PUSH1 0x40 MLOAD PUSH2 0xC0 SWAP2 SWAP1 PUSH2 0x37A JUMP JUMPDEST PUSH1 0x40 MLOAD DUP1 SWAP2 SUB SWAP1 RETURN JUMPDEST PUSH2 0xD1 PUSH2 0x1CB JUMP JUMPDEST PUSH1 0x40 MLOAD PUSH2 0xDE SWAP2 SWAP1 PUSH2 0x4C2 JUMP JUMPDEST PUSH1 0x40 MLOAD DUP1 SWAP2 SUB SWAP1 RETURN JUMPDEST PUSH2 0x101 PUSH1 0x4 DUP1 CALLDATASIZE SUB DUP2 ADD SWAP1 PUSH2 0xFC SWAP2 SWAP1 PUSH2 0x619 JUMP JUMPDEST PUSH2 0x25D JUMP JUMPDEST STOP JUMPDEST PUSH1 0x2 SLOAD DUP2 JUMP JUMPDEST PUSH1 0x3 DUP2 DUP2 SLOAD DUP2 LT PUSH2 0x119 JUMPI PUSH1 0x0 DUP1 REVERT JUMPDEST SWAP1 PUSH1 0x0 MSTORE PUSH1 0x20 PUSH1 0x0 KECCAK256 SWAP1 PUSH1 0x2 MUL ADD PUSH1 0x0 SWAP2 POP SWAP1 POP DUP1 PUSH1 0x0 ADD DUP1 SLOAD PUSH2 0x13C SWAP1 PUSH2 0x6A4 JUMP JUMPDEST DUP1 PUSH1 0x1F ADD PUSH1 0x20 DUP1 SWAP2 DIV MUL PUSH1 0x20 ADD PUSH1 0x40 MLOAD SWAP1 DUP2 ADD PUSH1 0x40 MSTORE DUP1 SWAP3 SWAP2 SWAP1 DUP2 DUP2 MSTORE PUSH1 0x20 ADD DUP3 DUP1 SLOAD PUSH2 0x168 SWAP1 PUSH2 0x6A4 JUMP JUMPDEST DUP1 ISZERO PUSH2 0x1B5 JUMPI DUP1 PUSH1 0x1F LT PUSH2 0x18A JUMPI PUSH2 0x100 DUP1 DUP4 SLOAD DIV MUL DUP4 MSTORE SWAP2 PUSH1 0x20 ADD SWAP2 PUSH2 0x1B5 JUMP JUMPDEST DUP3 ADD SWAP2 SWAP1 PUSH1 0x0 MSTORE PUSH1 0x20 PUSH1 0x0 KECCAK256 SWAP1 JUMPDEST DUP2 SLOAD DUP2 MSTORE SWAP1 PUSH1 0x1 ADD SWAP1 PUSH1 0x20 ADD DUP1 DUP4 GT PUSH2 0x198 JUMPI DUP3 SWAP1 SUB PUSH1 0x1F AND DUP3 ADD SWAP2 JUMPDEST POP POP POP POP POP SWAP1 DUP1 PUSH1 0x1 ADD SLOAD SWAP1 POP DUP3 JUMP JUMPDEST PUSH1 0x1 SLOAD DUP2 JUMP JUMPDEST PUSH1 0x60 PUSH1 0x9 DUP1 SLOAD PUSH2 0x1DA SWAP1 PUSH2 0x6A4 JUMP JUMPDEST DUP1 PUSH1 0x1F ADD PUSH1 0x20 DUP1 SWAP2 DIV MUL PUSH1 0x20 ADD PUSH1 0x40 MLOAD SWAP1 DUP2 ADD PUSH1 0x40 MSTORE DUP1 SWAP3 SWAP2 SWAP1 DUP2 DUP2 MSTORE PUSH1 0x20 ADD DUP3 DUP1 SLOAD PUSH2 0x206 SWAP1 PUSH2 0x6A4 JUMP JUMPDEST DUP1 ISZERO PUSH2 0x253 JUMPI DUP1 PUSH1 0x1F LT PUSH2 0x228 JUMPI PUSH2 0x100 DUP1 DUP4 SLOAD DIV MUL DUP4 MSTORE SWAP2 PUSH1 0x20 ADD SWAP2 PUSH2 0x253 JUMP JUMPDEST DUP3 ADD SWAP2 SWAP1 PUSH1 0x0 MSTORE PUSH1 0x20 PUSH1 0x0 KECCAK256 SWAP1 JUMPDEST DUP2 SLOAD DUP2 MSTORE SWAP1 PUSH1 0x1 ADD SWAP1 PUSH1 0x20 ADD DUP1 DUP4 GT PUSH2 0x236 JUMPI DUP3 SWAP1 SUB PUSH1 0x1F AND DUP3 ADD SWAP2 JUMPDEST POP POP POP POP POP SWAP1 POP SWAP1 JUMP JUMPDEST PUSH1 0x0 PUSH1 0x40 MLOAD DUP1 PUSH1 0x40 ADD PUSH1 0x40 MSTORE DUP1 DUP5 DUP2 MSTORE PUSH1 0x20 ADD DUP4 DUP2 MSTORE POP SWAP1 POP PUSH1 0x3 DUP2 SWAP1 DUP1 PUSH1 0x1 DUP2 SLOAD ADD DUP1 DUP3 SSTORE DUP1 SWAP2 POP POP PUSH1 0x1 SWAP1 SUB SWAP1 PUSH1 0x0 MSTORE PUSH1 0x20 PUSH1 0x0 KECCAK256 SWAP1 PUSH1 0x2 MUL ADD PUSH1 0x0 SWAP1 SWAP2 SWAP1 SWAP2 SWAP1 SWAP2 POP PUSH1 0x0 DUP3 ADD MLOAD DUP2 PUSH1 0x0 ADD SWAP1 DUP2 PUSH2 0x2B7 SWAP2 SWAP1 PUSH2 0x881 JUMP JUMPDEST POP PUSH1 0x20 DUP3 ADD MLOAD DUP2 PUSH1 0x1 ADD SSTORE POP POP PUSH1 0x3 PUSH1 0x40 MLOAD DUP1 PUSH1 0x40 ADD PUSH1 0x40 MSTORE DUP1 PUSH1 0x40 MLOAD DUP1 PUSH1 0x40 ADD PUSH1 0x40 MSTORE DUP1 PUSH1 0x7 DUP2 MSTORE PUSH1 0x20 ADD PUSH32 0x566974616C696B00000000000000000000000000000000000000000000000000 DUP2 MSTORE POP DUP2 MSTORE PUSH1 0x20 ADD PUSH1 0x10 DUP2 MSTORE POP SWAP1 DUP1 PUSH1 0x1 DUP2 SLOAD ADD DUP1 DUP3 SSTORE DUP1 SWAP2 POP POP PUSH1 0x1 SWAP1 SUB SWAP1 PUSH1 0x0 MSTORE PUSH1 0x20 PUSH1 0x0 KECCAK256 SWAP1 PUSH1 0x2 MUL ADD PUSH1 0x0 SWAP1 SWAP2 SWAP1 SWAP2 SWAP1 SWAP2 POP PUSH1 0x0 DUP3 ADD MLOAD DUP2 PUSH1 0x0 ADD SWAP1 DUP2 PUSH2 0x34F SWAP2 SWAP1 PUSH2 0x881 JUMP JUMPDEST POP PUSH1 0x20 DUP3 ADD MLOAD DUP2 PUSH1 0x1 ADD SSTORE POP POP POP POP POP JUMP JUMPDEST PUSH1 0x0 DUP2 SWAP1 POP SWAP2 SWAP1 POP JUMP JUMPDEST PUSH2 0x374 DUP2 PUSH2 0x361 JUMP JUMPDEST DUP3 MSTORE POP POP JUMP JUMPDEST PUSH1 0x0 PUSH1 0x20 DUP3 ADD SWAP1 POP PUSH2 0x38F PUSH1 0x0 DUP4 ADD DUP5 PUSH2 0x36B JUMP JUMPDEST SWAP3 SWAP2 POP POP JUMP JUMPDEST PUSH1 0x0 PUSH1 0x40 MLOAD SWAP1 POP SWAP1 JUMP JUMPDEST PUSH1 0x0 DUP1 REVERT JUMPDEST PUSH1 0x0 DUP1 REVERT JUMPDEST PUSH2 0x3B2 DUP2 PUSH2 0x361 JUMP JUMPDEST DUP2 EQ PUSH2 0x3BD JUMPI PUSH1 0x0 DUP1 REVERT JUMPDEST POP JUMP JUMPDEST PUSH1 0x0 DUP2 CALLDATALOAD SWAP1 POP PUSH2 0x3CF DUP2 PUSH2 0x3A9 JUMP JUMPDEST SWAP3 SWAP2 POP POP JUMP JUMPDEST PUSH1 0x0 PUSH1 0x20 DUP3 DUP5 SUB SLT ISZERO PUSH2 0x3EB JUMPI PUSH2 0x3EA PUSH2 0x39F JUMP JUMPDEST JUMPDEST PUSH1 0x0 PUSH2 0x3F9 DUP5 DUP3 DUP6 ADD PUSH2 0x3C0 JUMP JUMPDEST SWAP2 POP POP SWAP3 SWAP2 POP POP JUMP JUMPDEST PUSH1 0x0 DUP2 MLOAD SWAP1 POP SWAP2 SWAP1 POP JUMP JUMPDEST PUSH1 0x0 DUP3 DUP3 MSTORE PUSH1 0x20 DUP3 ADD SWAP1 POP SWAP3 SWAP2 POP POP JUMP JUMPDEST PUSH1 0x0 JUMPDEST DUP4 DUP2 LT ISZERO PUSH2 0x43C JUMPI DUP1 DUP3 ADD MLOAD DUP2 DUP5 ADD MSTORE PUSH1 0x20 DUP2 ADD SWAP1 POP PUSH2 0x421 JUMP JUMPDEST PUSH1 0x0 DUP5 DUP5 ADD MSTORE POP POP POP POP JUMP JUMPDEST PUSH1 0x0 PUSH1 0x1F NOT PUSH1 0x1F DUP4 ADD AND SWAP1 POP SWAP2 SWAP1 POP JUMP JUMPDEST PUSH1 0x0 PUSH2 0x464 DUP3 PUSH2 0x402 JUMP JUMPDEST PUSH2 0x46E DUP2 DUP6 PUSH2 0x40D JUMP JUMPDEST SWAP4 POP PUSH2 0x47E DUP2 DUP6 PUSH1 0x20 DUP7 ADD PUSH2 0x41E JUMP JUMPDEST PUSH2 0x487 DUP2 PUSH2 0x448 JUMP JUMPDEST DUP5 ADD SWAP2 POP POP SWAP3 SWAP2 POP POP JUMP JUMPDEST PUSH1 0x0 PUSH1 0x40 DUP3 ADD SWAP1 POP DUP2 DUP2 SUB PUSH1 0x0 DUP4 ADD MSTORE PUSH2 0x4AC DUP2 DUP6 PUSH2 0x459 JUMP JUMPDEST SWAP1 POP PUSH2 0x4BB PUSH1 0x20 DUP4 ADD DUP5 PUSH2 0x36B JUMP JUMPDEST SWAP4 SWAP3 POP POP POP JUMP JUMPDEST PUSH1 0x0 PUSH1 0x20 DUP3 ADD SWAP1 POP DUP2 DUP2 SUB PUSH1 0x0 DUP4 ADD MSTORE PUSH2 0x4DC DUP2 DUP5 PUSH2 0x459 JUMP JUMPDEST SWAP1 POP SWAP3 SWAP2 POP POP JUMP JUMPDEST PUSH1 0x0 DUP1 REVERT JUMPDEST PUSH1 0x0 DUP1 REVERT JUMPDEST PUSH32 0x4E487B7100000000000000000000000000000000000000000000000000000000 PUSH1 0x0 MSTORE PUSH1 0x41 PUSH1 0x4 MSTORE PUSH1 0x24 PUSH1 0x0 REVERT JUMPDEST PUSH2 0x526 DUP3 PUSH2 0x448 JUMP JUMPDEST DUP2 ADD DUP2 DUP2 LT PUSH8 0xFFFFFFFFFFFFFFFF DUP3 GT OR ISZERO PUSH2 0x545 JUMPI PUSH2 0x544 PUSH2 0x4EE JUMP JUMPDEST JUMPDEST DUP1 PUSH1 0x40 MSTORE POP POP POP JUMP JUMPDEST PUSH1 0x0 PUSH2 0x558 PUSH2 0x395 JUMP JUMPDEST SWAP1 POP PUSH2 0x564 DUP3 DUP3 PUSH2 0x51D JUMP JUMPDEST SWAP2 SWAP1 POP JUMP JUMPDEST PUSH1 0x0 PUSH8 0xFFFFFFFFFFFFFFFF DUP3 GT ISZERO PUSH2 0x584 JUMPI PUSH2 0x583 PUSH2 0x4EE JUMP JUMPDEST JUMPDEST PUSH2 0x58D DUP3 PUSH2 0x448 JUMP JUMPDEST SWAP1 POP PUSH1 0x20 DUP2 ADD SWAP1 POP SWAP2 SWAP1 POP JUMP JUMPDEST DUP3 DUP2 DUP4 CALLDATACOPY PUSH1 0x0 DUP4 DUP4 ADD MSTORE POP POP POP JUMP JUMPDEST PUSH1 0x0 PUSH2 0x5BC PUSH2 0x5B7 DUP5 PUSH2 0x569 JUMP JUMPDEST PUSH2 0x54E JUMP JUMPDEST SWAP1 POP DUP3 DUP2 MSTORE PUSH1 0x20 DUP2 ADD DUP5 DUP5 DUP5 ADD GT ISZERO PUSH2 0x5D8 JUMPI PUSH2 0x5D7 PUSH2 0x4E9 JUMP JUMPDEST JUMPDEST PUSH2 0x5E3 DUP5 DUP3 DUP6 PUSH2 0x59A JUMP JUMPDEST POP SWAP4 SWAP3 POP POP POP JUMP JUMPDEST PUSH1 0x0 DUP3 PUSH1 0x1F DUP4 ADD SLT PUSH2 0x600 JUMPI PUSH2 0x5FF PUSH2 0x4E4 JUMP JUMPDEST JUMPDEST DUP2 CALLDATALOAD PUSH2 0x610 DUP5 DUP3 PUSH1 0x20 DUP7 ADD PUSH2 0x5A9 JUMP JUMPDEST SWAP2 POP POP SWAP3 SWAP2 POP POP JUMP JUMPDEST PUSH1 0x0 DUP1 PUSH1 0x40 DUP4 DUP6 SUB SLT ISZERO PUSH2 0x630 JUMPI PUSH2 0x62F PUSH2 0x39F JUMP JUMPDEST JUMPDEST PUSH1 0x0 DUP4 ADD CALLDATALOAD PUSH8 0xFFFFFFFFFFFFFFFF DUP2 GT ISZERO PUSH2 0x64E JUMPI PUSH2 0x64D PUSH2 0x3A4 JUMP JUMPDEST JUMPDEST PUSH2 0x65A DUP6 DUP3 DUP7 ADD PUSH2 0x5EB JUMP JUMPDEST SWAP3 POP POP PUSH1 0x20 PUSH2 0x66B DUP6 DUP3 DUP7 ADD PUSH2 0x3C0 JUMP JUMPDEST SWAP2 POP POP SWAP3 POP SWAP3 SWAP1 POP JUMP JUMPDEST PUSH32 0x4E487B7100000000000000000000000000000000000000000000000000000000 PUSH1 0x0 MSTORE PUSH1 0x22 PUSH1 0x4 MSTORE PUSH1 0x24 PUSH1 0x0 REVERT JUMPDEST PUSH1 0x0 PUSH1 0x2 DUP3 DIV SWAP1 POP PUSH1 0x1 DUP3 AND DUP1 PUSH2 0x6BC JUMPI PUSH1 0x7F DUP3 AND SWAP2 POP JUMPDEST PUSH1 0x20 DUP3 LT DUP2 SUB PUSH2 0x6CF JUMPI PUSH2 0x6CE PUSH2 0x675 JUMP JUMPDEST JUMPDEST POP SWAP2 SWAP1 POP JUMP JUMPDEST PUSH1 0x0 DUP2 SWAP1 POP DUP2 PUSH1 0x0 MSTORE PUSH1 0x20 PUSH1 0x0 KECCAK256 SWAP1 POP SWAP2 SWAP1 POP JUMP JUMPDEST PUSH1 0x0 PUSH1 0x20 PUSH1 0x1F DUP4 ADD DIV SWAP1 POP SWAP2 SWAP1 POP JUMP JUMPDEST PUSH1 0x0 DUP3 DUP3 SHL SWAP1 POP SWAP3 SWAP2 POP POP JUMP JUMPDEST PUSH1 0x0 PUSH1 0x8 DUP4 MUL PUSH2 0x737 PUSH32 0xFFFFFFFFFFFFFFFFFFFFFFFFFFFFFFFFFFFFFFFFFFFFFFFFFFFFFFFFFFFFFFFF DUP3 PUSH2 0x6FA JUMP JUMPDEST PUSH2 0x741 DUP7 DUP4 PUSH2 0x6FA JUMP JUMPDEST SWAP6 POP DUP1 NOT DUP5 AND SWAP4 POP DUP1 DUP7 AND DUP5 OR SWAP3 POP POP POP SWAP4 SWAP3 POP POP POP JUMP JUMPDEST PUSH1 0x0 DUP2 SWAP1 POP SWAP2 SWAP1 POP JUMP JUMPDEST PUSH1 0x0 PUSH2 0x77E PUSH2 0x779 PUSH2 0x774 DUP5 PUSH2 0x361 JUMP JUMPDEST PUSH2 0x759 JUMP JUMPDEST PUSH2 0x361 JUMP JUMPDEST SWAP1 POP SWAP2 SWAP1 POP JUMP JUMPDEST PUSH1 0x0 DUP2 SWAP1 POP SWAP2 SWAP1 POP JUMP JUMPDEST PUSH2 0x798 DUP4 PUSH2 0x763 JUMP JUMPDEST PUSH2 0x7AC PUSH2 0x7A4 DUP3 PUSH2 0x785 JUMP JUMPDEST DUP5 DUP5 SLOAD PUSH2 0x707 JUMP JUMPDEST DUP3 SSTORE POP POP POP POP JUMP JUMPDEST PUSH1 0x0 SWAP1 JUMP JUMPDEST PUSH2 0x7C1 PUSH2 0x7B4 JUMP JUMPDEST PUSH2 0x7CC DUP2 DUP5 DUP5 PUSH2 0x78F JUMP JUMPDEST POP POP POP JUMP JUMPDEST JUMPDEST DUP2 DUP2 LT ISZERO PUSH2 0x7F0 JUMPI PUSH2 0x7E5 PUSH1 0x0 DUP3 PUSH2 0x7B9 JUMP JUMPDEST PUSH1 0x1 DUP2 ADD SWAP1 POP PUSH2 0x7D2 JUMP JUMPDEST POP POP JUMP JUMPDEST PUSH1 0x1F DUP3 GT ISZERO PUSH2 0x835 JUMPI PUSH2 0x806 DUP2 PUSH2 0x6D5 JUMP JUMPDEST PUSH2 0x80F DUP5 PUSH2 0x6EA JUMP JUMPDEST DUP2 ADD PUSH1 0x20 DUP6 LT ISZERO PUSH2 0x81E JUMPI DUP2 SWAP1 POP JUMPDEST PUSH2 0x832 PUSH2 0x82A DUP6 PUSH2 0x6EA JUMP JUMPDEST DUP4 ADD DUP3 PUSH2 0x7D1 JUMP JUMPDEST POP POP JUMPDEST POP POP POP JUMP JUMPDEST PUSH1 0x0 DUP3 DUP3 SHR SWAP1 POP SWAP3 SWAP2 POP POP JUMP JUMPDEST PUSH1 0x0 PUSH2 0x858 PUSH1 0x0 NOT DUP5 PUSH1 0x8 MUL PUSH2 0x83A JUMP JUMPDEST NOT DUP1 DUP4 AND SWAP2 POP POP SWAP3 SWAP2 POP POP JUMP JUMPDEST PUSH1 0x0 PUSH2 0x871 DUP4 DUP4 PUSH2 0x847 JUMP JUMPDEST SWAP2 POP DUP3 PUSH1 0x2 MUL DUP3 OR SWAP1 POP SWAP3 SWAP2 POP POP JUMP JUMPDEST PUSH2 0x88A DUP3 PUSH2 0x402 JUMP JUMPDEST PUSH8 0xFFFFFFFFFFFFFFFF DUP2 GT ISZERO PUSH2 0x8A3 JUMPI PUSH2 0x8A2 PUSH2 0x4EE JUMP JUMPDEST JUMPDEST PUSH2 0x8AD DUP3 SLOAD PUSH2 0x6A4 JUMP JUMPDEST PUSH2 0x8B8 DUP3 DUP3 DUP6 PUSH2 0x7F4 JUMP JUMPDEST PUSH1 0x0 PUSH1 0x20 SWAP1 POP PUSH1 0x1F DUP4 GT PUSH1 0x1 DUP2 EQ PUSH2 0x8EB JUMPI PUSH1 0x0 DUP5 ISZERO PUSH2 0x8D9 JUMPI DUP3 DUP8 ADD MLOAD SWAP1 POP JUMPDEST PUSH2 0x8E3 DUP6 DUP3 PUSH2 0x865 JUMP JUMPDEST DUP7 SSTORE POP PUSH2 0x94B JUMP JUMPDEST PUSH1 0x1F NOT DUP5 AND PUSH2 0x8F9 DUP7 PUSH2 0x6D5 JUMP JUMPDEST PUSH1 0x0 JUMPDEST DUP3 DUP2 LT ISZERO PUSH2 0x921 JUMPI DUP5 DUP10 ADD MLOAD DUP3 SSTORE PUSH1 0x1 DUP3 ADD SWAP2 POP PUSH1 0x20 DUP6 ADD SWAP5 POP PUSH1 0x20 DUP2 ADD SWAP1 POP PUSH2 0x8FC JUMP JUMPDEST DUP7 DUP4 LT ISZERO PUSH2 0x93E JUMPI DUP5 DUP10 ADD MLOAD PUSH2 0x93A PUSH1 0x1F DUP10 AND DUP3 PUSH2 0x847 JUMP JUMPDEST DUP4 SSTORE POP JUMPDEST PUSH1 0x1 PUSH1 0x2 DUP9 MUL ADD DUP9 SSTORE POP POP POP JUMPDEST POP POP POP POP POP POP JUMP INVALID LOG2 PUSH5 0x6970667358 0x22 SLT KECCAK256 PUSH15 0x657E61891292E5EDC1A74CE3CDD8A6 SWAP3 SLOAD 0xCC TIMESTAMP SWAP7 0x29 0x2B 0xDB PUSH3 0x3473ED CREATE2 DUP12 CREATE2 EXTCODECOPY PUSH5 0x736F6C6343 STOP ADDMOD SLT STOP CALLER "
				},
				"gasEstimates": {
					"creation": {
						"codeDepositCost": "488200",
						"executionCost": "infinite",
						"totalCost": "infinite"
					},
					"external": {
						"eatHamburgers(string,uint256)": "infinite",
						"myUnsignedInteger2()": "2451",
						"sayHello()": "infinite",
						"x()": "2407",
						"zombies(uint256)": "infinite"
					}
				},
				"methodIdentifiers": {
					"eatHamburgers(string,uint256)": "f8d4953d",
					"myUnsignedInteger2()": "53c90ad3",
					"sayHello()": "ef5fb05b",
					"x()": "0c55699c",
					"zombies(uint256)": "2052465e"
				}
			},
			"storageLayout": {
				"storage": [
					{
						"astId": 4,
						"contract": "contracts/Exercise.sol:HelloWorld",
						"label": "myUnsignedInteger",
						"offset": 0,
						"slot": "0",
						"type": "t_uint256"
					},
					{
						"astId": 7,
						"contract": "contracts/Exercise.sol:HelloWorld",
						"label": "myUnsignedInteger2",
						"offset": 0,
						"slot": "1",
						"type": "t_uint256"
					},
					{
						"astId": 12,
						"contract": "contracts/Exercise.sol:HelloWorld",
						"label": "x",
						"offset": 0,
						"slot": "2",
						"type": "t_uint256"
					},
					{
						"astId": 21,
						"contract": "contracts/Exercise.sol:HelloWorld",
						"label": "zombies",
						"offset": 0,
						"slot": "3",
						"type": "t_array(t_struct(Zombie)17_storage)dyn_storage"
					},
					{
						"astId": 25,
						"contract": "contracts/Exercise.sol:HelloWorld",
						"label": "stringArray",
						"offset": 0,
						"slot": "4",
						"type": "t_array(t_string_storage)5_storage"
					},
					{
						"astId": 59,
						"contract": "contracts/Exercise.sol:HelloWorld",
						"label": "greeting",
						"offset": 0,
						"slot": "9",
						"type": "t_string_storage"
					}
				],
				"types": {
					"t_array(t_string_storage)5_storage": {
						"base": "t_string_storage",
						"encoding": "inplace",
						"label": "string[5]",
						"numberOfBytes": "160"
					},
					"t_array(t_struct(Zombie)17_storage)dyn_storage": {
						"base": "t_struct(Zombie)17_storage",
						"encoding": "dynamic_array",
						"label": "struct HelloWorld.Zombie[]",
						"numberOfBytes": "32"
					},
					"t_string_storage": {
						"encoding": "bytes",
						"label": "string",
						"numberOfBytes": "32"
					},
					"t_struct(Zombie)17_storage": {
						"encoding": "inplace",
						"label": "struct HelloWorld.Zombie",
						"members": [
							{
								"astId": 14,
								"contract": "contracts/Exercise.sol:HelloWorld",
								"label": "name",
								"offset": 0,
								"slot": "0",
								"type": "t_string_storage"
							},
							{
								"astId": 16,
								"contract": "contracts/Exercise.sol:HelloWorld",
								"label": "dna",
								"offset": 0,
								"slot": "1",
								"type": "t_uint256"
							}
						],
						"numberOfBytes": "64"
					},
					"t_uint256": {
						"encoding": "inplace",
						"label": "uint256",
						"numberOfBytes": "32"
					}
				}
			},
			"userdoc": {
				"kind": "user",
				"methods": {},
				"version": 1
			}
		}
	}
}