{
  "contractName": "Owner",
  "abi": [
    {
      "inputs": [],
      "stateMutability": "nonpayable",
      "type": "constructor"
    },
    {
      "anonymous": false,
      "inputs": [
        {
          "indexed": true,
          "internalType": "address",
          "name": "oldOwner",
          "type": "address"
        },
        {
          "indexed": true,
          "internalType": "address",
          "name": "newOwner",
          "type": "address"
        }
      ],
      "name": "OwnerSet",
      "type": "event"
    },
    {
      "inputs": [],
      "name": "getOwner",
      "outputs": [
        {
          "internalType": "address",
          "name": "",
          "type": "address"
        }
      ],
      "stateMutability": "view",
      "type": "function"
    }
  ],
  "bytecode": "0x608060405234801561000f575f80fd5b50335f806101000a81548173ffffffffffffffffffffffffffffffffffffffff021916908373ffffffffffffffffffffffffffffffffffffffff1602179055505f8054906101000a900473ffffffffffffffffffffffffffffffffffffffff1673ffffffffffffffffffffffffffffffffffffffff165f73ffffffffffffffffffffffffffffffffffffffff167f342827c97908e5e2f71151c08502a66d44b6f758e3ac2f1de95f02eb95f0a73560405160405180910390a360f3806100d45f395ff3fe6080604052348015600e575f80fd5b50600436106026575f3560e01c8063893d20e814602a575b5f80fd5b60306044565b604051603b919060a6565b60405180910390f35b5f805f9054906101000a900473ffffffffffffffffffffffffffffffffffffffff16905090565b5f73ffffffffffffffffffffffffffffffffffffffff82169050919050565b5f609282606b565b9050919050565b60a081608a565b82525050565b5f60208201905060b75f8301846099565b9291505056fea26469706673582212209c0a38881c706cf40192e15ace2422372846ca47afd5c4680ce50716f3d27e7b64736f6c63430008140033",
  "immutableReferences": {},
  "source": "// SPDX-License-Identifier: GPL-3.0\r\n\r\npragma solidity ^0.8.20;\r\n\r\n// import \"hardhat/console.sol\";\r\n\r\n/**\r\n * @title Owner\r\n * @dev Set & change owner\r\n */\r\ncontract Owner {\r\n\r\n    address internal _owner;\r\n    \r\n    // event for EVM logging\r\n    event OwnerSet(address indexed oldOwner, address indexed newOwner);\r\n    \r\n    // modifier to check if caller is owner\r\n    modifier isOwner() {\r\n        // If the first argument of 'require' evaluates to 'false', execution terminates and all\r\n        // changes to the state and to Ether balances are reverted.\r\n        // This used to consume all gas in old EVM versions, but not anymore.\r\n        // It is often a good idea to use 'require' to check if functions are called correctly.\r\n        // As a second argument, you can also provide an explanation about what went wrong.\r\n        require(msg.sender == _owner, \"Caller is not owner\");\r\n        _;\r\n    }\r\n    \r\n    /**\r\n     * @dev Set contract deployer as owner\r\n     */\r\n    constructor() {\r\n        // console.log(\"Owner contract deployed by:\", msg.sender);\r\n        _owner = msg.sender; // 'msg.sender' is sender of current call, contract deployer for a constructor\r\n        emit OwnerSet(address(0), _owner);\r\n    }\r\n\r\n    /**\r\n     * @dev Change owner\r\n     * @param newOwner address of new owner\r\n     */\r\n     //ACH : Its difficult, because there is the initial Total supply that is dependent on that address\r\n    // function changeOwner(address newOwner) public isOwner {\r\n    //     emit OwnerSet(_owner, newOwner);\r\n    //     _owner = newOwner;\r\n    // }\r\n\r\n    /**\r\n     * @dev Return owner address \r\n     * @return address of owner\r\n     */\r\n    function getOwner() external view returns (address) {\r\n        return _owner;\r\n    }\r\n}",
  "sourcePath": "D:\\PersonalStuff\\GitProjects\\PayBackOnBlockchain\\payback-token-truffle\\contracts\\1_Owner.sol",
  "compiler": {
    "name": "solc",
    "version": "0.8.20+commit.a1b79de6.Emscripten.clang"
  },
  "schemaVersion": "3.4.14",
  "updatedAt": "2023-06-21T14:44:13.629Z",
  "devdoc": {
    "details": "Set & change owner",
    "kind": "dev",
    "methods": {
      "constructor": {
        "details": "Set contract deployer as owner"
      },
      "getOwner()": {
        "details": "Return owner address ",
        "returns": {
          "_0": "address of owner"
        }
      }
    },
    "title": "Owner",
    "version": 1
  },
  "userdoc": {
    "kind": "user",
    "methods": {},
    "version": 1
  }
}