{
  "contractName": "Owner",
  "abi": [
    {
      "inputs": [],
      "stateMutability": "nonpayable",
      "type": "constructor"
    },
    {
      "inputs": [],
      "name": "getOwner",
      "outputs": [
        {
          "internalType": "address",
          "name": "",
          "type": "address"
        }
      ],
      "stateMutability": "view",
      "type": "function"
    }
  ],
  "bytecode": "0x608060405234801561001057600080fd5b50336000806101000a81548173ffffffffffffffffffffffffffffffffffffffff021916908373ffffffffffffffffffffffffffffffffffffffff16021790555060fc8061005f6000396000f3fe6080604052348015600f57600080fd5b506004361060285760003560e01c8063893d20e814602d575b600080fd5b60336047565b604051603e919060ad565b60405180910390f35b60008060009054906101000a900473ffffffffffffffffffffffffffffffffffffffff16905090565b600073ffffffffffffffffffffffffffffffffffffffff82169050919050565b60006099826070565b9050919050565b60a7816090565b82525050565b600060208201905060c0600083018460a0565b9291505056fea2646970667358221220ba28f325df0be21accd64570312474c06a0e53c89b17e16f24aa25605f90bfe364736f6c63430008130033",
  "immutableReferences": {},
  "source": "// SPDX-License-Identifier: GPL-3.0\r\n\r\npragma solidity ^0.8.19;\r\n\r\n// import \"hardhat/console.sol\";\r\n\r\n/**\r\n * @title Owner\r\n * @dev Set & change owner\r\n */\r\ncontract Owner {\r\n\r\n    address internal _owner;\r\n    \r\n    // event for EVM logging ...not needed if we cannot change the owner\r\n    // event OwnerSet(address indexed oldOwner, address indexed newOwner);\r\n    \r\n    // modifier to check if caller is owner\r\n    modifier isOwner() {\r\n        // If the first argument of 'require' evaluates to 'false', execution terminates and all\r\n        // changes to the state and to Ether balances are reverted.\r\n        // This used to consume all gas in old EVM versions, but not anymore.\r\n        // It is often a good idea to use 'require' to check if functions are called correctly.\r\n        // As a second argument, you can also provide an explanation about what went wrong.\r\n        require(msg.sender == _owner, \"Owner: Caller is not owner\");\r\n        _;\r\n    }\r\n    \r\n    /**\r\n     * @dev Set contract deployer as owner\r\n     */\r\n    constructor() {\r\n        // console.log(\"Owner contract deployed by:\", msg.sender);\r\n        _owner = msg.sender; // 'msg.sender' is sender of current call, contract deployer for a constructor\r\n        // emit OwnerSet(address(0), _owner);\r\n    }\r\n\r\n    /**\r\n     * @dev Change owner\r\n     * @param newOwner address of new owner\r\n     */\r\n     //ACH : Its difficult, because there is the initial Total supply that is dependent on that address\r\n    // function changeOwner(address newOwner) public isOwner {\r\n    //     emit OwnerSet(_owner, newOwner);\r\n    //     _owner = newOwner;\r\n    // }\r\n\r\n    /**\r\n     * @dev Return owner address \r\n     * @return address of owner\r\n     */\r\n    function getOwner() external view returns (address) {\r\n        return _owner;\r\n    }\r\n}",
  "sourcePath": "C:\\Users\\aselim\\Documents\\GitHub\\PayBackOnBlockchain\\payback-token-truffle\\contracts\\1_Owner.sol",
  "compiler": {
    "name": "solc",
    "version": "0.8.19+commit.7dd6d404.Emscripten.clang"
  },
  "schemaVersion": "3.4.14",
  "updatedAt": "2023-08-18T14:35:59.036Z",
  "devdoc": {
    "details": "Set & change owner",
    "kind": "dev",
    "methods": {
      "constructor": {
        "details": "Set contract deployer as owner"
      },
      "getOwner()": {
        "details": "Return owner address ",
        "returns": {
          "_0": "address of owner"
        }
      }
    },
    "title": "Owner",
    "version": 1
  },
  "userdoc": {
    "kind": "user",
    "methods": {},
    "version": 1
  }
}