{
  "contractName": "PayBackLocker",
  "abi": [
    {
      "anonymous": false,
      "inputs": [
        {
          "indexed": true,
          "internalType": "address",
          "name": "owner",
          "type": "address"
        },
        {
          "indexed": true,
          "internalType": "address",
          "name": "spender",
          "type": "address"
        },
        {
          "indexed": false,
          "internalType": "uint256",
          "name": "value",
          "type": "uint256"
        }
      ],
      "name": "Approval",
      "type": "event"
    },
    {
      "anonymous": false,
      "inputs": [
        {
          "indexed": false,
          "internalType": "address",
          "name": "locker",
          "type": "address"
        },
        {
          "indexed": false,
          "internalType": "address",
          "name": "receiver",
          "type": "address"
        },
        {
          "indexed": false,
          "internalType": "uint256",
          "name": "id",
          "type": "uint256"
        }
      ],
      "name": "Locked",
      "type": "event"
    },
    {
      "anonymous": false,
      "inputs": [
        {
          "indexed": false,
          "internalType": "uint256",
          "name": "partnerId",
          "type": "uint256"
        },
        {
          "indexed": false,
          "internalType": "string",
          "name": "name",
          "type": "string"
        }
      ],
      "name": "PartnerAdded",
      "type": "event"
    },
    {
      "anonymous": false,
      "inputs": [
        {
          "indexed": false,
          "internalType": "address",
          "name": "locker",
          "type": "address"
        },
        {
          "indexed": false,
          "internalType": "address",
          "name": "receiver",
          "type": "address"
        },
        {
          "indexed": false,
          "internalType": "uint256",
          "name": "id",
          "type": "uint256"
        }
      ],
      "name": "Released",
      "type": "event"
    },
    {
      "anonymous": false,
      "inputs": [
        {
          "indexed": true,
          "internalType": "address",
          "name": "from",
          "type": "address"
        },
        {
          "indexed": true,
          "internalType": "address",
          "name": "to",
          "type": "address"
        },
        {
          "indexed": false,
          "internalType": "uint256",
          "name": "value",
          "type": "uint256"
        }
      ],
      "name": "Transfer",
      "type": "event"
    },
    {
      "inputs": [
        {
          "internalType": "address",
          "name": "_addr",
          "type": "address"
        }
      ],
      "name": "addClient",
      "outputs": [
        {
          "internalType": "uint256",
          "name": "",
          "type": "uint256"
        }
      ],
      "stateMutability": "nonpayable",
      "type": "function"
    },
    {
      "inputs": [],
      "name": "addMeAsClient",
      "outputs": [
        {
          "internalType": "uint256",
          "name": "",
          "type": "uint256"
        }
      ],
      "stateMutability": "nonpayable",
      "type": "function"
    },
    {
      "inputs": [
        {
          "internalType": "string",
          "name": "_name",
          "type": "string"
        },
        {
          "internalType": "address payable",
          "name": "_addr",
          "type": "address"
        },
        {
          "internalType": "string",
          "name": "_currency",
          "type": "string"
        },
        {
          "internalType": "uint256",
          "name": "_valueForToken",
          "type": "uint256"
        }
      ],
      "name": "addPartner",
      "outputs": [
        {
          "internalType": "bool",
          "name": "",
          "type": "bool"
        }
      ],
      "stateMutability": "nonpayable",
      "type": "function"
    },
    {
      "inputs": [
        {
          "internalType": "address",
          "name": "",
          "type": "address"
        }
      ],
      "name": "addrToClientId",
      "outputs": [
        {
          "internalType": "uint256",
          "name": "",
          "type": "uint256"
        }
      ],
      "stateMutability": "view",
      "type": "function",
      "constant": true
    },
    {
      "inputs": [
        {
          "internalType": "address",
          "name": "",
          "type": "address"
        }
      ],
      "name": "addrToPartnerId",
      "outputs": [
        {
          "internalType": "uint256",
          "name": "",
          "type": "uint256"
        }
      ],
      "stateMutability": "view",
      "type": "function",
      "constant": true
    },
    {
      "inputs": [
        {
          "internalType": "address",
          "name": "_owner",
          "type": "address"
        },
        {
          "internalType": "address",
          "name": "_spender",
          "type": "address"
        }
      ],
      "name": "allowance",
      "outputs": [
        {
          "internalType": "uint256",
          "name": "",
          "type": "uint256"
        }
      ],
      "stateMutability": "view",
      "type": "function",
      "constant": true
    },
    {
      "inputs": [
        {
          "internalType": "address",
          "name": "_spender",
          "type": "address"
        },
        {
          "internalType": "uint256",
          "name": "_amount",
          "type": "uint256"
        }
      ],
      "name": "approve",
      "outputs": [
        {
          "internalType": "bool",
          "name": "",
          "type": "bool"
        }
      ],
      "stateMutability": "nonpayable",
      "type": "function"
    },
    {
      "inputs": [
        {
          "internalType": "address",
          "name": "account",
          "type": "address"
        }
      ],
      "name": "balanceOf",
      "outputs": [
        {
          "internalType": "uint256",
          "name": "",
          "type": "uint256"
        }
      ],
      "stateMutability": "view",
      "type": "function",
      "constant": true
    },
    {
      "inputs": [
        {
          "internalType": "uint256",
          "name": "_roundValue",
          "type": "uint256"
        },
        {
          "internalType": "uint256",
          "name": "_partnerId",
          "type": "uint256"
        }
      ],
      "name": "calcPointsToEarn",
      "outputs": [
        {
          "internalType": "uint256",
          "name": "",
          "type": "uint256"
        }
      ],
      "stateMutability": "view",
      "type": "function",
      "constant": true
    },
    {
      "inputs": [],
      "name": "decimals",
      "outputs": [
        {
          "internalType": "uint8",
          "name": "",
          "type": "uint8"
        }
      ],
      "stateMutability": "view",
      "type": "function",
      "constant": true
    },
    {
      "inputs": [],
      "name": "getOwner",
      "outputs": [
        {
          "internalType": "address",
          "name": "",
          "type": "address"
        }
      ],
      "stateMutability": "view",
      "type": "function",
      "constant": true
    },
    {
      "inputs": [
        {
          "internalType": "uint256",
          "name": "_amount",
          "type": "uint256"
        }
      ],
      "name": "loadTotalSupply",
      "outputs": [
        {
          "internalType": "bool",
          "name": "",
          "type": "bool"
        }
      ],
      "stateMutability": "nonpayable",
      "type": "function"
    },
    {
      "inputs": [
        {
          "internalType": "address",
          "name": "",
          "type": "address"
        }
      ],
      "name": "lockedBalanceOf",
      "outputs": [
        {
          "internalType": "uint256",
          "name": "",
          "type": "uint256"
        }
      ],
      "stateMutability": "view",
      "type": "function",
      "constant": true
    },
    {
      "inputs": [],
      "name": "minTokensToRedeem",
      "outputs": [
        {
          "internalType": "uint256",
          "name": "",
          "type": "uint256"
        }
      ],
      "stateMutability": "view",
      "type": "function",
      "constant": true
    },
    {
      "inputs": [],
      "name": "name",
      "outputs": [
        {
          "internalType": "string",
          "name": "",
          "type": "string"
        }
      ],
      "stateMutability": "view",
      "type": "function",
      "constant": true
    },
    {
      "inputs": [],
      "name": "numClient",
      "outputs": [
        {
          "internalType": "uint256",
          "name": "",
          "type": "uint256"
        }
      ],
      "stateMutability": "view",
      "type": "function",
      "constant": true
    },
    {
      "inputs": [],
      "name": "numPartner",
      "outputs": [
        {
          "internalType": "uint256",
          "name": "",
          "type": "uint256"
        }
      ],
      "stateMutability": "view",
      "type": "function",
      "constant": true
    },
    {
      "inputs": [
        {
          "internalType": "uint256",
          "name": "",
          "type": "uint256"
        }
      ],
      "name": "partners",
      "outputs": [
        {
          "internalType": "string",
          "name": "name",
          "type": "string"
        },
        {
          "internalType": "address payable",
          "name": "walletAddr",
          "type": "address"
        },
        {
          "internalType": "string",
          "name": "currency",
          "type": "string"
        },
        {
          "internalType": "uint256",
          "name": "valueForToken",
          "type": "uint256"
        }
      ],
      "stateMutability": "view",
      "type": "function",
      "constant": true
    },
    {
      "inputs": [
        {
          "internalType": "uint256",
          "name": "_id",
          "type": "uint256"
        }
      ],
      "name": "removePartner",
      "outputs": [],
      "stateMutability": "nonpayable",
      "type": "function"
    },
    {
      "inputs": [],
      "name": "symbol",
      "outputs": [
        {
          "internalType": "string",
          "name": "",
          "type": "string"
        }
      ],
      "stateMutability": "view",
      "type": "function",
      "constant": true
    },
    {
      "inputs": [],
      "name": "totalSupply",
      "outputs": [
        {
          "internalType": "uint256",
          "name": "",
          "type": "uint256"
        }
      ],
      "stateMutability": "view",
      "type": "function",
      "constant": true
    },
    {
      "inputs": [
        {
          "internalType": "address",
          "name": "_to",
          "type": "address"
        },
        {
          "internalType": "uint256",
          "name": "_amount",
          "type": "uint256"
        }
      ],
      "name": "transfer",
      "outputs": [
        {
          "internalType": "bool",
          "name": "",
          "type": "bool"
        }
      ],
      "stateMutability": "nonpayable",
      "type": "function"
    },
    {
      "inputs": [
        {
          "internalType": "address",
          "name": "_from",
          "type": "address"
        },
        {
          "internalType": "address",
          "name": "_to",
          "type": "address"
        },
        {
          "internalType": "uint256",
          "name": "_amount",
          "type": "uint256"
        }
      ],
      "name": "transferFrom",
      "outputs": [
        {
          "internalType": "bool",
          "name": "",
          "type": "bool"
        }
      ],
      "stateMutability": "nonpayable",
      "type": "function"
    },
    {
      "inputs": [
        {
          "internalType": "address",
          "name": "_owner",
          "type": "address"
        },
        {
          "internalType": "address",
          "name": "_spender",
          "type": "address"
        }
      ],
      "name": "transferredFromAllowance",
      "outputs": [
        {
          "internalType": "uint256",
          "name": "",
          "type": "uint256"
        }
      ],
      "stateMutability": "view",
      "type": "function",
      "constant": true
    },
    {
      "inputs": [
        {
          "internalType": "address",
          "name": "_receiver",
          "type": "address"
        },
        {
          "internalType": "uint256",
          "name": "_amount",
          "type": "uint256"
        },
        {
          "internalType": "uint256",
          "name": "_unlockDate",
          "type": "uint256"
        }
      ],
      "name": "lock",
      "outputs": [
        {
          "internalType": "uint256",
          "name": "",
          "type": "uint256"
        }
      ],
      "stateMutability": "nonpayable",
      "type": "function"
    },
    {
      "inputs": [
        {
          "internalType": "address",
          "name": "_locker",
          "type": "address"
        },
        {
          "internalType": "address",
          "name": "_receiver",
          "type": "address"
        },
        {
          "internalType": "uint256",
          "name": "_id",
          "type": "uint256"
        }
      ],
      "name": "releaseLock",
      "outputs": [],
      "stateMutability": "nonpayable",
      "type": "function"
    },
    {
      "inputs": [
        {
          "internalType": "address",
          "name": "_receiver",
          "type": "address"
        },
        {
          "internalType": "uint256",
          "name": "_id",
          "type": "uint256"
        },
        {
          "internalType": "uint256",
          "name": "_amount",
          "type": "uint256"
        }
      ],
      "name": "reduceItemTokens",
      "outputs": [],
      "stateMutability": "nonpayable",
      "type": "function"
    },
    {
      "inputs": [],
      "name": "getCurrentTime",
      "outputs": [
        {
          "internalType": "uint256",
          "name": "",
          "type": "uint256"
        }
      ],
      "stateMutability": "view",
      "type": "function",
      "constant": true
    },
    {
      "inputs": [
        {
          "internalType": "address",
          "name": "_locker",
          "type": "address"
        },
        {
          "internalType": "address",
          "name": "_receiver",
          "type": "address"
        }
      ],
      "name": "getNrLockedItems",
      "outputs": [
        {
          "internalType": "uint256",
          "name": "",
          "type": "uint256"
        }
      ],
      "stateMutability": "view",
      "type": "function",
      "constant": true
    },
    {
      "inputs": [
        {
          "internalType": "address",
          "name": "_locker",
          "type": "address"
        },
        {
          "internalType": "address",
          "name": "_receiver",
          "type": "address"
        },
        {
          "internalType": "uint256",
          "name": "_id",
          "type": "uint256"
        }
      ],
      "name": "getLockedItem",
      "outputs": [
        {
          "internalType": "uint256",
          "name": "",
          "type": "uint256"
        },
        {
          "internalType": "uint256",
          "name": "",
          "type": "uint256"
        }
      ],
      "stateMutability": "view",
      "type": "function",
      "constant": true
    }
  ],
  "bytecode": "0x608060405230600f60006101000a81548173ffffffffffffffffffffffffffffffffffffffff021916908373ffffffffffffffffffffffffffffffffffffffff1602179055503480156200005257600080fd5b506040518060400160405280600c81526020017f5061794261636b546f6b656e00000000000000000000000000000000000000008152506040518060400160405280600381526020017f5042540000000000000000000000000000000000000000000000000000000000815250620f4240600061012c336000806101000a81548173ffffffffffffffffffffffffffffffffffffffff021916908373ffffffffffffffffffffffffffffffffffffffff160217905550600060018190555060006040518060800160405280604051806020016040528060008152508152602001600073ffffffffffffffffffffffffffffffffffffffff1681526020016040518060200160405280600081525081526020016000815250905060028190806001815401808255809150506001900390600052602060002090600402016000909190919091506000820151816000019081620001ae91906200055a565b5060208201518160010160006101000a81548173ffffffffffffffffffffffffffffffffffffffff021916908373ffffffffffffffffffffffffffffffffffffffff16021790555060408201518160020190816200020d91906200055a565b5060608201518160030155505050600060058190555084600690816200023491906200055a565b5083600790816200024691906200055a565b508260098190555081600860006101000a81548160ff021916908360ff16021790555080600a8190555082600b60008060009054906101000a900473ffffffffffffffffffffffffffffffffffffffff1673ffffffffffffffffffffffffffffffffffffffff1673ffffffffffffffffffffffffffffffffffffffff16815260200190815260200160002081905550505050505062000641565b600081519050919050565b7f4e487b7100000000000000000000000000000000000000000000000000000000600052604160045260246000fd5b7f4e487b7100000000000000000000000000000000000000000000000000000000600052602260045260246000fd5b600060028204905060018216806200036257607f821691505b6020821081036200037857620003776200031a565b5b50919050565b60008190508160005260206000209050919050565b60006020601f8301049050919050565b600082821b905092915050565b600060088302620003e27fffffffffffffffffffffffffffffffffffffffffffffffffffffffffffffffff82620003a3565b620003ee8683620003a3565b95508019841693508086168417925050509392505050565b6000819050919050565b6000819050919050565b60006200043b620004356200042f8462000406565b62000410565b62000406565b9050919050565b6000819050919050565b62000457836200041a565b6200046f620004668262000442565b848454620003b0565b825550505050565b600090565b6200048662000477565b620004938184846200044c565b505050565b5b81811015620004bb57620004af6000826200047c565b60018101905062000499565b5050565b601f8211156200050a57620004d4816200037e565b620004df8462000393565b81016020851015620004ef578190505b62000507620004fe8562000393565b83018262000498565b50505b505050565b600082821c905092915050565b60006200052f600019846008026200050f565b1980831691505092915050565b60006200054a83836200051c565b9150826002028217905092915050565b6200056582620002e0565b67ffffffffffffffff811115620005815762000580620002eb565b5b6200058d825462000349565b6200059a828285620004bf565b600060209050601f831160018114620005d25760008415620005bd578287015190505b620005c985826200053c565b86555062000639565b601f198416620005e2866200037e565b60005b828110156200060c57848901518255600182019150602085019450602081019050620005e5565b868310156200062c578489015162000628601f8916826200051c565b8355505b6001600288020188555050505b505050505050565b614a8880620006516000396000f3fe608060405234801561001057600080fd5b50600436106101da5760003560e01c8063785a3ed211610104578063c3b49d04116100a2578063e15cfad211610071578063e15cfad2146105e5578063e2ab691d14610615578063faa5e4e214610645578063fe2cbab014610675576101da565b8063c3b49d0414610534578063c785f59314610567578063dd62ed3e14610585578063e0416926146105b5576101da565b8063893d20e8116100de578063893d20e81461049757806395d89b41146104b5578063a79ac7a0146104d3578063a9059cbb14610504576101da565b8063785a3ed21461042f5780637a3d94991461045f5780637d1d8cc01461047b576101da565b806329cb924d1161017c5780634b8e39611161014b5780634b8e396114610381578063593557361461039f578063641244f9146103cf57806370a08231146103ff576101da565b806329cb924d146102f7578063313ce5671461031557806343928cfd146103335780634a9596ce14610363576101da565b806318160ddd116101b857806318160ddd1461025d5780631e1413cb1461027b578063210e870d1461029757806323b872dd146102c7576101da565b806306fdde03146101df578063095ea7b3146101fd57806313869f851461022d575b600080fd5b6101e7610693565b6040516101f491906131fe565b60405180910390f35b610217600480360381019061021291906132c8565b610721565b6040516102249190613323565b60405180910390f35b6102476004803603810190610242919061333e565b6108ca565b6040516102549190613323565b60405180910390f35b610265610a48565b604051610272919061337a565b60405180910390f35b61029560048036038101906102909190613395565b610a4e565b005b6102b160048036038101906102ac919061355b565b610daf565b6040516102be9190613323565b60405180910390f35b6102e160048036038101906102dc91906135fa565b611212565b6040516102ee9190613323565b60405180910390f35b6102ff61123b565b60405161030c919061337a565b60405180910390f35b61031d611243565b60405161032a9190613669565b60405180910390f35b61034d60048036038101906103489190613684565b611256565b60405161035a919061337a565b60405180910390f35b61036b611550565b604051610378919061337a565b60405180910390f35b610389611556565b604051610396919061337a565b60405180910390f35b6103b960048036038101906103b49190613684565b61155c565b6040516103c6919061337a565b60405180910390f35b6103e960048036038101906103e491906136b1565b611574565b6040516103f6919061337a565b60405180910390f35b61041960048036038101906104149190613684565b6115fb565b604051610426919061337a565b60405180910390f35b610449600480360381019061044491906136b1565b611644565b604051610456919061337a565b60405180910390f35b610479600480360381019061047491906135fa565b6116ce565b005b6104956004803603810190610490919061333e565b6119de565b005b61049f611c26565b6040516104ac9190613700565b60405180910390f35b6104bd611c4f565b6040516104ca91906131fe565b60405180910390f35b6104ed60048036038101906104e891906135fa565b611cdd565b6040516104fb92919061371b565b60405180910390f35b61051e600480360381019061051991906132c8565b611db6565b60405161052b9190613323565b60405180910390f35b61054e6004803603810190610549919061333e565b61228a565b60405161055e9493929190613753565b60405180910390f35b61056f6123fa565b60405161057c919061337a565b60405180910390f35b61059f600480360381019061059a91906136b1565b612400565b6040516105ac919061337a565b60405180910390f35b6105cf60048036038101906105ca9190613684565b612487565b6040516105dc919061337a565b60405180910390f35b6105ff60048036038101906105fa91906137a6565b61249f565b60405161060c919061337a565b60405180910390f35b61062f600480360381019061062a9190613395565b6124e5565b60405161063c919061337a565b60405180910390f35b61065f600480360381019061065a9190613684565b6129eb565b60405161066c919061337a565b60405180910390f35b61067d612a03565b60405161068a919061337a565b60405180910390f35b600680546106a090613815565b80601f01602080910402602001604051908101604052809291908181526020018280546106cc90613815565b80156107195780601f106106ee57610100808354040283529160200191610719565b820191906000526020600020905b8154815290600101906020018083116106fc57829003601f168201915b505050505081565b600080600360003373ffffffffffffffffffffffffffffffffffffffff1673ffffffffffffffffffffffffffffffffffffffff168152602001908152602001600020541415806107b157506000600460003373ffffffffffffffffffffffffffffffffffffffff1673ffffffffffffffffffffffffffffffffffffffff1681526020019081526020016000205414155b6107f0576040517f08c379a00000000000000000000000000000000000000000000000000000000081526004016107e7906138b8565b60405180910390fd5b60008203610833576040517f08c379a000000000000000000000000000000000000000000000000000000000815260040161082a90613924565b60405180910390fd5b81600b60003373ffffffffffffffffffffffffffffffffffffffff1673ffffffffffffffffffffffffffffffffffffffff1681526020019081526020016000205410156108b5576040517f08c379a00000000000000000000000000000000000000000000000000000000081526004016108ac906139b6565b60405180910390fd5b6108c0338484612bfa565b6001905092915050565b60008060009054906101000a900473ffffffffffffffffffffffffffffffffffffffff1673ffffffffffffffffffffffffffffffffffffffff163373ffffffffffffffffffffffffffffffffffffffff161461095b576040517f08c379a000000000000000000000000000000000000000000000000000000000815260040161095290613a22565b60405180910390fd5b816009546109699190613a71565b60098190555081600b60008060009054906101000a900473ffffffffffffffffffffffffffffffffffffffff1673ffffffffffffffffffffffffffffffffffffffff1673ffffffffffffffffffffffffffffffffffffffff168152602001908152602001600020546109db9190613a71565b600b60008060009054906101000a900473ffffffffffffffffffffffffffffffffffffffff1673ffffffffffffffffffffffffffffffffffffffff1673ffffffffffffffffffffffffffffffffffffffff1681526020019081526020016000208190555060019050919050565b60095481565b6000600360003373ffffffffffffffffffffffffffffffffffffffff1673ffffffffffffffffffffffffffffffffffffffff16815260200190815260200160002054141580610ae8575060008054906101000a900473ffffffffffffffffffffffffffffffffffffffff1673ffffffffffffffffffffffffffffffffffffffff163373ffffffffffffffffffffffffffffffffffffffff16145b610b27576040517f08c379a0000000000000000000000000000000000000000000000000000000008152600401610b1e90613b17565b60405180910390fd5b6000600e60003373ffffffffffffffffffffffffffffffffffffffff1673ffffffffffffffffffffffffffffffffffffffff16815260200190815260200160002060008573ffffffffffffffffffffffffffffffffffffffff1673ffffffffffffffffffffffffffffffffffffffff1681526020019081526020016000208381548110610bb757610bb6613b37565b5b906000526020600020906002020160405180604001604052908160008201548152602001600182015481525050905081816000015111610c2c576040517f08c379a0000000000000000000000000000000000000000000000000000000008152600401610c2390613bb2565b60405180910390fd5b42816020015111610c72576040517f08c379a0000000000000000000000000000000000000000000000000000000008152600401610c6990613c44565b60405180910390fd5b818160000151610c829190613c64565b600e60003373ffffffffffffffffffffffffffffffffffffffff1673ffffffffffffffffffffffffffffffffffffffff16815260200190815260200160002060008673ffffffffffffffffffffffffffffffffffffffff1673ffffffffffffffffffffffffffffffffffffffff1681526020019081526020016000208481548110610d1057610d0f613b37565b5b90600052602060002090600202016000018190555081601060008673ffffffffffffffffffffffffffffffffffffffff1673ffffffffffffffffffffffffffffffffffffffff1681526020019081526020016000206000828254610d749190613c64565b92505081905550610da8600f60009054906101000a900473ffffffffffffffffffffffffffffffffffffffff163384612d91565b5050505050565b60008060009054906101000a900473ffffffffffffffffffffffffffffffffffffffff1673ffffffffffffffffffffffffffffffffffffffff163373ffffffffffffffffffffffffffffffffffffffff1614610e40576040517f08c379a0000000000000000000000000000000000000000000000000000000008152600401610e3790613a22565b60405180910390fd5b83600073ffffffffffffffffffffffffffffffffffffffff168173ffffffffffffffffffffffffffffffffffffffff1603610eb0576040517f08c379a0000000000000000000000000000000000000000000000000000000008152600401610ea790613d0a565b60405180910390fd5b6000600360008773ffffffffffffffffffffffffffffffffffffffff1673ffffffffffffffffffffffffffffffffffffffff1681526020019081526020016000205414610f32576040517f08c379a0000000000000000000000000000000000000000000000000000000008152600401610f2990613d9c565b60405180910390fd5b60008054906101000a900473ffffffffffffffffffffffffffffffffffffffff1673ffffffffffffffffffffffffffffffffffffffff168573ffffffffffffffffffffffffffffffffffffffff1603610fc0576040517f08c379a0000000000000000000000000000000000000000000000000000000008152600401610fb790613e2e565b60405180910390fd5b6001831015611004576040517f08c379a0000000000000000000000000000000000000000000000000000000008152600401610ffb90613ee6565b60405180910390fd5b600060405180608001604052808881526020018773ffffffffffffffffffffffffffffffffffffffff1681526020018681526020018581525090506002819080600181540180825580915050600190039060005260206000209060040201600090919091909150600082015181600001908161108091906140b2565b5060208201518160010160006101000a81548173ffffffffffffffffffffffffffffffffffffffff021916908373ffffffffffffffffffffffffffffffffffffffff16021790555060408201518160020190816110dd91906140b2565b506060820151816003015550506001600081546110f990614184565b91905081905550600154600360008873ffffffffffffffffffffffffffffffffffffffff1673ffffffffffffffffffffffffffffffffffffffff168152602001908152602001600020819055508573ffffffffffffffffffffffffffffffffffffffff1660026001548154811061117357611172613b37565b5b906000526020600020906004020160010160009054906101000a900473ffffffffffffffffffffffffffffffffffffffff1673ffffffffffffffffffffffffffffffffffffffff16146111c9576111c86141cc565b5b7f6b5d098d49c45279cf1afc02eec71018b4e172ec66e1834863c5d62febaa50b7600154886040516111fc9291906141fb565b60405180910390a1600192505050949350505050565b600080339050611223858285612f1f565b61122e858585612d91565b5060019150509392505050565b600042905090565b600860009054906101000a900460ff1681565b60008060009054906101000a900473ffffffffffffffffffffffffffffffffffffffff1673ffffffffffffffffffffffffffffffffffffffff163373ffffffffffffffffffffffffffffffffffffffff16146112e7576040517f08c379a00000000000000000000000000000000000000000000000000000000081526004016112de90613a22565b60405180910390fd5b81600073ffffffffffffffffffffffffffffffffffffffff168173ffffffffffffffffffffffffffffffffffffffff1603611357576040517f08c379a000000000000000000000000000000000000000000000000000000000815260040161134e90613d0a565b60405180910390fd5b6000600360008573ffffffffffffffffffffffffffffffffffffffff1673ffffffffffffffffffffffffffffffffffffffff16815260200190815260200160002054146113d9576040517f08c379a00000000000000000000000000000000000000000000000000000000081526004016113d09061429d565b60405180910390fd5b60008054906101000a900473ffffffffffffffffffffffffffffffffffffffff1673ffffffffffffffffffffffffffffffffffffffff168373ffffffffffffffffffffffffffffffffffffffff1603611467576040517f08c379a000000000000000000000000000000000000000000000000000000000815260040161145e9061432f565b60405180910390fd5b6000600460008573ffffffffffffffffffffffffffffffffffffffff1673ffffffffffffffffffffffffffffffffffffffff16815260200190815260200160002054146114e9576040517f08c379a00000000000000000000000000000000000000000000000000000000081526004016114e09061439b565b60405180910390fd5b6005600081546114f890614184565b91905081905550600554600460008573ffffffffffffffffffffffffffffffffffffffff1673ffffffffffffffffffffffffffffffffffffffff16815260200190815260200160002081905550600554915050919050565b60015481565b600a5481565b60106020528060005260406000206000915090505481565b6000600d60008473ffffffffffffffffffffffffffffffffffffffff1673ffffffffffffffffffffffffffffffffffffffff16815260200190815260200160002060008373ffffffffffffffffffffffffffffffffffffffff1673ffffffffffffffffffffffffffffffffffffffff16815260200190815260200160002054905092915050565b6000600b60008373ffffffffffffffffffffffffffffffffffffffff1673ffffffffffffffffffffffffffffffffffffffff168152602001908152602001600020549050919050565b6000600e60008473ffffffffffffffffffffffffffffffffffffffff1673ffffffffffffffffffffffffffffffffffffffff16815260200190815260200160002060008373ffffffffffffffffffffffffffffffffffffffff1673ffffffffffffffffffffffffffffffffffffffff16815260200190815260200160002080549050905092915050565b60008054906101000a900473ffffffffffffffffffffffffffffffffffffffff1673ffffffffffffffffffffffffffffffffffffffff163373ffffffffffffffffffffffffffffffffffffffff161461175c576040517f08c379a000000000000000000000000000000000000000000000000000000000815260040161175390613a22565b60405180910390fd5b6000600e60008573ffffffffffffffffffffffffffffffffffffffff1673ffffffffffffffffffffffffffffffffffffffff16815260200190815260200160002060008473ffffffffffffffffffffffffffffffffffffffff1673ffffffffffffffffffffffffffffffffffffffff16815260200190815260200160002082815481106117ec576117eb613b37565b5b90600052602060002090600202016040518060400160405290816000820154815260200160018201548152505090504281602001511115611862576040517f08c379a00000000000000000000000000000000000000000000000000000000081526004016118599061442d565b60405180910390fd5b611893600f60009054906101000a900473ffffffffffffffffffffffffffffffffffffffff16848360000151612d91565b508060000151601060008573ffffffffffffffffffffffffffffffffffffffff1673ffffffffffffffffffffffffffffffffffffffff16815260200190815260200160002060008282546118e79190613c64565b92505081905550600e60008573ffffffffffffffffffffffffffffffffffffffff1673ffffffffffffffffffffffffffffffffffffffff16815260200190815260200160002060008473ffffffffffffffffffffffffffffffffffffffff1673ffffffffffffffffffffffffffffffffffffffff168152602001908152602001600020828154811061197c5761197b613b37565b5b9060005260206000209060020201600080820160009055600182016000905550507f2d87480f50083e2b2759522a8fdda59802650a8055e609a7772cf70c07748f528484846040516119d09392919061444d565b60405180910390a150505050565b60008054906101000a900473ffffffffffffffffffffffffffffffffffffffff1673ffffffffffffffffffffffffffffffffffffffff163373ffffffffffffffffffffffffffffffffffffffff1614611a6c576040517f08c379a0000000000000000000000000000000000000000000000000000000008152600401611a6390613a22565b60405180910390fd5b600060028281548110611a8257611a81613b37565b5b90600052602060002090600402019050611b448160010160009054906101000a900473ffffffffffffffffffffffffffffffffffffffff1660008054906101000a900473ffffffffffffffffffffffffffffffffffffffff16600b60008560010160009054906101000a900473ffffffffffffffffffffffffffffffffffffffff1673ffffffffffffffffffffffffffffffffffffffff1673ffffffffffffffffffffffffffffffffffffffff16815260200190815260200160002054612d91565b506000600360008360010160009054906101000a900473ffffffffffffffffffffffffffffffffffffffff1673ffffffffffffffffffffffffffffffffffffffff1673ffffffffffffffffffffffffffffffffffffffff1681526020019081526020016000208190555060028281548110611bc257611bc1613b37565b5b906000526020600020906004020160008082016000611be19190613111565b6001820160006101000a81549073ffffffffffffffffffffffffffffffffffffffff0219169055600282016000611c189190613111565b600382016000905550505050565b60008060009054906101000a900473ffffffffffffffffffffffffffffffffffffffff16905090565b60078054611c5c90613815565b80601f0160208091040260200160405190810160405280929190818152602001828054611c8890613815565b8015611cd55780601f10611caa57610100808354040283529160200191611cd5565b820191906000526020600020905b815481529060010190602001808311611cb857829003601f168201915b505050505081565b6000806000600e60008773ffffffffffffffffffffffffffffffffffffffff1673ffffffffffffffffffffffffffffffffffffffff16815260200190815260200160002060008673ffffffffffffffffffffffffffffffffffffffff1673ffffffffffffffffffffffffffffffffffffffff1681526020019081526020016000208481548110611d7057611d6f613b37565b5b9060005260206000209060020201604051806040016040529081600082015481526020016001820154815250509050806000015181602001519250925050935093915050565b600082600073ffffffffffffffffffffffffffffffffffffffff168173ffffffffffffffffffffffffffffffffffffffff1603611e28576040517f08c379a0000000000000000000000000000000000000000000000000000000008152600401611e1f90613d0a565b60405180910390fd5b60008054906101000a900473ffffffffffffffffffffffffffffffffffffffff1673ffffffffffffffffffffffffffffffffffffffff163373ffffffffffffffffffffffffffffffffffffffff1603611f02576000600360008673ffffffffffffffffffffffffffffffffffffffff1673ffffffffffffffffffffffffffffffffffffffff1681526020019081526020016000205403611efd576040517f08c379a0000000000000000000000000000000000000000000000000000000008152600401611ef4906144f6565b60405180910390fd5b612272565b6000600360003373ffffffffffffffffffffffffffffffffffffffff1673ffffffffffffffffffffffffffffffffffffffff1681526020019081526020016000205414612027576000600460008673ffffffffffffffffffffffffffffffffffffffff1673ffffffffffffffffffffffffffffffffffffffff16815260200190815260200160002054141580611fe3575060008054906101000a900473ffffffffffffffffffffffffffffffffffffffff1673ffffffffffffffffffffffffffffffffffffffff168473ffffffffffffffffffffffffffffffffffffffff16145b612022576040517f08c379a000000000000000000000000000000000000000000000000000000000815260040161201990614588565b60405180910390fd5b612271565b6000600460003373ffffffffffffffffffffffffffffffffffffffff1673ffffffffffffffffffffffffffffffffffffffff1681526020019081526020016000205414612267576000600460008673ffffffffffffffffffffffffffffffffffffffff1673ffffffffffffffffffffffffffffffffffffffff168152602001908152602001600020541461213d57600a54600b60003373ffffffffffffffffffffffffffffffffffffffff1673ffffffffffffffffffffffffffffffffffffffff1681526020019081526020016000205410612138576040517f08c379a000000000000000000000000000000000000000000000000000000000815260040161212f90614640565b60405180910390fd5b612262565b60008054906101000a900473ffffffffffffffffffffffffffffffffffffffff1673ffffffffffffffffffffffffffffffffffffffff168473ffffffffffffffffffffffffffffffffffffffff1614806121d757506000600360008673ffffffffffffffffffffffffffffffffffffffff1673ffffffffffffffffffffffffffffffffffffffff1681526020019081526020016000205414155b1561226157600a54600b60003373ffffffffffffffffffffffffffffffffffffffff1673ffffffffffffffffffffffffffffffffffffffff168152602001908152602001600020541015612260576040517f08c379a0000000000000000000000000000000000000000000000000000000008152600401612257906146f8565b60405180910390fd5b5b5b612270565b60009150612283565b5b5b61227d338585612d91565b50600191505b5092915050565b6002818154811061229a57600080fd5b90600052602060002090600402016000915090508060000180546122bd90613815565b80601f01602080910402602001604051908101604052809291908181526020018280546122e990613815565b80156123365780601f1061230b57610100808354040283529160200191612336565b820191906000526020600020905b81548152906001019060200180831161231957829003601f168201915b5050505050908060010160009054906101000a900473ffffffffffffffffffffffffffffffffffffffff169080600201805461237190613815565b80601f016020809104026020016040519081016040528092919081815260200182805461239d90613815565b80156123ea5780601f106123bf576101008083540402835291602001916123ea565b820191906000526020600020905b8154815290600101906020018083116123cd57829003601f168201915b5050505050908060030154905084565b60055481565b6000600c60008473ffffffffffffffffffffffffffffffffffffffff1673ffffffffffffffffffffffffffffffffffffffff16815260200190815260200160002060008373ffffffffffffffffffffffffffffffffffffffff1673ffffffffffffffffffffffffffffffffffffffff16815260200190815260200160002054905092915050565b60036020528060005260406000206000915090505481565b600080600283815481106124b6576124b5613b37565b5b9060005260206000209060040201905060008160030154856124d89190614747565b9050809250505092915050565b600080600360003373ffffffffffffffffffffffffffffffffffffffff1673ffffffffffffffffffffffffffffffffffffffff16815260200190815260200160002054141580612580575060008054906101000a900473ffffffffffffffffffffffffffffffffffffffff1673ffffffffffffffffffffffffffffffffffffffff163373ffffffffffffffffffffffffffffffffffffffff16145b6125bf576040517f08c379a00000000000000000000000000000000000000000000000000000000081526004016125b6906147ea565b60405180910390fd5b60008054906101000a900473ffffffffffffffffffffffffffffffffffffffff1673ffffffffffffffffffffffffffffffffffffffff163373ffffffffffffffffffffffffffffffffffffffff1603612699576000600360008673ffffffffffffffffffffffffffffffffffffffff1673ffffffffffffffffffffffffffffffffffffffff1681526020019081526020016000205403612694576040517f08c379a000000000000000000000000000000000000000000000000000000000815260040161268b9061487c565b60405180910390fd5b6127bb565b6000600360003373ffffffffffffffffffffffffffffffffffffffff1673ffffffffffffffffffffffffffffffffffffffff16815260200190815260200160002054146127ba576000600460008673ffffffffffffffffffffffffffffffffffffffff1673ffffffffffffffffffffffffffffffffffffffff1681526020019081526020016000205414158061277a575060008054906101000a900473ffffffffffffffffffffffffffffffffffffffff1673ffffffffffffffffffffffffffffffffffffffff168473ffffffffffffffffffffffffffffffffffffffff16145b6127b9576040517f08c379a00000000000000000000000000000000000000000000000000000000081526004016127b09061490e565b60405180910390fd5b5b5b6127e833600f60009054906101000a900473ffffffffffffffffffffffffffffffffffffffff1685612d91565b5060006040518060400160405280858152602001848152509050600e60003373ffffffffffffffffffffffffffffffffffffffff1673ffffffffffffffffffffffffffffffffffffffff16815260200190815260200160002060008673ffffffffffffffffffffffffffffffffffffffff1673ffffffffffffffffffffffffffffffffffffffff1681526020019081526020016000208190806001815401808255809150506001900390600052602060002090600202016000909190919091506000820151816000015560208201518160010155505083601060008773ffffffffffffffffffffffffffffffffffffffff1673ffffffffffffffffffffffffffffffffffffffff168152602001908152602001600020600082825461290d9190613a71565b9250508190555060006001600e60003373ffffffffffffffffffffffffffffffffffffffff1673ffffffffffffffffffffffffffffffffffffffff16815260200190815260200160002060008873ffffffffffffffffffffffffffffffffffffffff1673ffffffffffffffffffffffffffffffffffffffff168152602001908152602001600020805490506129a29190613c64565b90507f989eaa915cbb416ea3d6f9a63b1a3de51770c7674b11fe21ecdf76b4e1d139103387836040516129d79392919061444d565b60405180910390a180925050509392505050565b60046020528060005260406000206000915090505481565b600080600360003373ffffffffffffffffffffffffffffffffffffffff1673ffffffffffffffffffffffffffffffffffffffff1681526020019081526020016000205414612a86576040517f08c379a0000000000000000000000000000000000000000000000000000000008152600401612a7d9061429d565b60405180910390fd5b60008054906101000a900473ffffffffffffffffffffffffffffffffffffffff1673ffffffffffffffffffffffffffffffffffffffff163373ffffffffffffffffffffffffffffffffffffffff1603612b14576040517f08c379a0000000000000000000000000000000000000000000000000000000008152600401612b0b9061432f565b60405180910390fd5b6000600460003373ffffffffffffffffffffffffffffffffffffffff1673ffffffffffffffffffffffffffffffffffffffff1681526020019081526020016000205414612b96576040517f08c379a0000000000000000000000000000000000000000000000000000000008152600401612b8d9061439b565b60405180910390fd5b600560008154612ba590614184565b91905081905550600554600460003373ffffffffffffffffffffffffffffffffffffffff1673ffffffffffffffffffffffffffffffffffffffff16815260200190815260200160002081905550600554905090565b600073ffffffffffffffffffffffffffffffffffffffff168373ffffffffffffffffffffffffffffffffffffffff1603612c3757612c366141cc565b5b600073ffffffffffffffffffffffffffffffffffffffff168273ffffffffffffffffffffffffffffffffffffffff1603612ca6576040517f08c379a0000000000000000000000000000000000000000000000000000000008152600401612c9d906149a0565b60405180910390fd5b80600c60008573ffffffffffffffffffffffffffffffffffffffff1673ffffffffffffffffffffffffffffffffffffffff16815260200190815260200160002060008473ffffffffffffffffffffffffffffffffffffffff1673ffffffffffffffffffffffffffffffffffffffff168152602001908152602001600020819055508173ffffffffffffffffffffffffffffffffffffffff168373ffffffffffffffffffffffffffffffffffffffff167f8c5be1e5ebec7d5bd14f71427d1e84f3dd0314c0f7b2291e5b200ac8c7c3b92583604051612d84919061337a565b60405180910390a3505050565b600081600b60008673ffffffffffffffffffffffffffffffffffffffff1673ffffffffffffffffffffffffffffffffffffffff16815260200190815260200160002054612dde9190613c64565b600b60008673ffffffffffffffffffffffffffffffffffffffff1673ffffffffffffffffffffffffffffffffffffffff1681526020019081526020016000208190555081600b60008573ffffffffffffffffffffffffffffffffffffffff1673ffffffffffffffffffffffffffffffffffffffff16815260200190815260200160002054612e6c9190613a71565b600b60008573ffffffffffffffffffffffffffffffffffffffff1673ffffffffffffffffffffffffffffffffffffffff168152602001908152602001600020819055508273ffffffffffffffffffffffffffffffffffffffff168473ffffffffffffffffffffffffffffffffffffffff167fddf252ad1be2c89b69c2b068fc378daa952ba7f163c4a11628f55a4df523b3ef84604051612f0c919061337a565b60405180910390a3600190509392505050565b6000600d60008573ffffffffffffffffffffffffffffffffffffffff1673ffffffffffffffffffffffffffffffffffffffff16815260200190815260200160002060008473ffffffffffffffffffffffffffffffffffffffff1673ffffffffffffffffffffffffffffffffffffffff1681526020019081526020016000205490506000600c60008673ffffffffffffffffffffffffffffffffffffffff1673ffffffffffffffffffffffffffffffffffffffff16815260200190815260200160002060008573ffffffffffffffffffffffffffffffffffffffff1673ffffffffffffffffffffffffffffffffffffffff16815260200190815260200160002054905060008183101561303a5782826130379190613c64565b90505b8381101561307d576040517f08c379a000000000000000000000000000000000000000000000000000000000815260040161307490614a32565b60405180910390fd5b83836130899190613a71565b600d60008873ffffffffffffffffffffffffffffffffffffffff1673ffffffffffffffffffffffffffffffffffffffff16815260200190815260200160002060008773ffffffffffffffffffffffffffffffffffffffff1673ffffffffffffffffffffffffffffffffffffffff16815260200190815260200160002081905550505050505050565b50805461311d90613815565b6000825580601f1061312f575061314e565b601f01602090049060005260206000209081019061314d9190613151565b5b50565b5b8082111561316a576000816000905550600101613152565b5090565b600081519050919050565b600082825260208201905092915050565b60005b838110156131a857808201518184015260208101905061318d565b60008484015250505050565b6000601f19601f8301169050919050565b60006131d08261316e565b6131da8185613179565b93506131ea81856020860161318a565b6131f3816131b4565b840191505092915050565b6000602082019050818103600083015261321881846131c5565b905092915050565b6000604051905090565b600080fd5b600080fd5b600073ffffffffffffffffffffffffffffffffffffffff82169050919050565b600061325f82613234565b9050919050565b61326f81613254565b811461327a57600080fd5b50565b60008135905061328c81613266565b92915050565b6000819050919050565b6132a581613292565b81146132b057600080fd5b50565b6000813590506132c28161329c565b92915050565b600080604083850312156132df576132de61322a565b5b60006132ed8582860161327d565b92505060206132fe858286016132b3565b9150509250929050565b60008115159050919050565b61331d81613308565b82525050565b60006020820190506133386000830184613314565b92915050565b6000602082840312156133545761335361322a565b5b6000613362848285016132b3565b91505092915050565b61337481613292565b82525050565b600060208201905061338f600083018461336b565b92915050565b6000806000606084860312156133ae576133ad61322a565b5b60006133bc8682870161327d565b93505060206133cd868287016132b3565b92505060406133de868287016132b3565b9150509250925092565b600080fd5b600080fd5b7f4e487b7100000000000000000000000000000000000000000000000000000000600052604160045260246000fd5b61342a826131b4565b810181811067ffffffffffffffff82111715613449576134486133f2565b5b80604052505050565b600061345c613220565b90506134688282613421565b919050565b600067ffffffffffffffff821115613488576134876133f2565b5b613491826131b4565b9050602081019050919050565b82818337600083830152505050565b60006134c06134bb8461346d565b613452565b9050828152602081018484840111156134dc576134db6133ed565b5b6134e784828561349e565b509392505050565b600082601f830112613504576135036133e8565b5b81356135148482602086016134ad565b91505092915050565b600061352882613234565b9050919050565b6135388161351d565b811461354357600080fd5b50565b6000813590506135558161352f565b92915050565b600080600080608085870312156135755761357461322a565b5b600085013567ffffffffffffffff8111156135935761359261322f565b5b61359f878288016134ef565b94505060206135b087828801613546565b935050604085013567ffffffffffffffff8111156135d1576135d061322f565b5b6135dd878288016134ef565b92505060606135ee878288016132b3565b91505092959194509250565b6000806000606084860312156136135761361261322a565b5b60006136218682870161327d565b93505060206136328682870161327d565b9250506040613643868287016132b3565b9150509250925092565b600060ff82169050919050565b6136638161364d565b82525050565b600060208201905061367e600083018461365a565b92915050565b60006020828403121561369a5761369961322a565b5b60006136a88482850161327d565b91505092915050565b600080604083850312156136c8576136c761322a565b5b60006136d68582860161327d565b92505060206136e78582860161327d565b9150509250929050565b6136fa81613254565b82525050565b600060208201905061371560008301846136f1565b92915050565b6000604082019050613730600083018561336b565b61373d602083018461336b565b9392505050565b61374d8161351d565b82525050565b6000608082019050818103600083015261376d81876131c5565b905061377c6020830186613744565b818103604083015261378e81856131c5565b905061379d606083018461336b565b95945050505050565b600080604083850312156137bd576137bc61322a565b5b60006137cb858286016132b3565b92505060206137dc858286016132b3565b9150509250929050565b7f4e487b7100000000000000000000000000000000000000000000000000000000600052602260045260246000fd5b6000600282049050600182168061382d57607f821691505b6020821081036138405761383f6137e6565b5b50919050565b7f4f6e6c7920706172746e65727320616e6420636c69656e732063616e2061707060008201527f726f7665207370656e646572732e000000000000000000000000000000000000602082015250565b60006138a2602e83613179565b91506138ad82613846565b604082019050919050565b600060208201905081810360008301526138d181613895565b9050919050565b7f45524332303a20416d6f756e742063616e6e6f74206265203000000000000000600082015250565b600061390e601983613179565b9150613919826138d8565b602082019050919050565b6000602082019050818103600083015261393d81613901565b9050919050565b7f45524332303a20416d6f756e742063616e6e6f7420626520677265617465722060008201527f7468616e2062616c616e63650000000000000000000000000000000000000000602082015250565b60006139a0602c83613179565b91506139ab82613944565b604082019050919050565b600060208201905081810360008301526139cf81613993565b9050919050565b7f4f776e65723a2043616c6c6572206973206e6f74206f776e6572000000000000600082015250565b6000613a0c601a83613179565b9150613a17826139d6565b602082019050919050565b60006020820190508181036000830152613a3b816139ff565b9050919050565b7f4e487b7100000000000000000000000000000000000000000000000000000000600052601160045260246000fd5b6000613a7c82613292565b9150613a8783613292565b9250828201905080821115613a9f57613a9e613a42565b5b92915050565b7f4c6f636b65723a204f6e6c7920706172746e657273206f72206f776e6572206360008201527f616e20616c7465722061206c6f636b2e00000000000000000000000000000000602082015250565b6000613b01603083613179565b9150613b0c82613aa5565b604082019050919050565b60006020820190508181036000830152613b3081613af4565b9050919050565b7f4e487b7100000000000000000000000000000000000000000000000000000000600052603260045260246000fd5b7f4c6f636b65723a20416d6f756e7420697320746f6f20686967682e0000000000600082015250565b6000613b9c601b83613179565b9150613ba782613b66565b602082019050919050565b60006020820190508181036000830152613bcb81613b8f565b9050919050565b7f4c6f636b65723a204f7074696f6e207265647563696e6720746f6b656e73206960008201527f7320657870697265642e00000000000000000000000000000000000000000000602082015250565b6000613c2e602a83613179565b9150613c3982613bd2565b604082019050919050565b60006020820190508181036000830152613c5d81613c21565b9050919050565b6000613c6f82613292565b9150613c7a83613292565b9250828203905081811115613c9257613c91613a42565b5b92915050565b7f506172746e65723a20456e74657265642061646472657373206973206e756c6c60008201527f2e00000000000000000000000000000000000000000000000000000000000000602082015250565b6000613cf4602183613179565b9150613cff82613c98565b604082019050919050565b60006020820190508181036000830152613d2381613ce7565b9050919050565b7f506172746e65723a20546865206164647265737320697320616c72656164792060008201527f6120706172746e65722100000000000000000000000000000000000000000000602082015250565b6000613d86602a83613179565b9150613d9182613d2a565b604082019050919050565b60006020820190508181036000830152613db581613d79565b9050919050565b7f506172746e65723a20546865206f776e65722063616e6e6f742062652061207060008201527f6172746e65722100000000000000000000000000000000000000000000000000602082015250565b6000613e18602783613179565b9150613e2382613dbc565b604082019050919050565b60006020820190508181036000830152613e4781613e0b565b9050919050565b7f506172746e65723a205468652076616c756520666f72206120546f6b656e207360008201527f686f756c64206265206174206c65617374203120696e2074686520637572726560208201527f6e63792e00000000000000000000000000000000000000000000000000000000604082015250565b6000613ed0604483613179565b9150613edb82613e4e565b606082019050919050565b60006020820190508181036000830152613eff81613ec3565b9050919050565b60008190508160005260206000209050919050565b60006020601f8301049050919050565b600082821b905092915050565b600060088302613f687fffffffffffffffffffffffffffffffffffffffffffffffffffffffffffffffff82613f2b565b613f728683613f2b565b95508019841693508086168417925050509392505050565b6000819050919050565b6000613faf613faa613fa584613292565b613f8a565b613292565b9050919050565b6000819050919050565b613fc983613f94565b613fdd613fd582613fb6565b848454613f38565b825550505050565b600090565b613ff2613fe5565b613ffd818484613fc0565b505050565b5b8181101561402157614016600082613fea565b600181019050614003565b5050565b601f8211156140665761403781613f06565b61404084613f1b565b8101602085101561404f578190505b61406361405b85613f1b565b830182614002565b50505b505050565b600082821c905092915050565b60006140896000198460080261406b565b1980831691505092915050565b60006140a28383614078565b9150826002028217905092915050565b6140bb8261316e565b67ffffffffffffffff8111156140d4576140d36133f2565b5b6140de8254613815565b6140e9828285614025565b600060209050601f83116001811461411c576000841561410a578287015190505b6141148582614096565b86555061417c565b601f19841661412a86613f06565b60005b828110156141525784890151825560018201915060208501945060208101905061412d565b8683101561416f578489015161416b601f891682614078565b8355505b6001600288020188555050505b505050505050565b600061418f82613292565b91507fffffffffffffffffffffffffffffffffffffffffffffffffffffffffffffffff82036141c1576141c0613a42565b5b600182019050919050565b7f4e487b7100000000000000000000000000000000000000000000000000000000600052600160045260246000fd5b6000604082019050614210600083018561336b565b818103602083015261422281846131c5565b90509392505050565b7f436c69656e743a20546865206164647265737320697320616c7265616479206160008201527f20706172746e6572210000000000000000000000000000000000000000000000602082015250565b6000614287602983613179565b91506142928261422b565b604082019050919050565b600060208201905081810360008301526142b68161427a565b9050919050565b7f436c69656e743a20436f6e7472616374206f776e65722063616e6e6f7420626560008201527f206120636c69656e740000000000000000000000000000000000000000000000602082015250565b6000614319602983613179565b9150614324826142bd565b604082019050919050565b600060208201905081810360008301526143488161430c565b9050919050565b7f436c69656e743a20436c69656e7420616c726561647920657869737473000000600082015250565b6000614385601d83613179565b91506143908261434f565b602082019050919050565b600060208201905081810360008301526143b481614378565b9050919050565b7f4c6f636b65723a204974206973206561726c7920746f2072656c65617365207460008201527f686520746f6b656e732e00000000000000000000000000000000000000000000602082015250565b6000614417602a83613179565b9150614422826143bb565b604082019050919050565b600060208201905081810360008301526144468161440a565b9050919050565b600060608201905061446260008301866136f1565b61446f60208301856136f1565b61447c604083018461336b565b949350505050565b7f45524332303a204f776e65722063616e206f6e6c792073656e6420746f20706160008201527f72746e6572732e00000000000000000000000000000000000000000000000000602082015250565b60006144e0602783613179565b91506144eb82614484565b604082019050919050565b6000602082019050818103600083015261450f816144d3565b9050919050565b7f45524332303a20506172746e6572732063616e206f6e6c792073656e6420746f60008201527f20636c69656e747320616e64206f776e65722e00000000000000000000000000602082015250565b6000614572603383613179565b915061457d82614516565b604082019050919050565b600060208201905081810360008301526145a181614565565b9050919050565b7f45524332303a20436c69656e7473207769746820612062616c616e636520686960008201527f67686572207468616e206d696e546f6b656e73546f52656465656d2063616e6e60208201527f6f742073656e6420746f20616e6f7468657220636c69656e742e000000000000604082015250565b600061462a605a83613179565b9150614635826145a8565b606082019050919050565b600060208201905081810360008301526146598161461d565b9050919050565b7f45524332303a20436c69656e7473207769746820612062616c616e6365206c6f60008201527f776572207468616e206d696e546f6b656e73546f52656465656d2063616e6e6f60208201527f742072656465656d20746f6b656e732e00000000000000000000000000000000604082015250565b60006146e2605083613179565b91506146ed82614660565b606082019050919050565b60006020820190508181036000830152614711816146d5565b9050919050565b7f4e487b7100000000000000000000000000000000000000000000000000000000600052601260045260246000fd5b600061475282613292565b915061475d83613292565b92508261476d5761476c614718565b5b828204905092915050565b7f4c6f636b65723a204f6e6c7920706172746e657273206f72206f776e6572206360008201527f616e206c6f636b2e000000000000000000000000000000000000000000000000602082015250565b60006147d4602883613179565b91506147df82614778565b604082019050919050565b60006020820190508181036000830152614803816147c7565b9050919050565b7f45524332303a204f776e65722063616e206f6e6c79206c6f636b207472616e7360008201527f616374696f6e7320746f20706172746e6572732e000000000000000000000000602082015250565b6000614866603483613179565b91506148718261480a565b604082019050919050565b6000602082019050818103600083015261489581614859565b9050919050565b7f45524332303a20506172746e6572732063616e206f6e6c79206c6f636b20747260008201527f616e73616374696f6e7320746f20636c69656e747320616e64206f776e65722e602082015250565b60006148f8604083613179565b91506149038261489c565b604082019050919050565b60006020820190508181036000830152614927816148eb565b9050919050565b7f45524332303a20617070726f766520746f20746865207a65726f20616464726560008201527f73732e0000000000000000000000000000000000000000000000000000000000602082015250565b600061498a602383613179565b91506149958261492e565b604082019050919050565b600060208201905081810360008301526149b98161497d565b9050919050565b7f45524332303a20616d6f756e7420697320686967686572207468616e2074686560008201527f207370656e64696e67207265737420616c6c6f7765642e000000000000000000602082015250565b6000614a1c603783613179565b9150614a27826149c0565b604082019050919050565b60006020820190508181036000830152614a4b81614a0f565b905091905056fea26469706673582212204559047d9b763e3a5df897fd96311e88b7b257e1e27365564448caa830a1f57064736f6c63430008130033",
  "immutableReferences": {},
  "source": "// SPDX-License-Identifier: MIT\r\npragma solidity ^0.8.19;\r\nimport \"./4_PayBackToken.sol\";\r\n\r\ncontract PayBackLocker is PayBackToken(\"PayBackToken\", \"PBT\", 1000000, 0, 300) {\r\n    struct Item {\r\n        uint256 amount;\r\n        uint256 unlockDate;\r\n    }\r\n    mapping(address => mapping(address => Item[]))\r\n        private lockerToReceiverToItem;\r\n    address private _contractAddr = address(this);\r\n    mapping(address => uint256) public lockedBalanceOf;\r\n\r\n    //-------------------------Events-------------------------\r\n\r\n    event Locked(address locker, address receiver, uint256 id);\r\n    event Released(address locker, address receiver, uint256 id);\r\n\r\n    //locking is done by the ownerAddr, should be a partner or owner...\r\n    // this is an intermal functionality, provided by the owner to support and ease the job of its partners.\r\n    // partners instead of sending tokens to the client, can just lock them.\r\n    // If an item is returned, they can change also the amount\r\n    function lock(\r\n        address _receiver,\r\n        uint256 _amount,\r\n        uint256 _unlockDate\r\n    ) public returns (uint256) {\r\n        //transfer tokens to this contract addr\r\n        require(\r\n            addrToPartnerId[msg.sender] != 0 || msg.sender == _owner,\r\n            \"Locker: Only partners or owner can lock.\"\r\n        );\r\n\r\n        // case 1. sender is owner\r\n        if (msg.sender == _owner) {\r\n            require(\r\n                addrToPartnerId[_receiver] != 0,\r\n                \"ERC20: Owner can only lock transactions to partners.\"\r\n            );\r\n        }\r\n        //case 2. sender is partner\r\n        else if (addrToPartnerId[msg.sender] != 0) {\r\n            require(\r\n                addrToClientId[_receiver] != 0 || _receiver == _owner,\r\n                \"ERC20: Partners can only lock transactions to clients and owner.\"\r\n            );\r\n        }\r\n        _transfer(msg.sender, _contractAddr, _amount);\r\n\r\n        Item memory newItem = Item(_amount, _unlockDate);\r\n        lockerToReceiverToItem[msg.sender][_receiver].push(newItem);\r\n        lockedBalanceOf[_receiver] += _amount;\r\n        uint256 id = lockerToReceiverToItem[msg.sender][_receiver].length - 1;\r\n        emit Locked(msg.sender, _receiver, id);\r\n\r\n        return id;\r\n    }\r\n\r\n    function releaseLock(\r\n        address _locker,\r\n        address _receiver,\r\n        uint256 _id\r\n    ) public isOwner {\r\n        //https://medium.com/coinmonks/solidity-storage-vs-memory-vs-calldata-8c7e8c38bce\r\n        Item memory the_item = lockerToReceiverToItem[_locker][_receiver][_id];\r\n        //check if date is okay\r\n        require(\r\n            the_item.unlockDate <= block.timestamp,\r\n            \"Locker: It is early to release the tokens.\"\r\n        );\r\n\r\n        _transfer(_contractAddr, _receiver, the_item.amount);\r\n        lockedBalanceOf[_receiver] -= the_item.amount;\r\n        delete lockerToReceiverToItem[_locker][_receiver][_id];\r\n        emit Released(_locker, _receiver, _id);\r\n    }\r\n\r\n    // when part of the purchase is returned, some of the tokens should also be returned back to the owner\r\n    function reduceItemTokens(\r\n        address _receiver,\r\n        uint256 _id,\r\n        uint256 _amount\r\n    ) public {\r\n        require(\r\n            addrToPartnerId[msg.sender] != 0 || msg.sender == _owner,\r\n            \"Locker: Only partners or owner can alter a lock.\"\r\n        );\r\n        Item memory the_item = lockerToReceiverToItem[msg.sender][_receiver][\r\n            _id\r\n        ];\r\n\r\n        require(the_item.amount > _amount, \"Locker: Amount is too high.\");\r\n\r\n        require(\r\n            the_item.unlockDate > block.timestamp,\r\n            \"Locker: Option reducing tokens is expired.\"\r\n        );\r\n        lockerToReceiverToItem[msg.sender][_receiver][_id].amount =\r\n            the_item.amount -\r\n            _amount;\r\n        lockedBalanceOf[_receiver] -= _amount;\r\n        _transfer(_contractAddr, msg.sender, _amount);\r\n\r\n        //     //ich weiss nicht wa passiert wenn die Waren nicht rechtzeitig bei dem Kaufer ankommen. Gilt die Retoure oder nicht mehr...\r\n        //     //also hier ist die Zeit fest.\r\n        //     // Nachdem die Zeit abgelaufen ist, koennen die Tokens nur an der Kunde geschickt werden. und das macht automatisch der Owner.\r\n    }\r\n\r\n    function getCurrentTime() public view returns (uint256) {\r\n        return block.timestamp;\r\n    }\r\n\r\n    function getNrLockedItems(address _locker, address _receiver)\r\n        public\r\n        view\r\n        returns (uint256)\r\n    {\r\n        return lockerToReceiverToItem[_locker][_receiver].length;\r\n    }\r\n\r\n    function getLockedItem(\r\n        address _locker,\r\n        address _receiver,\r\n        uint256 _id\r\n    ) public view returns (uint256, uint256) {\r\n        Item memory the_item = lockerToReceiverToItem[_locker][_receiver][_id];\r\n        return (the_item.amount, the_item.unlockDate);\r\n    }\r\n\r\n    //dont need because not accurate like this\r\n    //     function calcFutureEpoch(\r\n    //         uint256 _hours,\r\n    //         uint256 _days,\r\n    //         uint256 _weeks\r\n    //     ) public view returns (uint256) {\r\n    //         uint256 givenEpoch = (3600 * _hours) +\r\n    //             (86400 * _days) +\r\n    //             (604800 * _weeks);\r\n    //         return block.timestamp + givenEpoch;\r\n    //     }\r\n}\r\n",
  "sourcePath": "C:\\Users\\aselim\\Documents\\GitHub\\PayBackOnBlockchain\\payback-token-truffle\\contracts\\5_PayBackLocker.sol",
  "compiler": {
    "name": "solc",
    "version": "0.8.19+commit.7dd6d404.Emscripten.clang"
  },
  "schemaVersion": "3.4.14",
  "updatedAt": "2023-09-13T15:10:01.652Z",
  "networkType": "ethereum",
  "devdoc": {
    "events": {
      "Approval(address,address,uint256)": {
        "details": "Emitted when the allowance of a `spender` for an `owner` is set by a call to {approve}. `value` is the new allowance."
      },
      "Transfer(address,address,uint256)": {
        "details": "Emitted when `value` tokens are moved from one account (`from`) to another (`to`). Note that `value` may be zero."
      }
    },
    "kind": "dev",
    "methods": {
      "allowance(address,address)": {
        "details": "Function to check the amount of tokens than an owner allowed to a spender.",
        "params": {
          "_owner": "address The address which owns the funds.",
          "_spender": "address The address which will spend the funds."
        },
        "returns": {
          "_0": "A uint specifying the amount of tokens still available for the spender."
        }
      },
      "balanceOf(address)": {
        "details": "Returns the amount of tokens owned by `account`."
      },
      "getOwner()": {
        "details": "Return owner address ",
        "returns": {
          "_0": "address of owner"
        }
      },
      "transfer(address,uint256)": {
        "details": "See {IERC20-transfer}. Requirements: - `to` cannot be the zero address. - the caller must have a balance of at least `amount`."
      }
    },
    "version": 1
  },
  "userdoc": {
    "kind": "user",
    "methods": {},
    "version": 1
  }
}