{
  "contractName": "PayBackLocker",
  "abi": [
    {
      "anonymous": false,
      "inputs": [
        {
          "indexed": true,
          "internalType": "address",
          "name": "owner",
          "type": "address"
        },
        {
          "indexed": true,
          "internalType": "address",
          "name": "spender",
          "type": "address"
        },
        {
          "indexed": false,
          "internalType": "uint256",
          "name": "value",
          "type": "uint256"
        }
      ],
      "name": "Approval",
      "type": "event"
    },
    {
      "anonymous": false,
      "inputs": [
        {
          "indexed": true,
          "internalType": "address",
          "name": "_addr",
          "type": "address"
        }
      ],
      "name": "ClientRegistered",
      "type": "event"
    },
    {
      "anonymous": false,
      "inputs": [
        {
          "indexed": false,
          "internalType": "address",
          "name": "locker",
          "type": "address"
        },
        {
          "indexed": false,
          "internalType": "address",
          "name": "receiver",
          "type": "address"
        },
        {
          "indexed": false,
          "internalType": "uint256",
          "name": "id",
          "type": "uint256"
        }
      ],
      "name": "Locked",
      "type": "event"
    },
    {
      "anonymous": false,
      "inputs": [
        {
          "indexed": false,
          "internalType": "uint256",
          "name": "partnerId",
          "type": "uint256"
        },
        {
          "indexed": false,
          "internalType": "string",
          "name": "name",
          "type": "string"
        }
      ],
      "name": "PartnerAdded",
      "type": "event"
    },
    {
      "anonymous": false,
      "inputs": [
        {
          "indexed": false,
          "internalType": "address",
          "name": "locker",
          "type": "address"
        },
        {
          "indexed": false,
          "internalType": "address",
          "name": "receiver",
          "type": "address"
        },
        {
          "indexed": false,
          "internalType": "uint256",
          "name": "id",
          "type": "uint256"
        }
      ],
      "name": "Released",
      "type": "event"
    },
    {
      "anonymous": false,
      "inputs": [
        {
          "indexed": true,
          "internalType": "address",
          "name": "from",
          "type": "address"
        },
        {
          "indexed": true,
          "internalType": "address",
          "name": "to",
          "type": "address"
        },
        {
          "indexed": false,
          "internalType": "uint256",
          "name": "value",
          "type": "uint256"
        }
      ],
      "name": "Transfer",
      "type": "event"
    },
    {
      "inputs": [
        {
          "internalType": "address",
          "name": "_addr",
          "type": "address"
        }
      ],
      "name": "addClient",
      "outputs": [
        {
          "internalType": "uint256",
          "name": "",
          "type": "uint256"
        }
      ],
      "stateMutability": "nonpayable",
      "type": "function"
    },
    {
      "inputs": [
        {
          "internalType": "string",
          "name": "_name",
          "type": "string"
        },
        {
          "internalType": "address payable",
          "name": "_addr",
          "type": "address"
        },
        {
          "internalType": "string",
          "name": "_currency",
          "type": "string"
        },
        {
          "internalType": "uint256",
          "name": "_valueForToken",
          "type": "uint256"
        }
      ],
      "name": "addPartner",
      "outputs": [
        {
          "internalType": "bool",
          "name": "",
          "type": "bool"
        }
      ],
      "stateMutability": "nonpayable",
      "type": "function"
    },
    {
      "inputs": [
        {
          "internalType": "address",
          "name": "",
          "type": "address"
        }
      ],
      "name": "addrToClientId",
      "outputs": [
        {
          "internalType": "uint256",
          "name": "",
          "type": "uint256"
        }
      ],
      "stateMutability": "view",
      "type": "function",
      "constant": true
    },
    {
      "inputs": [
        {
          "internalType": "address",
          "name": "",
          "type": "address"
        }
      ],
      "name": "addrToPartnerId",
      "outputs": [
        {
          "internalType": "uint256",
          "name": "",
          "type": "uint256"
        }
      ],
      "stateMutability": "view",
      "type": "function",
      "constant": true
    },
    {
      "inputs": [
        {
          "internalType": "address",
          "name": "_owner",
          "type": "address"
        },
        {
          "internalType": "address",
          "name": "_spender",
          "type": "address"
        }
      ],
      "name": "allowance",
      "outputs": [
        {
          "internalType": "uint256",
          "name": "",
          "type": "uint256"
        }
      ],
      "stateMutability": "view",
      "type": "function",
      "constant": true
    },
    {
      "inputs": [
        {
          "internalType": "address",
          "name": "_spender",
          "type": "address"
        },
        {
          "internalType": "uint256",
          "name": "_amount",
          "type": "uint256"
        }
      ],
      "name": "approve",
      "outputs": [
        {
          "internalType": "bool",
          "name": "",
          "type": "bool"
        }
      ],
      "stateMutability": "nonpayable",
      "type": "function"
    },
    {
      "inputs": [
        {
          "internalType": "address",
          "name": "account",
          "type": "address"
        }
      ],
      "name": "balanceOf",
      "outputs": [
        {
          "internalType": "uint256",
          "name": "",
          "type": "uint256"
        }
      ],
      "stateMutability": "view",
      "type": "function",
      "constant": true
    },
    {
      "inputs": [
        {
          "internalType": "uint256",
          "name": "_roundValue",
          "type": "uint256"
        },
        {
          "internalType": "uint256",
          "name": "_partnerId",
          "type": "uint256"
        }
      ],
      "name": "calcPointsToEarn",
      "outputs": [
        {
          "internalType": "uint256",
          "name": "",
          "type": "uint256"
        }
      ],
      "stateMutability": "view",
      "type": "function",
      "constant": true
    },
    {
      "inputs": [],
      "name": "decimals",
      "outputs": [
        {
          "internalType": "uint8",
          "name": "",
          "type": "uint8"
        }
      ],
      "stateMutability": "view",
      "type": "function",
      "constant": true
    },
    {
      "inputs": [],
      "name": "getOwner",
      "outputs": [
        {
          "internalType": "address",
          "name": "",
          "type": "address"
        }
      ],
      "stateMutability": "view",
      "type": "function",
      "constant": true
    },
    {
      "inputs": [
        {
          "internalType": "uint256",
          "name": "_amount",
          "type": "uint256"
        }
      ],
      "name": "loadTotalSupply",
      "outputs": [
        {
          "internalType": "bool",
          "name": "",
          "type": "bool"
        }
      ],
      "stateMutability": "nonpayable",
      "type": "function"
    },
    {
      "inputs": [],
      "name": "minTokensToRedeem",
      "outputs": [
        {
          "internalType": "uint256",
          "name": "",
          "type": "uint256"
        }
      ],
      "stateMutability": "view",
      "type": "function",
      "constant": true
    },
    {
      "inputs": [],
      "name": "name",
      "outputs": [
        {
          "internalType": "string",
          "name": "",
          "type": "string"
        }
      ],
      "stateMutability": "view",
      "type": "function",
      "constant": true
    },
    {
      "inputs": [],
      "name": "numClient",
      "outputs": [
        {
          "internalType": "uint256",
          "name": "",
          "type": "uint256"
        }
      ],
      "stateMutability": "view",
      "type": "function",
      "constant": true
    },
    {
      "inputs": [],
      "name": "numPartner",
      "outputs": [
        {
          "internalType": "uint256",
          "name": "",
          "type": "uint256"
        }
      ],
      "stateMutability": "view",
      "type": "function",
      "constant": true
    },
    {
      "inputs": [
        {
          "internalType": "uint256",
          "name": "",
          "type": "uint256"
        }
      ],
      "name": "partners",
      "outputs": [
        {
          "internalType": "string",
          "name": "name",
          "type": "string"
        },
        {
          "internalType": "address payable",
          "name": "walletAddr",
          "type": "address"
        },
        {
          "internalType": "string",
          "name": "currency",
          "type": "string"
        },
        {
          "internalType": "uint256",
          "name": "valueForToken",
          "type": "uint256"
        }
      ],
      "stateMutability": "view",
      "type": "function",
      "constant": true
    },
    {
      "inputs": [
        {
          "internalType": "uint256",
          "name": "id",
          "type": "uint256"
        }
      ],
      "name": "removePartner",
      "outputs": [],
      "stateMutability": "nonpayable",
      "type": "function"
    },
    {
      "inputs": [],
      "name": "symbol",
      "outputs": [
        {
          "internalType": "string",
          "name": "",
          "type": "string"
        }
      ],
      "stateMutability": "view",
      "type": "function",
      "constant": true
    },
    {
      "inputs": [],
      "name": "totalSupply",
      "outputs": [
        {
          "internalType": "uint256",
          "name": "",
          "type": "uint256"
        }
      ],
      "stateMutability": "view",
      "type": "function",
      "constant": true
    },
    {
      "inputs": [
        {
          "internalType": "address",
          "name": "_to",
          "type": "address"
        },
        {
          "internalType": "uint256",
          "name": "_amount",
          "type": "uint256"
        }
      ],
      "name": "transfer",
      "outputs": [
        {
          "internalType": "bool",
          "name": "",
          "type": "bool"
        }
      ],
      "stateMutability": "nonpayable",
      "type": "function"
    },
    {
      "inputs": [
        {
          "internalType": "address",
          "name": "_from",
          "type": "address"
        },
        {
          "internalType": "address",
          "name": "_to",
          "type": "address"
        },
        {
          "internalType": "uint256",
          "name": "_amount",
          "type": "uint256"
        }
      ],
      "name": "transferFrom",
      "outputs": [
        {
          "internalType": "bool",
          "name": "",
          "type": "bool"
        }
      ],
      "stateMutability": "nonpayable",
      "type": "function"
    },
    {
      "inputs": [
        {
          "internalType": "address",
          "name": "_receiver",
          "type": "address"
        },
        {
          "internalType": "uint256",
          "name": "_amount",
          "type": "uint256"
        },
        {
          "internalType": "uint256",
          "name": "_unlockDate",
          "type": "uint256"
        }
      ],
      "name": "lock",
      "outputs": [
        {
          "internalType": "uint256",
          "name": "",
          "type": "uint256"
        }
      ],
      "stateMutability": "nonpayable",
      "type": "function"
    },
    {
      "inputs": [
        {
          "internalType": "address",
          "name": "_locker",
          "type": "address"
        },
        {
          "internalType": "address",
          "name": "_receiver",
          "type": "address"
        },
        {
          "internalType": "uint256",
          "name": "_id",
          "type": "uint256"
        }
      ],
      "name": "releaseLock",
      "outputs": [],
      "stateMutability": "nonpayable",
      "type": "function"
    },
    {
      "inputs": [
        {
          "internalType": "address",
          "name": "_receiver",
          "type": "address"
        },
        {
          "internalType": "uint256",
          "name": "_id",
          "type": "uint256"
        },
        {
          "internalType": "uint256",
          "name": "_amount",
          "type": "uint256"
        }
      ],
      "name": "reduceItemTokens",
      "outputs": [],
      "stateMutability": "nonpayable",
      "type": "function"
    },
    {
      "inputs": [],
      "name": "getCurrentTime",
      "outputs": [
        {
          "internalType": "uint256",
          "name": "",
          "type": "uint256"
        }
      ],
      "stateMutability": "view",
      "type": "function",
      "constant": true
    },
    {
      "inputs": [
        {
          "internalType": "uint256",
          "name": "_hours",
          "type": "uint256"
        },
        {
          "internalType": "uint256",
          "name": "_days",
          "type": "uint256"
        },
        {
          "internalType": "uint256",
          "name": "_weeks",
          "type": "uint256"
        }
      ],
      "name": "calcFutureEpoch",
      "outputs": [
        {
          "internalType": "uint256",
          "name": "",
          "type": "uint256"
        }
      ],
      "stateMutability": "view",
      "type": "function",
      "constant": true
    }
  ],
  "bytecode": "0x608060405230600f60006101000a81548173ffffffffffffffffffffffffffffffffffffffff021916908373ffffffffffffffffffffffffffffffffffffffff1602179055503480156200005257600080fd5b506040518060400160405280600c81526020017f5061794261636b546f6b656e00000000000000000000000000000000000000008152506040518060400160405280600381526020017f5042540000000000000000000000000000000000000000000000000000000000815250620f4240600061012c336000806101000a81548173ffffffffffffffffffffffffffffffffffffffff021916908373ffffffffffffffffffffffffffffffffffffffff160217905550600060018190555060006040518060800160405280604051806020016040528060008152508152602001600073ffffffffffffffffffffffffffffffffffffffff1681526020016040518060200160405280600081525081526020016000815250905060028190806001815401808255809150506001900390600052602060002090600402016000909190919091506000820151816000019081620001ae91906200055a565b5060208201518160010160006101000a81548173ffffffffffffffffffffffffffffffffffffffff021916908373ffffffffffffffffffffffffffffffffffffffff16021790555060408201518160020190816200020d91906200055a565b5060608201518160030155505050600060058190555084600690816200023491906200055a565b5083600790816200024691906200055a565b508260098190555081600860006101000a81548160ff021916908360ff16021790555080600a8190555082600b60008060009054906101000a900473ffffffffffffffffffffffffffffffffffffffff1673ffffffffffffffffffffffffffffffffffffffff1673ffffffffffffffffffffffffffffffffffffffff16815260200190815260200160002081905550505050505062000641565b600081519050919050565b7f4e487b7100000000000000000000000000000000000000000000000000000000600052604160045260246000fd5b7f4e487b7100000000000000000000000000000000000000000000000000000000600052602260045260246000fd5b600060028204905060018216806200036257607f821691505b6020821081036200037857620003776200031a565b5b50919050565b60008190508160005260206000209050919050565b60006020601f8301049050919050565b600082821b905092915050565b600060088302620003e27fffffffffffffffffffffffffffffffffffffffffffffffffffffffffffffffff82620003a3565b620003ee8683620003a3565b95508019841693508086168417925050509392505050565b6000819050919050565b6000819050919050565b60006200043b620004356200042f8462000406565b62000410565b62000406565b9050919050565b6000819050919050565b62000457836200041a565b6200046f620004668262000442565b848454620003b0565b825550505050565b600090565b6200048662000477565b620004938184846200044c565b505050565b5b81811015620004bb57620004af6000826200047c565b60018101905062000499565b5050565b601f8211156200050a57620004d4816200037e565b620004df8462000393565b81016020851015620004ef578190505b62000507620004fe8562000393565b83018262000498565b50505b505050565b600082821c905092915050565b60006200052f600019846008026200050f565b1980831691505092915050565b60006200054a83836200051c565b9150826002028217905092915050565b6200056582620002e0565b67ffffffffffffffff811115620005815762000580620002eb565b5b6200058d825462000349565b6200059a828285620004bf565b600060209050601f831160018114620005d25760008415620005bd578287015190505b620005c985826200053c565b86555062000639565b601f198416620005e2866200037e565b60005b828110156200060c57848901518255600182019150602085019450602081019050620005e5565b868310156200062c578489015162000628601f8916826200051c565b8355505b6001600288020188555050505b505050505050565b613fbd80620006516000396000f3fe608060405234801561001057600080fd5b506004361061018e5760003560e01c806370a08231116100de578063c3b49d0411610097578063e041692611610071578063e0416926146104d8578063e15cfad214610508578063e2ab691d14610538578063faa5e4e2146105685761018e565b8063c3b49d0414610457578063c785f5931461048a578063dd62ed3e146104a85761018e565b806370a08231146103835780637a3d9499146103b35780637d1d8cc0146103cf578063893d20e8146103eb57806395d89b4114610409578063a9059cbb146104275761018e565b8063210e870d1161014b578063313ce56711610125578063313ce567146102f957806343928cfd146103175780634a9596ce146103475780634b8e3961146103655761018e565b8063210e870d1461027b57806323b872dd146102ab57806329cb924d146102db5761018e565b806306fdde0314610193578063095ea7b3146101b157806313869f85146101e157806318160ddd1461021157806318df65a71461022f5780631e1413cb1461025f575b600080fd5b61019b610598565b6040516101a8919061290f565b60405180910390f35b6101cb60048036038101906101c691906129d9565b610626565b6040516101d89190612a34565b60405180910390f35b6101fb60048036038101906101f69190612a4f565b6107cf565b6040516102089190612a34565b60405180910390f35b610219610939565b6040516102269190612a8b565b60405180910390f35b61024960048036038101906102449190612aa6565b61093f565b6040516102569190612a8b565b60405180910390f35b61027960048036038101906102749190612af9565b61099a565b005b61029560048036038101906102909190612cbf565b610c77565b6040516102a29190612a34565b60405180910390f35b6102c560048036038101906102c09190612d5e565b6110da565b6040516102d29190612a34565b60405180910390f35b6102e3611125565b6040516102f09190612a8b565b60405180910390f35b61030161112d565b60405161030e9190612dcd565b60405180910390f35b610331600480360381019061032c9190612de8565b611140565b60405161033e9190612a8b565b60405180910390f35b61034f61147d565b60405161035c9190612a8b565b60405180910390f35b61036d611483565b60405161037a9190612a8b565b60405180910390f35b61039d60048036038101906103989190612de8565b611489565b6040516103aa9190612a8b565b60405180910390f35b6103cd60048036038101906103c89190612d5e565b6114d2565b005b6103e960048036038101906103e49190612a4f565b611788565b005b6103f361188d565b6040516104009190612e24565b60405180910390f35b6104116118b6565b60405161041e919061290f565b60405180910390f35b610441600480360381019061043c91906129d9565b611944565b60405161044e9190612a34565b60405180910390f35b610471600480360381019061046c9190612a4f565b611e18565b6040516104819493929190612e4e565b60405180910390f35b610492611f88565b60405161049f9190612a8b565b60405180910390f35b6104c260048036038101906104bd9190612ea1565b611f8e565b6040516104cf9190612a8b565b60405180910390f35b6104f260048036038101906104ed9190612de8565b612015565b6040516104ff9190612a8b565b60405180910390f35b610522600480360381019061051d9190612ee1565b61202d565b60405161052f9190612a8b565b60405180910390f35b610552600480360381019061054d9190612af9565b612073565b60405161055f9190612a8b565b60405180910390f35b610582600480360381019061057d9190612de8565b61231b565b60405161058f9190612a8b565b60405180910390f35b600680546105a590612f50565b80601f01602080910402602001604051908101604052809291908181526020018280546105d190612f50565b801561061e5780601f106105f35761010080835404028352916020019161061e565b820191906000526020600020905b81548152906001019060200180831161060157829003601f168201915b505050505081565b600080600360003373ffffffffffffffffffffffffffffffffffffffff1673ffffffffffffffffffffffffffffffffffffffff168152602001908152602001600020541415806106b657506000600460003373ffffffffffffffffffffffffffffffffffffffff1673ffffffffffffffffffffffffffffffffffffffff1681526020019081526020016000205414155b6106f5576040517f08c379a00000000000000000000000000000000000000000000000000000000081526004016106ec90612ff3565b60405180910390fd5b60008203610738576040517f08c379a000000000000000000000000000000000000000000000000000000000815260040161072f9061305f565b60405180910390fd5b81600b60003373ffffffffffffffffffffffffffffffffffffffff1673ffffffffffffffffffffffffffffffffffffffff1681526020019081526020016000205410156107ba576040517f08c379a00000000000000000000000000000000000000000000000000000000081526004016107b1906130f1565b60405180910390fd5b6107c5338484612333565b6001905092915050565b60008060009054906101000a900473ffffffffffffffffffffffffffffffffffffffff1673ffffffffffffffffffffffffffffffffffffffff163373ffffffffffffffffffffffffffffffffffffffff1614610860576040517f08c379a00000000000000000000000000000000000000000000000000000000081526004016108579061315d565b60405180910390fd5b81600b60008060009054906101000a900473ffffffffffffffffffffffffffffffffffffffff1673ffffffffffffffffffffffffffffffffffffffff1673ffffffffffffffffffffffffffffffffffffffff168152602001908152602001600020546108cc91906131ac565b600b60008060009054906101000a900473ffffffffffffffffffffffffffffffffffffffff1673ffffffffffffffffffffffffffffffffffffffff1673ffffffffffffffffffffffffffffffffffffffff1681526020019081526020016000208190555060019050919050565b60095481565b6000808262093a8061095191906131e0565b846201518061096091906131e0565b86610e1061096e91906131e0565b61097891906131ac565b61098291906131ac565b9050804261099091906131ac565b9150509392505050565b6000600360003373ffffffffffffffffffffffffffffffffffffffff1673ffffffffffffffffffffffffffffffffffffffff16815260200190815260200160002054141580610a34575060008054906101000a900473ffffffffffffffffffffffffffffffffffffffff1673ffffffffffffffffffffffffffffffffffffffff163373ffffffffffffffffffffffffffffffffffffffff16145b610a73576040517f08c379a0000000000000000000000000000000000000000000000000000000008152600401610a6a90613294565b60405180910390fd5b6000600e60003373ffffffffffffffffffffffffffffffffffffffff1673ffffffffffffffffffffffffffffffffffffffff16815260200190815260200160002060008573ffffffffffffffffffffffffffffffffffffffff1673ffffffffffffffffffffffffffffffffffffffff1681526020019081526020016000208381548110610b0357610b026132b4565b5b906000526020600020906002020160405180604001604052908160008201548152602001600182015481525050905081816000015110610b78576040517f08c379a0000000000000000000000000000000000000000000000000000000008152600401610b6f9061332f565b60405180910390fd5b42816020015110610bbe576040517f08c379a0000000000000000000000000000000000000000000000000000000008152600401610bb5906133c1565b60405180910390fd5b818160000151610bce91906133e1565b600e60003373ffffffffffffffffffffffffffffffffffffffff1673ffffffffffffffffffffffffffffffffffffffff16815260200190815260200160002060008673ffffffffffffffffffffffffffffffffffffffff1673ffffffffffffffffffffffffffffffffffffffff1681526020019081526020016000208481548110610c5c57610c5b6132b4565b5b90600052602060002090600202016000018190555050505050565b60008060009054906101000a900473ffffffffffffffffffffffffffffffffffffffff1673ffffffffffffffffffffffffffffffffffffffff163373ffffffffffffffffffffffffffffffffffffffff1614610d08576040517f08c379a0000000000000000000000000000000000000000000000000000000008152600401610cff9061315d565b60405180910390fd5b83600073ffffffffffffffffffffffffffffffffffffffff168173ffffffffffffffffffffffffffffffffffffffff1603610d78576040517f08c379a0000000000000000000000000000000000000000000000000000000008152600401610d6f90613487565b60405180910390fd5b6000600360008773ffffffffffffffffffffffffffffffffffffffff1673ffffffffffffffffffffffffffffffffffffffff1681526020019081526020016000205414610dfa576040517f08c379a0000000000000000000000000000000000000000000000000000000008152600401610df190613519565b60405180910390fd5b60008054906101000a900473ffffffffffffffffffffffffffffffffffffffff1673ffffffffffffffffffffffffffffffffffffffff168573ffffffffffffffffffffffffffffffffffffffff1603610e88576040517f08c379a0000000000000000000000000000000000000000000000000000000008152600401610e7f906135ab565b60405180910390fd5b6001831015610ecc576040517f08c379a0000000000000000000000000000000000000000000000000000000008152600401610ec390613663565b60405180910390fd5b600060405180608001604052808881526020018773ffffffffffffffffffffffffffffffffffffffff16815260200186815260200185815250905060028190806001815401808255809150506001900390600052602060002090600402016000909190919091506000820151816000019081610f48919061382f565b5060208201518160010160006101000a81548173ffffffffffffffffffffffffffffffffffffffff021916908373ffffffffffffffffffffffffffffffffffffffff1602179055506040820151816002019081610fa5919061382f565b50606082015181600301555050600160008154610fc190613901565b91905081905550600154600360008873ffffffffffffffffffffffffffffffffffffffff1673ffffffffffffffffffffffffffffffffffffffff168152602001908152602001600020819055508573ffffffffffffffffffffffffffffffffffffffff1660026001548154811061103b5761103a6132b4565b5b906000526020600020906004020160010160009054906101000a900473ffffffffffffffffffffffffffffffffffffffff1673ffffffffffffffffffffffffffffffffffffffff161461109157611090613949565b5b7f6b5d098d49c45279cf1afc02eec71018b4e172ec66e1834863c5d62febaa50b7600154886040516110c4929190613978565b60405180910390a1600192505050949350505050565b60008033905060006110ed8683866124ca565b9050600115158115150361110c57611106868686612694565b50611117565b60009250505061111e565b6001925050505b9392505050565b600042905090565b600860009054906101000a900460ff1681565b60008060009054906101000a900473ffffffffffffffffffffffffffffffffffffffff1673ffffffffffffffffffffffffffffffffffffffff163373ffffffffffffffffffffffffffffffffffffffff16146111d1576040517f08c379a00000000000000000000000000000000000000000000000000000000081526004016111c89061315d565b60405180910390fd5b81600073ffffffffffffffffffffffffffffffffffffffff168173ffffffffffffffffffffffffffffffffffffffff1603611241576040517f08c379a000000000000000000000000000000000000000000000000000000000815260040161123890613487565b60405180910390fd5b6000600360008573ffffffffffffffffffffffffffffffffffffffff1673ffffffffffffffffffffffffffffffffffffffff16815260200190815260200160002054146112c3576040517f08c379a00000000000000000000000000000000000000000000000000000000081526004016112ba90613519565b60405180910390fd5b60008054906101000a900473ffffffffffffffffffffffffffffffffffffffff1673ffffffffffffffffffffffffffffffffffffffff168373ffffffffffffffffffffffffffffffffffffffff1603611351576040517f08c379a000000000000000000000000000000000000000000000000000000000815260040161134890613a1a565b60405180910390fd5b6000600460008573ffffffffffffffffffffffffffffffffffffffff1673ffffffffffffffffffffffffffffffffffffffff16815260200190815260200160002054146113d3576040517f08c379a00000000000000000000000000000000000000000000000000000000081526004016113ca90613a86565b60405180910390fd5b6005600081546113e290613901565b91905081905550600554600460008573ffffffffffffffffffffffffffffffffffffffff1673ffffffffffffffffffffffffffffffffffffffff168152602001908152602001600020819055508273ffffffffffffffffffffffffffffffffffffffff167f2ce5ee634dc8e65bbbad43d4ca6b4413f261b6a5dd89d79f5db67892e4512d1a60405160405180910390a2600554915050919050565b60015481565b600a5481565b6000600b60008373ffffffffffffffffffffffffffffffffffffffff1673ffffffffffffffffffffffffffffffffffffffff168152602001908152602001600020549050919050565b60008054906101000a900473ffffffffffffffffffffffffffffffffffffffff1673ffffffffffffffffffffffffffffffffffffffff163373ffffffffffffffffffffffffffffffffffffffff1614611560576040517f08c379a00000000000000000000000000000000000000000000000000000000081526004016115579061315d565b60405180910390fd5b6000600e60008573ffffffffffffffffffffffffffffffffffffffff1673ffffffffffffffffffffffffffffffffffffffff16815260200190815260200160002060008473ffffffffffffffffffffffffffffffffffffffff1673ffffffffffffffffffffffffffffffffffffffff16815260200190815260200160002082815481106115f0576115ef6132b4565b5b90600052602060002090600202016040518060400160405290816000820154815260200160018201548152505090504281602001511015611666576040517f08c379a000000000000000000000000000000000000000000000000000000000815260040161165d90613b18565b60405180910390fd5b611697600f60009054906101000a900473ffffffffffffffffffffffffffffffffffffffff16848360000151612694565b50600e60008573ffffffffffffffffffffffffffffffffffffffff1673ffffffffffffffffffffffffffffffffffffffff16815260200190815260200160002060008473ffffffffffffffffffffffffffffffffffffffff1673ffffffffffffffffffffffffffffffffffffffff1681526020019081526020016000208281548110611726576117256132b4565b5b9060005260206000209060020201600080820160009055600182016000905550507f2d87480f50083e2b2759522a8fdda59802650a8055e609a7772cf70c07748f5284848460405161177a93929190613b38565b60405180910390a150505050565b60008054906101000a900473ffffffffffffffffffffffffffffffffffffffff1673ffffffffffffffffffffffffffffffffffffffff163373ffffffffffffffffffffffffffffffffffffffff1614611816576040517f08c379a000000000000000000000000000000000000000000000000000000000815260040161180d9061315d565b60405180910390fd5b6002818154811061182a576118296132b4565b5b9060005260206000209060040201600080820160006118499190612822565b6001820160006101000a81549073ffffffffffffffffffffffffffffffffffffffff02191690556002820160006118809190612822565b6003820160009055505050565b60008060009054906101000a900473ffffffffffffffffffffffffffffffffffffffff16905090565b600780546118c390612f50565b80601f01602080910402602001604051908101604052809291908181526020018280546118ef90612f50565b801561193c5780601f106119115761010080835404028352916020019161193c565b820191906000526020600020905b81548152906001019060200180831161191f57829003601f168201915b505050505081565b600082600073ffffffffffffffffffffffffffffffffffffffff168173ffffffffffffffffffffffffffffffffffffffff16036119b6576040517f08c379a00000000000000000000000000000000000000000000000000000000081526004016119ad90613487565b60405180910390fd5b60008054906101000a900473ffffffffffffffffffffffffffffffffffffffff1673ffffffffffffffffffffffffffffffffffffffff163373ffffffffffffffffffffffffffffffffffffffff1603611a90576000600360008673ffffffffffffffffffffffffffffffffffffffff1673ffffffffffffffffffffffffffffffffffffffff1681526020019081526020016000205403611a8b576040517f08c379a0000000000000000000000000000000000000000000000000000000008152600401611a8290613be1565b60405180910390fd5b611e00565b6000600360003373ffffffffffffffffffffffffffffffffffffffff1673ffffffffffffffffffffffffffffffffffffffff1681526020019081526020016000205414611bb5576000600460008673ffffffffffffffffffffffffffffffffffffffff1673ffffffffffffffffffffffffffffffffffffffff16815260200190815260200160002054141580611b71575060008054906101000a900473ffffffffffffffffffffffffffffffffffffffff1673ffffffffffffffffffffffffffffffffffffffff168473ffffffffffffffffffffffffffffffffffffffff16145b611bb0576040517f08c379a0000000000000000000000000000000000000000000000000000000008152600401611ba790613c73565b60405180910390fd5b611dff565b6000600460003373ffffffffffffffffffffffffffffffffffffffff1673ffffffffffffffffffffffffffffffffffffffff1681526020019081526020016000205414611df5576000600460008673ffffffffffffffffffffffffffffffffffffffff1673ffffffffffffffffffffffffffffffffffffffff1681526020019081526020016000205414611ccb57600a54600b60003373ffffffffffffffffffffffffffffffffffffffff1673ffffffffffffffffffffffffffffffffffffffff1681526020019081526020016000205410611cc6576040517f08c379a0000000000000000000000000000000000000000000000000000000008152600401611cbd90613d2b565b60405180910390fd5b611df0565b60008054906101000a900473ffffffffffffffffffffffffffffffffffffffff1673ffffffffffffffffffffffffffffffffffffffff168473ffffffffffffffffffffffffffffffffffffffff161480611d6557506000600360008673ffffffffffffffffffffffffffffffffffffffff1673ffffffffffffffffffffffffffffffffffffffff1681526020019081526020016000205414155b15611def57600a54600b60003373ffffffffffffffffffffffffffffffffffffffff1673ffffffffffffffffffffffffffffffffffffffff168152602001908152602001600020541015611dee576040517f08c379a0000000000000000000000000000000000000000000000000000000008152600401611de590613de3565b60405180910390fd5b5b5b611dfe565b60009150611e11565b5b5b611e0b338585612694565b50600191505b5092915050565b60028181548110611e2857600080fd5b9060005260206000209060040201600091509050806000018054611e4b90612f50565b80601f0160208091040260200160405190810160405280929190818152602001828054611e7790612f50565b8015611ec45780601f10611e9957610100808354040283529160200191611ec4565b820191906000526020600020905b815481529060010190602001808311611ea757829003601f168201915b5050505050908060010160009054906101000a900473ffffffffffffffffffffffffffffffffffffffff1690806002018054611eff90612f50565b80601f0160208091040260200160405190810160405280929190818152602001828054611f2b90612f50565b8015611f785780601f10611f4d57610100808354040283529160200191611f78565b820191906000526020600020905b815481529060010190602001808311611f5b57829003601f168201915b5050505050908060030154905084565b60055481565b6000600c60008473ffffffffffffffffffffffffffffffffffffffff1673ffffffffffffffffffffffffffffffffffffffff16815260200190815260200160002060008373ffffffffffffffffffffffffffffffffffffffff1673ffffffffffffffffffffffffffffffffffffffff16815260200190815260200160002054905092915050565b60036020528060005260406000206000915090505481565b60008060028381548110612044576120436132b4565b5b9060005260206000209060040201905060008160030154856120669190613e32565b9050809250505092915050565b600080600360003373ffffffffffffffffffffffffffffffffffffffff1673ffffffffffffffffffffffffffffffffffffffff1681526020019081526020016000205414158061210e575060008054906101000a900473ffffffffffffffffffffffffffffffffffffffff1673ffffffffffffffffffffffffffffffffffffffff163373ffffffffffffffffffffffffffffffffffffffff16145b61214d576040517f08c379a000000000000000000000000000000000000000000000000000000000815260040161214490613ed5565b60405180910390fd5b61217a33600f60009054906101000a900473ffffffffffffffffffffffffffffffffffffffff1685612694565b5060006040518060400160405280858152602001848152509050600e60003373ffffffffffffffffffffffffffffffffffffffff1673ffffffffffffffffffffffffffffffffffffffff16815260200190815260200160002060008673ffffffffffffffffffffffffffffffffffffffff1673ffffffffffffffffffffffffffffffffffffffff168152602001908152602001600020819080600181540180825580915050600190039060005260206000209060020201600090919091909150600082015181600001556020820151816001015550506000600e60003373ffffffffffffffffffffffffffffffffffffffff1673ffffffffffffffffffffffffffffffffffffffff16815260200190815260200160002060008773ffffffffffffffffffffffffffffffffffffffff1673ffffffffffffffffffffffffffffffffffffffff1681526020019081526020016000208054905090507f989eaa915cbb416ea3d6f9a63b1a3de51770c7674b11fe21ecdf76b4e1d1391033878360405161230793929190613b38565b60405180910390a180925050509392505050565b60046020528060005260406000206000915090505481565b600073ffffffffffffffffffffffffffffffffffffffff168373ffffffffffffffffffffffffffffffffffffffff16036123705761236f613949565b5b600073ffffffffffffffffffffffffffffffffffffffff168273ffffffffffffffffffffffffffffffffffffffff16036123df576040517f08c379a00000000000000000000000000000000000000000000000000000000081526004016123d690613f67565b60405180910390fd5b80600c60008573ffffffffffffffffffffffffffffffffffffffff1673ffffffffffffffffffffffffffffffffffffffff16815260200190815260200160002060008473ffffffffffffffffffffffffffffffffffffffff1673ffffffffffffffffffffffffffffffffffffffff168152602001908152602001600020819055508173ffffffffffffffffffffffffffffffffffffffff168373ffffffffffffffffffffffffffffffffffffffff167f8c5be1e5ebec7d5bd14f71427d1e84f3dd0314c0f7b2291e5b200ac8c7c3b925836040516124bd9190612a8b565b60405180910390a3505050565b600080600d60008573ffffffffffffffffffffffffffffffffffffffff1673ffffffffffffffffffffffffffffffffffffffff16815260200190815260200160002060008673ffffffffffffffffffffffffffffffffffffffff1673ffffffffffffffffffffffffffffffffffffffff1681526020019081526020016000205490506000600c60008673ffffffffffffffffffffffffffffffffffffffff1673ffffffffffffffffffffffffffffffffffffffff16815260200190815260200160002060008773ffffffffffffffffffffffffffffffffffffffff1673ffffffffffffffffffffffffffffffffffffffff1681526020019081526020016000205490506000818310156125e65782826125e391906133e1565b90505b8085116126855784836125f991906131ac565b600d60008873ffffffffffffffffffffffffffffffffffffffff1673ffffffffffffffffffffffffffffffffffffffff16815260200190815260200160002060008973ffffffffffffffffffffffffffffffffffffffff1673ffffffffffffffffffffffffffffffffffffffff168152602001908152602001600020819055506001935050505061268d565b600093505050505b9392505050565b600081600b60008673ffffffffffffffffffffffffffffffffffffffff1673ffffffffffffffffffffffffffffffffffffffff168152602001908152602001600020546126e191906133e1565b600b60008673ffffffffffffffffffffffffffffffffffffffff1673ffffffffffffffffffffffffffffffffffffffff1681526020019081526020016000208190555081600b60008573ffffffffffffffffffffffffffffffffffffffff1673ffffffffffffffffffffffffffffffffffffffff1681526020019081526020016000205461276f91906131ac565b600b60008573ffffffffffffffffffffffffffffffffffffffff1673ffffffffffffffffffffffffffffffffffffffff168152602001908152602001600020819055508273ffffffffffffffffffffffffffffffffffffffff168473ffffffffffffffffffffffffffffffffffffffff167fddf252ad1be2c89b69c2b068fc378daa952ba7f163c4a11628f55a4df523b3ef8460405161280f9190612a8b565b60405180910390a3600190509392505050565b50805461282e90612f50565b6000825580601f10612840575061285f565b601f01602090049060005260206000209081019061285e9190612862565b5b50565b5b8082111561287b576000816000905550600101612863565b5090565b600081519050919050565b600082825260208201905092915050565b60005b838110156128b957808201518184015260208101905061289e565b60008484015250505050565b6000601f19601f8301169050919050565b60006128e18261287f565b6128eb818561288a565b93506128fb81856020860161289b565b612904816128c5565b840191505092915050565b6000602082019050818103600083015261292981846128d6565b905092915050565b6000604051905090565b600080fd5b600080fd5b600073ffffffffffffffffffffffffffffffffffffffff82169050919050565b600061297082612945565b9050919050565b61298081612965565b811461298b57600080fd5b50565b60008135905061299d81612977565b92915050565b6000819050919050565b6129b6816129a3565b81146129c157600080fd5b50565b6000813590506129d3816129ad565b92915050565b600080604083850312156129f0576129ef61293b565b5b60006129fe8582860161298e565b9250506020612a0f858286016129c4565b9150509250929050565b60008115159050919050565b612a2e81612a19565b82525050565b6000602082019050612a496000830184612a25565b92915050565b600060208284031215612a6557612a6461293b565b5b6000612a73848285016129c4565b91505092915050565b612a85816129a3565b82525050565b6000602082019050612aa06000830184612a7c565b92915050565b600080600060608486031215612abf57612abe61293b565b5b6000612acd868287016129c4565b9350506020612ade868287016129c4565b9250506040612aef868287016129c4565b9150509250925092565b600080600060608486031215612b1257612b1161293b565b5b6000612b208682870161298e565b9350506020612b31868287016129c4565b9250506040612b42868287016129c4565b9150509250925092565b600080fd5b600080fd5b7f4e487b7100000000000000000000000000000000000000000000000000000000600052604160045260246000fd5b612b8e826128c5565b810181811067ffffffffffffffff82111715612bad57612bac612b56565b5b80604052505050565b6000612bc0612931565b9050612bcc8282612b85565b919050565b600067ffffffffffffffff821115612bec57612beb612b56565b5b612bf5826128c5565b9050602081019050919050565b82818337600083830152505050565b6000612c24612c1f84612bd1565b612bb6565b905082815260208101848484011115612c4057612c3f612b51565b5b612c4b848285612c02565b509392505050565b600082601f830112612c6857612c67612b4c565b5b8135612c78848260208601612c11565b91505092915050565b6000612c8c82612945565b9050919050565b612c9c81612c81565b8114612ca757600080fd5b50565b600081359050612cb981612c93565b92915050565b60008060008060808587031215612cd957612cd861293b565b5b600085013567ffffffffffffffff811115612cf757612cf6612940565b5b612d0387828801612c53565b9450506020612d1487828801612caa565b935050604085013567ffffffffffffffff811115612d3557612d34612940565b5b612d4187828801612c53565b9250506060612d52878288016129c4565b91505092959194509250565b600080600060608486031215612d7757612d7661293b565b5b6000612d858682870161298e565b9350506020612d968682870161298e565b9250506040612da7868287016129c4565b9150509250925092565b600060ff82169050919050565b612dc781612db1565b82525050565b6000602082019050612de26000830184612dbe565b92915050565b600060208284031215612dfe57612dfd61293b565b5b6000612e0c8482850161298e565b91505092915050565b612e1e81612965565b82525050565b6000602082019050612e396000830184612e15565b92915050565b612e4881612c81565b82525050565b60006080820190508181036000830152612e6881876128d6565b9050612e776020830186612e3f565b8181036040830152612e8981856128d6565b9050612e986060830184612a7c565b95945050505050565b60008060408385031215612eb857612eb761293b565b5b6000612ec68582860161298e565b9250506020612ed78582860161298e565b9150509250929050565b60008060408385031215612ef857612ef761293b565b5b6000612f06858286016129c4565b9250506020612f17858286016129c4565b9150509250929050565b7f4e487b7100000000000000000000000000000000000000000000000000000000600052602260045260246000fd5b60006002820490506001821680612f6857607f821691505b602082108103612f7b57612f7a612f21565b5b50919050565b7f4f6e6c7920706172746e65727320616e6420636c69656e732063616e2061707060008201527f726f7665207370656e646572732e000000000000000000000000000000000000602082015250565b6000612fdd602e8361288a565b9150612fe882612f81565b604082019050919050565b6000602082019050818103600083015261300c81612fd0565b9050919050565b7f45524332303a20416d6f756e742063616e6e6f74206265203000000000000000600082015250565b600061304960198361288a565b915061305482613013565b602082019050919050565b600060208201905081810360008301526130788161303c565b9050919050565b7f45524332303a20416d6f756e742063616e6e6f7420626520677265617465722060008201527f7468616e2062616c616e63650000000000000000000000000000000000000000602082015250565b60006130db602c8361288a565b91506130e68261307f565b604082019050919050565b6000602082019050818103600083015261310a816130ce565b9050919050565b7f4f776e65723a2043616c6c6572206973206e6f74206f776e6572000000000000600082015250565b6000613147601a8361288a565b915061315282613111565b602082019050919050565b600060208201905081810360008301526131768161313a565b9050919050565b7f4e487b7100000000000000000000000000000000000000000000000000000000600052601160045260246000fd5b60006131b7826129a3565b91506131c2836129a3565b92508282019050808211156131da576131d961317d565b5b92915050565b60006131eb826129a3565b91506131f6836129a3565b9250828202613204816129a3565b9150828204841483151761321b5761321a61317d565b5b5092915050565b7f4c6f636b65723a204f6e6c7920706172746e657273206f72206f776e6572206360008201527f616e20616c7465722061206c6f636b2e00000000000000000000000000000000602082015250565b600061327e60308361288a565b915061328982613222565b604082019050919050565b600060208201905081810360008301526132ad81613271565b9050919050565b7f4e487b7100000000000000000000000000000000000000000000000000000000600052603260045260246000fd5b7f4c6f636b65723a20416d6f756e7420697320746f6f20686967682e0000000000600082015250565b6000613319601b8361288a565b9150613324826132e3565b602082019050919050565b600060208201905081810360008301526133488161330c565b9050919050565b7f4c6f636b65723a204f7074696f6e207265647563696e6720746f6b656e73206960008201527f7320657870697265642e00000000000000000000000000000000000000000000602082015250565b60006133ab602a8361288a565b91506133b68261334f565b604082019050919050565b600060208201905081810360008301526133da8161339e565b9050919050565b60006133ec826129a3565b91506133f7836129a3565b925082820390508181111561340f5761340e61317d565b5b92915050565b7f506172746e65723a20456e74657265642061646472657373206973206e756c6c60008201527f2e00000000000000000000000000000000000000000000000000000000000000602082015250565b600061347160218361288a565b915061347c82613415565b604082019050919050565b600060208201905081810360008301526134a081613464565b9050919050565b7f506172746e65723a20546865206164647265737320697320616c72656164792060008201527f6120706172746e65722100000000000000000000000000000000000000000000602082015250565b6000613503602a8361288a565b915061350e826134a7565b604082019050919050565b60006020820190508181036000830152613532816134f6565b9050919050565b7f506172746e65723a20546865206f776e65722063616e6e6f742062652061207060008201527f6172746e65722100000000000000000000000000000000000000000000000000602082015250565b600061359560278361288a565b91506135a082613539565b604082019050919050565b600060208201905081810360008301526135c481613588565b9050919050565b7f506172746e65723a205468652076616c756520666f72206120546f6b656e207360008201527f686f756c64206265206174206c65617374203120696e2074686520637572726560208201527f6e63792e00000000000000000000000000000000000000000000000000000000604082015250565b600061364d60448361288a565b9150613658826135cb565b606082019050919050565b6000602082019050818103600083015261367c81613640565b9050919050565b60008190508160005260206000209050919050565b60006020601f8301049050919050565b600082821b905092915050565b6000600883026136e57fffffffffffffffffffffffffffffffffffffffffffffffffffffffffffffffff826136a8565b6136ef86836136a8565b95508019841693508086168417925050509392505050565b6000819050919050565b600061372c613727613722846129a3565b613707565b6129a3565b9050919050565b6000819050919050565b61374683613711565b61375a61375282613733565b8484546136b5565b825550505050565b600090565b61376f613762565b61377a81848461373d565b505050565b5b8181101561379e57613793600082613767565b600181019050613780565b5050565b601f8211156137e3576137b481613683565b6137bd84613698565b810160208510156137cc578190505b6137e06137d885613698565b83018261377f565b50505b505050565b600082821c905092915050565b6000613806600019846008026137e8565b1980831691505092915050565b600061381f83836137f5565b9150826002028217905092915050565b6138388261287f565b67ffffffffffffffff81111561385157613850612b56565b5b61385b8254612f50565b6138668282856137a2565b600060209050601f8311600181146138995760008415613887578287015190505b6138918582613813565b8655506138f9565b601f1984166138a786613683565b60005b828110156138cf578489015182556001820191506020850194506020810190506138aa565b868310156138ec57848901516138e8601f8916826137f5565b8355505b6001600288020188555050505b505050505050565b600061390c826129a3565b91507fffffffffffffffffffffffffffffffffffffffffffffffffffffffffffffffff820361393e5761393d61317d565b5b600182019050919050565b7f4e487b7100000000000000000000000000000000000000000000000000000000600052600160045260246000fd5b600060408201905061398d6000830185612a7c565b818103602083015261399f81846128d6565b90509392505050565b7f436c69656e743a20436f6e7472616374206f776e65722063616e6e6f7420626560008201527f206120636c69656e740000000000000000000000000000000000000000000000602082015250565b6000613a0460298361288a565b9150613a0f826139a8565b604082019050919050565b60006020820190508181036000830152613a33816139f7565b9050919050565b7f436c69656e743a20436c69656e7420616c726561647920657869737473000000600082015250565b6000613a70601d8361288a565b9150613a7b82613a3a565b602082019050919050565b60006020820190508181036000830152613a9f81613a63565b9050919050565b7f4c6f636b65723a204974206973206561726c7920746f2072656c65617365207460008201527f686520746f6b656e732e00000000000000000000000000000000000000000000602082015250565b6000613b02602a8361288a565b9150613b0d82613aa6565b604082019050919050565b60006020820190508181036000830152613b3181613af5565b9050919050565b6000606082019050613b4d6000830186612e15565b613b5a6020830185612e15565b613b676040830184612a7c565b949350505050565b7f45524332303a204f776e65722063616e206f6e6c792073656e6420746f20706160008201527f72746e6572732e00000000000000000000000000000000000000000000000000602082015250565b6000613bcb60278361288a565b9150613bd682613b6f565b604082019050919050565b60006020820190508181036000830152613bfa81613bbe565b9050919050565b7f45524332303a20506172746e6572732063616e206f6e6c792073656e6420746f60008201527f20636c69656e747320616e64206f776e65722e00000000000000000000000000602082015250565b6000613c5d60338361288a565b9150613c6882613c01565b604082019050919050565b60006020820190508181036000830152613c8c81613c50565b9050919050565b7f45524332303a20436c69656e7473207769746820612062616c616e636520686960008201527f67686572207468616e206d696e546f6b656e73546f52656465656d2063616e6e60208201527f6f742073656e6420746f20616e6f7468657220636c69656e742e000000000000604082015250565b6000613d15605a8361288a565b9150613d2082613c93565b606082019050919050565b60006020820190508181036000830152613d4481613d08565b9050919050565b7f45524332303a20436c69656e7473207769746820612062616c616e6365206c6f60008201527f776572207468616e206d696e546f6b656e73546f52656465656d2063616e6e6f60208201527f742072656465656d20746f6b656e732e00000000000000000000000000000000604082015250565b6000613dcd60508361288a565b9150613dd882613d4b565b606082019050919050565b60006020820190508181036000830152613dfc81613dc0565b9050919050565b7f4e487b7100000000000000000000000000000000000000000000000000000000600052601260045260246000fd5b6000613e3d826129a3565b9150613e48836129a3565b925082613e5857613e57613e03565b5b828204905092915050565b7f4c6f636b65723a204f6e6c7920706172746e657273206f72206f776e6572206360008201527f616e206c6f636b2e000000000000000000000000000000000000000000000000602082015250565b6000613ebf60288361288a565b9150613eca82613e63565b604082019050919050565b60006020820190508181036000830152613eee81613eb2565b9050919050565b7f45524332303a20617070726f766520746f20746865207a65726f20616464726560008201527f73732e0000000000000000000000000000000000000000000000000000000000602082015250565b6000613f5160238361288a565b9150613f5c82613ef5565b604082019050919050565b60006020820190508181036000830152613f8081613f44565b905091905056fea2646970667358221220ade7a5c8a73ac7494d058daabfa454055cf4c4348ab2ed30168be2de8737338164736f6c63430008130033",
  "immutableReferences": {},
  "source": "// SPDX-License-Identifier: MIT\r\npragma solidity ^0.8.12;\r\nimport \"./4_PayBackToken.sol\";\r\n\r\ncontract PayBackLocker is PayBackToken(\"PayBackToken\", \"PBT\", 1000000, 0, 300) {\r\n    struct Item {\r\n        uint256 amount;\r\n        uint256 unlockDate;\r\n    }\r\n    mapping(address => mapping(address => Item[])) lockerToReceiverToItem;\r\n    address private _contractAddr = address(this);\r\n\r\n    //-------------------------Events-------------------------\r\n\r\n    event Locked(address locker, address receiver, uint256 id);\r\n    event Released(address locker, address receiver, uint256 id);\r\n\r\n    //locking is done by the ownerAddr, should be a partner or owner...\r\n    // this is an intermal functionality, provided by the owner to support and ease the job of its partners.\r\n    // partners instead of sending tokens to the client, can just lock them.\r\n    // If an item is returned, they can change also the amount\r\n    function lock(\r\n        address _receiver,\r\n        uint256 _amount,\r\n        uint256 _unlockDate\r\n    ) public returns (uint256) {\r\n        //transfer tokens to this contract addr\r\n        require(\r\n            addrToPartnerId[msg.sender] != 0 || msg.sender == _owner,\r\n            \"Locker: Only partners or owner can lock.\"\r\n        );\r\n        _transfer(msg.sender, _contractAddr, _amount);\r\n\r\n        Item memory newItem = Item(_amount, _unlockDate);\r\n        lockerToReceiverToItem[msg.sender][_receiver].push(newItem);\r\n        uint256 id = lockerToReceiverToItem[msg.sender][_receiver].length;\r\n\r\n        emit Locked(msg.sender, _receiver, id);\r\n\r\n        return id;\r\n    }\r\n\r\n    function releaseLock(\r\n        address _locker,\r\n        address _receiver,\r\n        uint256 _id\r\n    ) public isOwner {\r\n        //https://medium.com/coinmonks/solidity-storage-vs-memory-vs-calldata-8c7e8c38bce\r\n        Item memory the_item = lockerToReceiverToItem[_locker][_receiver][_id];\r\n        //check if date is okay\r\n        require(\r\n            the_item.unlockDate >= block.timestamp,\r\n            \"Locker: It is early to release the tokens.\"\r\n        );\r\n\r\n        _transfer(_contractAddr, _receiver, the_item.amount);\r\n\r\n        delete lockerToReceiverToItem[_locker][_receiver][_id];\r\n        emit Released(_locker, _receiver, _id);\r\n    }\r\n\r\n    // when part of the purchase is returned, some of the tokens should also be returned back to the owner\r\n    function reduceItemTokens(\r\n        address _receiver,\r\n        uint256 _id,\r\n        uint256 _amount\r\n    ) public {\r\n        require(\r\n            addrToPartnerId[msg.sender] != 0 || msg.sender == _owner,\r\n            \"Locker: Only partners or owner can alter a lock.\"\r\n        );\r\n        Item memory the_item = lockerToReceiverToItem[msg.sender][_receiver][\r\n            _id\r\n        ];\r\n\r\n        require(the_item.amount < _amount, \"Locker: Amount is too high.\");\r\n\r\n        require(\r\n            the_item.unlockDate < block.timestamp,\r\n            \"Locker: Option reducing tokens is expired.\"\r\n        );\r\n        lockerToReceiverToItem[msg.sender][_receiver][_id].amount =\r\n            the_item.amount -\r\n            _amount;\r\n\r\n        //     //ich weiss nicht wa passiert wenn die Waren nicht rechtzeitig bei dem Kaufer ankommen. Gilt die Retoure oder nicht mehr...\r\n        //     //also hier ist die Zeit fest.\r\n        //     // Nachdem die Zeit abgelaufen ist, koennen die Tokens nur an der Kunde geschickt werden. und das macht automatisch der Owner.\r\n    }\r\n\r\n    function getCurrentTime() public view returns (uint256) {\r\n        return block.timestamp;\r\n    }\r\n\r\n    function calcFutureEpoch(\r\n        uint256 _hours,\r\n        uint256 _days,\r\n        uint256 _weeks\r\n    ) public view returns (uint256) {\r\n        uint256 givenEpoch = (3600 * _hours) +\r\n            (86400 * _days) +\r\n            (604800 * _weeks);\r\n        return block.timestamp + givenEpoch;\r\n    }\r\n}\r\n",
  "sourcePath": "C:\\Users\\aselim\\Documents\\GitHub\\PayBackOnBlockchain\\payback-token-truffle\\contracts\\5_PayBackLocker.sol",
  "compiler": {
    "name": "solc",
    "version": "0.8.19+commit.7dd6d404.Emscripten.clang"
  },
  "schemaVersion": "3.4.14",
  "updatedAt": "2023-08-18T14:36:08.927Z",
  "networkType": "ethereum",
  "devdoc": {
    "events": {
      "Approval(address,address,uint256)": {
        "details": "Emitted when the allowance of a `spender` for an `owner` is set by a call to {approve}. `value` is the new allowance."
      },
      "Transfer(address,address,uint256)": {
        "details": "Emitted when `value` tokens are moved from one account (`from`) to another (`to`). Note that `value` may be zero."
      }
    },
    "kind": "dev",
    "methods": {
      "allowance(address,address)": {
        "details": "Function to check the amount of tokens than an owner allowed to a spender.",
        "params": {
          "_owner": "address The address which owns the funds.",
          "_spender": "address The address which will spend the funds."
        },
        "returns": {
          "_0": "A uint specifying the amount of tokens still available for the spender."
        }
      },
      "balanceOf(address)": {
        "details": "Returns the amount of tokens owned by `account`."
      },
      "getOwner()": {
        "details": "Return owner address ",
        "returns": {
          "_0": "address of owner"
        }
      },
      "transfer(address,uint256)": {
        "details": "See {IERC20-transfer}. Requirements: - `to` cannot be the zero address. - the caller must have a balance of at least `amount`."
      }
    },
    "version": 1
  },
  "userdoc": {
    "kind": "user",
    "methods": {},
    "version": 1
  }
}