{
  "contractName": "PayBackPartnership",
  "abi": [
    {
      "inputs": [],
      "stateMutability": "nonpayable",
      "type": "constructor"
    },
    {
      "anonymous": false,
      "inputs": [
        {
          "indexed": true,
          "internalType": "address",
          "name": "oldOwner",
          "type": "address"
        },
        {
          "indexed": true,
          "internalType": "address",
          "name": "newOwner",
          "type": "address"
        }
      ],
      "name": "OwnerSet",
      "type": "event"
    },
    {
      "anonymous": false,
      "inputs": [
        {
          "indexed": false,
          "internalType": "uint256",
          "name": "partnerId",
          "type": "uint256"
        },
        {
          "indexed": false,
          "internalType": "string",
          "name": "name",
          "type": "string"
        }
      ],
      "name": "PartnerAdded",
      "type": "event"
    },
    {
      "inputs": [
        {
          "internalType": "address",
          "name": "",
          "type": "address"
        }
      ],
      "name": "addrToPartner",
      "outputs": [
        {
          "internalType": "string",
          "name": "name",
          "type": "string"
        },
        {
          "internalType": "address payable",
          "name": "walletAddr",
          "type": "address"
        },
        {
          "internalType": "string",
          "name": "currency",
          "type": "string"
        },
        {
          "internalType": "uint256",
          "name": "valueForToken",
          "type": "uint256"
        }
      ],
      "stateMutability": "view",
      "type": "function"
    },
    {
      "inputs": [],
      "name": "getOwner",
      "outputs": [
        {
          "internalType": "address",
          "name": "",
          "type": "address"
        }
      ],
      "stateMutability": "view",
      "type": "function"
    },
    {
      "inputs": [],
      "name": "numPartner",
      "outputs": [
        {
          "internalType": "uint256",
          "name": "",
          "type": "uint256"
        }
      ],
      "stateMutability": "view",
      "type": "function"
    },
    {
      "inputs": [
        {
          "internalType": "uint256",
          "name": "",
          "type": "uint256"
        }
      ],
      "name": "partnerIdToAddr",
      "outputs": [
        {
          "internalType": "address",
          "name": "",
          "type": "address"
        }
      ],
      "stateMutability": "view",
      "type": "function"
    },
    {
      "inputs": [
        {
          "internalType": "uint256",
          "name": "",
          "type": "uint256"
        }
      ],
      "name": "partners",
      "outputs": [
        {
          "internalType": "string",
          "name": "name",
          "type": "string"
        },
        {
          "internalType": "address payable",
          "name": "walletAddr",
          "type": "address"
        },
        {
          "internalType": "string",
          "name": "currency",
          "type": "string"
        },
        {
          "internalType": "uint256",
          "name": "valueForToken",
          "type": "uint256"
        }
      ],
      "stateMutability": "view",
      "type": "function"
    },
    {
      "inputs": [
        {
          "internalType": "string",
          "name": "_name",
          "type": "string"
        },
        {
          "internalType": "address payable",
          "name": "_addr",
          "type": "address"
        },
        {
          "internalType": "string",
          "name": "_currency",
          "type": "string"
        },
        {
          "internalType": "uint256",
          "name": "_valueForToken",
          "type": "uint256"
        }
      ],
      "name": "addPartner",
      "outputs": [
        {
          "internalType": "bool",
          "name": "",
          "type": "bool"
        }
      ],
      "stateMutability": "nonpayable",
      "type": "function"
    },
    {
      "inputs": [
        {
          "internalType": "uint256",
          "name": "_roundValue",
          "type": "uint256"
        },
        {
          "internalType": "uint256",
          "name": "_partnerId",
          "type": "uint256"
        }
      ],
      "name": "calcPointsToEarn",
      "outputs": [
        {
          "internalType": "uint256",
          "name": "",
          "type": "uint256"
        }
      ],
      "stateMutability": "view",
      "type": "function"
    }
  ],
  "bytecode": "0x608060405234801561001057600080fd5b50336000806101000a81548173ffffffffffffffffffffffffffffffffffffffff021916908373ffffffffffffffffffffffffffffffffffffffff16021790555060008054906101000a900473ffffffffffffffffffffffffffffffffffffffff1673ffffffffffffffffffffffffffffffffffffffff16600073ffffffffffffffffffffffffffffffffffffffff167f342827c97908e5e2f71151c08502a66d44b6f758e3ac2f1de95f02eb95f0a73560405160405180910390a3600060018190555061161f806100e36000396000f3fe608060405234801561001057600080fd5b506004361061007d5760003560e01c80639610f3bd1161005b5780639610f3bd146100ee578063c3b49d0414610121578063e15cfad214610154578063f23f4026146101845761007d565b8063210e870d146100825780634a9596ce146100b2578063893d20e8146100d0575b600080fd5b61009c60048036038101906100979190610c70565b6101b4565b6040516100a99190610d2a565b60405180910390f35b6100ba6106bc565b6040516100c79190610d54565b60405180910390f35b6100d86106c2565b6040516100e59190610d90565b60405180910390f35b61010860048036038101906101039190610dd7565b6106eb565b6040516101189493929190610e92565b60405180910390f35b61013b60048036038101906101369190610ee5565b61084b565b60405161014b9493929190610e92565b60405180910390f35b61016e60048036038101906101699190610f12565b6109bb565b60405161017b9190610d54565b60405180910390f35b61019e60048036038101906101999190610ee5565b610a08565b6040516101ab9190610d90565b60405180910390f35b60008060009054906101000a900473ffffffffffffffffffffffffffffffffffffffff1673ffffffffffffffffffffffffffffffffffffffff163373ffffffffffffffffffffffffffffffffffffffff1614610245576040517f08c379a000000000000000000000000000000000000000000000000000000000815260040161023c90610f9e565b60405180910390fd5b83600073ffffffffffffffffffffffffffffffffffffffff168173ffffffffffffffffffffffffffffffffffffffff16036102b5576040517f08c379a00000000000000000000000000000000000000000000000000000000081526004016102ac9061100a565b60405180910390fd5b6000600360008773ffffffffffffffffffffffffffffffffffffffff1673ffffffffffffffffffffffffffffffffffffffff1681526020019081526020016000209050600073ffffffffffffffffffffffffffffffffffffffff168160010160009054906101000a900473ffffffffffffffffffffffffffffffffffffffff1673ffffffffffffffffffffffffffffffffffffffff161461038b576040517f08c379a00000000000000000000000000000000000000000000000000000000081526004016103829061109c565b60405180910390fd5b60008054906101000a900473ffffffffffffffffffffffffffffffffffffffff1673ffffffffffffffffffffffffffffffffffffffff168673ffffffffffffffffffffffffffffffffffffffff1603610419576040517f08c379a000000000000000000000000000000000000000000000000000000000815260040161041090611108565b60405180910390fd5b600184101561045d576040517f08c379a00000000000000000000000000000000000000000000000000000000081526004016104549061119a565b60405180910390fd5b600060405180608001604052808981526020018873ffffffffffffffffffffffffffffffffffffffff168152602001878152602001868152509050600281908060018154018082558091505060019003906000526020600020906004020160009091909190915060008201518160000190816104d991906113c6565b5060208201518160010160006101000a81548173ffffffffffffffffffffffffffffffffffffffff021916908373ffffffffffffffffffffffffffffffffffffffff160217905550604082015181600201908161053691906113c6565b5060608201518160030155505061055860018054610a3b90919063ffffffff16565b60018190555080600360008973ffffffffffffffffffffffffffffffffffffffff1673ffffffffffffffffffffffffffffffffffffffff16815260200190815260200160002060008201518160000190816105b391906113c6565b5060208201518160010160006101000a81548173ffffffffffffffffffffffffffffffffffffffff021916908373ffffffffffffffffffffffffffffffffffffffff160217905550604082015181600201908161061091906113c6565b50606082015181600301559050508660046000600154815260200190815260200160002060006101000a81548173ffffffffffffffffffffffffffffffffffffffff021916908373ffffffffffffffffffffffffffffffffffffffff1602179055507f6b5d098d49c45279cf1afc02eec71018b4e172ec66e1834863c5d62febaa50b7600154896040516106a5929190611498565b60405180910390a160019350505050949350505050565b60015481565b60008060009054906101000a900473ffffffffffffffffffffffffffffffffffffffff16905090565b600360205280600052604060002060009150905080600001805461070e906111e9565b80601f016020809104026020016040519081016040528092919081815260200182805461073a906111e9565b80156107875780601f1061075c57610100808354040283529160200191610787565b820191906000526020600020905b81548152906001019060200180831161076a57829003601f168201915b5050505050908060010160009054906101000a900473ffffffffffffffffffffffffffffffffffffffff16908060020180546107c2906111e9565b80601f01602080910402602001604051908101604052809291908181526020018280546107ee906111e9565b801561083b5780601f106108105761010080835404028352916020019161083b565b820191906000526020600020905b81548152906001019060200180831161081e57829003601f168201915b5050505050908060030154905084565b6002818154811061085b57600080fd5b906000526020600020906004020160009150905080600001805461087e906111e9565b80601f01602080910402602001604051908101604052809291908181526020018280546108aa906111e9565b80156108f75780601f106108cc576101008083540402835291602001916108f7565b820191906000526020600020905b8154815290600101906020018083116108da57829003601f168201915b5050505050908060010160009054906101000a900473ffffffffffffffffffffffffffffffffffffffff1690806002018054610932906111e9565b80601f016020809104026020016040519081016040528092919081815260200182805461095e906111e9565b80156109ab5780601f10610980576101008083540402835291602001916109ab565b820191906000526020600020905b81548152906001019060200180831161098e57829003601f168201915b5050505050908060030154905084565b600080600283815481106109d2576109d16114c8565b5b9060005260206000209060040201905060006109fb826003015486610a6790919063ffffffff16565b9050809250505092915050565b60046020528060005260406000206000915054906101000a900473ffffffffffffffffffffffffffffffffffffffff1681565b6000808284610a4a9190611526565b905083811015610a5d57610a5c61155a565b5b8091505092915050565b6000808284610a7691906115b8565b90508091505092915050565b6000604051905090565b600080fd5b600080fd5b600080fd5b600080fd5b6000601f19601f8301169050919050565b7f4e487b7100000000000000000000000000000000000000000000000000000000600052604160045260246000fd5b610ae982610aa0565b810181811067ffffffffffffffff82111715610b0857610b07610ab1565b5b80604052505050565b6000610b1b610a82565b9050610b278282610ae0565b919050565b600067ffffffffffffffff821115610b4757610b46610ab1565b5b610b5082610aa0565b9050602081019050919050565b82818337600083830152505050565b6000610b7f610b7a84610b2c565b610b11565b905082815260208101848484011115610b9b57610b9a610a9b565b5b610ba6848285610b5d565b509392505050565b600082601f830112610bc357610bc2610a96565b5b8135610bd3848260208601610b6c565b91505092915050565b600073ffffffffffffffffffffffffffffffffffffffff82169050919050565b6000610c0782610bdc565b9050919050565b610c1781610bfc565b8114610c2257600080fd5b50565b600081359050610c3481610c0e565b92915050565b6000819050919050565b610c4d81610c3a565b8114610c5857600080fd5b50565b600081359050610c6a81610c44565b92915050565b60008060008060808587031215610c8a57610c89610a8c565b5b600085013567ffffffffffffffff811115610ca857610ca7610a91565b5b610cb487828801610bae565b9450506020610cc587828801610c25565b935050604085013567ffffffffffffffff811115610ce657610ce5610a91565b5b610cf287828801610bae565b9250506060610d0387828801610c5b565b91505092959194509250565b60008115159050919050565b610d2481610d0f565b82525050565b6000602082019050610d3f6000830184610d1b565b92915050565b610d4e81610c3a565b82525050565b6000602082019050610d696000830184610d45565b92915050565b6000610d7a82610bdc565b9050919050565b610d8a81610d6f565b82525050565b6000602082019050610da56000830184610d81565b92915050565b610db481610d6f565b8114610dbf57600080fd5b50565b600081359050610dd181610dab565b92915050565b600060208284031215610ded57610dec610a8c565b5b6000610dfb84828501610dc2565b91505092915050565b600081519050919050565b600082825260208201905092915050565b60005b83811015610e3e578082015181840152602081019050610e23565b60008484015250505050565b6000610e5582610e04565b610e5f8185610e0f565b9350610e6f818560208601610e20565b610e7881610aa0565b840191505092915050565b610e8c81610bfc565b82525050565b60006080820190508181036000830152610eac8187610e4a565b9050610ebb6020830186610e83565b8181036040830152610ecd8185610e4a565b9050610edc6060830184610d45565b95945050505050565b600060208284031215610efb57610efa610a8c565b5b6000610f0984828501610c5b565b91505092915050565b60008060408385031215610f2957610f28610a8c565b5b6000610f3785828601610c5b565b9250506020610f4885828601610c5b565b9150509250929050565b7f43616c6c6572206973206e6f74206f776e657200000000000000000000000000600082015250565b6000610f88601383610e0f565b9150610f9382610f52565b602082019050919050565b60006020820190508181036000830152610fb781610f7b565b9050919050565b7f456e74657265642061646472657373206973206e756c6c2e0000000000000000600082015250565b6000610ff4601883610e0f565b9150610fff82610fbe565b602082019050919050565b6000602082019050818103600083015261102381610fe7565b9050919050565b7f456e7465726564206164647265737320697320616c726561647920612070617260008201527f746e657221000000000000000000000000000000000000000000000000000000602082015250565b6000611086602583610e0f565b91506110918261102a565b604082019050919050565b600060208201905081810360008301526110b581611079565b9050919050565b7f546865206f776e65722063616e6e6f74206265206120706172746e6572210000600082015250565b60006110f2601e83610e0f565b91506110fd826110bc565b602082019050919050565b60006020820190508181036000830152611121816110e5565b9050919050565b7f5468652076616c756520666f72206120546f6b656e2073686f756c642062652060008201527f6174206c65617374203120696e207468652063757272656e63792e0000000000602082015250565b6000611184603b83610e0f565b915061118f82611128565b604082019050919050565b600060208201905081810360008301526111b381611177565b9050919050565b7f4e487b7100000000000000000000000000000000000000000000000000000000600052602260045260246000fd5b6000600282049050600182168061120157607f821691505b602082108103611214576112136111ba565b5b50919050565b60008190508160005260206000209050919050565b60006020601f8301049050919050565b600082821b905092915050565b60006008830261127c7fffffffffffffffffffffffffffffffffffffffffffffffffffffffffffffffff8261123f565b611286868361123f565b95508019841693508086168417925050509392505050565b6000819050919050565b60006112c36112be6112b984610c3a565b61129e565b610c3a565b9050919050565b6000819050919050565b6112dd836112a8565b6112f16112e9826112ca565b84845461124c565b825550505050565b600090565b6113066112f9565b6113118184846112d4565b505050565b5b818110156113355761132a6000826112fe565b600181019050611317565b5050565b601f82111561137a5761134b8161121a565b6113548461122f565b81016020851015611363578190505b61137761136f8561122f565b830182611316565b50505b505050565b600082821c905092915050565b600061139d6000198460080261137f565b1980831691505092915050565b60006113b6838361138c565b9150826002028217905092915050565b6113cf82610e04565b67ffffffffffffffff8111156113e8576113e7610ab1565b5b6113f282546111e9565b6113fd828285611339565b600060209050601f831160018114611430576000841561141e578287015190505b61142885826113aa565b865550611490565b601f19841661143e8661121a565b60005b8281101561146657848901518255600182019150602085019450602081019050611441565b86831015611483578489015161147f601f89168261138c565b8355505b6001600288020188555050505b505050505050565b60006040820190506114ad6000830185610d45565b81810360208301526114bf8184610e4a565b90509392505050565b7f4e487b7100000000000000000000000000000000000000000000000000000000600052603260045260246000fd5b7f4e487b7100000000000000000000000000000000000000000000000000000000600052601160045260246000fd5b600061153182610c3a565b915061153c83610c3a565b9250828201905080821115611554576115536114f7565b5b92915050565b7f4e487b7100000000000000000000000000000000000000000000000000000000600052600160045260246000fd5b7f4e487b7100000000000000000000000000000000000000000000000000000000600052601260045260246000fd5b60006115c382610c3a565b91506115ce83610c3a565b9250826115de576115dd611589565b5b82820490509291505056fea2646970667358221220540bd3e90859e043d1625bee4f4c8eb3db58c2093a5af16591dbc93e5333435764736f6c63430008130033",
  "immutableReferences": {},
  "source": "// SPDX-License-Identifier: MIT\r\npragma solidity ^0.8.19;\r\n\r\nimport \"./1_Owner.sol\";\r\n\r\ncontract PayBackPartnership is Owner{\r\n\r\n    using SafeMath for uint256;\r\n    //-------------------------Variables-------------------------\r\n    uint256 public numPartner; // starting from 1 ? Maybe fix?\r\n\r\n    struct Partner {\r\n        string name;\r\n        address payable walletAddr;\r\n        string currency;\r\n        uint256 valueForToken;\r\n    }\r\n\r\n    Partner[] public partners; // starting from 0\r\n    mapping(address => Partner) public addrToPartner;\r\n    mapping(uint256 => address) public partnerIdToAddr;\r\n\r\n    //-------------------------Constructor-------------------------\r\n    constructor() {\r\n        numPartner = 0;\r\n    }\r\n\r\n    //-------------------------Modifiers-------------------------\r\n\r\n    // modifier isNotPartner(address _addr) {\r\n    //     Partner storage p = addrToPartner[_addr];\r\n    //     require(\r\n    //         p.walletAddr == address(0),\r\n    //         \"Requested address is already a partner!\"\r\n    //     );\r\n    //     _;\r\n    // }\r\n\r\n    modifier addrNotNull(address _addr) {\r\n        require(_addr != address(0), \"Entered address is null.\");\r\n        _;\r\n    }\r\n    // modifier addrIsPartner(address _addr) {\r\n    //     Partner storage p = addrToPartner[_addr];\r\n    //     require(p.walletAddr != address(0), \"Entered address is not a partner!\");\r\n    //     _;\r\n    // }\r\n\r\n    //-------------------------Events-------------------------\r\n\r\n    event PartnerAdded(uint256 partnerId, string name);\r\n\r\n    //-------------------------Functions-------------------------\r\n\r\n    function addPartner(\r\n        string memory _name,\r\n        address payable _addr,\r\n        string memory _currency,\r\n        uint256 _valueForToken\r\n    ) public isOwner addrNotNull(_addr) returns (bool) {\r\n        //search for existing partner\r\n        Partner storage p = addrToPartner[_addr];\r\n\r\n        //check if the address is already not a partner\r\n        require(\r\n            p.walletAddr == address(0),\r\n            \"Entered address is already a partner!\"\r\n        );\r\n\r\n        //check that the address is not the owner\r\n        require(\r\n            _addr != _owner,\r\n            \"The owner cannot be a partner!\"\r\n        );\r\n\r\n         //check that the _valueForToken is minimum 1\r\n        require(\r\n            _valueForToken >= 1,\r\n            \"The value for a Token should be at least 1 in the currency.\"\r\n        );\r\n\r\n        //check if requested tokens are more than 100?\r\n        // require(_tokens >= 100, \"The requested tokens do not correspond with the minimum requirement 100.\");\r\n\r\n        //save the new Partner\r\n        Partner memory newPartner = Partner(_name, _addr, _currency, _valueForToken);\r\n        partners.push(newPartner);\r\n\r\n        //increase the numbers/id of the partners\r\n        //first id is 1\r\n        numPartner = numPartner.add(1);\r\n\r\n        //fix the mappings\r\n        addrToPartner[_addr] = newPartner;\r\n        partnerIdToAddr[numPartner] = _addr;\r\n\r\n        //TODO: Send tokens\r\n        // sendTokensToPartner(numPartner);?\r\n        emit PartnerAdded(numPartner, _name);\r\n        return true;\r\n    }\r\n\r\n    function calcPointsToEarn(uint256 _roundValue, uint256 _partnerId) public view returns (uint256){\r\n        //_roundValue is the value without the 2 decimals rounded\r\n        Partner storage p = partners[_partnerId];\r\n        //the devision doesn't consider the values after decimal :)\r\n        uint256 tokens = _roundValue.div(p.valueForToken);\r\n        return tokens;\r\n    }\r\n\r\n\r\n\r\n    // function sendTokensToPartner(uint256 _partnerId) private {\r\n    //     //TODO : check if there are enough available tokens from the token supply\r\n    //     // require!\r\n    //     Partner storage the_partner = IdToPartner[_partnerId];\r\n\r\n    //     the_partner.\r\n    // }\r\n}\r\n",
  "sourcePath": "C:\\Users\\aselim\\Documents\\GitHub\\PayBackOnBlockchain\\payback-token-truffle\\contracts\\2_PayBackPartnership.sol",
  "compiler": {
    "name": "solc",
    "version": "0.8.19+commit.7dd6d404.Emscripten.clang"
  },
  "schemaVersion": "3.4.14",
  "updatedAt": "2023-07-31T10:36:25.054Z",
  "devdoc": {
    "kind": "dev",
    "methods": {
      "getOwner()": {
        "details": "Return owner address ",
        "returns": {
          "_0": "address of owner"
        }
      }
    },
    "version": 1
  },
  "userdoc": {
    "kind": "user",
    "methods": {},
    "version": 1
  }
}