{
  "contractName": "PaybackClientsPartners",
  "abi": [
    {
      "inputs": [],
      "stateMutability": "nonpayable",
      "type": "constructor"
    },
    {
      "anonymous": false,
      "inputs": [
        {
          "indexed": false,
          "internalType": "uint256",
          "name": "partnerId",
          "type": "uint256"
        },
        {
          "indexed": false,
          "internalType": "string",
          "name": "name",
          "type": "string"
        }
      ],
      "name": "PartnerAdded",
      "type": "event"
    },
    {
      "inputs": [
        {
          "internalType": "address",
          "name": "",
          "type": "address"
        }
      ],
      "name": "addrToClientId",
      "outputs": [
        {
          "internalType": "uint256",
          "name": "",
          "type": "uint256"
        }
      ],
      "stateMutability": "view",
      "type": "function"
    },
    {
      "inputs": [
        {
          "internalType": "address",
          "name": "",
          "type": "address"
        }
      ],
      "name": "addrToPartnerId",
      "outputs": [
        {
          "internalType": "uint256",
          "name": "",
          "type": "uint256"
        }
      ],
      "stateMutability": "view",
      "type": "function"
    },
    {
      "inputs": [],
      "name": "getOwner",
      "outputs": [
        {
          "internalType": "address",
          "name": "",
          "type": "address"
        }
      ],
      "stateMutability": "view",
      "type": "function"
    },
    {
      "inputs": [],
      "name": "numClient",
      "outputs": [
        {
          "internalType": "uint256",
          "name": "",
          "type": "uint256"
        }
      ],
      "stateMutability": "view",
      "type": "function"
    },
    {
      "inputs": [],
      "name": "numPartner",
      "outputs": [
        {
          "internalType": "uint256",
          "name": "",
          "type": "uint256"
        }
      ],
      "stateMutability": "view",
      "type": "function"
    },
    {
      "inputs": [
        {
          "internalType": "uint256",
          "name": "",
          "type": "uint256"
        }
      ],
      "name": "partners",
      "outputs": [
        {
          "internalType": "string",
          "name": "name",
          "type": "string"
        },
        {
          "internalType": "address payable",
          "name": "walletAddr",
          "type": "address"
        },
        {
          "internalType": "string",
          "name": "currency",
          "type": "string"
        },
        {
          "internalType": "uint256",
          "name": "valueForToken",
          "type": "uint256"
        }
      ],
      "stateMutability": "view",
      "type": "function"
    },
    {
      "inputs": [
        {
          "internalType": "string",
          "name": "_name",
          "type": "string"
        },
        {
          "internalType": "address payable",
          "name": "_addr",
          "type": "address"
        },
        {
          "internalType": "string",
          "name": "_currency",
          "type": "string"
        },
        {
          "internalType": "uint256",
          "name": "_valueForToken",
          "type": "uint256"
        }
      ],
      "name": "addPartner",
      "outputs": [
        {
          "internalType": "bool",
          "name": "",
          "type": "bool"
        }
      ],
      "stateMutability": "nonpayable",
      "type": "function"
    },
    {
      "inputs": [
        {
          "internalType": "uint256",
          "name": "_roundValue",
          "type": "uint256"
        },
        {
          "internalType": "uint256",
          "name": "_partnerId",
          "type": "uint256"
        }
      ],
      "name": "calcPointsToEarn",
      "outputs": [
        {
          "internalType": "uint256",
          "name": "",
          "type": "uint256"
        }
      ],
      "stateMutability": "view",
      "type": "function"
    },
    {
      "inputs": [
        {
          "internalType": "uint256",
          "name": "_id",
          "type": "uint256"
        }
      ],
      "name": "removePartner",
      "outputs": [],
      "stateMutability": "nonpayable",
      "type": "function"
    },
    {
      "inputs": [
        {
          "internalType": "address",
          "name": "_addr",
          "type": "address"
        }
      ],
      "name": "addClient",
      "outputs": [
        {
          "internalType": "uint256",
          "name": "",
          "type": "uint256"
        }
      ],
      "stateMutability": "nonpayable",
      "type": "function"
    }
  ],
  "bytecode": "0x60806040523480156200001157600080fd5b50336000806101000a81548173ffffffffffffffffffffffffffffffffffffffff021916908373ffffffffffffffffffffffffffffffffffffffff1602179055506000600181905550600060058190555060006040518060800160405280604051806020016040528060008152508152602001600073ffffffffffffffffffffffffffffffffffffffff1681526020016040518060200160405280600081525081526020016000815250905060028190806001815401808255809150506001900390600052602060002090600402016000909190919091506000820151816000019081620001009190620003ed565b5060208201518160010160006101000a81548173ffffffffffffffffffffffffffffffffffffffff021916908373ffffffffffffffffffffffffffffffffffffffff16021790555060408201518160020190816200015f9190620003ed565b5060608201518160030155505050620004d4565b600081519050919050565b7f4e487b7100000000000000000000000000000000000000000000000000000000600052604160045260246000fd5b7f4e487b7100000000000000000000000000000000000000000000000000000000600052602260045260246000fd5b60006002820490506001821680620001f557607f821691505b6020821081036200020b576200020a620001ad565b5b50919050565b60008190508160005260206000209050919050565b60006020601f8301049050919050565b600082821b905092915050565b600060088302620002757fffffffffffffffffffffffffffffffffffffffffffffffffffffffffffffffff8262000236565b62000281868362000236565b95508019841693508086168417925050509392505050565b6000819050919050565b6000819050919050565b6000620002ce620002c8620002c28462000299565b620002a3565b62000299565b9050919050565b6000819050919050565b620002ea83620002ad565b62000302620002f982620002d5565b84845462000243565b825550505050565b600090565b620003196200030a565b62000326818484620002df565b505050565b5b818110156200034e57620003426000826200030f565b6001810190506200032c565b5050565b601f8211156200039d57620003678162000211565b620003728462000226565b8101602085101562000382578190505b6200039a620003918562000226565b8301826200032b565b50505b505050565b600082821c905092915050565b6000620003c260001984600802620003a2565b1980831691505092915050565b6000620003dd8383620003af565b9150826002028217905092915050565b620003f88262000173565b67ffffffffffffffff8111156200041457620004136200017e565b5b620004208254620001dc565b6200042d82828562000352565b600060209050601f83116001811462000465576000841562000450578287015190505b6200045c8582620003cf565b865550620004cc565b601f198416620004758662000211565b60005b828110156200049f5784890151825560018201915060208501945060208101905062000478565b86831015620004bf5784890151620004bb601f891682620003af565b8355505b6001600288020188555050505b505050505050565b611c4780620004e46000396000f3fe608060405234801561001057600080fd5b506004361061009e5760003560e01c8063c3b49d0411610066578063c3b49d041461015b578063c785f5931461018e578063e0416926146101ac578063e15cfad2146101dc578063faa5e4e21461020c5761009e565b8063210e870d146100a357806343928cfd146100d35780634a9596ce146101035780637d1d8cc014610121578063893d20e81461013d575b600080fd5b6100bd60048036038101906100b89190611016565b61023c565b6040516100ca91906110d0565b60405180910390f35b6100ed60048036038101906100e89190611129565b610721565b6040516100fa9190611165565b60405180910390f35b61010b610a1b565b6040516101189190611165565b60405180910390f35b61013b60048036038101906101369190611180565b610a21565b005b610145610bb6565b60405161015291906111bc565b60405180910390f35b61017560048036038101906101709190611180565b610bdf565b6040516101859493929190611265565b60405180910390f35b610196610d4f565b6040516101a39190611165565b60405180910390f35b6101c660048036038101906101c19190611129565b610d55565b6040516101d39190611165565b60405180910390f35b6101f660048036038101906101f191906112b8565b610d6d565b6040516102039190611165565b60405180910390f35b61022660048036038101906102219190611129565b610db3565b6040516102339190611165565b60405180910390f35b60008060009054906101000a900473ffffffffffffffffffffffffffffffffffffffff1673ffffffffffffffffffffffffffffffffffffffff163373ffffffffffffffffffffffffffffffffffffffff16146102cd576040517f08c379a00000000000000000000000000000000000000000000000000000000081526004016102c490611344565b60405180910390fd5b83600073ffffffffffffffffffffffffffffffffffffffff168173ffffffffffffffffffffffffffffffffffffffff160361033d576040517f08c379a0000000000000000000000000000000000000000000000000000000008152600401610334906113b0565b60405180910390fd5b6000600360008773ffffffffffffffffffffffffffffffffffffffff1673ffffffffffffffffffffffffffffffffffffffff16815260200190815260200160002054146103bf576040517f08c379a00000000000000000000000000000000000000000000000000000000081526004016103b690611442565b60405180910390fd5b60008054906101000a900473ffffffffffffffffffffffffffffffffffffffff1673ffffffffffffffffffffffffffffffffffffffff168573ffffffffffffffffffffffffffffffffffffffff160361044d576040517f08c379a0000000000000000000000000000000000000000000000000000000008152600401610444906114d4565b60405180910390fd5b6000600460008773ffffffffffffffffffffffffffffffffffffffff1673ffffffffffffffffffffffffffffffffffffffff16815260200190815260200160002054146104cf576040517f08c379a00000000000000000000000000000000000000000000000000000000081526004016104c690611566565b60405180910390fd5b6001831015610513576040517f08c379a000000000000000000000000000000000000000000000000000000000815260040161050a9061161e565b60405180910390fd5b600060405180608001604052808881526020018773ffffffffffffffffffffffffffffffffffffffff1681526020018681526020018581525090506002819080600181540180825580915050600190039060005260206000209060040201600090919091909150600082015181600001908161058f919061184a565b5060208201518160010160006101000a81548173ffffffffffffffffffffffffffffffffffffffff021916908373ffffffffffffffffffffffffffffffffffffffff16021790555060408201518160020190816105ec919061184a565b506060820151816003015550506001600081546106089061194b565b91905081905550600154600360008873ffffffffffffffffffffffffffffffffffffffff1673ffffffffffffffffffffffffffffffffffffffff168152602001908152602001600020819055508573ffffffffffffffffffffffffffffffffffffffff1660026001548154811061068257610681611993565b5b906000526020600020906004020160010160009054906101000a900473ffffffffffffffffffffffffffffffffffffffff1673ffffffffffffffffffffffffffffffffffffffff16146106d8576106d76119c2565b5b7f6b5d098d49c45279cf1afc02eec71018b4e172ec66e1834863c5d62febaa50b76001548860405161070b9291906119f1565b60405180910390a1600192505050949350505050565b60008060009054906101000a900473ffffffffffffffffffffffffffffffffffffffff1673ffffffffffffffffffffffffffffffffffffffff163373ffffffffffffffffffffffffffffffffffffffff16146107b2576040517f08c379a00000000000000000000000000000000000000000000000000000000081526004016107a990611344565b60405180910390fd5b81600073ffffffffffffffffffffffffffffffffffffffff168173ffffffffffffffffffffffffffffffffffffffff1603610822576040517f08c379a0000000000000000000000000000000000000000000000000000000008152600401610819906113b0565b60405180910390fd5b6000600460008573ffffffffffffffffffffffffffffffffffffffff1673ffffffffffffffffffffffffffffffffffffffff16815260200190815260200160002054146108a4576040517f08c379a000000000000000000000000000000000000000000000000000000000815260040161089b90611a6d565b60405180910390fd5b6000600360008573ffffffffffffffffffffffffffffffffffffffff1673ffffffffffffffffffffffffffffffffffffffff1681526020019081526020016000205414610926576040517f08c379a000000000000000000000000000000000000000000000000000000000815260040161091d90611aff565b60405180910390fd5b60008054906101000a900473ffffffffffffffffffffffffffffffffffffffff1673ffffffffffffffffffffffffffffffffffffffff168373ffffffffffffffffffffffffffffffffffffffff16036109b4576040517f08c379a00000000000000000000000000000000000000000000000000000000081526004016109ab90611b91565b60405180910390fd5b6005600081546109c39061194b565b91905081905550600554600460008573ffffffffffffffffffffffffffffffffffffffff1673ffffffffffffffffffffffffffffffffffffffff16815260200190815260200160002081905550600554915050919050565b60015481565b60008054906101000a900473ffffffffffffffffffffffffffffffffffffffff1673ffffffffffffffffffffffffffffffffffffffff163373ffffffffffffffffffffffffffffffffffffffff1614610aaf576040517f08c379a0000000000000000000000000000000000000000000000000000000008152600401610aa690611344565b60405180910390fd5b600060028281548110610ac557610ac4611993565b5b906000526020600020906004020190506000600360008360010160009054906101000a900473ffffffffffffffffffffffffffffffffffffffff1673ffffffffffffffffffffffffffffffffffffffff1673ffffffffffffffffffffffffffffffffffffffff1681526020019081526020016000208190555060028281548110610b5257610b51611993565b5b906000526020600020906004020160008082016000610b719190610dcb565b6001820160006101000a81549073ffffffffffffffffffffffffffffffffffffffff0219169055600282016000610ba89190610dcb565b600382016000905550505050565b60008060009054906101000a900473ffffffffffffffffffffffffffffffffffffffff16905090565b60028181548110610bef57600080fd5b9060005260206000209060040201600091509050806000018054610c129061166d565b80601f0160208091040260200160405190810160405280929190818152602001828054610c3e9061166d565b8015610c8b5780601f10610c6057610100808354040283529160200191610c8b565b820191906000526020600020905b815481529060010190602001808311610c6e57829003601f168201915b5050505050908060010160009054906101000a900473ffffffffffffffffffffffffffffffffffffffff1690806002018054610cc69061166d565b80601f0160208091040260200160405190810160405280929190818152602001828054610cf29061166d565b8015610d3f5780601f10610d1457610100808354040283529160200191610d3f565b820191906000526020600020905b815481529060010190602001808311610d2257829003601f168201915b5050505050908060030154905084565b60055481565b60036020528060005260406000206000915090505481565b60008060028381548110610d8457610d83611993565b5b906000526020600020906004020190506000816003015485610da69190611be0565b9050809250505092915050565b60046020528060005260406000206000915090505481565b508054610dd79061166d565b6000825580601f10610de95750610e08565b601f016020900490600052602060002090810190610e079190610e0b565b5b50565b5b80821115610e24576000816000905550600101610e0c565b5090565b6000604051905090565b600080fd5b600080fd5b600080fd5b600080fd5b6000601f19601f8301169050919050565b7f4e487b7100000000000000000000000000000000000000000000000000000000600052604160045260246000fd5b610e8f82610e46565b810181811067ffffffffffffffff82111715610eae57610ead610e57565b5b80604052505050565b6000610ec1610e28565b9050610ecd8282610e86565b919050565b600067ffffffffffffffff821115610eed57610eec610e57565b5b610ef682610e46565b9050602081019050919050565b82818337600083830152505050565b6000610f25610f2084610ed2565b610eb7565b905082815260208101848484011115610f4157610f40610e41565b5b610f4c848285610f03565b509392505050565b600082601f830112610f6957610f68610e3c565b5b8135610f79848260208601610f12565b91505092915050565b600073ffffffffffffffffffffffffffffffffffffffff82169050919050565b6000610fad82610f82565b9050919050565b610fbd81610fa2565b8114610fc857600080fd5b50565b600081359050610fda81610fb4565b92915050565b6000819050919050565b610ff381610fe0565b8114610ffe57600080fd5b50565b60008135905061101081610fea565b92915050565b600080600080608085870312156110305761102f610e32565b5b600085013567ffffffffffffffff81111561104e5761104d610e37565b5b61105a87828801610f54565b945050602061106b87828801610fcb565b935050604085013567ffffffffffffffff81111561108c5761108b610e37565b5b61109887828801610f54565b92505060606110a987828801611001565b91505092959194509250565b60008115159050919050565b6110ca816110b5565b82525050565b60006020820190506110e560008301846110c1565b92915050565b60006110f682610f82565b9050919050565b611106816110eb565b811461111157600080fd5b50565b600081359050611123816110fd565b92915050565b60006020828403121561113f5761113e610e32565b5b600061114d84828501611114565b91505092915050565b61115f81610fe0565b82525050565b600060208201905061117a6000830184611156565b92915050565b60006020828403121561119657611195610e32565b5b60006111a484828501611001565b91505092915050565b6111b6816110eb565b82525050565b60006020820190506111d160008301846111ad565b92915050565b600081519050919050565b600082825260208201905092915050565b60005b838110156112115780820151818401526020810190506111f6565b60008484015250505050565b6000611228826111d7565b61123281856111e2565b93506112428185602086016111f3565b61124b81610e46565b840191505092915050565b61125f81610fa2565b82525050565b6000608082019050818103600083015261127f818761121d565b905061128e6020830186611256565b81810360408301526112a0818561121d565b90506112af6060830184611156565b95945050505050565b600080604083850312156112cf576112ce610e32565b5b60006112dd85828601611001565b92505060206112ee85828601611001565b9150509250929050565b7f4f776e65723a2043616c6c6572206973206e6f74206f776e6572000000000000600082015250565b600061132e601a836111e2565b9150611339826112f8565b602082019050919050565b6000602082019050818103600083015261135d81611321565b9050919050565b7f456e74657265642061646472657373206973206e756c6c2e0000000000000000600082015250565b600061139a6018836111e2565b91506113a582611364565b602082019050919050565b600060208201905081810360008301526113c98161138d565b9050919050565b7f506172746e65723a20546865206164647265737320697320616c72656164792060008201527f6120706172746e65722e00000000000000000000000000000000000000000000602082015250565b600061142c602a836111e2565b9150611437826113d0565b604082019050919050565b6000602082019050818103600083015261145b8161141f565b9050919050565b7f506172746e65723a20546865206f776e65722063616e6e6f742062652061207060008201527f6172746e65722e00000000000000000000000000000000000000000000000000602082015250565b60006114be6027836111e2565b91506114c982611462565b604082019050919050565b600060208201905081810360008301526114ed816114b1565b9050919050565b7f506172746e65723a204120636c69656e742063616e6e6f74206265206120706160008201527f72746e65722e0000000000000000000000000000000000000000000000000000602082015250565b60006115506026836111e2565b915061155b826114f4565b604082019050919050565b6000602082019050818103600083015261157f81611543565b9050919050565b7f506172746e65723a205468652076616c756520666f72206120546f6b656e207360008201527f686f756c64206265206174206c65617374203120696e2074686520637572726560208201527f6e63792e00000000000000000000000000000000000000000000000000000000604082015250565b60006116086044836111e2565b915061161382611586565b606082019050919050565b60006020820190508181036000830152611637816115fb565b9050919050565b7f4e487b7100000000000000000000000000000000000000000000000000000000600052602260045260246000fd5b6000600282049050600182168061168557607f821691505b6020821081036116985761169761163e565b5b50919050565b60008190508160005260206000209050919050565b60006020601f8301049050919050565b600082821b905092915050565b6000600883026117007fffffffffffffffffffffffffffffffffffffffffffffffffffffffffffffffff826116c3565b61170a86836116c3565b95508019841693508086168417925050509392505050565b6000819050919050565b600061174761174261173d84610fe0565b611722565b610fe0565b9050919050565b6000819050919050565b6117618361172c565b61177561176d8261174e565b8484546116d0565b825550505050565b600090565b61178a61177d565b611795818484611758565b505050565b5b818110156117b9576117ae600082611782565b60018101905061179b565b5050565b601f8211156117fe576117cf8161169e565b6117d8846116b3565b810160208510156117e7578190505b6117fb6117f3856116b3565b83018261179a565b50505b505050565b600082821c905092915050565b600061182160001984600802611803565b1980831691505092915050565b600061183a8383611810565b9150826002028217905092915050565b611853826111d7565b67ffffffffffffffff81111561186c5761186b610e57565b5b611876825461166d565b6118818282856117bd565b600060209050601f8311600181146118b457600084156118a2578287015190505b6118ac858261182e565b865550611914565b601f1984166118c28661169e565b60005b828110156118ea578489015182556001820191506020850194506020810190506118c5565b868310156119075784890151611903601f891682611810565b8355505b6001600288020188555050505b505050505050565b7f4e487b7100000000000000000000000000000000000000000000000000000000600052601160045260246000fd5b600061195682610fe0565b91507fffffffffffffffffffffffffffffffffffffffffffffffffffffffffffffffff82036119885761198761191c565b5b600182019050919050565b7f4e487b7100000000000000000000000000000000000000000000000000000000600052603260045260246000fd5b7f4e487b7100000000000000000000000000000000000000000000000000000000600052600160045260246000fd5b6000604082019050611a066000830185611156565b8181036020830152611a18818461121d565b90509392505050565b7f436c69656e743a20436c69656e7420616c726561647920657869737473000000600082015250565b6000611a57601d836111e2565b9150611a6282611a21565b602082019050919050565b60006020820190508181036000830152611a8681611a4a565b9050919050565b7f436c69656e743a20546865206164647265737320697320616c7265616479206160008201527f20706172746e6572210000000000000000000000000000000000000000000000602082015250565b6000611ae96029836111e2565b9150611af482611a8d565b604082019050919050565b60006020820190508181036000830152611b1881611adc565b9050919050565b7f436c69656e743a20436f6e7472616374206f776e65722063616e6e6f7420626560008201527f206120636c69656e740000000000000000000000000000000000000000000000602082015250565b6000611b7b6029836111e2565b9150611b8682611b1f565b604082019050919050565b60006020820190508181036000830152611baa81611b6e565b9050919050565b7f4e487b7100000000000000000000000000000000000000000000000000000000600052601260045260246000fd5b6000611beb82610fe0565b9150611bf683610fe0565b925082611c0657611c05611bb1565b5b82820490509291505056fea2646970667358221220e56fea7a3b23a6df38298a83cfb239ea5c0293253761e1f56312dbe02172fdd364736f6c63430008130033",
  "immutableReferences": {},
  "source": "// SPDX-License-Identifier: MIT\r\npragma solidity ^0.8.19;\r\n\r\nimport \"./1_Owner.sol\";\r\n\r\ncontract PaybackClientsPartners is Owner {\r\n\r\n    struct Partner {\r\n        string name;\r\n        address payable walletAddr;\r\n        string currency;\r\n        uint256 valueForToken;\r\n    }\r\n\r\n    uint256 public numPartner; // starting from 1\r\n    Partner[] public partners; // id is numPartner, 0 is Empty\r\n    mapping(address => uint256) public addrToPartnerId;\r\n\r\n    mapping(address => uint256) public addrToClientId;\r\n    uint256 public numClient; //last client id.. if 0, no clients\r\n\r\n    constructor() {\r\n        numPartner = 0;\r\n        numClient = 0;\r\n        // first partner is empty\r\n        Partner memory newPartner = Partner(\"\", payable(address(0)), \"\", 0);\r\n        partners.push(newPartner);\r\n    }\r\n\r\n    event PartnerAdded(uint256 partnerId, string name);\r\n\r\n    function addPartner(\r\n        string memory _name,\r\n        address payable _addr,\r\n        string memory _currency,\r\n        uint256 _valueForToken\r\n    ) public isOwner addrNotNull(_addr) returns (bool) {\r\n        \r\n        // Every partner should have a unique address\r\n        require(\r\n            addrToPartnerId[_addr] == 0,\r\n            \"Partner: The address is already a partner.\"\r\n        );\r\n\r\n        require(_addr != _owner, \"Partner: The owner cannot be a partner.\");\r\n\r\n        require(\r\n            addrToClientId[_addr] == 0,\r\n            \"Partner: A client cannot be a partner.\"\r\n        );\r\n\r\n        //check that the _valueForToken is at least 1\r\n        require(\r\n            _valueForToken >= 1,\r\n            \"Partner: The value for a Token should be at least 1 in the currency.\"\r\n        );\r\n\r\n        //save the new Partner\r\n        Partner memory newPartner = Partner(\r\n            _name,\r\n            _addr,\r\n            _currency,\r\n            _valueForToken\r\n        );\r\n        partners.push(newPartner);\r\n        ++numPartner; //starts from 1\r\n        addrToPartnerId[_addr] = numPartner;\r\n\r\n        //reasure that there is no error betweeen numPartner as id and array index\r\n        assert(partners[numPartner].walletAddr == _addr);\r\n        emit PartnerAdded(numPartner, _name);\r\n\r\n        return true;\r\n    }\r\n\r\n    function calcPointsToEarn(uint256 _roundValue, uint256 _partnerId)\r\n        public\r\n        view\r\n        returns (uint256)\r\n    {\r\n        Partner storage p = partners[_partnerId];\r\n        //the devision doesn't consider the values after decimal\r\n        uint256 tokens = _roundValue / p.valueForToken;\r\n        return tokens;\r\n    }\r\n\r\n    function removePartner(uint256 _id) public virtual isOwner {\r\n        Partner storage p = partners[_id];\r\n        addrToPartnerId[p.walletAddr] = 0;\r\n        delete partners[_id];\r\n    }\r\n\r\n    /**\r\n     * @dev Owner can add new clients\r\n     * @return new client id\r\n     */\r\n    function addClient(address _addr)\r\n        public\r\n        isOwner\r\n        addrNotNull(_addr)\r\n        returns (uint256)\r\n    {\r\n        //check if client already exists\r\n        require(addrToClientId[_addr] == 0, \"Client: Client already exists\");\r\n\r\n        //shouldn't be a partner\r\n        require(\r\n            addrToPartnerId[_addr] == 0,\r\n            \"Client: The address is already a partner!\"\r\n        );\r\n        //shouldn't be the owner\r\n        require(_addr != _owner, \"Client: Contract owner cannot be a client\");\r\n\r\n        //register client\r\n        ++numClient;\r\n        addrToClientId[_addr] = numClient;\r\n\r\n        return numClient;\r\n    }\r\n}\r\n",
  "sourcePath": "C:\\Users\\aselim\\Documents\\GitHub\\PayBackOnBlockchain\\payback-token-truffle\\contracts\\2_PaybackClientsPartners.sol",
  "compiler": {
    "name": "solc",
    "version": "0.8.19+commit.7dd6d404.Emscripten.clang"
  },
  "schemaVersion": "3.4.14",
  "updatedAt": "2023-09-20T17:32:03.928Z",
  "devdoc": {
    "kind": "dev",
    "methods": {
      "addClient(address)": {
        "details": "Owner can add new clients",
        "returns": {
          "_0": "new client id"
        }
      },
      "getOwner()": {
        "details": "Return owner address",
        "returns": {
          "_0": "address of owner"
        }
      }
    },
    "version": 1
  },
  "userdoc": {
    "kind": "user",
    "methods": {},
    "version": 1
  }
}