{
  "contractName": "PayBackClients",
  "abi": [
    {
      "inputs": [],
      "stateMutability": "nonpayable",
      "type": "constructor"
    },
    {
      "anonymous": false,
      "inputs": [
        {
          "indexed": true,
          "internalType": "address",
          "name": "_addr",
          "type": "address"
        }
      ],
      "name": "ClientRegistered",
      "type": "event"
    },
    {
      "anonymous": false,
      "inputs": [
        {
          "indexed": false,
          "internalType": "uint256",
          "name": "partnerId",
          "type": "uint256"
        },
        {
          "indexed": false,
          "internalType": "string",
          "name": "name",
          "type": "string"
        }
      ],
      "name": "PartnerAdded",
      "type": "event"
    },
    {
      "inputs": [
        {
          "internalType": "string",
          "name": "_name",
          "type": "string"
        },
        {
          "internalType": "address payable",
          "name": "_addr",
          "type": "address"
        },
        {
          "internalType": "string",
          "name": "_currency",
          "type": "string"
        },
        {
          "internalType": "uint256",
          "name": "_valueForToken",
          "type": "uint256"
        }
      ],
      "name": "addPartner",
      "outputs": [
        {
          "internalType": "bool",
          "name": "",
          "type": "bool"
        }
      ],
      "stateMutability": "nonpayable",
      "type": "function"
    },
    {
      "inputs": [
        {
          "internalType": "address",
          "name": "",
          "type": "address"
        }
      ],
      "name": "addrToClientId",
      "outputs": [
        {
          "internalType": "uint256",
          "name": "",
          "type": "uint256"
        }
      ],
      "stateMutability": "view",
      "type": "function"
    },
    {
      "inputs": [
        {
          "internalType": "address",
          "name": "",
          "type": "address"
        }
      ],
      "name": "addrToPartnerId",
      "outputs": [
        {
          "internalType": "uint256",
          "name": "",
          "type": "uint256"
        }
      ],
      "stateMutability": "view",
      "type": "function"
    },
    {
      "inputs": [
        {
          "internalType": "uint256",
          "name": "_roundValue",
          "type": "uint256"
        },
        {
          "internalType": "uint256",
          "name": "_partnerId",
          "type": "uint256"
        }
      ],
      "name": "calcPointsToEarn",
      "outputs": [
        {
          "internalType": "uint256",
          "name": "",
          "type": "uint256"
        }
      ],
      "stateMutability": "view",
      "type": "function"
    },
    {
      "inputs": [],
      "name": "getOwner",
      "outputs": [
        {
          "internalType": "address",
          "name": "",
          "type": "address"
        }
      ],
      "stateMutability": "view",
      "type": "function"
    },
    {
      "inputs": [],
      "name": "numClient",
      "outputs": [
        {
          "internalType": "uint256",
          "name": "",
          "type": "uint256"
        }
      ],
      "stateMutability": "view",
      "type": "function"
    },
    {
      "inputs": [],
      "name": "numPartner",
      "outputs": [
        {
          "internalType": "uint256",
          "name": "",
          "type": "uint256"
        }
      ],
      "stateMutability": "view",
      "type": "function"
    },
    {
      "inputs": [
        {
          "internalType": "uint256",
          "name": "",
          "type": "uint256"
        }
      ],
      "name": "partners",
      "outputs": [
        {
          "internalType": "string",
          "name": "name",
          "type": "string"
        },
        {
          "internalType": "address payable",
          "name": "walletAddr",
          "type": "address"
        },
        {
          "internalType": "string",
          "name": "currency",
          "type": "string"
        },
        {
          "internalType": "uint256",
          "name": "valueForToken",
          "type": "uint256"
        }
      ],
      "stateMutability": "view",
      "type": "function"
    },
    {
      "inputs": [
        {
          "internalType": "uint256",
          "name": "id",
          "type": "uint256"
        }
      ],
      "name": "removePartner",
      "outputs": [],
      "stateMutability": "nonpayable",
      "type": "function"
    },
    {
      "inputs": [
        {
          "internalType": "address",
          "name": "_addr",
          "type": "address"
        }
      ],
      "name": "addClient",
      "outputs": [
        {
          "internalType": "uint256",
          "name": "",
          "type": "uint256"
        }
      ],
      "stateMutability": "nonpayable",
      "type": "function"
    }
  ],
  "bytecode": "0x60806040523480156200001157600080fd5b50336000806101000a81548173ffffffffffffffffffffffffffffffffffffffff021916908373ffffffffffffffffffffffffffffffffffffffff160217905550600060018190555060006040518060800160405280604051806020016040528060008152508152602001600073ffffffffffffffffffffffffffffffffffffffff1681526020016040518060200160405280600081525081526020016000815250905060028190806001815401808255809150506001900390600052602060002090600402016000909190919091506000820151816000019081620000f89190620003ed565b5060208201518160010160006101000a81548173ffffffffffffffffffffffffffffffffffffffff021916908373ffffffffffffffffffffffffffffffffffffffff1602179055506040820151816002019081620001579190620003ed565b50606082015181600301555050506000600581905550620004d4565b600081519050919050565b7f4e487b7100000000000000000000000000000000000000000000000000000000600052604160045260246000fd5b7f4e487b7100000000000000000000000000000000000000000000000000000000600052602260045260246000fd5b60006002820490506001821680620001f557607f821691505b6020821081036200020b576200020a620001ad565b5b50919050565b60008190508160005260206000209050919050565b60006020601f8301049050919050565b600082821b905092915050565b600060088302620002757fffffffffffffffffffffffffffffffffffffffffffffffffffffffffffffffff8262000236565b62000281868362000236565b95508019841693508086168417925050509392505050565b6000819050919050565b6000819050919050565b6000620002ce620002c8620002c28462000299565b620002a3565b62000299565b9050919050565b6000819050919050565b620002ea83620002ad565b62000302620002f982620002d5565b84845462000243565b825550505050565b600090565b620003196200030a565b62000326818484620002df565b505050565b5b818110156200034e57620003426000826200030f565b6001810190506200032c565b5050565b601f8211156200039d57620003678162000211565b620003728462000226565b8101602085101562000382578190505b6200039a620003918562000226565b8301826200032b565b50505b505050565b600082821c905092915050565b6000620003c260001984600802620003a2565b1980831691505092915050565b6000620003dd8383620003af565b9150826002028217905092915050565b620003f88262000173565b67ffffffffffffffff8111156200041457620004136200017e565b5b620004208254620001dc565b6200042d82828562000352565b600060209050601f83116001811462000465576000841562000450578287015190505b6200045c8582620003cf565b865550620004cc565b601f198416620004758662000211565b60005b828110156200049f5784890151825560018201915060208501945060208101905062000478565b86831015620004bf5784890151620004bb601f891682620003af565b8355505b6001600288020188555050505b505050505050565b611a7a80620004e46000396000f3fe608060405234801561001057600080fd5b506004361061009e5760003560e01c8063c3b49d0411610066578063c3b49d041461015b578063c785f5931461018e578063e0416926146101ac578063e15cfad2146101dc578063faa5e4e21461020c5761009e565b8063210e870d146100a357806343928cfd146100d35780634a9596ce146101035780637d1d8cc014610121578063893d20e81461013d575b600080fd5b6100bd60048036038101906100b89190610f47565b61023c565b6040516100ca9190611001565b60405180910390f35b6100ed60048036038101906100e8919061105a565b61069f565b6040516100fa9190611096565b60405180910390f35b61010b6109dc565b6040516101189190611096565b60405180910390f35b61013b600480360381019061013691906110b1565b6109e2565b005b610145610ae7565b60405161015291906110ed565b60405180910390f35b610175600480360381019061017091906110b1565b610b10565b6040516101859493929190611196565b60405180910390f35b610196610c80565b6040516101a39190611096565b60405180910390f35b6101c660048036038101906101c1919061105a565b610c86565b6040516101d39190611096565b60405180910390f35b6101f660048036038101906101f191906111e9565b610c9e565b6040516102039190611096565b60405180910390f35b6102266004803603810190610221919061105a565b610ce4565b6040516102339190611096565b60405180910390f35b60008060009054906101000a900473ffffffffffffffffffffffffffffffffffffffff1673ffffffffffffffffffffffffffffffffffffffff163373ffffffffffffffffffffffffffffffffffffffff16146102cd576040517f08c379a00000000000000000000000000000000000000000000000000000000081526004016102c490611275565b60405180910390fd5b83600073ffffffffffffffffffffffffffffffffffffffff168173ffffffffffffffffffffffffffffffffffffffff160361033d576040517f08c379a000000000000000000000000000000000000000000000000000000000815260040161033490611307565b60405180910390fd5b6000600360008773ffffffffffffffffffffffffffffffffffffffff1673ffffffffffffffffffffffffffffffffffffffff16815260200190815260200160002054146103bf576040517f08c379a00000000000000000000000000000000000000000000000000000000081526004016103b690611399565b60405180910390fd5b60008054906101000a900473ffffffffffffffffffffffffffffffffffffffff1673ffffffffffffffffffffffffffffffffffffffff168573ffffffffffffffffffffffffffffffffffffffff160361044d576040517f08c379a00000000000000000000000000000000000000000000000000000000081526004016104449061142b565b60405180910390fd5b6001831015610491576040517f08c379a0000000000000000000000000000000000000000000000000000000008152600401610488906114e3565b60405180910390fd5b600060405180608001604052808881526020018773ffffffffffffffffffffffffffffffffffffffff1681526020018681526020018581525090506002819080600181540180825580915050600190039060005260206000209060040201600090919091909150600082015181600001908161050d919061170f565b5060208201518160010160006101000a81548173ffffffffffffffffffffffffffffffffffffffff021916908373ffffffffffffffffffffffffffffffffffffffff160217905550604082015181600201908161056a919061170f565b5060608201518160030155505060016000815461058690611810565b91905081905550600154600360008873ffffffffffffffffffffffffffffffffffffffff1673ffffffffffffffffffffffffffffffffffffffff168152602001908152602001600020819055508573ffffffffffffffffffffffffffffffffffffffff16600260015481548110610600576105ff611858565b5b906000526020600020906004020160010160009054906101000a900473ffffffffffffffffffffffffffffffffffffffff1673ffffffffffffffffffffffffffffffffffffffff161461065657610655611887565b5b7f6b5d098d49c45279cf1afc02eec71018b4e172ec66e1834863c5d62febaa50b7600154886040516106899291906118b6565b60405180910390a1600192505050949350505050565b60008060009054906101000a900473ffffffffffffffffffffffffffffffffffffffff1673ffffffffffffffffffffffffffffffffffffffff163373ffffffffffffffffffffffffffffffffffffffff1614610730576040517f08c379a000000000000000000000000000000000000000000000000000000000815260040161072790611275565b60405180910390fd5b81600073ffffffffffffffffffffffffffffffffffffffff168173ffffffffffffffffffffffffffffffffffffffff16036107a0576040517f08c379a000000000000000000000000000000000000000000000000000000000815260040161079790611307565b60405180910390fd5b6000600360008573ffffffffffffffffffffffffffffffffffffffff1673ffffffffffffffffffffffffffffffffffffffff1681526020019081526020016000205414610822576040517f08c379a000000000000000000000000000000000000000000000000000000000815260040161081990611399565b60405180910390fd5b60008054906101000a900473ffffffffffffffffffffffffffffffffffffffff1673ffffffffffffffffffffffffffffffffffffffff168373ffffffffffffffffffffffffffffffffffffffff16036108b0576040517f08c379a00000000000000000000000000000000000000000000000000000000081526004016108a790611958565b60405180910390fd5b6000600460008573ffffffffffffffffffffffffffffffffffffffff1673ffffffffffffffffffffffffffffffffffffffff1681526020019081526020016000205414610932576040517f08c379a0000000000000000000000000000000000000000000000000000000008152600401610929906119c4565b60405180910390fd5b60056000815461094190611810565b91905081905550600554600460008573ffffffffffffffffffffffffffffffffffffffff1673ffffffffffffffffffffffffffffffffffffffff168152602001908152602001600020819055508273ffffffffffffffffffffffffffffffffffffffff167f2ce5ee634dc8e65bbbad43d4ca6b4413f261b6a5dd89d79f5db67892e4512d1a60405160405180910390a2600554915050919050565b60015481565b60008054906101000a900473ffffffffffffffffffffffffffffffffffffffff1673ffffffffffffffffffffffffffffffffffffffff163373ffffffffffffffffffffffffffffffffffffffff1614610a70576040517f08c379a0000000000000000000000000000000000000000000000000000000008152600401610a6790611275565b60405180910390fd5b60028181548110610a8457610a83611858565b5b906000526020600020906004020160008082016000610aa39190610cfc565b6001820160006101000a81549073ffffffffffffffffffffffffffffffffffffffff0219169055600282016000610ada9190610cfc565b6003820160009055505050565b60008060009054906101000a900473ffffffffffffffffffffffffffffffffffffffff16905090565b60028181548110610b2057600080fd5b9060005260206000209060040201600091509050806000018054610b4390611532565b80601f0160208091040260200160405190810160405280929190818152602001828054610b6f90611532565b8015610bbc5780601f10610b9157610100808354040283529160200191610bbc565b820191906000526020600020905b815481529060010190602001808311610b9f57829003601f168201915b5050505050908060010160009054906101000a900473ffffffffffffffffffffffffffffffffffffffff1690806002018054610bf790611532565b80601f0160208091040260200160405190810160405280929190818152602001828054610c2390611532565b8015610c705780601f10610c4557610100808354040283529160200191610c70565b820191906000526020600020905b815481529060010190602001808311610c5357829003601f168201915b5050505050908060030154905084565b60055481565b60036020528060005260406000206000915090505481565b60008060028381548110610cb557610cb4611858565b5b906000526020600020906004020190506000816003015485610cd79190611a13565b9050809250505092915050565b60046020528060005260406000206000915090505481565b508054610d0890611532565b6000825580601f10610d1a5750610d39565b601f016020900490600052602060002090810190610d389190610d3c565b5b50565b5b80821115610d55576000816000905550600101610d3d565b5090565b6000604051905090565b600080fd5b600080fd5b600080fd5b600080fd5b6000601f19601f8301169050919050565b7f4e487b7100000000000000000000000000000000000000000000000000000000600052604160045260246000fd5b610dc082610d77565b810181811067ffffffffffffffff82111715610ddf57610dde610d88565b5b80604052505050565b6000610df2610d59565b9050610dfe8282610db7565b919050565b600067ffffffffffffffff821115610e1e57610e1d610d88565b5b610e2782610d77565b9050602081019050919050565b82818337600083830152505050565b6000610e56610e5184610e03565b610de8565b905082815260208101848484011115610e7257610e71610d72565b5b610e7d848285610e34565b509392505050565b600082601f830112610e9a57610e99610d6d565b5b8135610eaa848260208601610e43565b91505092915050565b600073ffffffffffffffffffffffffffffffffffffffff82169050919050565b6000610ede82610eb3565b9050919050565b610eee81610ed3565b8114610ef957600080fd5b50565b600081359050610f0b81610ee5565b92915050565b6000819050919050565b610f2481610f11565b8114610f2f57600080fd5b50565b600081359050610f4181610f1b565b92915050565b60008060008060808587031215610f6157610f60610d63565b5b600085013567ffffffffffffffff811115610f7f57610f7e610d68565b5b610f8b87828801610e85565b9450506020610f9c87828801610efc565b935050604085013567ffffffffffffffff811115610fbd57610fbc610d68565b5b610fc987828801610e85565b9250506060610fda87828801610f32565b91505092959194509250565b60008115159050919050565b610ffb81610fe6565b82525050565b60006020820190506110166000830184610ff2565b92915050565b600061102782610eb3565b9050919050565b6110378161101c565b811461104257600080fd5b50565b6000813590506110548161102e565b92915050565b6000602082840312156110705761106f610d63565b5b600061107e84828501611045565b91505092915050565b61109081610f11565b82525050565b60006020820190506110ab6000830184611087565b92915050565b6000602082840312156110c7576110c6610d63565b5b60006110d584828501610f32565b91505092915050565b6110e78161101c565b82525050565b600060208201905061110260008301846110de565b92915050565b600081519050919050565b600082825260208201905092915050565b60005b83811015611142578082015181840152602081019050611127565b60008484015250505050565b600061115982611108565b6111638185611113565b9350611173818560208601611124565b61117c81610d77565b840191505092915050565b61119081610ed3565b82525050565b600060808201905081810360008301526111b0818761114e565b90506111bf6020830186611187565b81810360408301526111d1818561114e565b90506111e06060830184611087565b95945050505050565b60008060408385031215611200576111ff610d63565b5b600061120e85828601610f32565b925050602061121f85828601610f32565b9150509250929050565b7f4f776e65723a2043616c6c6572206973206e6f74206f776e6572000000000000600082015250565b600061125f601a83611113565b915061126a82611229565b602082019050919050565b6000602082019050818103600083015261128e81611252565b9050919050565b7f506172746e65723a20456e74657265642061646472657373206973206e756c6c60008201527f2e00000000000000000000000000000000000000000000000000000000000000602082015250565b60006112f1602183611113565b91506112fc82611295565b604082019050919050565b60006020820190508181036000830152611320816112e4565b9050919050565b7f506172746e65723a20546865206164647265737320697320616c72656164792060008201527f6120706172746e65722100000000000000000000000000000000000000000000602082015250565b6000611383602a83611113565b915061138e82611327565b604082019050919050565b600060208201905081810360008301526113b281611376565b9050919050565b7f506172746e65723a20546865206f776e65722063616e6e6f742062652061207060008201527f6172746e65722100000000000000000000000000000000000000000000000000602082015250565b6000611415602783611113565b9150611420826113b9565b604082019050919050565b6000602082019050818103600083015261144481611408565b9050919050565b7f506172746e65723a205468652076616c756520666f72206120546f6b656e207360008201527f686f756c64206265206174206c65617374203120696e2074686520637572726560208201527f6e63792e00000000000000000000000000000000000000000000000000000000604082015250565b60006114cd604483611113565b91506114d88261144b565b606082019050919050565b600060208201905081810360008301526114fc816114c0565b9050919050565b7f4e487b7100000000000000000000000000000000000000000000000000000000600052602260045260246000fd5b6000600282049050600182168061154a57607f821691505b60208210810361155d5761155c611503565b5b50919050565b60008190508160005260206000209050919050565b60006020601f8301049050919050565b600082821b905092915050565b6000600883026115c57fffffffffffffffffffffffffffffffffffffffffffffffffffffffffffffffff82611588565b6115cf8683611588565b95508019841693508086168417925050509392505050565b6000819050919050565b600061160c61160761160284610f11565b6115e7565b610f11565b9050919050565b6000819050919050565b611626836115f1565b61163a61163282611613565b848454611595565b825550505050565b600090565b61164f611642565b61165a81848461161d565b505050565b5b8181101561167e57611673600082611647565b600181019050611660565b5050565b601f8211156116c35761169481611563565b61169d84611578565b810160208510156116ac578190505b6116c06116b885611578565b83018261165f565b50505b505050565b600082821c905092915050565b60006116e6600019846008026116c8565b1980831691505092915050565b60006116ff83836116d5565b9150826002028217905092915050565b61171882611108565b67ffffffffffffffff81111561173157611730610d88565b5b61173b8254611532565b611746828285611682565b600060209050601f8311600181146117795760008415611767578287015190505b61177185826116f3565b8655506117d9565b601f19841661178786611563565b60005b828110156117af5784890151825560018201915060208501945060208101905061178a565b868310156117cc57848901516117c8601f8916826116d5565b8355505b6001600288020188555050505b505050505050565b7f4e487b7100000000000000000000000000000000000000000000000000000000600052601160045260246000fd5b600061181b82610f11565b91507fffffffffffffffffffffffffffffffffffffffffffffffffffffffffffffffff820361184d5761184c6117e1565b5b600182019050919050565b7f4e487b7100000000000000000000000000000000000000000000000000000000600052603260045260246000fd5b7f4e487b7100000000000000000000000000000000000000000000000000000000600052600160045260246000fd5b60006040820190506118cb6000830185611087565b81810360208301526118dd818461114e565b90509392505050565b7f436c69656e743a20436f6e7472616374206f776e65722063616e6e6f7420626560008201527f206120636c69656e740000000000000000000000000000000000000000000000602082015250565b6000611942602983611113565b915061194d826118e6565b604082019050919050565b6000602082019050818103600083015261197181611935565b9050919050565b7f436c69656e743a20436c69656e7420616c726561647920657869737473000000600082015250565b60006119ae601d83611113565b91506119b982611978565b602082019050919050565b600060208201905081810360008301526119dd816119a1565b9050919050565b7f4e487b7100000000000000000000000000000000000000000000000000000000600052601260045260246000fd5b6000611a1e82610f11565b9150611a2983610f11565b925082611a3957611a386119e4565b5b82820490509291505056fea2646970667358221220c2b3bf794953a1fc2bb0acd52d887bc92b1d767e99816125d29cd06dfdd8d81064736f6c63430008130033",
  "immutableReferences": {},
  "source": "// SPDX-License-Identifier: MIT\r\npragma solidity ^0.8.19;\r\n\r\nimport \"./2_PayBackPartnership.sol\";\r\n\r\ncontract PayBackClients is PayBackPartnership {\r\n    mapping(address => uint256) public addrToClientId;\r\n    //Maybe: extra.. like this if you dont know the address they cannot see you. Which is a little bit of protection\r\n    // mapping(address => bool) internal _clientAddrToActive;\r\n    // address[] public clientAddresses;\r\n    uint256 public numClient; //last id.. if 0, no clients\r\n\r\n    event ClientRegistered(address indexed _addr);\r\n\r\n    // event Transfer(address indexed from, address indexed to, uint256 value);\r\n    constructor() {\r\n        numClient = 0;\r\n    }\r\n\r\n    modifier isClient(address _addr) {\r\n        require(\r\n            addrToClientId[_addr] != 0,\r\n            \"Client: This address is not a client\"\r\n        );\r\n        _;\r\n    }\r\n\r\n    //TODO : Fix in the frontend\r\n    function addClient(address _addr)\r\n        public\r\n        isOwner\r\n        addrNotNull(_addr)\r\n        returns (uint256)\r\n    {\r\n        //is not partner\r\n        require(\r\n            addrToPartnerId[_addr] == 0,\r\n            \"Partner: The address is already a partner!\"\r\n        );\r\n        //is not owner\r\n        require(_addr != _owner, \"Client: Contract owner cannot be a client\");\r\n        //check if client already exists\r\n        require(addrToClientId[_addr] == 0, \"Client: Client already exists\");\r\n\r\n        ++numClient;\r\n        addrToClientId[_addr] = numClient;\r\n \r\n        emit ClientRegistered(_addr);\r\n        return numClient;\r\n    }\r\n\r\n    // function getClientId(address _addr) public view returns (uint256) {\r\n    //     return clientAddrToId[_addr];\r\n    // }\r\n    //so that a user can be created in a non active state (which means that he can only gather points but not return them)\r\n    // function getClientStatus(address _addr) public view isOwner returns (bool){\r\n    //     return _clientAddrToActive[_addr];\r\n    // }\r\n    //Maybe: extra\r\n    // function getClientAddr(uint256 _id) public view returns(address){\r\n    //     return clientAddresses[_id];\r\n    // }\r\n}\r\n",
  "sourcePath": "C:\\Users\\aselim\\Documents\\GitHub\\PayBackOnBlockchain\\payback-token-truffle\\contracts\\3_PayBackClients.sol",
  "compiler": {
    "name": "solc",
    "version": "0.8.19+commit.7dd6d404.Emscripten.clang"
  },
  "schemaVersion": "3.4.14",
  "updatedAt": "2023-08-18T14:35:59.245Z",
  "devdoc": {
    "kind": "dev",
    "methods": {
      "getOwner()": {
        "details": "Return owner address ",
        "returns": {
          "_0": "address of owner"
        }
      }
    },
    "version": 1
  },
  "userdoc": {
    "kind": "user",
    "methods": {},
    "version": 1
  }
}