{
  "contractName": "PaybackToken",
  "abi": [
    {
      "inputs": [
        {
          "internalType": "string",
          "name": "_name",
          "type": "string"
        },
        {
          "internalType": "string",
          "name": "_symbol",
          "type": "string"
        },
        {
          "internalType": "uint256",
          "name": "_initialSupply",
          "type": "uint256"
        },
        {
          "internalType": "uint8",
          "name": "_decimals",
          "type": "uint8"
        },
        {
          "internalType": "uint256",
          "name": "_minTokensToRedeem",
          "type": "uint256"
        }
      ],
      "stateMutability": "nonpayable",
      "type": "constructor"
    },
    {
      "anonymous": false,
      "inputs": [
        {
          "indexed": true,
          "internalType": "address",
          "name": "owner",
          "type": "address"
        },
        {
          "indexed": true,
          "internalType": "address",
          "name": "spender",
          "type": "address"
        },
        {
          "indexed": false,
          "internalType": "uint256",
          "name": "value",
          "type": "uint256"
        }
      ],
      "name": "Approval",
      "type": "event"
    },
    {
      "anonymous": false,
      "inputs": [
        {
          "indexed": false,
          "internalType": "uint256",
          "name": "partnerId",
          "type": "uint256"
        },
        {
          "indexed": false,
          "internalType": "string",
          "name": "name",
          "type": "string"
        }
      ],
      "name": "PartnerAdded",
      "type": "event"
    },
    {
      "anonymous": false,
      "inputs": [
        {
          "indexed": true,
          "internalType": "address",
          "name": "from",
          "type": "address"
        },
        {
          "indexed": true,
          "internalType": "address",
          "name": "to",
          "type": "address"
        },
        {
          "indexed": false,
          "internalType": "uint256",
          "name": "value",
          "type": "uint256"
        }
      ],
      "name": "Transfer",
      "type": "event"
    },
    {
      "inputs": [
        {
          "internalType": "address",
          "name": "_addr",
          "type": "address"
        }
      ],
      "name": "addClient",
      "outputs": [
        {
          "internalType": "uint256",
          "name": "",
          "type": "uint256"
        }
      ],
      "stateMutability": "nonpayable",
      "type": "function"
    },
    {
      "inputs": [
        {
          "internalType": "string",
          "name": "_name",
          "type": "string"
        },
        {
          "internalType": "address payable",
          "name": "_addr",
          "type": "address"
        },
        {
          "internalType": "string",
          "name": "_currency",
          "type": "string"
        },
        {
          "internalType": "uint256",
          "name": "_valueForToken",
          "type": "uint256"
        }
      ],
      "name": "addPartner",
      "outputs": [
        {
          "internalType": "bool",
          "name": "",
          "type": "bool"
        }
      ],
      "stateMutability": "nonpayable",
      "type": "function"
    },
    {
      "inputs": [
        {
          "internalType": "address",
          "name": "",
          "type": "address"
        }
      ],
      "name": "addrToClientId",
      "outputs": [
        {
          "internalType": "uint256",
          "name": "",
          "type": "uint256"
        }
      ],
      "stateMutability": "view",
      "type": "function"
    },
    {
      "inputs": [
        {
          "internalType": "address",
          "name": "",
          "type": "address"
        }
      ],
      "name": "addrToPartnerId",
      "outputs": [
        {
          "internalType": "uint256",
          "name": "",
          "type": "uint256"
        }
      ],
      "stateMutability": "view",
      "type": "function"
    },
    {
      "inputs": [
        {
          "internalType": "uint256",
          "name": "_roundValue",
          "type": "uint256"
        },
        {
          "internalType": "uint256",
          "name": "_partnerId",
          "type": "uint256"
        }
      ],
      "name": "calcPointsToEarn",
      "outputs": [
        {
          "internalType": "uint256",
          "name": "",
          "type": "uint256"
        }
      ],
      "stateMutability": "view",
      "type": "function"
    },
    {
      "inputs": [],
      "name": "decimals",
      "outputs": [
        {
          "internalType": "uint8",
          "name": "",
          "type": "uint8"
        }
      ],
      "stateMutability": "view",
      "type": "function"
    },
    {
      "inputs": [],
      "name": "getOwner",
      "outputs": [
        {
          "internalType": "address",
          "name": "",
          "type": "address"
        }
      ],
      "stateMutability": "view",
      "type": "function"
    },
    {
      "inputs": [],
      "name": "minTokensToRedeem",
      "outputs": [
        {
          "internalType": "uint256",
          "name": "",
          "type": "uint256"
        }
      ],
      "stateMutability": "view",
      "type": "function"
    },
    {
      "inputs": [],
      "name": "name",
      "outputs": [
        {
          "internalType": "string",
          "name": "",
          "type": "string"
        }
      ],
      "stateMutability": "view",
      "type": "function"
    },
    {
      "inputs": [],
      "name": "numClient",
      "outputs": [
        {
          "internalType": "uint256",
          "name": "",
          "type": "uint256"
        }
      ],
      "stateMutability": "view",
      "type": "function"
    },
    {
      "inputs": [],
      "name": "numPartner",
      "outputs": [
        {
          "internalType": "uint256",
          "name": "",
          "type": "uint256"
        }
      ],
      "stateMutability": "view",
      "type": "function"
    },
    {
      "inputs": [
        {
          "internalType": "uint256",
          "name": "",
          "type": "uint256"
        }
      ],
      "name": "partners",
      "outputs": [
        {
          "internalType": "string",
          "name": "name",
          "type": "string"
        },
        {
          "internalType": "address payable",
          "name": "walletAddr",
          "type": "address"
        },
        {
          "internalType": "string",
          "name": "currency",
          "type": "string"
        },
        {
          "internalType": "uint256",
          "name": "valueForToken",
          "type": "uint256"
        }
      ],
      "stateMutability": "view",
      "type": "function"
    },
    {
      "inputs": [],
      "name": "symbol",
      "outputs": [
        {
          "internalType": "string",
          "name": "",
          "type": "string"
        }
      ],
      "stateMutability": "view",
      "type": "function"
    },
    {
      "inputs": [],
      "name": "totalSupply",
      "outputs": [
        {
          "internalType": "uint256",
          "name": "",
          "type": "uint256"
        }
      ],
      "stateMutability": "view",
      "type": "function"
    },
    {
      "inputs": [
        {
          "internalType": "address",
          "name": "account",
          "type": "address"
        }
      ],
      "name": "balanceOf",
      "outputs": [
        {
          "internalType": "uint256",
          "name": "",
          "type": "uint256"
        }
      ],
      "stateMutability": "view",
      "type": "function"
    },
    {
      "inputs": [
        {
          "internalType": "address",
          "name": "_to",
          "type": "address"
        },
        {
          "internalType": "uint256",
          "name": "_amount",
          "type": "uint256"
        }
      ],
      "name": "transfer",
      "outputs": [
        {
          "internalType": "bool",
          "name": "",
          "type": "bool"
        }
      ],
      "stateMutability": "nonpayable",
      "type": "function"
    },
    {
      "inputs": [
        {
          "internalType": "address",
          "name": "_owner",
          "type": "address"
        },
        {
          "internalType": "address",
          "name": "_spender",
          "type": "address"
        }
      ],
      "name": "allowance",
      "outputs": [
        {
          "internalType": "uint256",
          "name": "",
          "type": "uint256"
        }
      ],
      "stateMutability": "view",
      "type": "function"
    },
    {
      "inputs": [
        {
          "internalType": "address",
          "name": "_owner",
          "type": "address"
        },
        {
          "internalType": "address",
          "name": "_spender",
          "type": "address"
        }
      ],
      "name": "transferredFromAllowance",
      "outputs": [
        {
          "internalType": "uint256",
          "name": "",
          "type": "uint256"
        }
      ],
      "stateMutability": "view",
      "type": "function"
    },
    {
      "inputs": [
        {
          "internalType": "address",
          "name": "_spender",
          "type": "address"
        },
        {
          "internalType": "uint256",
          "name": "_amount",
          "type": "uint256"
        }
      ],
      "name": "approve",
      "outputs": [
        {
          "internalType": "bool",
          "name": "",
          "type": "bool"
        }
      ],
      "stateMutability": "nonpayable",
      "type": "function"
    },
    {
      "inputs": [
        {
          "internalType": "address",
          "name": "_from",
          "type": "address"
        },
        {
          "internalType": "address",
          "name": "_to",
          "type": "address"
        },
        {
          "internalType": "uint256",
          "name": "_amount",
          "type": "uint256"
        }
      ],
      "name": "transferFrom",
      "outputs": [
        {
          "internalType": "bool",
          "name": "",
          "type": "bool"
        }
      ],
      "stateMutability": "nonpayable",
      "type": "function"
    },
    {
      "inputs": [
        {
          "internalType": "uint256",
          "name": "_amount",
          "type": "uint256"
        }
      ],
      "name": "loadTotalSupply",
      "outputs": [
        {
          "internalType": "bool",
          "name": "",
          "type": "bool"
        }
      ],
      "stateMutability": "nonpayable",
      "type": "function"
    },
    {
      "inputs": [
        {
          "internalType": "uint256",
          "name": "_id",
          "type": "uint256"
        }
      ],
      "name": "removePartner",
      "outputs": [],
      "stateMutability": "nonpayable",
      "type": "function"
    }
  ],
  "bytecode": "0x60806040523480156200001157600080fd5b50604051620041473803806200414783398181016040528101906200003791906200045b565b336000806101000a81548173ffffffffffffffffffffffffffffffffffffffff021916908373ffffffffffffffffffffffffffffffffffffffff1602179055506000600181905550600060058190555060006040518060800160405280604051806020016040528060008152508152602001600073ffffffffffffffffffffffffffffffffffffffff168152602001604051806020016040528060008152508152602001600081525090506002819080600181540180825580915050600190039060005260206000209060040201600090919091909150600082015181600001908162000125919062000762565b5060208201518160010160006101000a81548173ffffffffffffffffffffffffffffffffffffffff021916908373ffffffffffffffffffffffffffffffffffffffff160217905550604082015181600201908162000184919062000762565b50606082015181600301555050508460069081620001a3919062000762565b508360079081620001b5919062000762565b508260098190555081600860006101000a81548160ff021916908360ff16021790555080600a8190555082600b60008060009054906101000a900473ffffffffffffffffffffffffffffffffffffffff1673ffffffffffffffffffffffffffffffffffffffff1673ffffffffffffffffffffffffffffffffffffffff16815260200190815260200160002081905550505050505062000849565b6000604051905090565b600080fd5b600080fd5b600080fd5b600080fd5b6000601f19601f8301169050919050565b7f4e487b7100000000000000000000000000000000000000000000000000000000600052604160045260246000fd5b620002b8826200026d565b810181811067ffffffffffffffff82111715620002da57620002d96200027e565b5b80604052505050565b6000620002ef6200024f565b9050620002fd8282620002ad565b919050565b600067ffffffffffffffff82111562000320576200031f6200027e565b5b6200032b826200026d565b9050602081019050919050565b60005b83811015620003585780820151818401526020810190506200033b565b60008484015250505050565b60006200037b620003758462000302565b620002e3565b9050828152602081018484840111156200039a576200039962000268565b5b620003a784828562000338565b509392505050565b600082601f830112620003c757620003c662000263565b5b8151620003d984826020860162000364565b91505092915050565b6000819050919050565b620003f781620003e2565b81146200040357600080fd5b50565b6000815190506200041781620003ec565b92915050565b600060ff82169050919050565b62000435816200041d565b81146200044157600080fd5b50565b60008151905062000455816200042a565b92915050565b600080600080600060a086880312156200047a576200047962000259565b5b600086015167ffffffffffffffff8111156200049b576200049a6200025e565b5b620004a988828901620003af565b955050602086015167ffffffffffffffff811115620004cd57620004cc6200025e565b5b620004db88828901620003af565b9450506040620004ee8882890162000406565b9350506060620005018882890162000444565b9250506080620005148882890162000406565b9150509295509295909350565b600081519050919050565b7f4e487b7100000000000000000000000000000000000000000000000000000000600052602260045260246000fd5b600060028204905060018216806200057457607f821691505b6020821081036200058a57620005896200052c565b5b50919050565b60008190508160005260206000209050919050565b60006020601f8301049050919050565b600082821b905092915050565b600060088302620005f47fffffffffffffffffffffffffffffffffffffffffffffffffffffffffffffffff82620005b5565b620006008683620005b5565b95508019841693508086168417925050509392505050565b6000819050919050565b6000620006436200063d6200063784620003e2565b62000618565b620003e2565b9050919050565b6000819050919050565b6200065f8362000622565b620006776200066e826200064a565b848454620005c2565b825550505050565b600090565b6200068e6200067f565b6200069b81848462000654565b505050565b5b81811015620006c357620006b760008262000684565b600181019050620006a1565b5050565b601f8211156200071257620006dc8162000590565b620006e784620005a5565b81016020851015620006f7578190505b6200070f6200070685620005a5565b830182620006a0565b50505b505050565b600082821c905092915050565b6000620007376000198460080262000717565b1980831691505092915050565b600062000752838362000724565b9150826002028217905092915050565b6200076d8262000521565b67ffffffffffffffff8111156200078957620007886200027e565b5b6200079582546200055b565b620007a2828285620006c7565b600060209050601f831160018114620007da5760008415620007c5578287015190505b620007d1858262000744565b86555062000841565b601f198416620007ea8662000590565b60005b828110156200081457848901518255600182019150602085019450602081019050620007ed565b8683101562000834578489015162000830601f89168262000724565b8355505b6001600288020188555050505b505050505050565b6138ee80620008596000396000f3fe608060405234801561001057600080fd5b50600436106101425760003560e01c806370a08231116100b8578063c3b49d041161007c578063c3b49d04146103b5578063c785f593146103e8578063dd62ed3e14610406578063e041692614610436578063e15cfad214610466578063faa5e4e21461049657610142565b806370a08231146102fd5780637d1d8cc01461032d578063893d20e81461034957806395d89b4114610367578063a9059cbb1461038557610142565b806323b872dd1161010a57806323b872dd14610213578063313ce5671461024357806343928cfd146102615780634a9596ce146102915780634b8e3961146102af578063641244f9146102cd57610142565b806306fdde0314610147578063095ea7b31461016557806313869f851461019557806318160ddd146101c5578063210e870d146101e3575b600080fd5b61014f6104c6565b60405161015c91906125cd565b60405180910390f35b61017f600480360381019061017a9190612697565b610554565b60405161018c91906126f2565b60405180910390f35b6101af60048036038101906101aa919061270d565b610638565b6040516101bc91906126f2565b60405180910390f35b6101cd6107b6565b6040516101da9190612749565b60405180910390f35b6101fd60048036038101906101f891906128d7565b6107bc565b60405161020a91906126f2565b60405180910390f35b61022d60048036038101906102289190612976565b610ca1565b60405161023a91906126f2565b60405180910390f35b61024b611116565b60405161025891906129e5565b60405180910390f35b61027b60048036038101906102769190612a00565b611129565b6040516102889190612749565b60405180910390f35b610299611423565b6040516102a69190612749565b60405180910390f35b6102b7611429565b6040516102c49190612749565b60405180910390f35b6102e760048036038101906102e29190612a2d565b61142f565b6040516102f49190612749565b60405180910390f35b61031760048036038101906103129190612a00565b6114b6565b6040516103249190612749565b60405180910390f35b6103476004803603810190610342919061270d565b6114ff565b005b610351611747565b60405161035e9190612a7c565b60405180910390f35b61036f611770565b60405161037c91906125cd565b60405180910390f35b61039f600480360381019061039a9190612697565b6117fe565b6040516103ac91906126f2565b60405180910390f35b6103cf60048036038101906103ca919061270d565b611cd2565b6040516103df9493929190612aa6565b60405180910390f35b6103f0611e42565b6040516103fd9190612749565b60405180910390f35b610420600480360381019061041b9190612a2d565b611e48565b60405161042d9190612749565b60405180910390f35b610450600480360381019061044b9190612a00565b611ecf565b60405161045d9190612749565b60405180910390f35b610480600480360381019061047b9190612af9565b611ee7565b60405161048d9190612749565b60405180910390f35b6104b060048036038101906104ab9190612a00565b611f2d565b6040516104bd9190612749565b60405180910390f35b600680546104d390612b68565b80601f01602080910402602001604051908101604052809291908181526020018280546104ff90612b68565b801561054c5780601f106105215761010080835404028352916020019161054c565b820191906000526020600020905b81548152906001019060200180831161052f57829003601f168201915b505050505081565b600080600360003373ffffffffffffffffffffffffffffffffffffffff1673ffffffffffffffffffffffffffffffffffffffff168152602001908152602001600020541415806105e457506000600460003373ffffffffffffffffffffffffffffffffffffffff1673ffffffffffffffffffffffffffffffffffffffff1681526020019081526020016000205414155b610623576040517f08c379a000000000000000000000000000000000000000000000000000000000815260040161061a90612c0b565b60405180910390fd5b61062e338484611f45565b6001905092915050565b60008060009054906101000a900473ffffffffffffffffffffffffffffffffffffffff1673ffffffffffffffffffffffffffffffffffffffff163373ffffffffffffffffffffffffffffffffffffffff16146106c9576040517f08c379a00000000000000000000000000000000000000000000000000000000081526004016106c090612c77565b60405180910390fd5b816009546106d79190612cc6565b60098190555081600b60008060009054906101000a900473ffffffffffffffffffffffffffffffffffffffff1673ffffffffffffffffffffffffffffffffffffffff1673ffffffffffffffffffffffffffffffffffffffff168152602001908152602001600020546107499190612cc6565b600b60008060009054906101000a900473ffffffffffffffffffffffffffffffffffffffff1673ffffffffffffffffffffffffffffffffffffffff1673ffffffffffffffffffffffffffffffffffffffff1681526020019081526020016000208190555060019050919050565b60095481565b60008060009054906101000a900473ffffffffffffffffffffffffffffffffffffffff1673ffffffffffffffffffffffffffffffffffffffff163373ffffffffffffffffffffffffffffffffffffffff161461084d576040517f08c379a000000000000000000000000000000000000000000000000000000000815260040161084490612c77565b60405180910390fd5b83600073ffffffffffffffffffffffffffffffffffffffff168173ffffffffffffffffffffffffffffffffffffffff16036108bd576040517f08c379a00000000000000000000000000000000000000000000000000000000081526004016108b490612d46565b60405180910390fd5b6000600360008773ffffffffffffffffffffffffffffffffffffffff1673ffffffffffffffffffffffffffffffffffffffff168152602001908152602001600020541461093f576040517f08c379a000000000000000000000000000000000000000000000000000000000815260040161093690612dd8565b60405180910390fd5b60008054906101000a900473ffffffffffffffffffffffffffffffffffffffff1673ffffffffffffffffffffffffffffffffffffffff168573ffffffffffffffffffffffffffffffffffffffff16036109cd576040517f08c379a00000000000000000000000000000000000000000000000000000000081526004016109c490612e6a565b60405180910390fd5b6000600460008773ffffffffffffffffffffffffffffffffffffffff1673ffffffffffffffffffffffffffffffffffffffff1681526020019081526020016000205414610a4f576040517f08c379a0000000000000000000000000000000000000000000000000000000008152600401610a4690612efc565b60405180910390fd5b6001831015610a93576040517f08c379a0000000000000000000000000000000000000000000000000000000008152600401610a8a90612fb4565b60405180910390fd5b600060405180608001604052808881526020018773ffffffffffffffffffffffffffffffffffffffff16815260200186815260200185815250905060028190806001815401808255809150506001900390600052602060002090600402016000909190919091506000820151816000019081610b0f9190613180565b5060208201518160010160006101000a81548173ffffffffffffffffffffffffffffffffffffffff021916908373ffffffffffffffffffffffffffffffffffffffff1602179055506040820151816002019081610b6c9190613180565b50606082015181600301555050600160008154610b8890613252565b91905081905550600154600360008873ffffffffffffffffffffffffffffffffffffffff1673ffffffffffffffffffffffffffffffffffffffff168152602001908152602001600020819055508573ffffffffffffffffffffffffffffffffffffffff16600260015481548110610c0257610c0161329a565b5b906000526020600020906004020160010160009054906101000a900473ffffffffffffffffffffffffffffffffffffffff1673ffffffffffffffffffffffffffffffffffffffff1614610c5857610c576132c9565b5b7f6b5d098d49c45279cf1afc02eec71018b4e172ec66e1834863c5d62febaa50b760015488604051610c8b9291906132f8565b60405180910390a1600192505050949350505050565b60008033905060008054906101000a900473ffffffffffffffffffffffffffffffffffffffff1673ffffffffffffffffffffffffffffffffffffffff168573ffffffffffffffffffffffffffffffffffffffff1603610d81576000600360008673ffffffffffffffffffffffffffffffffffffffff1673ffffffffffffffffffffffffffffffffffffffff1681526020019081526020016000205403610d7c576040517f08c379a0000000000000000000000000000000000000000000000000000000008152600401610d739061339a565b60405180910390fd5b6110f2565b6000600360008773ffffffffffffffffffffffffffffffffffffffff1673ffffffffffffffffffffffffffffffffffffffff1681526020019081526020016000205414610ea6576000600460008673ffffffffffffffffffffffffffffffffffffffff1673ffffffffffffffffffffffffffffffffffffffff16815260200190815260200160002054141580610e62575060008054906101000a900473ffffffffffffffffffffffffffffffffffffffff1673ffffffffffffffffffffffffffffffffffffffff168473ffffffffffffffffffffffffffffffffffffffff16145b610ea1576040517f08c379a0000000000000000000000000000000000000000000000000000000008152600401610e989061342c565b60405180910390fd5b6110f1565b6000600460008773ffffffffffffffffffffffffffffffffffffffff1673ffffffffffffffffffffffffffffffffffffffff16815260200190815260200160002054146110e6576000600460008673ffffffffffffffffffffffffffffffffffffffff1673ffffffffffffffffffffffffffffffffffffffff1681526020019081526020016000205414610fbc57600a54600b60008773ffffffffffffffffffffffffffffffffffffffff1673ffffffffffffffffffffffffffffffffffffffff1681526020019081526020016000205410610fb7576040517f08c379a0000000000000000000000000000000000000000000000000000000008152600401610fae906134be565b60405180910390fd5b6110e1565b60008054906101000a900473ffffffffffffffffffffffffffffffffffffffff1673ffffffffffffffffffffffffffffffffffffffff168473ffffffffffffffffffffffffffffffffffffffff16148061105657506000600360008673ffffffffffffffffffffffffffffffffffffffff1673ffffffffffffffffffffffffffffffffffffffff1681526020019081526020016000205414155b156110e057600a54600b60008773ffffffffffffffffffffffffffffffffffffffff1673ffffffffffffffffffffffffffffffffffffffff1681526020019081526020016000205410156110df576040517f08c379a00000000000000000000000000000000000000000000000000000000081526004016110d690613550565b60405180910390fd5b5b5b6110f0565b600091505061110f565b5b5b6110fd8582856120de565b611108858585612352565b5060019150505b9392505050565b600860009054906101000a900460ff1681565b60008060009054906101000a900473ffffffffffffffffffffffffffffffffffffffff1673ffffffffffffffffffffffffffffffffffffffff163373ffffffffffffffffffffffffffffffffffffffff16146111ba576040517f08c379a00000000000000000000000000000000000000000000000000000000081526004016111b190612c77565b60405180910390fd5b81600073ffffffffffffffffffffffffffffffffffffffff168173ffffffffffffffffffffffffffffffffffffffff160361122a576040517f08c379a000000000000000000000000000000000000000000000000000000000815260040161122190612d46565b60405180910390fd5b6000600460008573ffffffffffffffffffffffffffffffffffffffff1673ffffffffffffffffffffffffffffffffffffffff16815260200190815260200160002054146112ac576040517f08c379a00000000000000000000000000000000000000000000000000000000081526004016112a3906135bc565b60405180910390fd5b6000600360008573ffffffffffffffffffffffffffffffffffffffff1673ffffffffffffffffffffffffffffffffffffffff168152602001908152602001600020541461132e576040517f08c379a00000000000000000000000000000000000000000000000000000000081526004016113259061364e565b60405180910390fd5b60008054906101000a900473ffffffffffffffffffffffffffffffffffffffff1673ffffffffffffffffffffffffffffffffffffffff168373ffffffffffffffffffffffffffffffffffffffff16036113bc576040517f08c379a00000000000000000000000000000000000000000000000000000000081526004016113b3906136e0565b60405180910390fd5b6005600081546113cb90613252565b91905081905550600554600460008573ffffffffffffffffffffffffffffffffffffffff1673ffffffffffffffffffffffffffffffffffffffff16815260200190815260200160002081905550600554915050919050565b60015481565b600a5481565b6000600d60008473ffffffffffffffffffffffffffffffffffffffff1673ffffffffffffffffffffffffffffffffffffffff16815260200190815260200160002060008373ffffffffffffffffffffffffffffffffffffffff1673ffffffffffffffffffffffffffffffffffffffff16815260200190815260200160002054905092915050565b6000600b60008373ffffffffffffffffffffffffffffffffffffffff1673ffffffffffffffffffffffffffffffffffffffff168152602001908152602001600020549050919050565b60008054906101000a900473ffffffffffffffffffffffffffffffffffffffff1673ffffffffffffffffffffffffffffffffffffffff163373ffffffffffffffffffffffffffffffffffffffff161461158d576040517f08c379a000000000000000000000000000000000000000000000000000000000815260040161158490612c77565b60405180910390fd5b6000600282815481106115a3576115a261329a565b5b906000526020600020906004020190506116658160010160009054906101000a900473ffffffffffffffffffffffffffffffffffffffff1660008054906101000a900473ffffffffffffffffffffffffffffffffffffffff16600b60008560010160009054906101000a900473ffffffffffffffffffffffffffffffffffffffff1673ffffffffffffffffffffffffffffffffffffffff1673ffffffffffffffffffffffffffffffffffffffff16815260200190815260200160002054612352565b506000600360008360010160009054906101000a900473ffffffffffffffffffffffffffffffffffffffff1673ffffffffffffffffffffffffffffffffffffffff1673ffffffffffffffffffffffffffffffffffffffff16815260200190815260200160002081905550600282815481106116e3576116e261329a565b5b90600052602060002090600402016000808201600061170291906124e0565b6001820160006101000a81549073ffffffffffffffffffffffffffffffffffffffff021916905560028201600061173991906124e0565b600382016000905550505050565b60008060009054906101000a900473ffffffffffffffffffffffffffffffffffffffff16905090565b6007805461177d90612b68565b80601f01602080910402602001604051908101604052809291908181526020018280546117a990612b68565b80156117f65780601f106117cb576101008083540402835291602001916117f6565b820191906000526020600020905b8154815290600101906020018083116117d957829003601f168201915b505050505081565b600082600073ffffffffffffffffffffffffffffffffffffffff168173ffffffffffffffffffffffffffffffffffffffff1603611870576040517f08c379a000000000000000000000000000000000000000000000000000000000815260040161186790612d46565b60405180910390fd5b60008054906101000a900473ffffffffffffffffffffffffffffffffffffffff1673ffffffffffffffffffffffffffffffffffffffff163373ffffffffffffffffffffffffffffffffffffffff160361194a576000600360008673ffffffffffffffffffffffffffffffffffffffff1673ffffffffffffffffffffffffffffffffffffffff1681526020019081526020016000205403611945576040517f08c379a000000000000000000000000000000000000000000000000000000000815260040161193c9061339a565b60405180910390fd5b611cba565b6000600360003373ffffffffffffffffffffffffffffffffffffffff1673ffffffffffffffffffffffffffffffffffffffff1681526020019081526020016000205414611a6f576000600460008673ffffffffffffffffffffffffffffffffffffffff1673ffffffffffffffffffffffffffffffffffffffff16815260200190815260200160002054141580611a2b575060008054906101000a900473ffffffffffffffffffffffffffffffffffffffff1673ffffffffffffffffffffffffffffffffffffffff168473ffffffffffffffffffffffffffffffffffffffff16145b611a6a576040517f08c379a0000000000000000000000000000000000000000000000000000000008152600401611a619061342c565b60405180910390fd5b611cb9565b6000600460003373ffffffffffffffffffffffffffffffffffffffff1673ffffffffffffffffffffffffffffffffffffffff1681526020019081526020016000205414611caf576000600460008673ffffffffffffffffffffffffffffffffffffffff1673ffffffffffffffffffffffffffffffffffffffff1681526020019081526020016000205414611b8557600a54600b60003373ffffffffffffffffffffffffffffffffffffffff1673ffffffffffffffffffffffffffffffffffffffff1681526020019081526020016000205410611b80576040517f08c379a0000000000000000000000000000000000000000000000000000000008152600401611b77906134be565b60405180910390fd5b611caa565b60008054906101000a900473ffffffffffffffffffffffffffffffffffffffff1673ffffffffffffffffffffffffffffffffffffffff168473ffffffffffffffffffffffffffffffffffffffff161480611c1f57506000600360008673ffffffffffffffffffffffffffffffffffffffff1673ffffffffffffffffffffffffffffffffffffffff1681526020019081526020016000205414155b15611ca957600a54600b60003373ffffffffffffffffffffffffffffffffffffffff1673ffffffffffffffffffffffffffffffffffffffff168152602001908152602001600020541015611ca8576040517f08c379a0000000000000000000000000000000000000000000000000000000008152600401611c9f90613550565b60405180910390fd5b5b5b611cb8565b60009150611ccb565b5b5b611cc5338585612352565b50600191505b5092915050565b60028181548110611ce257600080fd5b9060005260206000209060040201600091509050806000018054611d0590612b68565b80601f0160208091040260200160405190810160405280929190818152602001828054611d3190612b68565b8015611d7e5780601f10611d5357610100808354040283529160200191611d7e565b820191906000526020600020905b815481529060010190602001808311611d6157829003601f168201915b5050505050908060010160009054906101000a900473ffffffffffffffffffffffffffffffffffffffff1690806002018054611db990612b68565b80601f0160208091040260200160405190810160405280929190818152602001828054611de590612b68565b8015611e325780601f10611e0757610100808354040283529160200191611e32565b820191906000526020600020905b815481529060010190602001808311611e1557829003601f168201915b5050505050908060030154905084565b60055481565b6000600c60008473ffffffffffffffffffffffffffffffffffffffff1673ffffffffffffffffffffffffffffffffffffffff16815260200190815260200160002060008373ffffffffffffffffffffffffffffffffffffffff1673ffffffffffffffffffffffffffffffffffffffff16815260200190815260200160002054905092915050565b60036020528060005260406000206000915090505481565b60008060028381548110611efe57611efd61329a565b5b906000526020600020906004020190506000816003015485611f20919061372f565b9050809250505092915050565b60046020528060005260406000206000915090505481565b81600073ffffffffffffffffffffffffffffffffffffffff168173ffffffffffffffffffffffffffffffffffffffff1603611fb5576040517f08c379a0000000000000000000000000000000000000000000000000000000008152600401611fac90612d46565b60405180910390fd5b600073ffffffffffffffffffffffffffffffffffffffff168473ffffffffffffffffffffffffffffffffffffffff1603611ff257611ff16132c9565b5b81600c60008673ffffffffffffffffffffffffffffffffffffffff1673ffffffffffffffffffffffffffffffffffffffff16815260200190815260200160002060008573ffffffffffffffffffffffffffffffffffffffff1673ffffffffffffffffffffffffffffffffffffffff168152602001908152602001600020819055508273ffffffffffffffffffffffffffffffffffffffff168473ffffffffffffffffffffffffffffffffffffffff167f8c5be1e5ebec7d5bd14f71427d1e84f3dd0314c0f7b2291e5b200ac8c7c3b925846040516120d09190612749565b60405180910390a350505050565b6000600d60008573ffffffffffffffffffffffffffffffffffffffff1673ffffffffffffffffffffffffffffffffffffffff16815260200190815260200160002060008473ffffffffffffffffffffffffffffffffffffffff1673ffffffffffffffffffffffffffffffffffffffff1681526020019081526020016000205490506000600c60008673ffffffffffffffffffffffffffffffffffffffff1673ffffffffffffffffffffffffffffffffffffffff16815260200190815260200160002060008573ffffffffffffffffffffffffffffffffffffffff1673ffffffffffffffffffffffffffffffffffffffff1681526020019081526020016000205490506000818310156121f95782826121f69190613760565b90505b8381101561223c576040517f08c379a000000000000000000000000000000000000000000000000000000000815260040161223390613806565b60405180910390fd5b83600b60008873ffffffffffffffffffffffffffffffffffffffff1673ffffffffffffffffffffffffffffffffffffffff1681526020019081526020016000205410156122be576040517f08c379a00000000000000000000000000000000000000000000000000000000081526004016122b590613898565b60405180910390fd5b83836122ca9190612cc6565b600d60008873ffffffffffffffffffffffffffffffffffffffff1673ffffffffffffffffffffffffffffffffffffffff16815260200190815260200160002060008773ffffffffffffffffffffffffffffffffffffffff1673ffffffffffffffffffffffffffffffffffffffff16815260200190815260200160002081905550505050505050565b600081600b60008673ffffffffffffffffffffffffffffffffffffffff1673ffffffffffffffffffffffffffffffffffffffff1681526020019081526020016000205461239f9190613760565b600b60008673ffffffffffffffffffffffffffffffffffffffff1673ffffffffffffffffffffffffffffffffffffffff1681526020019081526020016000208190555081600b60008573ffffffffffffffffffffffffffffffffffffffff1673ffffffffffffffffffffffffffffffffffffffff1681526020019081526020016000205461242d9190612cc6565b600b60008573ffffffffffffffffffffffffffffffffffffffff1673ffffffffffffffffffffffffffffffffffffffff168152602001908152602001600020819055508273ffffffffffffffffffffffffffffffffffffffff168473ffffffffffffffffffffffffffffffffffffffff167fddf252ad1be2c89b69c2b068fc378daa952ba7f163c4a11628f55a4df523b3ef846040516124cd9190612749565b60405180910390a3600190509392505050565b5080546124ec90612b68565b6000825580601f106124fe575061251d565b601f01602090049060005260206000209081019061251c9190612520565b5b50565b5b80821115612539576000816000905550600101612521565b5090565b600081519050919050565b600082825260208201905092915050565b60005b8381101561257757808201518184015260208101905061255c565b60008484015250505050565b6000601f19601f8301169050919050565b600061259f8261253d565b6125a98185612548565b93506125b9818560208601612559565b6125c281612583565b840191505092915050565b600060208201905081810360008301526125e78184612594565b905092915050565b6000604051905090565b600080fd5b600080fd5b600073ffffffffffffffffffffffffffffffffffffffff82169050919050565b600061262e82612603565b9050919050565b61263e81612623565b811461264957600080fd5b50565b60008135905061265b81612635565b92915050565b6000819050919050565b61267481612661565b811461267f57600080fd5b50565b6000813590506126918161266b565b92915050565b600080604083850312156126ae576126ad6125f9565b5b60006126bc8582860161264c565b92505060206126cd85828601612682565b9150509250929050565b60008115159050919050565b6126ec816126d7565b82525050565b600060208201905061270760008301846126e3565b92915050565b600060208284031215612723576127226125f9565b5b600061273184828501612682565b91505092915050565b61274381612661565b82525050565b600060208201905061275e600083018461273a565b92915050565b600080fd5b600080fd5b7f4e487b7100000000000000000000000000000000000000000000000000000000600052604160045260246000fd5b6127a682612583565b810181811067ffffffffffffffff821117156127c5576127c461276e565b5b80604052505050565b60006127d86125ef565b90506127e4828261279d565b919050565b600067ffffffffffffffff8211156128045761280361276e565b5b61280d82612583565b9050602081019050919050565b82818337600083830152505050565b600061283c612837846127e9565b6127ce565b90508281526020810184848401111561285857612857612769565b5b61286384828561281a565b509392505050565b600082601f8301126128805761287f612764565b5b8135612890848260208601612829565b91505092915050565b60006128a482612603565b9050919050565b6128b481612899565b81146128bf57600080fd5b50565b6000813590506128d1816128ab565b92915050565b600080600080608085870312156128f1576128f06125f9565b5b600085013567ffffffffffffffff81111561290f5761290e6125fe565b5b61291b8782880161286b565b945050602061292c878288016128c2565b935050604085013567ffffffffffffffff81111561294d5761294c6125fe565b5b6129598782880161286b565b925050606061296a87828801612682565b91505092959194509250565b60008060006060848603121561298f5761298e6125f9565b5b600061299d8682870161264c565b93505060206129ae8682870161264c565b92505060406129bf86828701612682565b9150509250925092565b600060ff82169050919050565b6129df816129c9565b82525050565b60006020820190506129fa60008301846129d6565b92915050565b600060208284031215612a1657612a156125f9565b5b6000612a248482850161264c565b91505092915050565b60008060408385031215612a4457612a436125f9565b5b6000612a528582860161264c565b9250506020612a638582860161264c565b9150509250929050565b612a7681612623565b82525050565b6000602082019050612a916000830184612a6d565b92915050565b612aa081612899565b82525050565b60006080820190508181036000830152612ac08187612594565b9050612acf6020830186612a97565b8181036040830152612ae18185612594565b9050612af0606083018461273a565b95945050505050565b60008060408385031215612b1057612b0f6125f9565b5b6000612b1e85828601612682565b9250506020612b2f85828601612682565b9150509250929050565b7f4e487b7100000000000000000000000000000000000000000000000000000000600052602260045260246000fd5b60006002820490506001821680612b8057607f821691505b602082108103612b9357612b92612b39565b5b50919050565b7f45524332303a204f6e6c7920706172746e65727320616e6420636c69656e732060008201527f63616e20617070726f7665207370656e646572732e0000000000000000000000602082015250565b6000612bf5603583612548565b9150612c0082612b99565b604082019050919050565b60006020820190508181036000830152612c2481612be8565b9050919050565b7f4f776e65723a2043616c6c6572206973206e6f74206f776e6572000000000000600082015250565b6000612c61601a83612548565b9150612c6c82612c2b565b602082019050919050565b60006020820190508181036000830152612c9081612c54565b9050919050565b7f4e487b7100000000000000000000000000000000000000000000000000000000600052601160045260246000fd5b6000612cd182612661565b9150612cdc83612661565b9250828201905080821115612cf457612cf3612c97565b5b92915050565b7f456e74657265642061646472657373206973206e756c6c2e0000000000000000600082015250565b6000612d30601883612548565b9150612d3b82612cfa565b602082019050919050565b60006020820190508181036000830152612d5f81612d23565b9050919050565b7f506172746e65723a20546865206164647265737320697320616c72656164792060008201527f6120706172746e65722e00000000000000000000000000000000000000000000602082015250565b6000612dc2602a83612548565b9150612dcd82612d66565b604082019050919050565b60006020820190508181036000830152612df181612db5565b9050919050565b7f506172746e65723a20546865206f776e65722063616e6e6f742062652061207060008201527f6172746e65722e00000000000000000000000000000000000000000000000000602082015250565b6000612e54602783612548565b9150612e5f82612df8565b604082019050919050565b60006020820190508181036000830152612e8381612e47565b9050919050565b7f506172746e65723a204120636c69656e742063616e6e6f74206265206120706160008201527f72746e65722e0000000000000000000000000000000000000000000000000000602082015250565b6000612ee6602683612548565b9150612ef182612e8a565b604082019050919050565b60006020820190508181036000830152612f1581612ed9565b9050919050565b7f506172746e65723a205468652076616c756520666f72206120546f6b656e207360008201527f686f756c64206265206174206c65617374203120696e2074686520637572726560208201527f6e63792e00000000000000000000000000000000000000000000000000000000604082015250565b6000612f9e604483612548565b9150612fa982612f1c565b606082019050919050565b60006020820190508181036000830152612fcd81612f91565b9050919050565b60008190508160005260206000209050919050565b60006020601f8301049050919050565b600082821b905092915050565b6000600883026130367fffffffffffffffffffffffffffffffffffffffffffffffffffffffffffffffff82612ff9565b6130408683612ff9565b95508019841693508086168417925050509392505050565b6000819050919050565b600061307d61307861307384612661565b613058565b612661565b9050919050565b6000819050919050565b61309783613062565b6130ab6130a382613084565b848454613006565b825550505050565b600090565b6130c06130b3565b6130cb81848461308e565b505050565b5b818110156130ef576130e46000826130b8565b6001810190506130d1565b5050565b601f8211156131345761310581612fd4565b61310e84612fe9565b8101602085101561311d578190505b61313161312985612fe9565b8301826130d0565b50505b505050565b600082821c905092915050565b600061315760001984600802613139565b1980831691505092915050565b60006131708383613146565b9150826002028217905092915050565b6131898261253d565b67ffffffffffffffff8111156131a2576131a161276e565b5b6131ac8254612b68565b6131b78282856130f3565b600060209050601f8311600181146131ea57600084156131d8578287015190505b6131e28582613164565b86555061324a565b601f1984166131f886612fd4565b60005b82811015613220578489015182556001820191506020850194506020810190506131fb565b8683101561323d5784890151613239601f891682613146565b8355505b6001600288020188555050505b505050505050565b600061325d82612661565b91507fffffffffffffffffffffffffffffffffffffffffffffffffffffffffffffffff820361328f5761328e612c97565b5b600182019050919050565b7f4e487b7100000000000000000000000000000000000000000000000000000000600052603260045260246000fd5b7f4e487b7100000000000000000000000000000000000000000000000000000000600052600160045260246000fd5b600060408201905061330d600083018561273a565b818103602083015261331f8184612594565b90509392505050565b7f45524332303a204f776e65722063616e206f6e6c792073656e6420746f20706160008201527f72746e6572732e00000000000000000000000000000000000000000000000000602082015250565b6000613384602783612548565b915061338f82613328565b604082019050919050565b600060208201905081810360008301526133b381613377565b9050919050565b7f45524332303a20506172746e6572732063616e206f6e6c792073656e6420746f60008201527f20636c69656e747320616e64206f776e65722e00000000000000000000000000602082015250565b6000613416603383612548565b9150613421826133ba565b604082019050919050565b6000602082019050818103600083015261344581613409565b9050919050565b7f45524332303a20436c69656e74732062616c616e63652069732068696768657260008201527f207468616e206d696e546f6b656e73546f52656465656d2e0000000000000000602082015250565b60006134a8603883612548565b91506134b38261344c565b604082019050919050565b600060208201905081810360008301526134d78161349b565b9050919050565b7f45524332303a20436c69656e74732062616c616e6365206973206c6f7765722060008201527f7468616e206d696e546f6b656e73546f52656465656d2e000000000000000000602082015250565b600061353a603783612548565b9150613545826134de565b604082019050919050565b600060208201905081810360008301526135698161352d565b9050919050565b7f436c69656e743a20436c69656e7420616c726561647920657869737473000000600082015250565b60006135a6601d83612548565b91506135b182613570565b602082019050919050565b600060208201905081810360008301526135d581613599565b9050919050565b7f436c69656e743a20546865206164647265737320697320616c7265616479206160008201527f20706172746e6572210000000000000000000000000000000000000000000000602082015250565b6000613638602983612548565b9150613643826135dc565b604082019050919050565b600060208201905081810360008301526136678161362b565b9050919050565b7f436c69656e743a20436f6e7472616374206f776e65722063616e6e6f7420626560008201527f206120636c69656e740000000000000000000000000000000000000000000000602082015250565b60006136ca602983612548565b91506136d58261366e565b604082019050919050565b600060208201905081810360008301526136f9816136bd565b9050919050565b7f4e487b7100000000000000000000000000000000000000000000000000000000600052601260045260246000fd5b600061373a82612661565b915061374583612661565b92508261375557613754613700565b5b828204905092915050565b600061376b82612661565b915061377683612661565b925082820390508181111561378e5761378d612c97565b5b92915050565b7f45524332303a20616d6f756e7420697320686967686572207468616e2074686560008201527f207370656e64696e67207265737420616c6c6f7765642e000000000000000000602082015250565b60006137f0603783612548565b91506137fb82613794565b604082019050919050565b6000602082019050818103600083015261381f816137e3565b9050919050565b7f45524332303a20746865206f776e657220646f65736e2774206861766520656e60008201527f6f75676820746f6b656e7320746f206265207370656e742e0000000000000000602082015250565b6000613882603883612548565b915061388d82613826565b604082019050919050565b600060208201905081810360008301526138b181613875565b905091905056fea26469706673582212200f532508f93d5bc9cb8337e3f84cb29938a3e7a2e3be796f98d24ea82772297164736f6c63430008130033",
  "immutableReferences": {},
  "source": "// SPDX-License-Identifier: MIT\r\npragma solidity ^0.8.19;\r\n\r\n// https://github.com/OpenZeppelin/openzeppelin-contracts/blob/master/contracts\r\n// /token/ERC20/IERC20.sol\r\n\r\nimport \"@openzeppelin/contracts/token/ERC20/IERC20.sol\";\r\nimport \"./2_PaybackClientsPartners.sol\";\r\n\r\ncontract PaybackToken is PaybackClientsPartners, IERC20 {\r\n    string public name;\r\n    string public symbol;\r\n    uint8 public decimals;\r\n    uint256 public totalSupply; //Returns the amount of tokens in existence.\r\n    uint256 public minTokensToRedeem;\r\n\r\n    mapping(address => uint256) private _balances;\r\n    //the owner->spender->amount\r\n    mapping(address => mapping(address => uint256)) private _allowance;\r\n    mapping(address => mapping(address => uint256)) private _spentAllowance;\r\n\r\n    /**\r\n     * @dev Sets the values for {name}, {symbol}, {initialSupply},\r\n     * {decimals} and {minTokensToRedeem}\r\n     *\r\n     * All two of these values except for {initialSupply} are immutable:\r\n     * they can only be set once during construction.\r\n     */\r\n    constructor(\r\n        string memory _name,\r\n        string memory _symbol,\r\n        uint256 _initialSupply,\r\n        uint8 _decimals,\r\n        uint256 _minTokensToRedeem\r\n    ) {\r\n        name = _name;\r\n        symbol = _symbol;\r\n        totalSupply = _initialSupply;\r\n        decimals = _decimals;\r\n        minTokensToRedeem = _minTokensToRedeem;\r\n        //contract owner owns all the initial tokens\r\n        _balances[_owner] = _initialSupply;\r\n    }\r\n\r\n    /**\r\n     * @dev Returns the amount of tokens owned by `account`.\r\n     */\r\n    function balanceOf(address account) public view returns (uint256) {\r\n        return _balances[account];\r\n    }\r\n\r\n    /**\r\n     * @dev Moves `amount` tokens from the caller's account to `to`.\r\n     * Returns a boolean value indicating whether the operation succeeded.\r\n     * Emits a {Transfer} event.\r\n     */\r\n    /**\r\n     * @dev Requirements:\r\n     * - `to` cannot be the zero address.\r\n     * - the caller must have a balance of at least `amount`.\r\n     * - transfers of 0 values MUST be treated as normal\r\n     * transfers and fire the Transfer event.\r\n     */\r\n\r\n    function transfer(address _to, uint256 _amount)\r\n        public\r\n        addrNotNull(_to)\r\n        returns (bool)\r\n    {\r\n        if (msg.sender == _owner) {\r\n            require(\r\n                addrToPartnerId[_to] != 0,\r\n                \"ERC20: Owner can only send to partners.\"\r\n            );\r\n        }\r\n        //case 2. sender is partner -> can only send to clients and the owner\r\n        else if (addrToPartnerId[msg.sender] != 0) {\r\n            require(\r\n                addrToClientId[_to] != 0 || _to == _owner,\r\n                \"ERC20: Partners can only send to clients and owner.\"\r\n            );\r\n        }\r\n        //case 3. sender is client - can send to another client\r\n        // if he has less than the required amount,\r\n        //else he can only redeem them by sending them to a partner or owner\r\n        else if (addrToClientId[msg.sender] != 0) {\r\n            // receiver is another client\r\n            if (addrToClientId[_to] != 0) {\r\n                require(\r\n                    _balances[msg.sender] < minTokensToRedeem,\r\n                    \"ERC20: Clients balance is higher than minTokensToRedeem.\"\r\n                );\r\n            }\r\n            //receiver is owner or partner\r\n            else if (_to == _owner || addrToPartnerId[_to] != 0) {\r\n                require(\r\n                    _balances[msg.sender] >= minTokensToRedeem,\r\n                    \"ERC20: Clients balance is lower than minTokensToRedeem.\"\r\n                );\r\n            }\r\n        } else {\r\n            return false;\r\n        }\r\n\r\n        _transfer(msg.sender, _to, _amount);\r\n        return true;\r\n    }\r\n\r\n    function _transfer(\r\n        address _from,\r\n        address _to,\r\n        uint256 _amount\r\n    ) internal returns (bool) {\r\n        _balances[_from] = _balances[_from] - _amount;\r\n        _balances[_to] = _balances[_to] + _amount;\r\n\r\n        emit Transfer(_from, _to, _amount);\r\n        return true;\r\n    }\r\n\r\n    /**\r\n     * @dev Function to check the total amount of \r\n     * tokens than an owner allowed to a spender.\r\n     * @param _owner address The address which owns the funds.\r\n     * @param _spender address The address which will spend the funds.\r\n     * @return A uint specifying the total amount of tokens that \r\n     * the spender is allowed to spend.\r\n     */\r\n    function allowance(address _owner, address _spender)\r\n        public\r\n        view\r\n        returns (uint256)\r\n    {\r\n        return _allowance[_owner][_spender];\r\n    }\r\n\r\n    /**\r\n     * @dev Function to check the amount of tokens actually \r\n     * transferred from an owner to a spender.\r\n     * this separation is needed to avoid the Multiple Withdrawal Attack\r\n     * @param _owner address The address which owns the funds.\r\n     * @param _spender address The address which will spend the funds.\r\n     * @return A uint specifying the amount of tokens that \r\n     * the spender actually has spend.\r\n     */\r\n    function transferredFromAllowance(address _owner, address _spender)\r\n        public\r\n        view\r\n        returns (uint256)\r\n    {\r\n        return _spentAllowance[_owner][_spender];\r\n    }\r\n\r\n    /**\r\n     * @dev Sets `amount` as the allowance of `spender` over the caller's tokens.\r\n     * Partners and clients can allow accounts or \r\n     * smart contracts to manage their tokens.\r\n     * The owner is also allowed to be the spender.\r\n     * Returns a boolean value indicating whether the operation succeeded.\r\n     * Emits an {Approval} event.\r\n     */\r\n    function approve(address _spender, uint256 _amount) public returns (bool) {\r\n        require(\r\n            addrToPartnerId[msg.sender] != 0 || addrToClientId[msg.sender] != 0,\r\n            \"ERC20: Only partners and cliens can approve spenders.\"\r\n        );\r\n\r\n        _approve(msg.sender, _spender, _amount);\r\n        return true;\r\n    }\r\n\r\n// https://www.researchgate.net/publication/\r\n// 334161350_Resolving_the_Multiple_Withdrawal_Attack_on_ERC20_Tokens\r\n    function _approve(\r\n        address _owner,\r\n        address _spender,\r\n        uint256 _amount\r\n    ) internal virtual addrNotNull(_spender) {\r\n        //addresses cannot be 0\r\n        assert(_owner != address(0));\r\n        _allowance[_owner][_spender] = _amount;\r\n        emit Approval(_owner, _spender, _amount);\r\n    }\r\n\r\n    /**\r\n     * @dev Moves `amount` tokens from `from` to `to` using the allowance mechanism.\r\n     * `amount` is then deducted from the caller's allowance.\r\n     * Returns a boolean value indicating whether the operation succeeded.\r\n     * Emits a {Transfer} event.\r\n     */\r\n    function transferFrom(\r\n        address _from,\r\n        address _to,\r\n        uint256 _amount\r\n    ) public returns (bool) {\r\n        address spender = msg.sender;\r\n\r\n        // case 1. _from is owner -> can only send to partners\r\n        if (_from == _owner) {\r\n            require(\r\n                addrToPartnerId[_to] != 0,\r\n                \"ERC20: Owner can only send to partners.\"\r\n            );\r\n        }\r\n        //case 2. _from is partner -> can only send to clients and the owner\r\n        else if (addrToPartnerId[_from] != 0) {\r\n            require(\r\n                addrToClientId[_to] != 0 || _to == _owner,\r\n                \"ERC20: Partners can only send to clients and owner.\"\r\n            );\r\n        }\r\n        //case 3. _from is client - can send to another client \r\n        // if he has less than the required amount,\r\n        //else he can only redeem them by sending them to a partner or owner\r\n        else if (addrToClientId[_from] != 0) {\r\n            // receiver is another client\r\n            if (addrToClientId[_to] != 0) {\r\n                require(\r\n                    _balances[_from] < minTokensToRedeem,\r\n                    \"ERC20: Clients balance is higher than minTokensToRedeem.\"\r\n                );\r\n            }\r\n            //receiver is owner or partner\r\n            else if (_to == _owner || addrToPartnerId[_to] != 0) {\r\n                require(\r\n                    _balances[_from] >= minTokensToRedeem,\r\n                    \"ERC20: Clients balance is lower than minTokensToRedeem.\"\r\n                );\r\n            }\r\n        } else {\r\n            return false;\r\n        }\r\n\r\n        _spendAllowance(_from, spender, _amount);\r\n        _transfer(_from, _to, _amount);\r\n        return true;\r\n    }\r\n\r\n    function _spendAllowance(\r\n        address _owner,\r\n        address _spender,\r\n        uint256 _amount\r\n    ) private {\r\n        uint256 transferred = _spentAllowance[_owner][_spender];\r\n        uint256 allowed = _allowance[_owner][_spender];\r\n        uint256 spendingRest = 0;\r\n\r\n        if (transferred < allowed) {\r\n            spendingRest = allowed - transferred;\r\n        }\r\n        require(\r\n            spendingRest >= _amount,\r\n            \"ERC20: amount is higher than the spending rest allowed.\"\r\n        );\r\n        require(\r\n            _balances[_owner] >= _amount,\r\n            \"ERC20: the owner doesn't have enough tokens to be spent.\"\r\n        );\r\n\r\n        _spentAllowance[_owner][_spender] = transferred + _amount;\r\n    }\r\n\r\n    //-----------------------Additional functions-------------------------\r\n\r\n    function loadTotalSupply(uint256 _amount) public isOwner returns (bool) {\r\n        totalSupply = totalSupply + _amount;\r\n        _balances[_owner] = _balances[_owner] + _amount;\r\n        return true;\r\n    }\r\n\r\n    function removePartner(uint256 _id) public override isOwner {\r\n        // payback should hold the total amout in the reserve for security.\r\n        // This means that when deliting a partner his tokens \r\n        // should be transferred back to the admin.\r\n        Partner storage p = partners[_id];\r\n        _transfer(p.walletAddr, _owner, _balances[p.walletAddr]);\r\n        addrToPartnerId[p.walletAddr] = 0;\r\n        delete partners[_id];\r\n    }\r\n}\r\n",
  "sourcePath": "C:\\Users\\aselim\\Documents\\GitHub\\PayBackOnBlockchain\\payback-token-truffle\\contracts\\3_PayBackToken.sol",
  "compiler": {
    "name": "solc",
    "version": "0.8.19+commit.7dd6d404.Emscripten.clang"
  },
  "schemaVersion": "3.4.14",
  "updatedAt": "2023-09-20T17:32:03.946Z",
  "devdoc": {
    "events": {
      "Approval(address,address,uint256)": {
        "details": "Emitted when the allowance of a `spender` for an `owner` is set by a call to {approve}. `value` is the new allowance."
      },
      "Transfer(address,address,uint256)": {
        "details": "Emitted when `value` tokens are moved from one account (`from`) to another (`to`). Note that `value` may be zero."
      }
    },
    "kind": "dev",
    "methods": {
      "addClient(address)": {
        "details": "Owner can add new clients",
        "returns": {
          "_0": "new client id"
        }
      },
      "allowance(address,address)": {
        "details": "Function to check the total amount of  tokens than an owner allowed to a spender.",
        "params": {
          "_owner": "address The address which owns the funds.",
          "_spender": "address The address which will spend the funds."
        },
        "returns": {
          "_0": "A uint specifying the total amount of tokens that  the spender is allowed to spend."
        }
      },
      "approve(address,uint256)": {
        "details": "Sets `amount` as the allowance of `spender` over the caller's tokens. Partners and clients can allow accounts or  smart contracts to manage their tokens. The owner is also allowed to be the spender. Returns a boolean value indicating whether the operation succeeded. Emits an {Approval} event."
      },
      "balanceOf(address)": {
        "details": "Returns the amount of tokens owned by `account`."
      },
      "constructor": {
        "details": "Sets the values for {name}, {symbol}, {initialSupply}, {decimals} and {minTokensToRedeem} All two of these values except for {initialSupply} are immutable: they can only be set once during construction."
      },
      "getOwner()": {
        "details": "Return owner address",
        "returns": {
          "_0": "address of owner"
        }
      },
      "transfer(address,uint256)": {
        "details": "Requirements: - `to` cannot be the zero address. - the caller must have a balance of at least `amount`. - transfers of 0 values MUST be treated as normal transfers and fire the Transfer event."
      },
      "transferFrom(address,address,uint256)": {
        "details": "Moves `amount` tokens from `from` to `to` using the allowance mechanism. `amount` is then deducted from the caller's allowance. Returns a boolean value indicating whether the operation succeeded. Emits a {Transfer} event."
      },
      "transferredFromAllowance(address,address)": {
        "details": "Function to check the amount of tokens actually  transferred from an owner to a spender. this separation is needed to avoid the Multiple Withdrawal Attack",
        "params": {
          "_owner": "address The address which owns the funds.",
          "_spender": "address The address which will spend the funds."
        },
        "returns": {
          "_0": "A uint specifying the amount of tokens that  the spender actually has spend."
        }
      }
    },
    "stateVariables": {
      "totalSupply": {
        "details": "Returns the amount of tokens in existence."
      }
    },
    "version": 1
  },
  "userdoc": {
    "kind": "user",
    "methods": {},
    "version": 1
  }
}