{
  "contractName": "PayBackPartnership",
  "abi": [
    {
      "inputs": [],
      "stateMutability": "nonpayable",
      "type": "constructor"
    },
    {
      "anonymous": false,
      "inputs": [
        {
          "indexed": false,
          "internalType": "uint256",
          "name": "partnerId",
          "type": "uint256"
        },
        {
          "indexed": false,
          "internalType": "string",
          "name": "name",
          "type": "string"
        }
      ],
      "name": "PartnerAdded",
      "type": "event"
    },
    {
      "inputs": [
        {
          "internalType": "address",
          "name": "",
          "type": "address"
        }
      ],
      "name": "addrToPartnerId",
      "outputs": [
        {
          "internalType": "uint256",
          "name": "",
          "type": "uint256"
        }
      ],
      "stateMutability": "view",
      "type": "function"
    },
    {
      "inputs": [],
      "name": "getOwner",
      "outputs": [
        {
          "internalType": "address",
          "name": "",
          "type": "address"
        }
      ],
      "stateMutability": "view",
      "type": "function"
    },
    {
      "inputs": [],
      "name": "numPartner",
      "outputs": [
        {
          "internalType": "uint256",
          "name": "",
          "type": "uint256"
        }
      ],
      "stateMutability": "view",
      "type": "function"
    },
    {
      "inputs": [
        {
          "internalType": "uint256",
          "name": "",
          "type": "uint256"
        }
      ],
      "name": "partners",
      "outputs": [
        {
          "internalType": "string",
          "name": "name",
          "type": "string"
        },
        {
          "internalType": "address payable",
          "name": "walletAddr",
          "type": "address"
        },
        {
          "internalType": "string",
          "name": "currency",
          "type": "string"
        },
        {
          "internalType": "uint256",
          "name": "valueForToken",
          "type": "uint256"
        }
      ],
      "stateMutability": "view",
      "type": "function"
    },
    {
      "inputs": [
        {
          "internalType": "string",
          "name": "_name",
          "type": "string"
        },
        {
          "internalType": "address payable",
          "name": "_addr",
          "type": "address"
        },
        {
          "internalType": "string",
          "name": "_currency",
          "type": "string"
        },
        {
          "internalType": "uint256",
          "name": "_valueForToken",
          "type": "uint256"
        }
      ],
      "name": "addPartner",
      "outputs": [
        {
          "internalType": "bool",
          "name": "",
          "type": "bool"
        }
      ],
      "stateMutability": "nonpayable",
      "type": "function"
    },
    {
      "inputs": [
        {
          "internalType": "uint256",
          "name": "_roundValue",
          "type": "uint256"
        },
        {
          "internalType": "uint256",
          "name": "_partnerId",
          "type": "uint256"
        }
      ],
      "name": "calcPointsToEarn",
      "outputs": [
        {
          "internalType": "uint256",
          "name": "",
          "type": "uint256"
        }
      ],
      "stateMutability": "view",
      "type": "function"
    },
    {
      "inputs": [
        {
          "internalType": "uint256",
          "name": "_id",
          "type": "uint256"
        }
      ],
      "name": "removePartner",
      "outputs": [],
      "stateMutability": "nonpayable",
      "type": "function"
    }
  ],
  "bytecode": "0x60806040523480156200001157600080fd5b50336000806101000a81548173ffffffffffffffffffffffffffffffffffffffff021916908373ffffffffffffffffffffffffffffffffffffffff160217905550600060018190555060006040518060800160405280604051806020016040528060008152508152602001600073ffffffffffffffffffffffffffffffffffffffff1681526020016040518060200160405280600081525081526020016000815250905060028190806001815401808255809150506001900390600052602060002090600402016000909190919091506000820151816000019081620000f89190620003e5565b5060208201518160010160006101000a81548173ffffffffffffffffffffffffffffffffffffffff021916908373ffffffffffffffffffffffffffffffffffffffff1602179055506040820151816002019081620001579190620003e5565b5060608201518160030155505050620004cc565b600081519050919050565b7f4e487b7100000000000000000000000000000000000000000000000000000000600052604160045260246000fd5b7f4e487b7100000000000000000000000000000000000000000000000000000000600052602260045260246000fd5b60006002820490506001821680620001ed57607f821691505b602082108103620002035762000202620001a5565b5b50919050565b60008190508160005260206000209050919050565b60006020601f8301049050919050565b600082821b905092915050565b6000600883026200026d7fffffffffffffffffffffffffffffffffffffffffffffffffffffffffffffffff826200022e565b6200027986836200022e565b95508019841693508086168417925050509392505050565b6000819050919050565b6000819050919050565b6000620002c6620002c0620002ba8462000291565b6200029b565b62000291565b9050919050565b6000819050919050565b620002e283620002a5565b620002fa620002f182620002cd565b8484546200023b565b825550505050565b600090565b6200031162000302565b6200031e818484620002d7565b505050565b5b8181101562000346576200033a60008262000307565b60018101905062000324565b5050565b601f82111562000395576200035f8162000209565b6200036a846200021e565b810160208510156200037a578190505b6200039262000389856200021e565b83018262000323565b50505b505050565b600082821c905092915050565b6000620003ba600019846008026200039a565b1980831691505092915050565b6000620003d58383620003a7565b9150826002028217905092915050565b620003f0826200016b565b67ffffffffffffffff8111156200040c576200040b62000176565b5b620004188254620001d4565b620004258282856200034a565b600060209050601f8311600181146200045d576000841562000448578287015190505b620004548582620003c7565b865550620004c4565b601f1984166200046d8662000209565b60005b82811015620004975784890151825560018201915060208501945060208101905062000470565b86831015620004b75784890151620004b3601f891682620003a7565b8355505b6001600288020188555050505b505050505050565b61161280620004dc6000396000f3fe608060405234801561001057600080fd5b506004361061007d5760003560e01c8063893d20e81161005b578063893d20e8146100ec578063c3b49d041461010a578063e04169261461013d578063e15cfad21461016d5761007d565b8063210e870d146100825780634a9596ce146100b25780637d1d8cc0146100d0575b600080fd5b61009c60048036038101906100979190610bdd565b61019d565b6040516100a99190610c97565b60405180910390f35b6100ba610600565b6040516100c79190610cc1565b60405180910390f35b6100ea60048036038101906100e59190610cdc565b610606565b005b6100f461079b565b6040516101019190610d2a565b60405180910390f35b610124600480360381019061011f9190610cdc565b6107c4565b6040516101349493929190610dd3565b60405180910390f35b61015760048036038101906101529190610e52565b610934565b6040516101649190610cc1565b60405180910390f35b61018760048036038101906101829190610e7f565b61094c565b6040516101949190610cc1565b60405180910390f35b60008060009054906101000a900473ffffffffffffffffffffffffffffffffffffffff1673ffffffffffffffffffffffffffffffffffffffff163373ffffffffffffffffffffffffffffffffffffffff161461022e576040517f08c379a000000000000000000000000000000000000000000000000000000000815260040161022590610f0b565b60405180910390fd5b83600073ffffffffffffffffffffffffffffffffffffffff168173ffffffffffffffffffffffffffffffffffffffff160361029e576040517f08c379a000000000000000000000000000000000000000000000000000000000815260040161029590610f9d565b60405180910390fd5b6000600360008773ffffffffffffffffffffffffffffffffffffffff1673ffffffffffffffffffffffffffffffffffffffff1681526020019081526020016000205414610320576040517f08c379a00000000000000000000000000000000000000000000000000000000081526004016103179061102f565b60405180910390fd5b60008054906101000a900473ffffffffffffffffffffffffffffffffffffffff1673ffffffffffffffffffffffffffffffffffffffff168573ffffffffffffffffffffffffffffffffffffffff16036103ae576040517f08c379a00000000000000000000000000000000000000000000000000000000081526004016103a5906110c1565b60405180910390fd5b60018310156103f2576040517f08c379a00000000000000000000000000000000000000000000000000000000081526004016103e990611179565b60405180910390fd5b600060405180608001604052808881526020018773ffffffffffffffffffffffffffffffffffffffff1681526020018681526020018581525090506002819080600181540180825580915050600190039060005260206000209060040201600090919091909150600082015181600001908161046e91906113a5565b5060208201518160010160006101000a81548173ffffffffffffffffffffffffffffffffffffffff021916908373ffffffffffffffffffffffffffffffffffffffff16021790555060408201518160020190816104cb91906113a5565b506060820151816003015550506001600081546104e7906114a6565b91905081905550600154600360008873ffffffffffffffffffffffffffffffffffffffff1673ffffffffffffffffffffffffffffffffffffffff168152602001908152602001600020819055508573ffffffffffffffffffffffffffffffffffffffff16600260015481548110610561576105606114ee565b5b906000526020600020906004020160010160009054906101000a900473ffffffffffffffffffffffffffffffffffffffff1673ffffffffffffffffffffffffffffffffffffffff16146105b7576105b661151d565b5b7f6b5d098d49c45279cf1afc02eec71018b4e172ec66e1834863c5d62febaa50b7600154886040516105ea92919061154c565b60405180910390a1600192505050949350505050565b60015481565b60008054906101000a900473ffffffffffffffffffffffffffffffffffffffff1673ffffffffffffffffffffffffffffffffffffffff163373ffffffffffffffffffffffffffffffffffffffff1614610694576040517f08c379a000000000000000000000000000000000000000000000000000000000815260040161068b90610f0b565b60405180910390fd5b6000600282815481106106aa576106a96114ee565b5b906000526020600020906004020190506000600360008360010160009054906101000a900473ffffffffffffffffffffffffffffffffffffffff1673ffffffffffffffffffffffffffffffffffffffff1673ffffffffffffffffffffffffffffffffffffffff1681526020019081526020016000208190555060028281548110610737576107366114ee565b5b9060005260206000209060040201600080820160006107569190610992565b6001820160006101000a81549073ffffffffffffffffffffffffffffffffffffffff021916905560028201600061078d9190610992565b600382016000905550505050565b60008060009054906101000a900473ffffffffffffffffffffffffffffffffffffffff16905090565b600281815481106107d457600080fd5b90600052602060002090600402016000915090508060000180546107f7906111c8565b80601f0160208091040260200160405190810160405280929190818152602001828054610823906111c8565b80156108705780601f1061084557610100808354040283529160200191610870565b820191906000526020600020905b81548152906001019060200180831161085357829003601f168201915b5050505050908060010160009054906101000a900473ffffffffffffffffffffffffffffffffffffffff16908060020180546108ab906111c8565b80601f01602080910402602001604051908101604052809291908181526020018280546108d7906111c8565b80156109245780601f106108f957610100808354040283529160200191610924565b820191906000526020600020905b81548152906001019060200180831161090757829003601f168201915b5050505050908060030154905084565b60036020528060005260406000206000915090505481565b60008060028381548110610963576109626114ee565b5b90600052602060002090600402019050600081600301548561098591906115ab565b9050809250505092915050565b50805461099e906111c8565b6000825580601f106109b057506109cf565b601f0160209004906000526020600020908101906109ce91906109d2565b5b50565b5b808211156109eb5760008160009055506001016109d3565b5090565b6000604051905090565b600080fd5b600080fd5b600080fd5b600080fd5b6000601f19601f8301169050919050565b7f4e487b7100000000000000000000000000000000000000000000000000000000600052604160045260246000fd5b610a5682610a0d565b810181811067ffffffffffffffff82111715610a7557610a74610a1e565b5b80604052505050565b6000610a886109ef565b9050610a948282610a4d565b919050565b600067ffffffffffffffff821115610ab457610ab3610a1e565b5b610abd82610a0d565b9050602081019050919050565b82818337600083830152505050565b6000610aec610ae784610a99565b610a7e565b905082815260208101848484011115610b0857610b07610a08565b5b610b13848285610aca565b509392505050565b600082601f830112610b3057610b2f610a03565b5b8135610b40848260208601610ad9565b91505092915050565b600073ffffffffffffffffffffffffffffffffffffffff82169050919050565b6000610b7482610b49565b9050919050565b610b8481610b69565b8114610b8f57600080fd5b50565b600081359050610ba181610b7b565b92915050565b6000819050919050565b610bba81610ba7565b8114610bc557600080fd5b50565b600081359050610bd781610bb1565b92915050565b60008060008060808587031215610bf757610bf66109f9565b5b600085013567ffffffffffffffff811115610c1557610c146109fe565b5b610c2187828801610b1b565b9450506020610c3287828801610b92565b935050604085013567ffffffffffffffff811115610c5357610c526109fe565b5b610c5f87828801610b1b565b9250506060610c7087828801610bc8565b91505092959194509250565b60008115159050919050565b610c9181610c7c565b82525050565b6000602082019050610cac6000830184610c88565b92915050565b610cbb81610ba7565b82525050565b6000602082019050610cd66000830184610cb2565b92915050565b600060208284031215610cf257610cf16109f9565b5b6000610d0084828501610bc8565b91505092915050565b6000610d1482610b49565b9050919050565b610d2481610d09565b82525050565b6000602082019050610d3f6000830184610d1b565b92915050565b600081519050919050565b600082825260208201905092915050565b60005b83811015610d7f578082015181840152602081019050610d64565b60008484015250505050565b6000610d9682610d45565b610da08185610d50565b9350610db0818560208601610d61565b610db981610a0d565b840191505092915050565b610dcd81610b69565b82525050565b60006080820190508181036000830152610ded8187610d8b565b9050610dfc6020830186610dc4565b8181036040830152610e0e8185610d8b565b9050610e1d6060830184610cb2565b95945050505050565b610e2f81610d09565b8114610e3a57600080fd5b50565b600081359050610e4c81610e26565b92915050565b600060208284031215610e6857610e676109f9565b5b6000610e7684828501610e3d565b91505092915050565b60008060408385031215610e9657610e956109f9565b5b6000610ea485828601610bc8565b9250506020610eb585828601610bc8565b9150509250929050565b7f4f776e65723a2043616c6c6572206973206e6f74206f776e6572000000000000600082015250565b6000610ef5601a83610d50565b9150610f0082610ebf565b602082019050919050565b60006020820190508181036000830152610f2481610ee8565b9050919050565b7f506172746e65723a20456e74657265642061646472657373206973206e756c6c60008201527f2e00000000000000000000000000000000000000000000000000000000000000602082015250565b6000610f87602183610d50565b9150610f9282610f2b565b604082019050919050565b60006020820190508181036000830152610fb681610f7a565b9050919050565b7f506172746e65723a20546865206164647265737320697320616c72656164792060008201527f6120706172746e65722100000000000000000000000000000000000000000000602082015250565b6000611019602a83610d50565b915061102482610fbd565b604082019050919050565b600060208201905081810360008301526110488161100c565b9050919050565b7f506172746e65723a20546865206f776e65722063616e6e6f742062652061207060008201527f6172746e65722100000000000000000000000000000000000000000000000000602082015250565b60006110ab602783610d50565b91506110b68261104f565b604082019050919050565b600060208201905081810360008301526110da8161109e565b9050919050565b7f506172746e65723a205468652076616c756520666f72206120546f6b656e207360008201527f686f756c64206265206174206c65617374203120696e2074686520637572726560208201527f6e63792e00000000000000000000000000000000000000000000000000000000604082015250565b6000611163604483610d50565b915061116e826110e1565b606082019050919050565b6000602082019050818103600083015261119281611156565b9050919050565b7f4e487b7100000000000000000000000000000000000000000000000000000000600052602260045260246000fd5b600060028204905060018216806111e057607f821691505b6020821081036111f3576111f2611199565b5b50919050565b60008190508160005260206000209050919050565b60006020601f8301049050919050565b600082821b905092915050565b60006008830261125b7fffffffffffffffffffffffffffffffffffffffffffffffffffffffffffffffff8261121e565b611265868361121e565b95508019841693508086168417925050509392505050565b6000819050919050565b60006112a261129d61129884610ba7565b61127d565b610ba7565b9050919050565b6000819050919050565b6112bc83611287565b6112d06112c8826112a9565b84845461122b565b825550505050565b600090565b6112e56112d8565b6112f08184846112b3565b505050565b5b81811015611314576113096000826112dd565b6001810190506112f6565b5050565b601f8211156113595761132a816111f9565b6113338461120e565b81016020851015611342578190505b61135661134e8561120e565b8301826112f5565b50505b505050565b600082821c905092915050565b600061137c6000198460080261135e565b1980831691505092915050565b6000611395838361136b565b9150826002028217905092915050565b6113ae82610d45565b67ffffffffffffffff8111156113c7576113c6610a1e565b5b6113d182546111c8565b6113dc828285611318565b600060209050601f83116001811461140f57600084156113fd578287015190505b6114078582611389565b86555061146f565b601f19841661141d866111f9565b60005b8281101561144557848901518255600182019150602085019450602081019050611420565b86831015611462578489015161145e601f89168261136b565b8355505b6001600288020188555050505b505050505050565b7f4e487b7100000000000000000000000000000000000000000000000000000000600052601160045260246000fd5b60006114b182610ba7565b91507fffffffffffffffffffffffffffffffffffffffffffffffffffffffffffffffff82036114e3576114e2611477565b5b600182019050919050565b7f4e487b7100000000000000000000000000000000000000000000000000000000600052603260045260246000fd5b7f4e487b7100000000000000000000000000000000000000000000000000000000600052600160045260246000fd5b60006040820190506115616000830185610cb2565b81810360208301526115738184610d8b565b90509392505050565b7f4e487b7100000000000000000000000000000000000000000000000000000000600052601260045260246000fd5b60006115b682610ba7565b91506115c183610ba7565b9250826115d1576115d061157c565b5b82820490509291505056fea2646970667358221220a7ef55f70b2e6188df14d616d8756a328665141768eff75282d0ae5b29eee95164736f6c63430008130033",
  "immutableReferences": {},
  "source": "// SPDX-License-Identifier: MIT\r\npragma solidity ^0.8.19;\r\n\r\nimport \"./1_Owner.sol\";\r\n\r\ncontract PayBackPartnership is Owner {\r\n    //-------------------------Variables-------------------------\r\n    uint256 public numPartner; // starting from 1\r\n\r\n    struct Partner {\r\n        string name;\r\n        address payable walletAddr;\r\n        string currency;\r\n        uint256 valueForToken;\r\n    }\r\n\r\n    Partner[] public partners; // id is numPartner, 0 is Empty\r\n    // mapping(uint256 => address) public partnerIdToAddr;\r\n    // mapping(address => Partner) public addrToPartner;\r\n\r\n    mapping(address => uint256) public addrToPartnerId;\r\n\r\n    //-------------------------Constructor-------------------------\r\n    constructor() {\r\n        numPartner = 0;\r\n        // first partner is Empty\r\n        Partner memory newPartner = Partner(\"\", payable(address(0)), \"\", 0);\r\n        partners.push(newPartner);\r\n    }\r\n\r\n    //-------------------------Modifiers-------------------------\r\n\r\n    // modifier isNotPartner(address _addr) {\r\n    //     Partner storage p = addrToPartner[_addr];\r\n    //     require(\r\n    //         p.walletAddr == address(0),\r\n    //         \"Requested address is already a partner!\"\r\n    //     );\r\n    //     _;\r\n    // }\r\n\r\n    modifier addrNotNull(address _addr) {\r\n        require(_addr != address(0), \"Partner: Entered address is null.\");\r\n        _;\r\n    }\r\n    // modifier addrIsPartner(address _addr) {\r\n    //     Partner storage p = addrToPartner[_addr];\r\n    //     require(p.walletAddr != address(0), \"Entered address is not a partner!\");\r\n    //     _;\r\n    // }\r\n\r\n    //-------------------------Events-------------------------\r\n\r\n    event PartnerAdded(uint256 partnerId, string name);\r\n\r\n    //-------------------------Functions-------------------------\r\n\r\n    function addPartner(\r\n        string memory _name,\r\n        address payable _addr,\r\n        string memory _currency,\r\n        uint256 _valueForToken\r\n    ) public isOwner addrNotNull(_addr) returns (bool) {\r\n        // An address can be partner once\r\n        require(\r\n            addrToPartnerId[_addr] == 0,\r\n            \"Partner: The address is already a partner!\"\r\n        );\r\n\r\n        require(_addr != _owner, \"Partner: The owner cannot be a partner!\");\r\n\r\n        //check that the _valueForToken is minimum 1\r\n        require(\r\n            _valueForToken >= 1,\r\n            \"Partner: The value for a Token should be at least 1 in the currency.\"\r\n        );\r\n\r\n        //save the new Partner\r\n        Partner memory newPartner = Partner(\r\n            _name,\r\n            _addr,\r\n            _currency,\r\n            _valueForToken\r\n        );\r\n        partners.push(newPartner);\r\n        ++numPartner; //starts from 1\r\n        addrToPartnerId[_addr] = numPartner;\r\n\r\n        //verify that there is no error betweeen numPartner as id and array index\r\n        assert(partners[numPartner].walletAddr == _addr);\r\n        emit PartnerAdded(numPartner, _name);\r\n        return true;\r\n    }\r\n\r\n    function calcPointsToEarn(uint256 _roundValue, uint256 _partnerId)\r\n        public\r\n        view\r\n        returns (uint256)\r\n    {\r\n        //_roundValue is the value without the 2 decimals rounded\r\n        Partner storage p = partners[_partnerId];\r\n        //the devision doesn't consider the values after decimal :)\r\n        uint256 tokens = _roundValue / p.valueForToken;\r\n        return tokens;\r\n    }\r\n\r\n    function removePartner(uint256 _id) isOwner public virtual {\r\n        //to remove the partner, the  partner should first transfer his tokens to the owner and then the owner can delete the entry.\r\n        // what if the partner doesn't transfer all of his tokens??????\r\n        // it should be okay that the admin leaves the tokens there...if he should not still hold assets to secure this tokens.\r\n        // https://blog.cryptostars.is/stablecoin-development-8cb6329973b2\r\n        // https://www.coindesk.com/price/tether/\r\n        // also, payback should hold the total amout in the reserve. So this means that we should transfer the tokens back to us.\r\n        \r\n        Partner storage p = partners[_id];\r\n        // get partner address.\r\n        addrToPartnerId[p.walletAddr] = 0;\r\n        delete partners[_id];\r\n    }\r\n\r\n    // function sendTokensToPartner(uint256 _partnerId) private {\r\n    //     //TODO : check if there are enough available tokens from the token supply\r\n    //     // require!\r\n    //     Partner storage the_partner = IdToPartner[_partnerId];\r\n\r\n    //     the_partner.\r\n    // }\r\n}\r\n",
  "sourcePath": "C:\\Users\\aselim\\Documents\\GitHub\\PayBackOnBlockchain\\payback-token-truffle\\contracts\\2_PayBackPartnership.sol",
  "compiler": {
    "name": "solc",
    "version": "0.8.19+commit.7dd6d404.Emscripten.clang"
  },
  "schemaVersion": "3.4.14",
  "updatedAt": "2023-09-13T15:09:57.454Z",
  "devdoc": {
    "kind": "dev",
    "methods": {
      "getOwner()": {
        "details": "Return owner address ",
        "returns": {
          "_0": "address of owner"
        }
      }
    },
    "version": 1
  },
  "userdoc": {
    "kind": "user",
    "methods": {},
    "version": 1
  }
}