{
  "contractName": "PayBackToken",
  "abi": [
    {
      "inputs": [
        {
          "internalType": "string",
          "name": "_name",
          "type": "string"
        },
        {
          "internalType": "string",
          "name": "_symbol",
          "type": "string"
        },
        {
          "internalType": "uint256",
          "name": "_initialSupply",
          "type": "uint256"
        },
        {
          "internalType": "uint8",
          "name": "_decimals",
          "type": "uint8"
        },
        {
          "internalType": "uint256",
          "name": "_minTokensToRedeem",
          "type": "uint256"
        }
      ],
      "stateMutability": "nonpayable",
      "type": "constructor"
    },
    {
      "anonymous": false,
      "inputs": [
        {
          "indexed": true,
          "internalType": "address",
          "name": "owner",
          "type": "address"
        },
        {
          "indexed": true,
          "internalType": "address",
          "name": "spender",
          "type": "address"
        },
        {
          "indexed": false,
          "internalType": "uint256",
          "name": "value",
          "type": "uint256"
        }
      ],
      "name": "Approval",
      "type": "event"
    },
    {
      "anonymous": false,
      "inputs": [
        {
          "indexed": false,
          "internalType": "uint256",
          "name": "partnerId",
          "type": "uint256"
        },
        {
          "indexed": false,
          "internalType": "string",
          "name": "name",
          "type": "string"
        }
      ],
      "name": "PartnerAdded",
      "type": "event"
    },
    {
      "anonymous": false,
      "inputs": [
        {
          "indexed": true,
          "internalType": "address",
          "name": "from",
          "type": "address"
        },
        {
          "indexed": true,
          "internalType": "address",
          "name": "to",
          "type": "address"
        },
        {
          "indexed": false,
          "internalType": "uint256",
          "name": "value",
          "type": "uint256"
        }
      ],
      "name": "Transfer",
      "type": "event"
    },
    {
      "inputs": [
        {
          "internalType": "address",
          "name": "_addr",
          "type": "address"
        }
      ],
      "name": "addClient",
      "outputs": [
        {
          "internalType": "uint256",
          "name": "",
          "type": "uint256"
        }
      ],
      "stateMutability": "nonpayable",
      "type": "function"
    },
    {
      "inputs": [],
      "name": "addMeAsClient",
      "outputs": [
        {
          "internalType": "uint256",
          "name": "",
          "type": "uint256"
        }
      ],
      "stateMutability": "nonpayable",
      "type": "function"
    },
    {
      "inputs": [
        {
          "internalType": "string",
          "name": "_name",
          "type": "string"
        },
        {
          "internalType": "address payable",
          "name": "_addr",
          "type": "address"
        },
        {
          "internalType": "string",
          "name": "_currency",
          "type": "string"
        },
        {
          "internalType": "uint256",
          "name": "_valueForToken",
          "type": "uint256"
        }
      ],
      "name": "addPartner",
      "outputs": [
        {
          "internalType": "bool",
          "name": "",
          "type": "bool"
        }
      ],
      "stateMutability": "nonpayable",
      "type": "function"
    },
    {
      "inputs": [
        {
          "internalType": "address",
          "name": "",
          "type": "address"
        }
      ],
      "name": "addrToClientId",
      "outputs": [
        {
          "internalType": "uint256",
          "name": "",
          "type": "uint256"
        }
      ],
      "stateMutability": "view",
      "type": "function"
    },
    {
      "inputs": [
        {
          "internalType": "address",
          "name": "",
          "type": "address"
        }
      ],
      "name": "addrToPartnerId",
      "outputs": [
        {
          "internalType": "uint256",
          "name": "",
          "type": "uint256"
        }
      ],
      "stateMutability": "view",
      "type": "function"
    },
    {
      "inputs": [
        {
          "internalType": "uint256",
          "name": "_roundValue",
          "type": "uint256"
        },
        {
          "internalType": "uint256",
          "name": "_partnerId",
          "type": "uint256"
        }
      ],
      "name": "calcPointsToEarn",
      "outputs": [
        {
          "internalType": "uint256",
          "name": "",
          "type": "uint256"
        }
      ],
      "stateMutability": "view",
      "type": "function"
    },
    {
      "inputs": [],
      "name": "decimals",
      "outputs": [
        {
          "internalType": "uint8",
          "name": "",
          "type": "uint8"
        }
      ],
      "stateMutability": "view",
      "type": "function"
    },
    {
      "inputs": [],
      "name": "getOwner",
      "outputs": [
        {
          "internalType": "address",
          "name": "",
          "type": "address"
        }
      ],
      "stateMutability": "view",
      "type": "function"
    },
    {
      "inputs": [],
      "name": "minTokensToRedeem",
      "outputs": [
        {
          "internalType": "uint256",
          "name": "",
          "type": "uint256"
        }
      ],
      "stateMutability": "view",
      "type": "function"
    },
    {
      "inputs": [],
      "name": "name",
      "outputs": [
        {
          "internalType": "string",
          "name": "",
          "type": "string"
        }
      ],
      "stateMutability": "view",
      "type": "function"
    },
    {
      "inputs": [],
      "name": "numClient",
      "outputs": [
        {
          "internalType": "uint256",
          "name": "",
          "type": "uint256"
        }
      ],
      "stateMutability": "view",
      "type": "function"
    },
    {
      "inputs": [],
      "name": "numPartner",
      "outputs": [
        {
          "internalType": "uint256",
          "name": "",
          "type": "uint256"
        }
      ],
      "stateMutability": "view",
      "type": "function"
    },
    {
      "inputs": [
        {
          "internalType": "uint256",
          "name": "",
          "type": "uint256"
        }
      ],
      "name": "partners",
      "outputs": [
        {
          "internalType": "string",
          "name": "name",
          "type": "string"
        },
        {
          "internalType": "address payable",
          "name": "walletAddr",
          "type": "address"
        },
        {
          "internalType": "string",
          "name": "currency",
          "type": "string"
        },
        {
          "internalType": "uint256",
          "name": "valueForToken",
          "type": "uint256"
        }
      ],
      "stateMutability": "view",
      "type": "function"
    },
    {
      "inputs": [],
      "name": "symbol",
      "outputs": [
        {
          "internalType": "string",
          "name": "",
          "type": "string"
        }
      ],
      "stateMutability": "view",
      "type": "function"
    },
    {
      "inputs": [],
      "name": "totalSupply",
      "outputs": [
        {
          "internalType": "uint256",
          "name": "",
          "type": "uint256"
        }
      ],
      "stateMutability": "view",
      "type": "function"
    },
    {
      "inputs": [
        {
          "internalType": "address",
          "name": "account",
          "type": "address"
        }
      ],
      "name": "balanceOf",
      "outputs": [
        {
          "internalType": "uint256",
          "name": "",
          "type": "uint256"
        }
      ],
      "stateMutability": "view",
      "type": "function"
    },
    {
      "inputs": [
        {
          "internalType": "address",
          "name": "_to",
          "type": "address"
        },
        {
          "internalType": "uint256",
          "name": "_amount",
          "type": "uint256"
        }
      ],
      "name": "transfer",
      "outputs": [
        {
          "internalType": "bool",
          "name": "",
          "type": "bool"
        }
      ],
      "stateMutability": "nonpayable",
      "type": "function"
    },
    {
      "inputs": [
        {
          "internalType": "address",
          "name": "_owner",
          "type": "address"
        },
        {
          "internalType": "address",
          "name": "_spender",
          "type": "address"
        }
      ],
      "name": "allowance",
      "outputs": [
        {
          "internalType": "uint256",
          "name": "",
          "type": "uint256"
        }
      ],
      "stateMutability": "view",
      "type": "function"
    },
    {
      "inputs": [
        {
          "internalType": "address",
          "name": "_owner",
          "type": "address"
        },
        {
          "internalType": "address",
          "name": "_spender",
          "type": "address"
        }
      ],
      "name": "transferredFromAllowance",
      "outputs": [
        {
          "internalType": "uint256",
          "name": "",
          "type": "uint256"
        }
      ],
      "stateMutability": "view",
      "type": "function"
    },
    {
      "inputs": [
        {
          "internalType": "address",
          "name": "_spender",
          "type": "address"
        },
        {
          "internalType": "uint256",
          "name": "_amount",
          "type": "uint256"
        }
      ],
      "name": "approve",
      "outputs": [
        {
          "internalType": "bool",
          "name": "",
          "type": "bool"
        }
      ],
      "stateMutability": "nonpayable",
      "type": "function"
    },
    {
      "inputs": [
        {
          "internalType": "address",
          "name": "_from",
          "type": "address"
        },
        {
          "internalType": "address",
          "name": "_to",
          "type": "address"
        },
        {
          "internalType": "uint256",
          "name": "_amount",
          "type": "uint256"
        }
      ],
      "name": "transferFrom",
      "outputs": [
        {
          "internalType": "bool",
          "name": "",
          "type": "bool"
        }
      ],
      "stateMutability": "nonpayable",
      "type": "function"
    },
    {
      "inputs": [
        {
          "internalType": "uint256",
          "name": "_amount",
          "type": "uint256"
        }
      ],
      "name": "loadTotalSupply",
      "outputs": [
        {
          "internalType": "bool",
          "name": "",
          "type": "bool"
        }
      ],
      "stateMutability": "nonpayable",
      "type": "function"
    },
    {
      "inputs": [
        {
          "internalType": "uint256",
          "name": "_id",
          "type": "uint256"
        }
      ],
      "name": "removePartner",
      "outputs": [],
      "stateMutability": "nonpayable",
      "type": "function"
    }
  ],
  "bytecode": "0x60806040523480156200001157600080fd5b5060405162003fb838038062003fb883398181016040528101906200003791906200045b565b336000806101000a81548173ffffffffffffffffffffffffffffffffffffffff021916908373ffffffffffffffffffffffffffffffffffffffff160217905550600060018190555060006040518060800160405280604051806020016040528060008152508152602001600073ffffffffffffffffffffffffffffffffffffffff16815260200160405180602001604052806000815250815260200160008152509050600281908060018154018082558091505060019003906000526020600020906004020160009091909190915060008201518160000190816200011d919062000762565b5060208201518160010160006101000a81548173ffffffffffffffffffffffffffffffffffffffff021916908373ffffffffffffffffffffffffffffffffffffffff16021790555060408201518160020190816200017c919062000762565b506060820151816003015550505060006005819055508460069081620001a3919062000762565b508360079081620001b5919062000762565b508260098190555081600860006101000a81548160ff021916908360ff16021790555080600a8190555082600b60008060009054906101000a900473ffffffffffffffffffffffffffffffffffffffff1673ffffffffffffffffffffffffffffffffffffffff1673ffffffffffffffffffffffffffffffffffffffff16815260200190815260200160002081905550505050505062000849565b6000604051905090565b600080fd5b600080fd5b600080fd5b600080fd5b6000601f19601f8301169050919050565b7f4e487b7100000000000000000000000000000000000000000000000000000000600052604160045260246000fd5b620002b8826200026d565b810181811067ffffffffffffffff82111715620002da57620002d96200027e565b5b80604052505050565b6000620002ef6200024f565b9050620002fd8282620002ad565b919050565b600067ffffffffffffffff82111562000320576200031f6200027e565b5b6200032b826200026d565b9050602081019050919050565b60005b83811015620003585780820151818401526020810190506200033b565b60008484015250505050565b60006200037b620003758462000302565b620002e3565b9050828152602081018484840111156200039a576200039962000268565b5b620003a784828562000338565b509392505050565b600082601f830112620003c757620003c662000263565b5b8151620003d984826020860162000364565b91505092915050565b6000819050919050565b620003f781620003e2565b81146200040357600080fd5b50565b6000815190506200041781620003ec565b92915050565b600060ff82169050919050565b62000435816200041d565b81146200044157600080fd5b50565b60008151905062000455816200042a565b92915050565b600080600080600060a086880312156200047a576200047962000259565b5b600086015167ffffffffffffffff8111156200049b576200049a6200025e565b5b620004a988828901620003af565b955050602086015167ffffffffffffffff811115620004cd57620004cc6200025e565b5b620004db88828901620003af565b9450506040620004ee8882890162000406565b9350506060620005018882890162000444565b9250506080620005148882890162000406565b9150509295509295909350565b600081519050919050565b7f4e487b7100000000000000000000000000000000000000000000000000000000600052602260045260246000fd5b600060028204905060018216806200057457607f821691505b6020821081036200058a57620005896200052c565b5b50919050565b60008190508160005260206000209050919050565b60006020601f8301049050919050565b600082821b905092915050565b600060088302620005f47fffffffffffffffffffffffffffffffffffffffffffffffffffffffffffffffff82620005b5565b620006008683620005b5565b95508019841693508086168417925050509392505050565b6000819050919050565b6000620006436200063d6200063784620003e2565b62000618565b620003e2565b9050919050565b6000819050919050565b6200065f8362000622565b620006776200066e826200064a565b848454620005c2565b825550505050565b600090565b6200068e6200067f565b6200069b81848462000654565b505050565b5b81811015620006c357620006b760008262000684565b600181019050620006a1565b5050565b601f8211156200071257620006dc8162000590565b620006e784620005a5565b81016020851015620006f7578190505b6200070f6200070685620005a5565b830182620006a0565b50505b505050565b600082821c905092915050565b6000620007376000198460080262000717565b1980831691505092915050565b600062000752838362000724565b9150826002028217905092915050565b6200076d8262000521565b67ffffffffffffffff8111156200078957620007886200027e565b5b6200079582546200055b565b620007a2828285620006c7565b600060209050601f831160018114620007da5760008415620007c5578287015190505b620007d1858262000744565b86555062000841565b601f198416620007ea8662000590565b60005b828110156200081457848901518255600182019150602085019450602081019050620007ed565b8683101562000834578489015162000830601f89168262000724565b8355505b6001600288020188555050505b505050505050565b61375f80620008596000396000f3fe608060405234801561001057600080fd5b506004361061014d5760003560e01c806370a08231116100c3578063c785f5931161007c578063c785f593146103f3578063dd62ed3e14610411578063e041692614610441578063e15cfad214610471578063faa5e4e2146104a1578063fe2cbab0146104d15761014d565b806370a08231146103085780637d1d8cc014610338578063893d20e81461035457806395d89b4114610372578063a9059cbb14610390578063c3b49d04146103c05761014d565b806323b872dd1161011557806323b872dd1461021e578063313ce5671461024e57806343928cfd1461026c5780634a9596ce1461029c5780634b8e3961146102ba578063641244f9146102d85761014d565b806306fdde0314610152578063095ea7b31461017057806313869f85146101a057806318160ddd146101d0578063210e870d146101ee575b600080fd5b61015a6104ef565b6040516101679190612360565b60405180910390f35b61018a6004803603810190610185919061242a565b61057d565b6040516101979190612485565b60405180910390f35b6101ba60048036038101906101b591906124a0565b610726565b6040516101c79190612485565b60405180910390f35b6101d86108a4565b6040516101e591906124dc565b60405180910390f35b6102086004803603810190610203919061266a565b6108aa565b6040516102159190612485565b60405180910390f35b61023860048036038101906102339190612709565b610d0d565b6040516102459190612485565b60405180910390f35b610256610d36565b6040516102639190612778565b60405180910390f35b61028660048036038101906102819190612793565b610d49565b60405161029391906124dc565b60405180910390f35b6102a4611043565b6040516102b191906124dc565b60405180910390f35b6102c2611049565b6040516102cf91906124dc565b60405180910390f35b6102f260048036038101906102ed91906127c0565b61104f565b6040516102ff91906124dc565b60405180910390f35b610322600480360381019061031d9190612793565b6110d6565b60405161032f91906124dc565b60405180910390f35b610352600480360381019061034d91906124a0565b61111f565b005b61035c611367565b604051610369919061280f565b60405180910390f35b61037a611390565b6040516103879190612360565b60405180910390f35b6103aa60048036038101906103a5919061242a565b61141e565b6040516103b79190612485565b60405180910390f35b6103da60048036038101906103d591906124a0565b6118f2565b6040516103ea9493929190612839565b60405180910390f35b6103fb611a62565b60405161040891906124dc565b60405180910390f35b61042b600480360381019061042691906127c0565b611a68565b60405161043891906124dc565b60405180910390f35b61045b60048036038101906104569190612793565b611aef565b60405161046891906124dc565b60405180910390f35b61048b6004803603810190610486919061288c565b611b07565b60405161049891906124dc565b60405180910390f35b6104bb60048036038101906104b69190612793565b611b4d565b6040516104c891906124dc565b60405180910390f35b6104d9611b65565b6040516104e691906124dc565b60405180910390f35b600680546104fc906128fb565b80601f0160208091040260200160405190810160405280929190818152602001828054610528906128fb565b80156105755780601f1061054a57610100808354040283529160200191610575565b820191906000526020600020905b81548152906001019060200180831161055857829003601f168201915b505050505081565b600080600360003373ffffffffffffffffffffffffffffffffffffffff1673ffffffffffffffffffffffffffffffffffffffff1681526020019081526020016000205414158061060d57506000600460003373ffffffffffffffffffffffffffffffffffffffff1673ffffffffffffffffffffffffffffffffffffffff1681526020019081526020016000205414155b61064c576040517f08c379a00000000000000000000000000000000000000000000000000000000081526004016106439061299e565b60405180910390fd5b6000820361068f576040517f08c379a000000000000000000000000000000000000000000000000000000000815260040161068690612a0a565b60405180910390fd5b81600b60003373ffffffffffffffffffffffffffffffffffffffff1673ffffffffffffffffffffffffffffffffffffffff168152602001908152602001600020541015610711576040517f08c379a000000000000000000000000000000000000000000000000000000000815260040161070890612a9c565b60405180910390fd5b61071c338484611d5c565b6001905092915050565b60008060009054906101000a900473ffffffffffffffffffffffffffffffffffffffff1673ffffffffffffffffffffffffffffffffffffffff163373ffffffffffffffffffffffffffffffffffffffff16146107b7576040517f08c379a00000000000000000000000000000000000000000000000000000000081526004016107ae90612b08565b60405180910390fd5b816009546107c59190612b57565b60098190555081600b60008060009054906101000a900473ffffffffffffffffffffffffffffffffffffffff1673ffffffffffffffffffffffffffffffffffffffff1673ffffffffffffffffffffffffffffffffffffffff168152602001908152602001600020546108379190612b57565b600b60008060009054906101000a900473ffffffffffffffffffffffffffffffffffffffff1673ffffffffffffffffffffffffffffffffffffffff1673ffffffffffffffffffffffffffffffffffffffff1681526020019081526020016000208190555060019050919050565b60095481565b60008060009054906101000a900473ffffffffffffffffffffffffffffffffffffffff1673ffffffffffffffffffffffffffffffffffffffff163373ffffffffffffffffffffffffffffffffffffffff161461093b576040517f08c379a000000000000000000000000000000000000000000000000000000000815260040161093290612b08565b60405180910390fd5b83600073ffffffffffffffffffffffffffffffffffffffff168173ffffffffffffffffffffffffffffffffffffffff16036109ab576040517f08c379a00000000000000000000000000000000000000000000000000000000081526004016109a290612bfd565b60405180910390fd5b6000600360008773ffffffffffffffffffffffffffffffffffffffff1673ffffffffffffffffffffffffffffffffffffffff1681526020019081526020016000205414610a2d576040517f08c379a0000000000000000000000000000000000000000000000000000000008152600401610a2490612c8f565b60405180910390fd5b60008054906101000a900473ffffffffffffffffffffffffffffffffffffffff1673ffffffffffffffffffffffffffffffffffffffff168573ffffffffffffffffffffffffffffffffffffffff1603610abb576040517f08c379a0000000000000000000000000000000000000000000000000000000008152600401610ab290612d21565b60405180910390fd5b6001831015610aff576040517f08c379a0000000000000000000000000000000000000000000000000000000008152600401610af690612dd9565b60405180910390fd5b600060405180608001604052808881526020018773ffffffffffffffffffffffffffffffffffffffff16815260200186815260200185815250905060028190806001815401808255809150506001900390600052602060002090600402016000909190919091506000820151816000019081610b7b9190612fa5565b5060208201518160010160006101000a81548173ffffffffffffffffffffffffffffffffffffffff021916908373ffffffffffffffffffffffffffffffffffffffff1602179055506040820151816002019081610bd89190612fa5565b50606082015181600301555050600160008154610bf490613077565b91905081905550600154600360008873ffffffffffffffffffffffffffffffffffffffff1673ffffffffffffffffffffffffffffffffffffffff168152602001908152602001600020819055508573ffffffffffffffffffffffffffffffffffffffff16600260015481548110610c6e57610c6d6130bf565b5b906000526020600020906004020160010160009054906101000a900473ffffffffffffffffffffffffffffffffffffffff1673ffffffffffffffffffffffffffffffffffffffff1614610cc457610cc36130ee565b5b7f6b5d098d49c45279cf1afc02eec71018b4e172ec66e1834863c5d62febaa50b760015488604051610cf792919061311d565b60405180910390a1600192505050949350505050565b600080339050610d1e858285611ef3565b610d298585856120e5565b5060019150509392505050565b600860009054906101000a900460ff1681565b60008060009054906101000a900473ffffffffffffffffffffffffffffffffffffffff1673ffffffffffffffffffffffffffffffffffffffff163373ffffffffffffffffffffffffffffffffffffffff1614610dda576040517f08c379a0000000000000000000000000000000000000000000000000000000008152600401610dd190612b08565b60405180910390fd5b81600073ffffffffffffffffffffffffffffffffffffffff168173ffffffffffffffffffffffffffffffffffffffff1603610e4a576040517f08c379a0000000000000000000000000000000000000000000000000000000008152600401610e4190612bfd565b60405180910390fd5b6000600360008573ffffffffffffffffffffffffffffffffffffffff1673ffffffffffffffffffffffffffffffffffffffff1681526020019081526020016000205414610ecc576040517f08c379a0000000000000000000000000000000000000000000000000000000008152600401610ec3906131bf565b60405180910390fd5b60008054906101000a900473ffffffffffffffffffffffffffffffffffffffff1673ffffffffffffffffffffffffffffffffffffffff168373ffffffffffffffffffffffffffffffffffffffff1603610f5a576040517f08c379a0000000000000000000000000000000000000000000000000000000008152600401610f5190613251565b60405180910390fd5b6000600460008573ffffffffffffffffffffffffffffffffffffffff1673ffffffffffffffffffffffffffffffffffffffff1681526020019081526020016000205414610fdc576040517f08c379a0000000000000000000000000000000000000000000000000000000008152600401610fd3906132bd565b60405180910390fd5b600560008154610feb90613077565b91905081905550600554600460008573ffffffffffffffffffffffffffffffffffffffff1673ffffffffffffffffffffffffffffffffffffffff16815260200190815260200160002081905550600554915050919050565b60015481565b600a5481565b6000600d60008473ffffffffffffffffffffffffffffffffffffffff1673ffffffffffffffffffffffffffffffffffffffff16815260200190815260200160002060008373ffffffffffffffffffffffffffffffffffffffff1673ffffffffffffffffffffffffffffffffffffffff16815260200190815260200160002054905092915050565b6000600b60008373ffffffffffffffffffffffffffffffffffffffff1673ffffffffffffffffffffffffffffffffffffffff168152602001908152602001600020549050919050565b60008054906101000a900473ffffffffffffffffffffffffffffffffffffffff1673ffffffffffffffffffffffffffffffffffffffff163373ffffffffffffffffffffffffffffffffffffffff16146111ad576040517f08c379a00000000000000000000000000000000000000000000000000000000081526004016111a490612b08565b60405180910390fd5b6000600282815481106111c3576111c26130bf565b5b906000526020600020906004020190506112858160010160009054906101000a900473ffffffffffffffffffffffffffffffffffffffff1660008054906101000a900473ffffffffffffffffffffffffffffffffffffffff16600b60008560010160009054906101000a900473ffffffffffffffffffffffffffffffffffffffff1673ffffffffffffffffffffffffffffffffffffffff1673ffffffffffffffffffffffffffffffffffffffff168152602001908152602001600020546120e5565b506000600360008360010160009054906101000a900473ffffffffffffffffffffffffffffffffffffffff1673ffffffffffffffffffffffffffffffffffffffff1673ffffffffffffffffffffffffffffffffffffffff1681526020019081526020016000208190555060028281548110611303576113026130bf565b5b9060005260206000209060040201600080820160006113229190612273565b6001820160006101000a81549073ffffffffffffffffffffffffffffffffffffffff02191690556002820160006113599190612273565b600382016000905550505050565b60008060009054906101000a900473ffffffffffffffffffffffffffffffffffffffff16905090565b6007805461139d906128fb565b80601f01602080910402602001604051908101604052809291908181526020018280546113c9906128fb565b80156114165780601f106113eb57610100808354040283529160200191611416565b820191906000526020600020905b8154815290600101906020018083116113f957829003601f168201915b505050505081565b600082600073ffffffffffffffffffffffffffffffffffffffff168173ffffffffffffffffffffffffffffffffffffffff1603611490576040517f08c379a000000000000000000000000000000000000000000000000000000000815260040161148790612bfd565b60405180910390fd5b60008054906101000a900473ffffffffffffffffffffffffffffffffffffffff1673ffffffffffffffffffffffffffffffffffffffff163373ffffffffffffffffffffffffffffffffffffffff160361156a576000600360008673ffffffffffffffffffffffffffffffffffffffff1673ffffffffffffffffffffffffffffffffffffffff1681526020019081526020016000205403611565576040517f08c379a000000000000000000000000000000000000000000000000000000000815260040161155c9061334f565b60405180910390fd5b6118da565b6000600360003373ffffffffffffffffffffffffffffffffffffffff1673ffffffffffffffffffffffffffffffffffffffff168152602001908152602001600020541461168f576000600460008673ffffffffffffffffffffffffffffffffffffffff1673ffffffffffffffffffffffffffffffffffffffff1681526020019081526020016000205414158061164b575060008054906101000a900473ffffffffffffffffffffffffffffffffffffffff1673ffffffffffffffffffffffffffffffffffffffff168473ffffffffffffffffffffffffffffffffffffffff16145b61168a576040517f08c379a0000000000000000000000000000000000000000000000000000000008152600401611681906133e1565b60405180910390fd5b6118d9565b6000600460003373ffffffffffffffffffffffffffffffffffffffff1673ffffffffffffffffffffffffffffffffffffffff16815260200190815260200160002054146118cf576000600460008673ffffffffffffffffffffffffffffffffffffffff1673ffffffffffffffffffffffffffffffffffffffff16815260200190815260200160002054146117a557600a54600b60003373ffffffffffffffffffffffffffffffffffffffff1673ffffffffffffffffffffffffffffffffffffffff16815260200190815260200160002054106117a0576040517f08c379a000000000000000000000000000000000000000000000000000000000815260040161179790613499565b60405180910390fd5b6118ca565b60008054906101000a900473ffffffffffffffffffffffffffffffffffffffff1673ffffffffffffffffffffffffffffffffffffffff168473ffffffffffffffffffffffffffffffffffffffff16148061183f57506000600360008673ffffffffffffffffffffffffffffffffffffffff1673ffffffffffffffffffffffffffffffffffffffff1681526020019081526020016000205414155b156118c957600a54600b60003373ffffffffffffffffffffffffffffffffffffffff1673ffffffffffffffffffffffffffffffffffffffff1681526020019081526020016000205410156118c8576040517f08c379a00000000000000000000000000000000000000000000000000000000081526004016118bf90613551565b60405180910390fd5b5b5b6118d8565b600091506118eb565b5b5b6118e53385856120e5565b50600191505b5092915050565b6002818154811061190257600080fd5b9060005260206000209060040201600091509050806000018054611925906128fb565b80601f0160208091040260200160405190810160405280929190818152602001828054611951906128fb565b801561199e5780601f106119735761010080835404028352916020019161199e565b820191906000526020600020905b81548152906001019060200180831161198157829003601f168201915b5050505050908060010160009054906101000a900473ffffffffffffffffffffffffffffffffffffffff16908060020180546119d9906128fb565b80601f0160208091040260200160405190810160405280929190818152602001828054611a05906128fb565b8015611a525780601f10611a2757610100808354040283529160200191611a52565b820191906000526020600020905b815481529060010190602001808311611a3557829003601f168201915b5050505050908060030154905084565b60055481565b6000600c60008473ffffffffffffffffffffffffffffffffffffffff1673ffffffffffffffffffffffffffffffffffffffff16815260200190815260200160002060008373ffffffffffffffffffffffffffffffffffffffff1673ffffffffffffffffffffffffffffffffffffffff16815260200190815260200160002054905092915050565b60036020528060005260406000206000915090505481565b60008060028381548110611b1e57611b1d6130bf565b5b906000526020600020906004020190506000816003015485611b4091906135a0565b9050809250505092915050565b60046020528060005260406000206000915090505481565b600080600360003373ffffffffffffffffffffffffffffffffffffffff1673ffffffffffffffffffffffffffffffffffffffff1681526020019081526020016000205414611be8576040517f08c379a0000000000000000000000000000000000000000000000000000000008152600401611bdf906131bf565b60405180910390fd5b60008054906101000a900473ffffffffffffffffffffffffffffffffffffffff1673ffffffffffffffffffffffffffffffffffffffff163373ffffffffffffffffffffffffffffffffffffffff1603611c76576040517f08c379a0000000000000000000000000000000000000000000000000000000008152600401611c6d90613251565b60405180910390fd5b6000600460003373ffffffffffffffffffffffffffffffffffffffff1673ffffffffffffffffffffffffffffffffffffffff1681526020019081526020016000205414611cf8576040517f08c379a0000000000000000000000000000000000000000000000000000000008152600401611cef906132bd565b60405180910390fd5b600560008154611d0790613077565b91905081905550600554600460003373ffffffffffffffffffffffffffffffffffffffff1673ffffffffffffffffffffffffffffffffffffffff16815260200190815260200160002081905550600554905090565b600073ffffffffffffffffffffffffffffffffffffffff168373ffffffffffffffffffffffffffffffffffffffff1603611d9957611d986130ee565b5b600073ffffffffffffffffffffffffffffffffffffffff168273ffffffffffffffffffffffffffffffffffffffff1603611e08576040517f08c379a0000000000000000000000000000000000000000000000000000000008152600401611dff90613643565b60405180910390fd5b80600c60008573ffffffffffffffffffffffffffffffffffffffff1673ffffffffffffffffffffffffffffffffffffffff16815260200190815260200160002060008473ffffffffffffffffffffffffffffffffffffffff1673ffffffffffffffffffffffffffffffffffffffff168152602001908152602001600020819055508173ffffffffffffffffffffffffffffffffffffffff168373ffffffffffffffffffffffffffffffffffffffff167f8c5be1e5ebec7d5bd14f71427d1e84f3dd0314c0f7b2291e5b200ac8c7c3b92583604051611ee691906124dc565b60405180910390a3505050565b6000600d60008573ffffffffffffffffffffffffffffffffffffffff1673ffffffffffffffffffffffffffffffffffffffff16815260200190815260200160002060008473ffffffffffffffffffffffffffffffffffffffff1673ffffffffffffffffffffffffffffffffffffffff1681526020019081526020016000205490506000600c60008673ffffffffffffffffffffffffffffffffffffffff1673ffffffffffffffffffffffffffffffffffffffff16815260200190815260200160002060008573ffffffffffffffffffffffffffffffffffffffff1673ffffffffffffffffffffffffffffffffffffffff16815260200190815260200160002054905060008183101561200e57828261200b9190613663565b90505b83811015612051576040517f08c379a000000000000000000000000000000000000000000000000000000000815260040161204890613709565b60405180910390fd5b838361205d9190612b57565b600d60008873ffffffffffffffffffffffffffffffffffffffff1673ffffffffffffffffffffffffffffffffffffffff16815260200190815260200160002060008773ffffffffffffffffffffffffffffffffffffffff1673ffffffffffffffffffffffffffffffffffffffff16815260200190815260200160002081905550505050505050565b600081600b60008673ffffffffffffffffffffffffffffffffffffffff1673ffffffffffffffffffffffffffffffffffffffff168152602001908152602001600020546121329190613663565b600b60008673ffffffffffffffffffffffffffffffffffffffff1673ffffffffffffffffffffffffffffffffffffffff1681526020019081526020016000208190555081600b60008573ffffffffffffffffffffffffffffffffffffffff1673ffffffffffffffffffffffffffffffffffffffff168152602001908152602001600020546121c09190612b57565b600b60008573ffffffffffffffffffffffffffffffffffffffff1673ffffffffffffffffffffffffffffffffffffffff168152602001908152602001600020819055508273ffffffffffffffffffffffffffffffffffffffff168473ffffffffffffffffffffffffffffffffffffffff167fddf252ad1be2c89b69c2b068fc378daa952ba7f163c4a11628f55a4df523b3ef8460405161226091906124dc565b60405180910390a3600190509392505050565b50805461227f906128fb565b6000825580601f1061229157506122b0565b601f0160209004906000526020600020908101906122af91906122b3565b5b50565b5b808211156122cc5760008160009055506001016122b4565b5090565b600081519050919050565b600082825260208201905092915050565b60005b8381101561230a5780820151818401526020810190506122ef565b60008484015250505050565b6000601f19601f8301169050919050565b6000612332826122d0565b61233c81856122db565b935061234c8185602086016122ec565b61235581612316565b840191505092915050565b6000602082019050818103600083015261237a8184612327565b905092915050565b6000604051905090565b600080fd5b600080fd5b600073ffffffffffffffffffffffffffffffffffffffff82169050919050565b60006123c182612396565b9050919050565b6123d1816123b6565b81146123dc57600080fd5b50565b6000813590506123ee816123c8565b92915050565b6000819050919050565b612407816123f4565b811461241257600080fd5b50565b600081359050612424816123fe565b92915050565b600080604083850312156124415761244061238c565b5b600061244f858286016123df565b925050602061246085828601612415565b9150509250929050565b60008115159050919050565b61247f8161246a565b82525050565b600060208201905061249a6000830184612476565b92915050565b6000602082840312156124b6576124b561238c565b5b60006124c484828501612415565b91505092915050565b6124d6816123f4565b82525050565b60006020820190506124f160008301846124cd565b92915050565b600080fd5b600080fd5b7f4e487b7100000000000000000000000000000000000000000000000000000000600052604160045260246000fd5b61253982612316565b810181811067ffffffffffffffff8211171561255857612557612501565b5b80604052505050565b600061256b612382565b90506125778282612530565b919050565b600067ffffffffffffffff82111561259757612596612501565b5b6125a082612316565b9050602081019050919050565b82818337600083830152505050565b60006125cf6125ca8461257c565b612561565b9050828152602081018484840111156125eb576125ea6124fc565b5b6125f68482856125ad565b509392505050565b600082601f830112612613576126126124f7565b5b81356126238482602086016125bc565b91505092915050565b600061263782612396565b9050919050565b6126478161262c565b811461265257600080fd5b50565b6000813590506126648161263e565b92915050565b600080600080608085870312156126845761268361238c565b5b600085013567ffffffffffffffff8111156126a2576126a1612391565b5b6126ae878288016125fe565b94505060206126bf87828801612655565b935050604085013567ffffffffffffffff8111156126e0576126df612391565b5b6126ec878288016125fe565b92505060606126fd87828801612415565b91505092959194509250565b6000806000606084860312156127225761272161238c565b5b6000612730868287016123df565b9350506020612741868287016123df565b925050604061275286828701612415565b9150509250925092565b600060ff82169050919050565b6127728161275c565b82525050565b600060208201905061278d6000830184612769565b92915050565b6000602082840312156127a9576127a861238c565b5b60006127b7848285016123df565b91505092915050565b600080604083850312156127d7576127d661238c565b5b60006127e5858286016123df565b92505060206127f6858286016123df565b9150509250929050565b612809816123b6565b82525050565b60006020820190506128246000830184612800565b92915050565b6128338161262c565b82525050565b600060808201905081810360008301526128538187612327565b9050612862602083018661282a565b81810360408301526128748185612327565b905061288360608301846124cd565b95945050505050565b600080604083850312156128a3576128a261238c565b5b60006128b185828601612415565b92505060206128c285828601612415565b9150509250929050565b7f4e487b7100000000000000000000000000000000000000000000000000000000600052602260045260246000fd5b6000600282049050600182168061291357607f821691505b602082108103612926576129256128cc565b5b50919050565b7f4f6e6c7920706172746e65727320616e6420636c69656e732063616e2061707060008201527f726f7665207370656e646572732e000000000000000000000000000000000000602082015250565b6000612988602e836122db565b91506129938261292c565b604082019050919050565b600060208201905081810360008301526129b78161297b565b9050919050565b7f45524332303a20416d6f756e742063616e6e6f74206265203000000000000000600082015250565b60006129f46019836122db565b91506129ff826129be565b602082019050919050565b60006020820190508181036000830152612a23816129e7565b9050919050565b7f45524332303a20416d6f756e742063616e6e6f7420626520677265617465722060008201527f7468616e2062616c616e63650000000000000000000000000000000000000000602082015250565b6000612a86602c836122db565b9150612a9182612a2a565b604082019050919050565b60006020820190508181036000830152612ab581612a79565b9050919050565b7f4f776e65723a2043616c6c6572206973206e6f74206f776e6572000000000000600082015250565b6000612af2601a836122db565b9150612afd82612abc565b602082019050919050565b60006020820190508181036000830152612b2181612ae5565b9050919050565b7f4e487b7100000000000000000000000000000000000000000000000000000000600052601160045260246000fd5b6000612b62826123f4565b9150612b6d836123f4565b9250828201905080821115612b8557612b84612b28565b5b92915050565b7f506172746e65723a20456e74657265642061646472657373206973206e756c6c60008201527f2e00000000000000000000000000000000000000000000000000000000000000602082015250565b6000612be76021836122db565b9150612bf282612b8b565b604082019050919050565b60006020820190508181036000830152612c1681612bda565b9050919050565b7f506172746e65723a20546865206164647265737320697320616c72656164792060008201527f6120706172746e65722100000000000000000000000000000000000000000000602082015250565b6000612c79602a836122db565b9150612c8482612c1d565b604082019050919050565b60006020820190508181036000830152612ca881612c6c565b9050919050565b7f506172746e65723a20546865206f776e65722063616e6e6f742062652061207060008201527f6172746e65722100000000000000000000000000000000000000000000000000602082015250565b6000612d0b6027836122db565b9150612d1682612caf565b604082019050919050565b60006020820190508181036000830152612d3a81612cfe565b9050919050565b7f506172746e65723a205468652076616c756520666f72206120546f6b656e207360008201527f686f756c64206265206174206c65617374203120696e2074686520637572726560208201527f6e63792e00000000000000000000000000000000000000000000000000000000604082015250565b6000612dc36044836122db565b9150612dce82612d41565b606082019050919050565b60006020820190508181036000830152612df281612db6565b9050919050565b60008190508160005260206000209050919050565b60006020601f8301049050919050565b600082821b905092915050565b600060088302612e5b7fffffffffffffffffffffffffffffffffffffffffffffffffffffffffffffffff82612e1e565b612e658683612e1e565b95508019841693508086168417925050509392505050565b6000819050919050565b6000612ea2612e9d612e98846123f4565b612e7d565b6123f4565b9050919050565b6000819050919050565b612ebc83612e87565b612ed0612ec882612ea9565b848454612e2b565b825550505050565b600090565b612ee5612ed8565b612ef0818484612eb3565b505050565b5b81811015612f1457612f09600082612edd565b600181019050612ef6565b5050565b601f821115612f5957612f2a81612df9565b612f3384612e0e565b81016020851015612f42578190505b612f56612f4e85612e0e565b830182612ef5565b50505b505050565b600082821c905092915050565b6000612f7c60001984600802612f5e565b1980831691505092915050565b6000612f958383612f6b565b9150826002028217905092915050565b612fae826122d0565b67ffffffffffffffff811115612fc757612fc6612501565b5b612fd182546128fb565b612fdc828285612f18565b600060209050601f83116001811461300f5760008415612ffd578287015190505b6130078582612f89565b86555061306f565b601f19841661301d86612df9565b60005b8281101561304557848901518255600182019150602085019450602081019050613020565b86831015613062578489015161305e601f891682612f6b565b8355505b6001600288020188555050505b505050505050565b6000613082826123f4565b91507fffffffffffffffffffffffffffffffffffffffffffffffffffffffffffffffff82036130b4576130b3612b28565b5b600182019050919050565b7f4e487b7100000000000000000000000000000000000000000000000000000000600052603260045260246000fd5b7f4e487b7100000000000000000000000000000000000000000000000000000000600052600160045260246000fd5b600060408201905061313260008301856124cd565b81810360208301526131448184612327565b90509392505050565b7f436c69656e743a20546865206164647265737320697320616c7265616479206160008201527f20706172746e6572210000000000000000000000000000000000000000000000602082015250565b60006131a96029836122db565b91506131b48261314d565b604082019050919050565b600060208201905081810360008301526131d88161319c565b9050919050565b7f436c69656e743a20436f6e7472616374206f776e65722063616e6e6f7420626560008201527f206120636c69656e740000000000000000000000000000000000000000000000602082015250565b600061323b6029836122db565b9150613246826131df565b604082019050919050565b6000602082019050818103600083015261326a8161322e565b9050919050565b7f436c69656e743a20436c69656e7420616c726561647920657869737473000000600082015250565b60006132a7601d836122db565b91506132b282613271565b602082019050919050565b600060208201905081810360008301526132d68161329a565b9050919050565b7f45524332303a204f776e65722063616e206f6e6c792073656e6420746f20706160008201527f72746e6572732e00000000000000000000000000000000000000000000000000602082015250565b60006133396027836122db565b9150613344826132dd565b604082019050919050565b600060208201905081810360008301526133688161332c565b9050919050565b7f45524332303a20506172746e6572732063616e206f6e6c792073656e6420746f60008201527f20636c69656e747320616e64206f776e65722e00000000000000000000000000602082015250565b60006133cb6033836122db565b91506133d68261336f565b604082019050919050565b600060208201905081810360008301526133fa816133be565b9050919050565b7f45524332303a20436c69656e7473207769746820612062616c616e636520686960008201527f67686572207468616e206d696e546f6b656e73546f52656465656d2063616e6e60208201527f6f742073656e6420746f20616e6f7468657220636c69656e742e000000000000604082015250565b6000613483605a836122db565b915061348e82613401565b606082019050919050565b600060208201905081810360008301526134b281613476565b9050919050565b7f45524332303a20436c69656e7473207769746820612062616c616e6365206c6f60008201527f776572207468616e206d696e546f6b656e73546f52656465656d2063616e6e6f60208201527f742072656465656d20746f6b656e732e00000000000000000000000000000000604082015250565b600061353b6050836122db565b9150613546826134b9565b606082019050919050565b6000602082019050818103600083015261356a8161352e565b9050919050565b7f4e487b7100000000000000000000000000000000000000000000000000000000600052601260045260246000fd5b60006135ab826123f4565b91506135b6836123f4565b9250826135c6576135c5613571565b5b828204905092915050565b7f45524332303a20617070726f766520746f20746865207a65726f20616464726560008201527f73732e0000000000000000000000000000000000000000000000000000000000602082015250565b600061362d6023836122db565b9150613638826135d1565b604082019050919050565b6000602082019050818103600083015261365c81613620565b9050919050565b600061366e826123f4565b9150613679836123f4565b925082820390508181111561369157613690612b28565b5b92915050565b7f45524332303a20616d6f756e7420697320686967686572207468616e2074686560008201527f207370656e64696e67207265737420616c6c6f7765642e000000000000000000602082015250565b60006136f36037836122db565b91506136fe82613697565b604082019050919050565b60006020820190508181036000830152613722816136e6565b905091905056fea2646970667358221220a41994ba7e7ee37d9a0f0d7861603156180494d4bb8fe633d67adb38af24363364736f6c63430008130033",
  "immutableReferences": {},
  "source": "// SPDX-License-Identifier: MIT\r\npragma solidity ^0.8.19;\r\n\r\nimport \"@openzeppelin/contracts/token/ERC20/IERC20.sol\";\r\nimport \"./2_PayBackPartnership.sol\";\r\nimport \"./3_PayBackClients.sol\";\r\n\r\ncontract PayBackToken is IERC20, PayBackPartnership, PayBackClients {\r\n    string public name;\r\n    string public symbol;\r\n    uint8 public decimals;\r\n    uint256 public totalSupply; //Returns the amount of tokens in existence.\r\n\r\n    uint256 public minTokensToRedeem;\r\n\r\n    mapping(address => uint256) private _balances;\r\n\r\n    //the owner->spender->amount\r\n    mapping(address => mapping(address => uint256)) private _allowance;\r\n    mapping(address => mapping(address => uint256)) private _transferred;\r\n\r\n    /**\r\n     * @dev Sets the values for {name} and {symbol}.\r\n     *\r\n     * All two of these values are immutable: they can only be set once during\r\n     * construction.\r\n     */\r\n    constructor(\r\n        string memory _name, // PayBackToken\r\n        string memory _symbol, // PBT\r\n        uint256 _initialSupply, // 1000000 . How many points in circulation? Gesammelte Punkte im Wert von 500 Mio. EUR (https://www.payback.group/de/payback-group/ueber-payback/daten-und-fakten) 1 Token = 1 Cent => 50 Mrd. -> wir machen sie zuerst 1 Mio. dann kann man neue minten. Auch Collaterall einfgen.. :)\r\n        uint8 _decimals, // 0\r\n        uint256 _minTokensToRedeem // 300\r\n    ) {\r\n        name = _name;\r\n        symbol = _symbol;\r\n        totalSupply = _initialSupply;\r\n        decimals = _decimals;\r\n        minTokensToRedeem = _minTokensToRedeem;\r\n\r\n        _balances[_owner] = _initialSupply;\r\n    }\r\n\r\n    /**\r\n     * @dev Returns the amount of tokens owned by `account`.\r\n     */\r\n    function balanceOf(address account) public view returns (uint256) {\r\n        return _balances[account];\r\n    }\r\n\r\n    /**\r\n     * @dev Moves `amount` tokens from the caller's account to `to`.\r\n     *\r\n     * Returns a boolean value indicating whether the operation succeeded.\r\n     *\r\n     * Emits a {Transfer} event.\r\n     */\r\n    /**\r\n     * @dev See {IERC20-transfer}.\r\n     *\r\n     * Requirements:\r\n     *\r\n     * - `to` cannot be the zero address.\r\n     * - the caller must have a balance of at least `amount`.\r\n     */\r\n\r\n    function transfer(\r\n        address _to,\r\n        uint256 _amount\r\n    ) public addrNotNull(_to) returns (bool) {\r\n        // -------- Closed ecosystem for posession of Tokens --------\r\n        // external adresses(not owner, partner or client) cannot own tokens\r\n\r\n        // Client can transfer to Owner/Partner > 500\r\n        // Clients can transfer to Clients or Other address only < 500\r\n\r\n        // Partners can transfer only to clients and owner\r\n\r\n        // Owner can transfer only to partners // if wants to open a store should register himself as a partner]\r\n\r\n        // others cannot transfer to themselves, unless it is a smart contract\r\n\r\n        //Owner can trans\r\n\r\n        // Possbile scenations:\r\n        // Client -> Owner || Partner\r\n        // Partner -> Client\r\n        // Owner -> Partner\r\n        // Partner -> Owner\r\n        // Client -> Client (if balance of sender < 500)\r\n        // Client -> Owner || Partner (if balance of spender >= 500)\r\n\r\n        // Forbidden\r\n        // 1) Partner -> Partner // when new partner registers and they fail...  just send them back to the owner!\r\n        // 2) Client -> Client when balance of sender >= 500\r\n        // 3) Client -> Partner || Owner when balance of sender < 500\r\n        // 4) Owner -> Client. only to partner!\r\n\r\n        // case 1. sender is owner\r\n        if (msg.sender == _owner) {\r\n            require(\r\n                addrToPartnerId[_to] != 0,\r\n                \"ERC20: Owner can only send to partners.\"\r\n            );\r\n        }\r\n        //case 2. sender is partner\r\n        else if (addrToPartnerId[msg.sender] != 0) {\r\n            require(\r\n                addrToClientId[_to] != 0 || _to == _owner,\r\n                \"ERC20: Partners can only send to clients and owner.\"\r\n            );\r\n        }\r\n        //case 3. sender is client\r\n        else if (addrToClientId[msg.sender] != 0) {\r\n            // receiver is another client\r\n            if (addrToClientId[_to] != 0) {\r\n                require(\r\n                    _balances[msg.sender] < minTokensToRedeem,\r\n                    \"ERC20: Clients with a balance higher than minTokensToRedeem cannot send to another client.\"\r\n                );\r\n            }\r\n            //receiver is owner or partner\r\n            else if (_to == _owner || addrToPartnerId[_to] != 0) {\r\n                require(\r\n                    _balances[msg.sender] >= minTokensToRedeem,\r\n                    \"ERC20: Clients with a balance lower than minTokensToRedeem cannot redeem tokens.\"\r\n                );\r\n            }\r\n        } else {\r\n            return false;\r\n        }\r\n\r\n        // Note from ERC20 Standard: Transfers of 0 values MUST be treated as normal transfers and fire the Transfer event.\r\n        _transfer(msg.sender, _to, _amount);\r\n\r\n        return true;\r\n    }\r\n\r\n    function _transfer(\r\n        address _from,\r\n        address _to,\r\n        uint256 _amount\r\n    ) internal returns (bool) {\r\n        _balances[_from] = _balances[_from] - _amount;\r\n        _balances[_to] = _balances[_to] + _amount;\r\n\r\n        //The allowence is not blocking the transfer?, no because they are not blocked.. it is just an allowance. It doesn't matter if the tokens are there or not\r\n\r\n        emit Transfer(_from, _to, _amount);\r\n        return true;\r\n    }\r\n\r\n    /**\r\n     * @dev Function to check the amount of tokens than an owner allowed to a spender.\r\n     * @param _owner address The address which owns the funds.\r\n     * @param _spender address The address which will spend the funds.\r\n     * @return A uint specifying the amount of tokens still available for the spender.\r\n     */\r\n    function allowance(\r\n        address _owner,\r\n        address _spender\r\n    ) public view returns (uint256) {\r\n        //the owner is the owner of the tokens that allows someone else to transfer the amount for him\r\n        return _allowance[_owner][_spender];\r\n    }\r\n\r\n    function transferredFromAllowance(\r\n        address _owner,\r\n        address _spender\r\n    ) public view returns (uint256) {\r\n        //the owner is the owner of the tokens that allows someone else to transfer the amount for him\r\n        return _transferred[_owner][_spender];\r\n    }\r\n\r\n    function approve(address _spender, uint256 _amount) public returns (bool) {\r\n        // partners and clients can allow addresses or smart contracts to manage their tokens, even the owner is allowed to be the spender\r\n\r\n        require(\r\n            addrToPartnerId[msg.sender] != 0 || addrToClientId[msg.sender] != 0,\r\n            \"Only partners and cliens can approve spenders.\"\r\n        );\r\n        require(_amount != 0, \"ERC20: Amount cannot be 0\");\r\n        require(\r\n            _balances[msg.sender] >= _amount,\r\n            \"ERC20: Amount cannot be greater than balance\"\r\n        );\r\n\r\n        _approve(msg.sender, _spender, _amount);\r\n        return true;\r\n    }\r\n\r\n    //https://www.researchgate.net/publication/334161350_Resolving_the_Multiple_Withdrawal_Attack_on_ERC20_Tokens\r\n    function _approve(\r\n        address _owner,\r\n        address _spender,\r\n        uint256 _amount\r\n    ) internal virtual {\r\n        //addresses are not zero\r\n        assert(_owner != address(0));\r\n        require(_spender != address(0), \"ERC20: approve to the zero address.\");\r\n        // uint256 newAllowance = 0;\r\n        // uint256 transferred = _transferred[_owner][_spender]; 100\r\n        // uint256 allowed = _allowance[_owner][_spender]; 50\r\n\r\n        // increasing allowance\r\n        // The allowance can be smaller than the transferred amount.\r\n        // if (_amount > allowed) {\r\n        //     newAllowance = _amount;\r\n        //     // this is not working in that case....\r\n        //     // uint256 newAllowanceRest = _amount - transferred;\r\n        //     // newAllowance = transferred + newAllowanceRest;\r\n        // }\r\n        // // reducing allowance\r\n        // else if (_amount < allowed) {\r\n\r\n        //     // uint256 newAllowanceRest = 0;\r\n        //     // if (_amount < transferred) {\r\n        //     //     newAllowance = 0;\r\n        //     // } else {\r\n        //     //     newAllowance = _amount;\r\n        //     // }\r\n        // }\r\n        _allowance[_owner][_spender] = _amount;\r\n        emit Approval(_owner, _spender, _amount);\r\n    }\r\n\r\n    function transferFrom(\r\n        address _from,\r\n        address _to,\r\n        uint256 _amount\r\n    ) public returns (bool) {\r\n        address spender = msg.sender;\r\n\r\n        _spendAllowance(_from, spender, _amount);\r\n        _transfer(_from, _to, _amount);\r\n        return true;\r\n    }\r\n\r\n    function _spendAllowance(\r\n        address _owner,\r\n        address _spender,\r\n        uint256 _amount //10\r\n    ) private {\r\n        uint256 transferred = _transferred[_owner][_spender]; //0\r\n        uint256 allowed = _allowance[_owner][_spender]; //0\r\n        uint256 spendingRest = 0;\r\n\r\n        if (transferred < allowed) {\r\n            spendingRest = allowed - transferred; //0 - 0\r\n        }\r\n        require(\r\n            spendingRest >= _amount,\r\n            \"ERC20: amount is higher than the spending rest allowed.\"\r\n        );\r\n\r\n        _transferred[_owner][_spender] = transferred + _amount;\r\n        // return true;\r\n    }\r\n\r\n    // function _spendAllowance(\r\n    //     address owner,\r\n    //     address spender,\r\n    //     uint256 amount\r\n    // ) internal virtual {\r\n    //     //get the allowed amount and check if is allowed in the same time\r\n    //     uint256 currentAllowance = allowance[owner][spender]; //10\r\n    //     if (currentAllowance != type(uint256).max) {\r\n    //         require(\r\n    //             currentAllowance >= amount, //10 >= 5\r\n    //             \"ERC20: insufficient allowance\"\r\n    //         );\r\n    //         _allowed[owner][spender] = currentAllowance - amount;\r\n    //     }\r\n    // }\r\n\r\n    //----------------------------------Additional functions----------------------------------\r\n\r\n    function loadTotalSupply(uint256 _amount) public isOwner returns (bool) {\r\n        totalSupply = totalSupply + _amount;\r\n        _balances[_owner] = _balances[_owner] + _amount;\r\n        return true;\r\n    }\r\n\r\n    function removePartner(uint256 _id) public isOwner override{\r\n        //to remove the partner, the  partner should first transfer his tokens to the owner and then the owner can delete the entry.\r\n        // what if the partner doesn't transfer all of his tokens??????\r\n        // it should be okay that the admin leaves the tokens there...if he should not still hold assets to secure this tokens.\r\n        // https://blog.cryptostars.is/stablecoin-development-8cb6329973b2\r\n        // https://www.coindesk.com/price/tether/\r\n        // also, payback should hold the total amout in the reserve. So this means that we should transfer the tokens back to us.\r\n\r\n        Partner storage p = partners[_id];\r\n        // get partner amount\r\n        _transfer(p.walletAddr, _owner, _balances[p.walletAddr]);\r\n        addrToPartnerId[p.walletAddr] = 0;\r\n        delete partners[_id];\r\n    }\r\n}\r\n",
  "sourcePath": "C:\\Users\\aselim\\Documents\\GitHub\\PayBackOnBlockchain\\payback-token-truffle\\contracts\\4_PayBackToken.sol",
  "compiler": {
    "name": "solc",
    "version": "0.8.19+commit.7dd6d404.Emscripten.clang"
  },
  "schemaVersion": "3.4.14",
  "updatedAt": "2023-09-13T15:09:57.516Z",
  "devdoc": {
    "events": {
      "Approval(address,address,uint256)": {
        "details": "Emitted when the allowance of a `spender` for an `owner` is set by a call to {approve}. `value` is the new allowance."
      },
      "Transfer(address,address,uint256)": {
        "details": "Emitted when `value` tokens are moved from one account (`from`) to another (`to`). Note that `value` may be zero."
      }
    },
    "kind": "dev",
    "methods": {
      "allowance(address,address)": {
        "details": "Function to check the amount of tokens than an owner allowed to a spender.",
        "params": {
          "_owner": "address The address which owns the funds.",
          "_spender": "address The address which will spend the funds."
        },
        "returns": {
          "_0": "A uint specifying the amount of tokens still available for the spender."
        }
      },
      "balanceOf(address)": {
        "details": "Returns the amount of tokens owned by `account`."
      },
      "constructor": {
        "details": "Sets the values for {name} and {symbol}. All two of these values are immutable: they can only be set once during construction."
      },
      "getOwner()": {
        "details": "Return owner address ",
        "returns": {
          "_0": "address of owner"
        }
      },
      "transfer(address,uint256)": {
        "details": "See {IERC20-transfer}. Requirements: - `to` cannot be the zero address. - the caller must have a balance of at least `amount`."
      }
    },
    "stateVariables": {
      "totalSupply": {
        "details": "Returns the amount of tokens in existence."
      }
    },
    "version": 1
  },
  "userdoc": {
    "kind": "user",
    "methods": {},
    "version": 1
  }
}