{
  "contractName": "PayBackPartnership",
  "abi": [
    {
      "inputs": [],
      "stateMutability": "nonpayable",
      "type": "constructor"
    },
    {
      "anonymous": false,
      "inputs": [
        {
          "indexed": true,
          "internalType": "address",
          "name": "oldOwner",
          "type": "address"
        },
        {
          "indexed": true,
          "internalType": "address",
          "name": "newOwner",
          "type": "address"
        }
      ],
      "name": "OwnerSet",
      "type": "event"
    },
    {
      "anonymous": false,
      "inputs": [
        {
          "indexed": false,
          "internalType": "uint256",
          "name": "partnerId",
          "type": "uint256"
        },
        {
          "indexed": false,
          "internalType": "string",
          "name": "name",
          "type": "string"
        }
      ],
      "name": "PartnerAdded",
      "type": "event"
    },
    {
      "inputs": [
        {
          "internalType": "address",
          "name": "",
          "type": "address"
        }
      ],
      "name": "addrToPartner",
      "outputs": [
        {
          "internalType": "string",
          "name": "name",
          "type": "string"
        },
        {
          "internalType": "address payable",
          "name": "walletAddr",
          "type": "address"
        },
        {
          "internalType": "string",
          "name": "currency",
          "type": "string"
        },
        {
          "internalType": "uint256",
          "name": "valueForToken",
          "type": "uint256"
        }
      ],
      "stateMutability": "view",
      "type": "function"
    },
    {
      "inputs": [],
      "name": "getOwner",
      "outputs": [
        {
          "internalType": "address",
          "name": "",
          "type": "address"
        }
      ],
      "stateMutability": "view",
      "type": "function"
    },
    {
      "inputs": [],
      "name": "numPartner",
      "outputs": [
        {
          "internalType": "uint256",
          "name": "",
          "type": "uint256"
        }
      ],
      "stateMutability": "view",
      "type": "function"
    },
    {
      "inputs": [
        {
          "internalType": "uint256",
          "name": "",
          "type": "uint256"
        }
      ],
      "name": "partners",
      "outputs": [
        {
          "internalType": "string",
          "name": "name",
          "type": "string"
        },
        {
          "internalType": "address payable",
          "name": "walletAddr",
          "type": "address"
        },
        {
          "internalType": "string",
          "name": "currency",
          "type": "string"
        },
        {
          "internalType": "uint256",
          "name": "valueForToken",
          "type": "uint256"
        }
      ],
      "stateMutability": "view",
      "type": "function"
    },
    {
      "inputs": [
        {
          "internalType": "string",
          "name": "_name",
          "type": "string"
        },
        {
          "internalType": "address payable",
          "name": "_addr",
          "type": "address"
        },
        {
          "internalType": "string",
          "name": "_currency",
          "type": "string"
        },
        {
          "internalType": "uint256",
          "name": "_valueForToken",
          "type": "uint256"
        }
      ],
      "name": "addPartner",
      "outputs": [
        {
          "internalType": "bool",
          "name": "",
          "type": "bool"
        }
      ],
      "stateMutability": "nonpayable",
      "type": "function"
    },
    {
      "inputs": [
        {
          "internalType": "uint256",
          "name": "_roundValue",
          "type": "uint256"
        },
        {
          "internalType": "uint256",
          "name": "_partnerId",
          "type": "uint256"
        }
      ],
      "name": "calcPointsToEarn",
      "outputs": [
        {
          "internalType": "uint256",
          "name": "",
          "type": "uint256"
        }
      ],
      "stateMutability": "view",
      "type": "function"
    }
  ],
  "bytecode": "0x608060405234801561001057600080fd5b50336000806101000a81548173ffffffffffffffffffffffffffffffffffffffff021916908373ffffffffffffffffffffffffffffffffffffffff16021790555060008054906101000a900473ffffffffffffffffffffffffffffffffffffffff1673ffffffffffffffffffffffffffffffffffffffff16600073ffffffffffffffffffffffffffffffffffffffff167f342827c97908e5e2f71151c08502a66d44b6f758e3ac2f1de95f02eb95f0a73560405160405180910390a36000600181905550611548806100e36000396000f3fe608060405234801561001057600080fd5b50600436106100625760003560e01c8063210e870d146100675780634a9596ce14610097578063893d20e8146100b55780639610f3bd146100d3578063c3b49d0414610106578063e15cfad214610139575b600080fd5b610081600480360381019061007c9190610b99565b610169565b60405161008e9190610c53565b60405180910390f35b61009f610618565b6040516100ac9190610c7d565b60405180910390f35b6100bd61061e565b6040516100ca9190610cb9565b60405180910390f35b6100ed60048036038101906100e89190610d00565b610647565b6040516100fd9493929190610dbb565b60405180910390f35b610120600480360381019061011b9190610e0e565b6107a7565b6040516101309493929190610dbb565b60405180910390f35b610153600480360381019061014e9190610e3b565b610917565b6040516101609190610c7d565b60405180910390f35b60008060009054906101000a900473ffffffffffffffffffffffffffffffffffffffff1673ffffffffffffffffffffffffffffffffffffffff163373ffffffffffffffffffffffffffffffffffffffff16146101fa576040517f08c379a00000000000000000000000000000000000000000000000000000000081526004016101f190610ec7565b60405180910390fd5b83600073ffffffffffffffffffffffffffffffffffffffff168173ffffffffffffffffffffffffffffffffffffffff160361026a576040517f08c379a000000000000000000000000000000000000000000000000000000000815260040161026190610f33565b60405180910390fd5b6000600360008773ffffffffffffffffffffffffffffffffffffffff1673ffffffffffffffffffffffffffffffffffffffff1681526020019081526020016000209050600073ffffffffffffffffffffffffffffffffffffffff168160010160009054906101000a900473ffffffffffffffffffffffffffffffffffffffff1673ffffffffffffffffffffffffffffffffffffffff1614610340576040517f08c379a000000000000000000000000000000000000000000000000000000000815260040161033790610fc5565b60405180910390fd5b60008054906101000a900473ffffffffffffffffffffffffffffffffffffffff1673ffffffffffffffffffffffffffffffffffffffff168673ffffffffffffffffffffffffffffffffffffffff16036103ce576040517f08c379a00000000000000000000000000000000000000000000000000000000081526004016103c590611031565b60405180910390fd5b6001841015610412576040517f08c379a0000000000000000000000000000000000000000000000000000000008152600401610409906110c3565b60405180910390fd5b600060405180608001604052808981526020018873ffffffffffffffffffffffffffffffffffffffff1681526020018781526020018681525090506002819080600181540180825580915050600190039060005260206000209060040201600090919091909150600082015181600001908161048e91906112ef565b5060208201518160010160006101000a81548173ffffffffffffffffffffffffffffffffffffffff021916908373ffffffffffffffffffffffffffffffffffffffff16021790555060408201518160020190816104eb91906112ef565b5060608201518160030155505061050d6001805461096490919063ffffffff16565b5080600360008973ffffffffffffffffffffffffffffffffffffffff1673ffffffffffffffffffffffffffffffffffffffff168152602001908152602001600020600082015181600001908161056391906112ef565b5060208201518160010160006101000a81548173ffffffffffffffffffffffffffffffffffffffff021916908373ffffffffffffffffffffffffffffffffffffffff16021790555060408201518160020190816105c091906112ef565b50606082015181600301559050507f6b5d098d49c45279cf1afc02eec71018b4e172ec66e1834863c5d62febaa50b7600154896040516106019291906113c1565b60405180910390a160019350505050949350505050565b60015481565b60008060009054906101000a900473ffffffffffffffffffffffffffffffffffffffff16905090565b600360205280600052604060002060009150905080600001805461066a90611112565b80601f016020809104026020016040519081016040528092919081815260200182805461069690611112565b80156106e35780601f106106b8576101008083540402835291602001916106e3565b820191906000526020600020905b8154815290600101906020018083116106c657829003601f168201915b5050505050908060010160009054906101000a900473ffffffffffffffffffffffffffffffffffffffff169080600201805461071e90611112565b80601f016020809104026020016040519081016040528092919081815260200182805461074a90611112565b80156107975780601f1061076c57610100808354040283529160200191610797565b820191906000526020600020905b81548152906001019060200180831161077a57829003601f168201915b5050505050908060030154905084565b600281815481106107b757600080fd5b90600052602060002090600402016000915090508060000180546107da90611112565b80601f016020809104026020016040519081016040528092919081815260200182805461080690611112565b80156108535780601f1061082857610100808354040283529160200191610853565b820191906000526020600020905b81548152906001019060200180831161083657829003601f168201915b5050505050908060010160009054906101000a900473ffffffffffffffffffffffffffffffffffffffff169080600201805461088e90611112565b80601f01602080910402602001604051908101604052809291908181526020018280546108ba90611112565b80156109075780601f106108dc57610100808354040283529160200191610907565b820191906000526020600020905b8154815290600101906020018083116108ea57829003601f168201915b5050505050908060030154905084565b6000806002838154811061092e5761092d6113f1565b5b90600052602060002090600402019050600061095782600301548661099090919063ffffffff16565b9050809250505092915050565b6000808284610973919061144f565b90508381101561098657610985611483565b5b8091505092915050565b600080828461099f91906114e1565b90508091505092915050565b6000604051905090565b600080fd5b600080fd5b600080fd5b600080fd5b6000601f19601f8301169050919050565b7f4e487b7100000000000000000000000000000000000000000000000000000000600052604160045260246000fd5b610a12826109c9565b810181811067ffffffffffffffff82111715610a3157610a306109da565b5b80604052505050565b6000610a446109ab565b9050610a508282610a09565b919050565b600067ffffffffffffffff821115610a7057610a6f6109da565b5b610a79826109c9565b9050602081019050919050565b82818337600083830152505050565b6000610aa8610aa384610a55565b610a3a565b905082815260208101848484011115610ac457610ac36109c4565b5b610acf848285610a86565b509392505050565b600082601f830112610aec57610aeb6109bf565b5b8135610afc848260208601610a95565b91505092915050565b600073ffffffffffffffffffffffffffffffffffffffff82169050919050565b6000610b3082610b05565b9050919050565b610b4081610b25565b8114610b4b57600080fd5b50565b600081359050610b5d81610b37565b92915050565b6000819050919050565b610b7681610b63565b8114610b8157600080fd5b50565b600081359050610b9381610b6d565b92915050565b60008060008060808587031215610bb357610bb26109b5565b5b600085013567ffffffffffffffff811115610bd157610bd06109ba565b5b610bdd87828801610ad7565b9450506020610bee87828801610b4e565b935050604085013567ffffffffffffffff811115610c0f57610c0e6109ba565b5b610c1b87828801610ad7565b9250506060610c2c87828801610b84565b91505092959194509250565b60008115159050919050565b610c4d81610c38565b82525050565b6000602082019050610c686000830184610c44565b92915050565b610c7781610b63565b82525050565b6000602082019050610c926000830184610c6e565b92915050565b6000610ca382610b05565b9050919050565b610cb381610c98565b82525050565b6000602082019050610cce6000830184610caa565b92915050565b610cdd81610c98565b8114610ce857600080fd5b50565b600081359050610cfa81610cd4565b92915050565b600060208284031215610d1657610d156109b5565b5b6000610d2484828501610ceb565b91505092915050565b600081519050919050565b600082825260208201905092915050565b60005b83811015610d67578082015181840152602081019050610d4c565b60008484015250505050565b6000610d7e82610d2d565b610d888185610d38565b9350610d98818560208601610d49565b610da1816109c9565b840191505092915050565b610db581610b25565b82525050565b60006080820190508181036000830152610dd58187610d73565b9050610de46020830186610dac565b8181036040830152610df68185610d73565b9050610e056060830184610c6e565b95945050505050565b600060208284031215610e2457610e236109b5565b5b6000610e3284828501610b84565b91505092915050565b60008060408385031215610e5257610e516109b5565b5b6000610e6085828601610b84565b9250506020610e7185828601610b84565b9150509250929050565b7f43616c6c6572206973206e6f74206f776e657200000000000000000000000000600082015250565b6000610eb1601383610d38565b9150610ebc82610e7b565b602082019050919050565b60006020820190508181036000830152610ee081610ea4565b9050919050565b7f456e74657265642061646472657373206973206e756c6c2e0000000000000000600082015250565b6000610f1d601883610d38565b9150610f2882610ee7565b602082019050919050565b60006020820190508181036000830152610f4c81610f10565b9050919050565b7f456e7465726564206164647265737320697320616c726561647920612070617260008201527f746e657221000000000000000000000000000000000000000000000000000000602082015250565b6000610faf602583610d38565b9150610fba82610f53565b604082019050919050565b60006020820190508181036000830152610fde81610fa2565b9050919050565b7f546865206f776e65722063616e6e6f74206265206120706172746e6572210000600082015250565b600061101b601e83610d38565b915061102682610fe5565b602082019050919050565b6000602082019050818103600083015261104a8161100e565b9050919050565b7f5468652076616c756520666f72206120546f6b656e2073686f756c642062652060008201527f6174206c65617374203120696e207468652063757272656e63792e0000000000602082015250565b60006110ad603b83610d38565b91506110b882611051565b604082019050919050565b600060208201905081810360008301526110dc816110a0565b9050919050565b7f4e487b7100000000000000000000000000000000000000000000000000000000600052602260045260246000fd5b6000600282049050600182168061112a57607f821691505b60208210810361113d5761113c6110e3565b5b50919050565b60008190508160005260206000209050919050565b60006020601f8301049050919050565b600082821b905092915050565b6000600883026111a57fffffffffffffffffffffffffffffffffffffffffffffffffffffffffffffffff82611168565b6111af8683611168565b95508019841693508086168417925050509392505050565b6000819050919050565b60006111ec6111e76111e284610b63565b6111c7565b610b63565b9050919050565b6000819050919050565b611206836111d1565b61121a611212826111f3565b848454611175565b825550505050565b600090565b61122f611222565b61123a8184846111fd565b505050565b5b8181101561125e57611253600082611227565b600181019050611240565b5050565b601f8211156112a35761127481611143565b61127d84611158565b8101602085101561128c578190505b6112a061129885611158565b83018261123f565b50505b505050565b600082821c905092915050565b60006112c6600019846008026112a8565b1980831691505092915050565b60006112df83836112b5565b9150826002028217905092915050565b6112f882610d2d565b67ffffffffffffffff811115611311576113106109da565b5b61131b8254611112565b611326828285611262565b600060209050601f8311600181146113595760008415611347578287015190505b61135185826112d3565b8655506113b9565b601f19841661136786611143565b60005b8281101561138f5784890151825560018201915060208501945060208101905061136a565b868310156113ac57848901516113a8601f8916826112b5565b8355505b6001600288020188555050505b505050505050565b60006040820190506113d66000830185610c6e565b81810360208301526113e88184610d73565b90509392505050565b7f4e487b7100000000000000000000000000000000000000000000000000000000600052603260045260246000fd5b7f4e487b7100000000000000000000000000000000000000000000000000000000600052601160045260246000fd5b600061145a82610b63565b915061146583610b63565b925082820190508082111561147d5761147c611420565b5b92915050565b7f4e487b7100000000000000000000000000000000000000000000000000000000600052600160045260246000fd5b7f4e487b7100000000000000000000000000000000000000000000000000000000600052601260045260246000fd5b60006114ec82610b63565b91506114f783610b63565b925082611507576115066114b2565b5b82820490509291505056fea2646970667358221220e4a80166bad15fc71e7bffb2a68f5050400670b0c5e42d8910442ff442c36a0d64736f6c63430008130033",
  "immutableReferences": {},
  "source": "// SPDX-License-Identifier: MIT\r\npragma solidity ^0.8.19;\r\n\r\nimport \"./1_Owner.sol\";\r\n\r\nlibrary SafeMath {\r\n    function mul(uint256 a, uint256 b) internal pure returns (uint256) {\r\n        if (a == 0) {\r\n            return 0;\r\n        }\r\n        uint256 c = a * b;\r\n        assert(c / a == b);\r\n        return c;\r\n    }\r\n\r\n    function div(uint256 a, uint256 b) internal pure returns (uint256) {\r\n        // assert(b > 0); // Solidity automatically throws when dividing by 0\r\n        uint256 c = a / b;\r\n        // assert(a == b * c + a % b); // There is no case in which this doesn't hold\r\n        return c;\r\n    }\r\n\r\n    function sub(uint256 a, uint256 b) internal pure returns (uint256) {\r\n        assert(b <= a);\r\n        return a - b;\r\n    }\r\n\r\n    function add(uint256 a, uint256 b) internal pure returns (uint256) {\r\n        uint256 c = a + b;\r\n        assert(c >= a);\r\n        return c;\r\n    }\r\n}\r\n\r\ncontract PayBackPartnership is Owner{\r\n\r\n    using SafeMath for uint256;\r\n    //-------------------------Variables-------------------------\r\n    uint256 public numPartner; // starting from 1 ? Maybe fix?\r\n\r\n    struct Partner {\r\n        string name;\r\n        address payable walletAddr;\r\n        string currency;\r\n        uint256 valueForToken;\r\n    }\r\n\r\n    Partner[] public partners; // starting from 0\r\n    mapping(address => Partner) public addrToPartner;\r\n    // mapping(uint256 => Partner) private _IdToPartner;\r\n\r\n    //-------------------------Constructor-------------------------\r\n    constructor() {\r\n        numPartner = 0;\r\n    }\r\n\r\n    //-------------------------Modifiers-------------------------\r\n\r\n    // modifier isNotPartner(address _addr) {\r\n    //     Partner storage p = addrToPartner[_addr];\r\n    //     require(\r\n    //         p.walletAddr == address(0),\r\n    //         \"Requested address is already a partner!\"\r\n    //     );\r\n    //     _;\r\n    // }\r\n\r\n    modifier addrNotNull(address _addr) {\r\n        require(_addr != address(0), \"Entered address is null.\");\r\n        _;\r\n    }\r\n    // modifier addrIsPartner(address _addr) {\r\n    //     Partner storage p = addrToPartner[_addr];\r\n    //     require(p.walletAddr != address(0), \"Entered address is not a partner!\");\r\n    //     _;\r\n    // }\r\n\r\n    //-------------------------Events-------------------------\r\n\r\n    event PartnerAdded(uint256 partnerId, string name);\r\n\r\n    //-------------------------Functions-------------------------\r\n\r\n    function addPartner(\r\n        string memory _name,\r\n        address payable _addr,\r\n        string memory _currency,\r\n        uint256 _valueForToken\r\n    ) public isOwner addrNotNull(_addr) returns (bool) {\r\n        //search for existing partner\r\n        Partner storage p = addrToPartner[_addr];\r\n\r\n        //check if the address is already not a partner\r\n        require(\r\n            p.walletAddr == address(0),\r\n            \"Entered address is already a partner!\"\r\n        );\r\n\r\n        //check that the address is not the owner\r\n        require(\r\n            _addr != _owner,\r\n            \"The owner cannot be a partner!\"\r\n        );\r\n\r\n         //check that the _valueForToken is minimum 1\r\n        require(\r\n            _valueForToken >= 1,\r\n            \"The value for a Token should be at least 1 in the currency.\"\r\n        );\r\n\r\n        //check if requested tokens are more than 100?\r\n        // require(_tokens >= 100, \"The requested tokens do not correspond with the minimum requirement 100.\");\r\n\r\n        //save the new Partner\r\n        Partner memory newPartner = Partner(_name, _addr, _currency, _valueForToken);\r\n        partners.push(newPartner);\r\n\r\n        //increase the numbers/id of the partners\r\n        //first id is 1\r\n        numPartner.add(1);\r\n\r\n        //fix the mappings\r\n        addrToPartner[_addr] = newPartner;\r\n        // _IdToPartner[numPartner] = newPartner;\r\n\r\n        //TODO: Send tokens\r\n        // sendTokensToPartner(numPartner);?\r\n        emit PartnerAdded(numPartner, _name);\r\n        return true;\r\n    }\r\n\r\n    function calcPointsToEarn(uint256 _roundValue, uint256 _partnerId) public view returns (uint256){\r\n        //_roundValue is the value without the 2 decimals rounded\r\n        Partner storage p = partners[_partnerId];\r\n        //the devision doesn't consider the values after decimal :)\r\n        uint256 tokens = _roundValue.div(p.valueForToken);\r\n        return tokens;\r\n    }\r\n\r\n\r\n\r\n    // function sendTokensToPartner(uint256 _partnerId) private {\r\n    //     //TODO : check if there are enough available tokens from the token supply\r\n    //     // require!\r\n    //     Partner storage the_partner = IdToPartner[_partnerId];\r\n\r\n    //     the_partner.\r\n    // }\r\n}\r\n",
  "sourcePath": "D:\\PersonalStuff\\GitProjects\\PayBackOnBlockchain\\payback-token-truffle\\contracts\\2_PayBackPartnership.sol",
  "compiler": {
    "name": "solc",
    "version": "0.8.19+commit.7dd6d404.Emscripten.clang"
  },
  "schemaVersion": "3.4.14",
  "updatedAt": "2023-06-26T09:28:45.974Z",
  "devdoc": {
    "kind": "dev",
    "methods": {
      "getOwner()": {
        "details": "Return owner address ",
        "returns": {
          "_0": "address of owner"
        }
      }
    },
    "version": 1
  },
  "userdoc": {
    "kind": "user",
    "methods": {},
    "version": 1
  }
}