{
  "contractName": "PayBackClients",
  "abi": [
    {
      "inputs": [],
      "stateMutability": "nonpayable",
      "type": "constructor"
    },
    {
      "anonymous": false,
      "inputs": [
        {
          "indexed": true,
          "internalType": "address",
          "name": "_addr",
          "type": "address"
        }
      ],
      "name": "ClientCreated",
      "type": "event"
    },
    {
      "anonymous": false,
      "inputs": [
        {
          "indexed": true,
          "internalType": "address",
          "name": "oldOwner",
          "type": "address"
        },
        {
          "indexed": true,
          "internalType": "address",
          "name": "newOwner",
          "type": "address"
        }
      ],
      "name": "OwnerSet",
      "type": "event"
    },
    {
      "anonymous": false,
      "inputs": [
        {
          "indexed": false,
          "internalType": "uint256",
          "name": "partnerId",
          "type": "uint256"
        },
        {
          "indexed": false,
          "internalType": "string",
          "name": "name",
          "type": "string"
        }
      ],
      "name": "PartnerAdded",
      "type": "event"
    },
    {
      "inputs": [
        {
          "internalType": "string",
          "name": "_name",
          "type": "string"
        },
        {
          "internalType": "address payable",
          "name": "_addr",
          "type": "address"
        },
        {
          "internalType": "string",
          "name": "_currency",
          "type": "string"
        },
        {
          "internalType": "uint256",
          "name": "_valueForToken",
          "type": "uint256"
        }
      ],
      "name": "addPartner",
      "outputs": [
        {
          "internalType": "bool",
          "name": "",
          "type": "bool"
        }
      ],
      "stateMutability": "nonpayable",
      "type": "function"
    },
    {
      "inputs": [
        {
          "internalType": "address",
          "name": "",
          "type": "address"
        }
      ],
      "name": "addrToPartner",
      "outputs": [
        {
          "internalType": "string",
          "name": "name",
          "type": "string"
        },
        {
          "internalType": "address payable",
          "name": "walletAddr",
          "type": "address"
        },
        {
          "internalType": "string",
          "name": "currency",
          "type": "string"
        },
        {
          "internalType": "uint256",
          "name": "valueForToken",
          "type": "uint256"
        }
      ],
      "stateMutability": "view",
      "type": "function"
    },
    {
      "inputs": [
        {
          "internalType": "uint256",
          "name": "_roundValue",
          "type": "uint256"
        },
        {
          "internalType": "uint256",
          "name": "_partnerId",
          "type": "uint256"
        }
      ],
      "name": "calcPointsToEarn",
      "outputs": [
        {
          "internalType": "uint256",
          "name": "",
          "type": "uint256"
        }
      ],
      "stateMutability": "view",
      "type": "function"
    },
    {
      "inputs": [],
      "name": "getOwner",
      "outputs": [
        {
          "internalType": "address",
          "name": "",
          "type": "address"
        }
      ],
      "stateMutability": "view",
      "type": "function"
    },
    {
      "inputs": [],
      "name": "numClient",
      "outputs": [
        {
          "internalType": "uint256",
          "name": "",
          "type": "uint256"
        }
      ],
      "stateMutability": "view",
      "type": "function"
    },
    {
      "inputs": [],
      "name": "numPartner",
      "outputs": [
        {
          "internalType": "uint256",
          "name": "",
          "type": "uint256"
        }
      ],
      "stateMutability": "view",
      "type": "function"
    },
    {
      "inputs": [
        {
          "internalType": "uint256",
          "name": "",
          "type": "uint256"
        }
      ],
      "name": "partnerIdToAddr",
      "outputs": [
        {
          "internalType": "address",
          "name": "",
          "type": "address"
        }
      ],
      "stateMutability": "view",
      "type": "function"
    },
    {
      "inputs": [
        {
          "internalType": "uint256",
          "name": "",
          "type": "uint256"
        }
      ],
      "name": "partners",
      "outputs": [
        {
          "internalType": "string",
          "name": "name",
          "type": "string"
        },
        {
          "internalType": "address payable",
          "name": "walletAddr",
          "type": "address"
        },
        {
          "internalType": "string",
          "name": "currency",
          "type": "string"
        },
        {
          "internalType": "uint256",
          "name": "valueForToken",
          "type": "uint256"
        }
      ],
      "stateMutability": "view",
      "type": "function"
    },
    {
      "inputs": [
        {
          "internalType": "address",
          "name": "_addr",
          "type": "address"
        }
      ],
      "name": "addClient",
      "outputs": [
        {
          "internalType": "uint256",
          "name": "",
          "type": "uint256"
        }
      ],
      "stateMutability": "nonpayable",
      "type": "function"
    },
    {
      "inputs": [
        {
          "internalType": "address",
          "name": "_addr",
          "type": "address"
        }
      ],
      "name": "getClientId",
      "outputs": [
        {
          "internalType": "uint256",
          "name": "",
          "type": "uint256"
        }
      ],
      "stateMutability": "view",
      "type": "function"
    }
  ],
  "bytecode": "0x608060405234801561001057600080fd5b50336000806101000a81548173ffffffffffffffffffffffffffffffffffffffff021916908373ffffffffffffffffffffffffffffffffffffffff16021790555060008054906101000a900473ffffffffffffffffffffffffffffffffffffffff1673ffffffffffffffffffffffffffffffffffffffff16600073ffffffffffffffffffffffffffffffffffffffff167f342827c97908e5e2f71151c08502a66d44b6f758e3ac2f1de95f02eb95f0a73560405160405180910390a360006001819055506000600681905550611c0f806100eb6000396000f3fe608060405234801561001057600080fd5b506004361061009e5760003560e01c80639610f3bd116100665780639610f3bd1461016f578063c3b49d04146101a2578063c785f593146101d5578063e15cfad2146101f3578063f23f4026146102235761009e565b8063210e870d146100a357806343928cfd146100d35780634a9596ce1461010357806362ae1e9414610121578063893d20e814610151575b600080fd5b6100bd60048036038101906100b891906110f6565b610253565b6040516100ca91906111b0565b60405180910390f35b6100ed60048036038101906100e89190611209565b61075b565b6040516100fa9190611245565b60405180910390f35b61010b610af3565b6040516101189190611245565b60405180910390f35b61013b60048036038101906101369190611209565b610af9565b6040516101489190611245565b60405180910390f35b610159610b42565b604051610166919061126f565b60405180910390f35b61018960048036038101906101849190611209565b610b6b565b6040516101999493929190611318565b60405180910390f35b6101bc60048036038101906101b7919061136b565b610ccb565b6040516101cc9493929190611318565b60405180910390f35b6101dd610e3b565b6040516101ea9190611245565b60405180910390f35b61020d60048036038101906102089190611398565b610e41565b60405161021a9190611245565b60405180910390f35b61023d6004803603810190610238919061136b565b610e8e565b60405161024a919061126f565b60405180910390f35b60008060009054906101000a900473ffffffffffffffffffffffffffffffffffffffff1673ffffffffffffffffffffffffffffffffffffffff163373ffffffffffffffffffffffffffffffffffffffff16146102e4576040517f08c379a00000000000000000000000000000000000000000000000000000000081526004016102db90611424565b60405180910390fd5b83600073ffffffffffffffffffffffffffffffffffffffff168173ffffffffffffffffffffffffffffffffffffffff1603610354576040517f08c379a000000000000000000000000000000000000000000000000000000000815260040161034b90611490565b60405180910390fd5b6000600360008773ffffffffffffffffffffffffffffffffffffffff1673ffffffffffffffffffffffffffffffffffffffff1681526020019081526020016000209050600073ffffffffffffffffffffffffffffffffffffffff168160010160009054906101000a900473ffffffffffffffffffffffffffffffffffffffff1673ffffffffffffffffffffffffffffffffffffffff161461042a576040517f08c379a000000000000000000000000000000000000000000000000000000000815260040161042190611522565b60405180910390fd5b60008054906101000a900473ffffffffffffffffffffffffffffffffffffffff1673ffffffffffffffffffffffffffffffffffffffff168673ffffffffffffffffffffffffffffffffffffffff16036104b8576040517f08c379a00000000000000000000000000000000000000000000000000000000081526004016104af9061158e565b60405180910390fd5b60018410156104fc576040517f08c379a00000000000000000000000000000000000000000000000000000000081526004016104f390611620565b60405180910390fd5b600060405180608001604052808981526020018873ffffffffffffffffffffffffffffffffffffffff16815260200187815260200186815250905060028190806001815401808255809150506001900390600052602060002090600402016000909190919091506000820151816000019081610578919061184c565b5060208201518160010160006101000a81548173ffffffffffffffffffffffffffffffffffffffff021916908373ffffffffffffffffffffffffffffffffffffffff16021790555060408201518160020190816105d5919061184c565b506060820151816003015550506105f760018054610ec190919063ffffffff16565b60018190555080600360008973ffffffffffffffffffffffffffffffffffffffff1673ffffffffffffffffffffffffffffffffffffffff1681526020019081526020016000206000820151816000019081610652919061184c565b5060208201518160010160006101000a81548173ffffffffffffffffffffffffffffffffffffffff021916908373ffffffffffffffffffffffffffffffffffffffff16021790555060408201518160020190816106af919061184c565b50606082015181600301559050508660046000600154815260200190815260200160002060006101000a81548173ffffffffffffffffffffffffffffffffffffffff021916908373ffffffffffffffffffffffffffffffffffffffff1602179055507f6b5d098d49c45279cf1afc02eec71018b4e172ec66e1834863c5d62febaa50b76001548960405161074492919061191e565b60405180910390a160019350505050949350505050565b60008060009054906101000a900473ffffffffffffffffffffffffffffffffffffffff1673ffffffffffffffffffffffffffffffffffffffff163373ffffffffffffffffffffffffffffffffffffffff16146107ec576040517f08c379a00000000000000000000000000000000000000000000000000000000081526004016107e390611424565b60405180910390fd5b81600073ffffffffffffffffffffffffffffffffffffffff168173ffffffffffffffffffffffffffffffffffffffff160361085c576040517f08c379a000000000000000000000000000000000000000000000000000000000815260040161085390611490565b60405180910390fd5b6000600360008573ffffffffffffffffffffffffffffffffffffffff1673ffffffffffffffffffffffffffffffffffffffff1681526020019081526020016000209050600073ffffffffffffffffffffffffffffffffffffffff168160010160009054906101000a900473ffffffffffffffffffffffffffffffffffffffff1673ffffffffffffffffffffffffffffffffffffffff1614610932576040517f08c379a00000000000000000000000000000000000000000000000000000000081526004016109299061199a565b60405180910390fd5b60008054906101000a900473ffffffffffffffffffffffffffffffffffffffff1673ffffffffffffffffffffffffffffffffffffffff168473ffffffffffffffffffffffffffffffffffffffff16036109c0576040517f08c379a00000000000000000000000000000000000000000000000000000000081526004016109b790611a2c565b60405180910390fd5b6000600560008673ffffffffffffffffffffffffffffffffffffffff1673ffffffffffffffffffffffffffffffffffffffff1681526020019081526020016000205414610a42576040517f08c379a0000000000000000000000000000000000000000000000000000000008152600401610a3990611a98565b60405180910390fd5b610a586001600654610ec190919063ffffffff16565b600681905550600654600560008673ffffffffffffffffffffffffffffffffffffffff1673ffffffffffffffffffffffffffffffffffffffff168152602001908152602001600020819055508373ffffffffffffffffffffffffffffffffffffffff167fbac77b32f9eac52b557987e1084037afcfe4d478ef2fc4c8cdae1eb5f86d40a360405160405180910390a260065492505050919050565b60015481565b6000600560008373ffffffffffffffffffffffffffffffffffffffff1673ffffffffffffffffffffffffffffffffffffffff168152602001908152602001600020549050919050565b60008060009054906101000a900473ffffffffffffffffffffffffffffffffffffffff16905090565b6003602052806000526040600020600091509050806000018054610b8e9061166f565b80601f0160208091040260200160405190810160405280929190818152602001828054610bba9061166f565b8015610c075780601f10610bdc57610100808354040283529160200191610c07565b820191906000526020600020905b815481529060010190602001808311610bea57829003601f168201915b5050505050908060010160009054906101000a900473ffffffffffffffffffffffffffffffffffffffff1690806002018054610c429061166f565b80601f0160208091040260200160405190810160405280929190818152602001828054610c6e9061166f565b8015610cbb5780601f10610c9057610100808354040283529160200191610cbb565b820191906000526020600020905b815481529060010190602001808311610c9e57829003601f168201915b5050505050908060030154905084565b60028181548110610cdb57600080fd5b9060005260206000209060040201600091509050806000018054610cfe9061166f565b80601f0160208091040260200160405190810160405280929190818152602001828054610d2a9061166f565b8015610d775780601f10610d4c57610100808354040283529160200191610d77565b820191906000526020600020905b815481529060010190602001808311610d5a57829003601f168201915b5050505050908060010160009054906101000a900473ffffffffffffffffffffffffffffffffffffffff1690806002018054610db29061166f565b80601f0160208091040260200160405190810160405280929190818152602001828054610dde9061166f565b8015610e2b5780601f10610e0057610100808354040283529160200191610e2b565b820191906000526020600020905b815481529060010190602001808311610e0e57829003601f168201915b5050505050908060030154905084565b60065481565b60008060028381548110610e5857610e57611ab8565b5b906000526020600020906004020190506000610e81826003015486610eed90919063ffffffff16565b9050809250505092915050565b60046020528060005260406000206000915054906101000a900473ffffffffffffffffffffffffffffffffffffffff1681565b6000808284610ed09190611b16565b905083811015610ee357610ee2611b4a565b5b8091505092915050565b6000808284610efc9190611ba8565b90508091505092915050565b6000604051905090565b600080fd5b600080fd5b600080fd5b600080fd5b6000601f19601f8301169050919050565b7f4e487b7100000000000000000000000000000000000000000000000000000000600052604160045260246000fd5b610f6f82610f26565b810181811067ffffffffffffffff82111715610f8e57610f8d610f37565b5b80604052505050565b6000610fa1610f08565b9050610fad8282610f66565b919050565b600067ffffffffffffffff821115610fcd57610fcc610f37565b5b610fd682610f26565b9050602081019050919050565b82818337600083830152505050565b600061100561100084610fb2565b610f97565b90508281526020810184848401111561102157611020610f21565b5b61102c848285610fe3565b509392505050565b600082601f83011261104957611048610f1c565b5b8135611059848260208601610ff2565b91505092915050565b600073ffffffffffffffffffffffffffffffffffffffff82169050919050565b600061108d82611062565b9050919050565b61109d81611082565b81146110a857600080fd5b50565b6000813590506110ba81611094565b92915050565b6000819050919050565b6110d3816110c0565b81146110de57600080fd5b50565b6000813590506110f0816110ca565b92915050565b600080600080608085870312156111105761110f610f12565b5b600085013567ffffffffffffffff81111561112e5761112d610f17565b5b61113a87828801611034565b945050602061114b878288016110ab565b935050604085013567ffffffffffffffff81111561116c5761116b610f17565b5b61117887828801611034565b9250506060611189878288016110e1565b91505092959194509250565b60008115159050919050565b6111aa81611195565b82525050565b60006020820190506111c560008301846111a1565b92915050565b60006111d682611062565b9050919050565b6111e6816111cb565b81146111f157600080fd5b50565b600081359050611203816111dd565b92915050565b60006020828403121561121f5761121e610f12565b5b600061122d848285016111f4565b91505092915050565b61123f816110c0565b82525050565b600060208201905061125a6000830184611236565b92915050565b611269816111cb565b82525050565b60006020820190506112846000830184611260565b92915050565b600081519050919050565b600082825260208201905092915050565b60005b838110156112c45780820151818401526020810190506112a9565b60008484015250505050565b60006112db8261128a565b6112e58185611295565b93506112f58185602086016112a6565b6112fe81610f26565b840191505092915050565b61131281611082565b82525050565b6000608082019050818103600083015261133281876112d0565b90506113416020830186611309565b818103604083015261135381856112d0565b90506113626060830184611236565b95945050505050565b60006020828403121561138157611380610f12565b5b600061138f848285016110e1565b91505092915050565b600080604083850312156113af576113ae610f12565b5b60006113bd858286016110e1565b92505060206113ce858286016110e1565b9150509250929050565b7f43616c6c6572206973206e6f74206f776e657200000000000000000000000000600082015250565b600061140e601383611295565b9150611419826113d8565b602082019050919050565b6000602082019050818103600083015261143d81611401565b9050919050565b7f456e74657265642061646472657373206973206e756c6c2e0000000000000000600082015250565b600061147a601883611295565b915061148582611444565b602082019050919050565b600060208201905081810360008301526114a98161146d565b9050919050565b7f456e7465726564206164647265737320697320616c726561647920612070617260008201527f746e657221000000000000000000000000000000000000000000000000000000602082015250565b600061150c602583611295565b9150611517826114b0565b604082019050919050565b6000602082019050818103600083015261153b816114ff565b9050919050565b7f546865206f776e65722063616e6e6f74206265206120706172746e6572210000600082015250565b6000611578601e83611295565b915061158382611542565b602082019050919050565b600060208201905081810360008301526115a78161156b565b9050919050565b7f5468652076616c756520666f72206120546f6b656e2073686f756c642062652060008201527f6174206c65617374203120696e207468652063757272656e63792e0000000000602082015250565b600061160a603b83611295565b9150611615826115ae565b604082019050919050565b60006020820190508181036000830152611639816115fd565b9050919050565b7f4e487b7100000000000000000000000000000000000000000000000000000000600052602260045260246000fd5b6000600282049050600182168061168757607f821691505b60208210810361169a57611699611640565b5b50919050565b60008190508160005260206000209050919050565b60006020601f8301049050919050565b600082821b905092915050565b6000600883026117027fffffffffffffffffffffffffffffffffffffffffffffffffffffffffffffffff826116c5565b61170c86836116c5565b95508019841693508086168417925050509392505050565b6000819050919050565b600061174961174461173f846110c0565b611724565b6110c0565b9050919050565b6000819050919050565b6117638361172e565b61177761176f82611750565b8484546116d2565b825550505050565b600090565b61178c61177f565b61179781848461175a565b505050565b5b818110156117bb576117b0600082611784565b60018101905061179d565b5050565b601f821115611800576117d1816116a0565b6117da846116b5565b810160208510156117e9578190505b6117fd6117f5856116b5565b83018261179c565b50505b505050565b600082821c905092915050565b600061182360001984600802611805565b1980831691505092915050565b600061183c8383611812565b9150826002028217905092915050565b6118558261128a565b67ffffffffffffffff81111561186e5761186d610f37565b5b611878825461166f565b6118838282856117bf565b600060209050601f8311600181146118b657600084156118a4578287015190505b6118ae8582611830565b865550611916565b601f1984166118c4866116a0565b60005b828110156118ec578489015182556001820191506020850194506020810190506118c7565b868310156119095784890151611905601f891682611812565b8355505b6001600288020188555050505b505050505050565b60006040820190506119336000830185611236565b818103602083015261194581846112d0565b90509392505050565b7f506172746e65722063616e6e6f74206265206120636c69656e74000000000000600082015250565b6000611984601a83611295565b915061198f8261194e565b602082019050919050565b600060208201905081810360008301526119b381611977565b9050919050565b7f436f6e7472616374206f776e65722063616e6e6f74206265206120636c69656e60008201527f7400000000000000000000000000000000000000000000000000000000000000602082015250565b6000611a16602183611295565b9150611a21826119ba565b604082019050919050565b60006020820190508181036000830152611a4581611a09565b9050919050565b7f436c69656e7420616c7265616479206578697374730000000000000000000000600082015250565b6000611a82601583611295565b9150611a8d82611a4c565b602082019050919050565b60006020820190508181036000830152611ab181611a75565b9050919050565b7f4e487b7100000000000000000000000000000000000000000000000000000000600052603260045260246000fd5b7f4e487b7100000000000000000000000000000000000000000000000000000000600052601160045260246000fd5b6000611b21826110c0565b9150611b2c836110c0565b9250828201905080821115611b4457611b43611ae7565b5b92915050565b7f4e487b7100000000000000000000000000000000000000000000000000000000600052600160045260246000fd5b7f4e487b7100000000000000000000000000000000000000000000000000000000600052601260045260246000fd5b6000611bb3826110c0565b9150611bbe836110c0565b925082611bce57611bcd611b79565b5b82820490509291505056fea264697066735822122084489d1bd02769ac01b88b6d9ad4fe66d20c525795e503a9dc1b8a2819c173fb64736f6c63430008130033",
  "immutableReferences": {},
  "source": "// SPDX-License-Identifier: MIT\r\npragma solidity ^0.8.19;\r\n\r\nimport \"./2_PayBackPartnership.sol\";\r\n\r\ncontract PayBackClients is PayBackPartnership {\r\n    using SafeMath for uint256;\r\n\r\n    mapping(address => uint256) internal _clientAddrToId;\r\n    //Maybe: extra\r\n    // address[] public clientAddresses;\r\n    uint256 public numClient; //last id.. if 0, no clients\r\n\r\n    event ClientCreated(address indexed _addr);\r\n\r\n    // event Transfer(address indexed from, address indexed to, uint256 value);\r\n    constructor() {\r\n        numClient = 0;\r\n    }\r\n\r\n    modifier isClient(address _addr) {\r\n        require(\r\n            _clientAddrToId[_addr] != 0,\r\n            \"This address is not a client\"\r\n        );\r\n        _;\r\n    }\r\n\r\n    function addClient(address _addr)\r\n        public\r\n        isOwner\r\n        addrNotNull(_addr)\r\n        returns (uint256)\r\n    {\r\n        //is not partner\r\n        Partner storage p = addrToPartner[_addr];\r\n        require(p.walletAddr == address(0), \"Partner cannot be a client\");\r\n        //is not owner\r\n        require(_addr != _owner, \"Contract owner cannot be a client\");\r\n        //check if client already exists\r\n        require(_clientAddrToId[_addr] == 0, \"Client already exists\");\r\n\r\n        numClient = numClient.add(1);\r\n\r\n        _clientAddrToId[_addr] = numClient;\r\n        emit ClientCreated(_addr);\r\n        //Maybe: extra\r\n        // clientAddresses[numClient]=_addr;\r\n\r\n        return numClient;\r\n    }\r\n\r\n    function getClientId(address _addr) public view returns (uint256) {\r\n        return _clientAddrToId[_addr];\r\n    }\r\n    //Maybe: extra\r\n    // function getClientAddr(uint256 _id) public view returns(address){\r\n    //     return clientAddresses[_id];\r\n    // }\r\n}\r\n",
  "sourcePath": "D:\\PersonalStuff\\GitProjects\\PayBackOnBlockchain\\payback-token-truffle\\contracts\\3_PayBackClients.sol",
  "compiler": {
    "name": "solc",
    "version": "0.8.19+commit.7dd6d404.Emscripten.clang"
  },
  "schemaVersion": "3.4.14",
  "updatedAt": "2023-07-06T13:48:10.820Z",
  "devdoc": {
    "kind": "dev",
    "methods": {
      "getOwner()": {
        "details": "Return owner address ",
        "returns": {
          "_0": "address of owner"
        }
      }
    },
    "version": 1
  },
  "userdoc": {
    "kind": "user",
    "methods": {},
    "version": 1
  }
}