{
  "contractName": "PaybackLocker",
  "abi": [
    {
      "anonymous": false,
      "inputs": [
        {
          "indexed": true,
          "internalType": "address",
          "name": "owner",
          "type": "address"
        },
        {
          "indexed": true,
          "internalType": "address",
          "name": "spender",
          "type": "address"
        },
        {
          "indexed": false,
          "internalType": "uint256",
          "name": "value",
          "type": "uint256"
        }
      ],
      "name": "Approval",
      "type": "event"
    },
    {
      "anonymous": false,
      "inputs": [
        {
          "indexed": false,
          "internalType": "address",
          "name": "locker",
          "type": "address"
        },
        {
          "indexed": false,
          "internalType": "address",
          "name": "receiver",
          "type": "address"
        },
        {
          "indexed": false,
          "internalType": "uint256",
          "name": "id",
          "type": "uint256"
        }
      ],
      "name": "Locked",
      "type": "event"
    },
    {
      "anonymous": false,
      "inputs": [
        {
          "indexed": false,
          "internalType": "uint256",
          "name": "partnerId",
          "type": "uint256"
        },
        {
          "indexed": false,
          "internalType": "string",
          "name": "name",
          "type": "string"
        }
      ],
      "name": "PartnerAdded",
      "type": "event"
    },
    {
      "anonymous": false,
      "inputs": [
        {
          "indexed": false,
          "internalType": "address",
          "name": "locker",
          "type": "address"
        },
        {
          "indexed": false,
          "internalType": "address",
          "name": "receiver",
          "type": "address"
        },
        {
          "indexed": false,
          "internalType": "uint256",
          "name": "id",
          "type": "uint256"
        }
      ],
      "name": "Released",
      "type": "event"
    },
    {
      "anonymous": false,
      "inputs": [
        {
          "indexed": true,
          "internalType": "address",
          "name": "from",
          "type": "address"
        },
        {
          "indexed": true,
          "internalType": "address",
          "name": "to",
          "type": "address"
        },
        {
          "indexed": false,
          "internalType": "uint256",
          "name": "value",
          "type": "uint256"
        }
      ],
      "name": "Transfer",
      "type": "event"
    },
    {
      "inputs": [
        {
          "internalType": "address",
          "name": "_addr",
          "type": "address"
        }
      ],
      "name": "addClient",
      "outputs": [
        {
          "internalType": "uint256",
          "name": "",
          "type": "uint256"
        }
      ],
      "stateMutability": "nonpayable",
      "type": "function"
    },
    {
      "inputs": [
        {
          "internalType": "string",
          "name": "_name",
          "type": "string"
        },
        {
          "internalType": "address payable",
          "name": "_addr",
          "type": "address"
        },
        {
          "internalType": "string",
          "name": "_currency",
          "type": "string"
        },
        {
          "internalType": "uint256",
          "name": "_valueForToken",
          "type": "uint256"
        }
      ],
      "name": "addPartner",
      "outputs": [
        {
          "internalType": "bool",
          "name": "",
          "type": "bool"
        }
      ],
      "stateMutability": "nonpayable",
      "type": "function"
    },
    {
      "inputs": [
        {
          "internalType": "address",
          "name": "",
          "type": "address"
        }
      ],
      "name": "addrToClientId",
      "outputs": [
        {
          "internalType": "uint256",
          "name": "",
          "type": "uint256"
        }
      ],
      "stateMutability": "view",
      "type": "function",
      "constant": true
    },
    {
      "inputs": [
        {
          "internalType": "address",
          "name": "",
          "type": "address"
        }
      ],
      "name": "addrToPartnerId",
      "outputs": [
        {
          "internalType": "uint256",
          "name": "",
          "type": "uint256"
        }
      ],
      "stateMutability": "view",
      "type": "function",
      "constant": true
    },
    {
      "inputs": [
        {
          "internalType": "address",
          "name": "_owner",
          "type": "address"
        },
        {
          "internalType": "address",
          "name": "_spender",
          "type": "address"
        }
      ],
      "name": "allowance",
      "outputs": [
        {
          "internalType": "uint256",
          "name": "",
          "type": "uint256"
        }
      ],
      "stateMutability": "view",
      "type": "function",
      "constant": true
    },
    {
      "inputs": [
        {
          "internalType": "address",
          "name": "_spender",
          "type": "address"
        },
        {
          "internalType": "uint256",
          "name": "_amount",
          "type": "uint256"
        }
      ],
      "name": "approve",
      "outputs": [
        {
          "internalType": "bool",
          "name": "",
          "type": "bool"
        }
      ],
      "stateMutability": "nonpayable",
      "type": "function"
    },
    {
      "inputs": [
        {
          "internalType": "address",
          "name": "account",
          "type": "address"
        }
      ],
      "name": "balanceOf",
      "outputs": [
        {
          "internalType": "uint256",
          "name": "",
          "type": "uint256"
        }
      ],
      "stateMutability": "view",
      "type": "function",
      "constant": true
    },
    {
      "inputs": [
        {
          "internalType": "uint256",
          "name": "_roundValue",
          "type": "uint256"
        },
        {
          "internalType": "uint256",
          "name": "_partnerId",
          "type": "uint256"
        }
      ],
      "name": "calcPointsToEarn",
      "outputs": [
        {
          "internalType": "uint256",
          "name": "",
          "type": "uint256"
        }
      ],
      "stateMutability": "view",
      "type": "function",
      "constant": true
    },
    {
      "inputs": [],
      "name": "decimals",
      "outputs": [
        {
          "internalType": "uint8",
          "name": "",
          "type": "uint8"
        }
      ],
      "stateMutability": "view",
      "type": "function",
      "constant": true
    },
    {
      "inputs": [],
      "name": "getOwner",
      "outputs": [
        {
          "internalType": "address",
          "name": "",
          "type": "address"
        }
      ],
      "stateMutability": "view",
      "type": "function",
      "constant": true
    },
    {
      "inputs": [
        {
          "internalType": "uint256",
          "name": "_amount",
          "type": "uint256"
        }
      ],
      "name": "loadTotalSupply",
      "outputs": [
        {
          "internalType": "bool",
          "name": "",
          "type": "bool"
        }
      ],
      "stateMutability": "nonpayable",
      "type": "function"
    },
    {
      "inputs": [
        {
          "internalType": "address",
          "name": "",
          "type": "address"
        }
      ],
      "name": "lockedBalanceOf",
      "outputs": [
        {
          "internalType": "uint256",
          "name": "",
          "type": "uint256"
        }
      ],
      "stateMutability": "view",
      "type": "function",
      "constant": true
    },
    {
      "inputs": [],
      "name": "minTokensToRedeem",
      "outputs": [
        {
          "internalType": "uint256",
          "name": "",
          "type": "uint256"
        }
      ],
      "stateMutability": "view",
      "type": "function",
      "constant": true
    },
    {
      "inputs": [],
      "name": "name",
      "outputs": [
        {
          "internalType": "string",
          "name": "",
          "type": "string"
        }
      ],
      "stateMutability": "view",
      "type": "function",
      "constant": true
    },
    {
      "inputs": [],
      "name": "numClient",
      "outputs": [
        {
          "internalType": "uint256",
          "name": "",
          "type": "uint256"
        }
      ],
      "stateMutability": "view",
      "type": "function",
      "constant": true
    },
    {
      "inputs": [],
      "name": "numPartner",
      "outputs": [
        {
          "internalType": "uint256",
          "name": "",
          "type": "uint256"
        }
      ],
      "stateMutability": "view",
      "type": "function",
      "constant": true
    },
    {
      "inputs": [
        {
          "internalType": "uint256",
          "name": "",
          "type": "uint256"
        }
      ],
      "name": "partners",
      "outputs": [
        {
          "internalType": "string",
          "name": "name",
          "type": "string"
        },
        {
          "internalType": "address payable",
          "name": "walletAddr",
          "type": "address"
        },
        {
          "internalType": "string",
          "name": "currency",
          "type": "string"
        },
        {
          "internalType": "uint256",
          "name": "valueForToken",
          "type": "uint256"
        }
      ],
      "stateMutability": "view",
      "type": "function",
      "constant": true
    },
    {
      "inputs": [
        {
          "internalType": "uint256",
          "name": "_id",
          "type": "uint256"
        }
      ],
      "name": "removePartner",
      "outputs": [],
      "stateMutability": "nonpayable",
      "type": "function"
    },
    {
      "inputs": [],
      "name": "symbol",
      "outputs": [
        {
          "internalType": "string",
          "name": "",
          "type": "string"
        }
      ],
      "stateMutability": "view",
      "type": "function",
      "constant": true
    },
    {
      "inputs": [],
      "name": "totalSupply",
      "outputs": [
        {
          "internalType": "uint256",
          "name": "",
          "type": "uint256"
        }
      ],
      "stateMutability": "view",
      "type": "function",
      "constant": true
    },
    {
      "inputs": [
        {
          "internalType": "address",
          "name": "_to",
          "type": "address"
        },
        {
          "internalType": "uint256",
          "name": "_amount",
          "type": "uint256"
        }
      ],
      "name": "transfer",
      "outputs": [
        {
          "internalType": "bool",
          "name": "",
          "type": "bool"
        }
      ],
      "stateMutability": "nonpayable",
      "type": "function"
    },
    {
      "inputs": [
        {
          "internalType": "address",
          "name": "_from",
          "type": "address"
        },
        {
          "internalType": "address",
          "name": "_to",
          "type": "address"
        },
        {
          "internalType": "uint256",
          "name": "_amount",
          "type": "uint256"
        }
      ],
      "name": "transferFrom",
      "outputs": [
        {
          "internalType": "bool",
          "name": "",
          "type": "bool"
        }
      ],
      "stateMutability": "nonpayable",
      "type": "function"
    },
    {
      "inputs": [
        {
          "internalType": "address",
          "name": "_owner",
          "type": "address"
        },
        {
          "internalType": "address",
          "name": "_spender",
          "type": "address"
        }
      ],
      "name": "transferredFromAllowance",
      "outputs": [
        {
          "internalType": "uint256",
          "name": "",
          "type": "uint256"
        }
      ],
      "stateMutability": "view",
      "type": "function",
      "constant": true
    },
    {
      "inputs": [
        {
          "internalType": "address",
          "name": "_receiver",
          "type": "address"
        },
        {
          "internalType": "uint256",
          "name": "_amount",
          "type": "uint256"
        },
        {
          "internalType": "uint256",
          "name": "_unlockDate",
          "type": "uint256"
        }
      ],
      "name": "lock",
      "outputs": [
        {
          "internalType": "uint256",
          "name": "",
          "type": "uint256"
        }
      ],
      "stateMutability": "nonpayable",
      "type": "function"
    },
    {
      "inputs": [
        {
          "internalType": "address",
          "name": "_locker",
          "type": "address"
        },
        {
          "internalType": "address",
          "name": "_receiver",
          "type": "address"
        },
        {
          "internalType": "uint256",
          "name": "_id",
          "type": "uint256"
        }
      ],
      "name": "releaseLock",
      "outputs": [],
      "stateMutability": "nonpayable",
      "type": "function"
    },
    {
      "inputs": [
        {
          "internalType": "address",
          "name": "_receiver",
          "type": "address"
        },
        {
          "internalType": "uint256",
          "name": "_id",
          "type": "uint256"
        },
        {
          "internalType": "uint256",
          "name": "_amount",
          "type": "uint256"
        }
      ],
      "name": "reduceItemTokens",
      "outputs": [],
      "stateMutability": "nonpayable",
      "type": "function"
    },
    {
      "inputs": [],
      "name": "getCurrentTime",
      "outputs": [
        {
          "internalType": "uint256",
          "name": "",
          "type": "uint256"
        }
      ],
      "stateMutability": "view",
      "type": "function",
      "constant": true
    },
    {
      "inputs": [
        {
          "internalType": "address",
          "name": "_locker",
          "type": "address"
        },
        {
          "internalType": "address",
          "name": "_receiver",
          "type": "address"
        }
      ],
      "name": "getNrLockedItems",
      "outputs": [
        {
          "internalType": "uint256",
          "name": "",
          "type": "uint256"
        }
      ],
      "stateMutability": "view",
      "type": "function",
      "constant": true
    },
    {
      "inputs": [
        {
          "internalType": "address",
          "name": "_locker",
          "type": "address"
        },
        {
          "internalType": "address",
          "name": "_receiver",
          "type": "address"
        },
        {
          "internalType": "uint256",
          "name": "_id",
          "type": "uint256"
        }
      ],
      "name": "getLockedItem",
      "outputs": [
        {
          "internalType": "uint256",
          "name": "",
          "type": "uint256"
        },
        {
          "internalType": "uint256",
          "name": "",
          "type": "uint256"
        }
      ],
      "stateMutability": "view",
      "type": "function",
      "constant": true
    }
  ],
  "bytecode": "0x608060405230601060006101000a81548173ffffffffffffffffffffffffffffffffffffffff021916908373ffffffffffffffffffffffffffffffffffffffff1602179055503480156200005257600080fd5b506040518060400160405280600c81526020017f5061794261636b546f6b656e00000000000000000000000000000000000000008152506040518060400160405280600381526020017f5042540000000000000000000000000000000000000000000000000000000000815250620f4240600061012c336000806101000a81548173ffffffffffffffffffffffffffffffffffffffff021916908373ffffffffffffffffffffffffffffffffffffffff1602179055506000600181905550600060058190555060006040518060800160405280604051806020016040528060008152508152602001600073ffffffffffffffffffffffffffffffffffffffff1681526020016040518060200160405280600081525081526020016000815250905060028190806001815401808255809150506001900390600052602060002090600402016000909190919091506000820151816000019081620001b691906200055a565b5060208201518160010160006101000a81548173ffffffffffffffffffffffffffffffffffffffff021916908373ffffffffffffffffffffffffffffffffffffffff16021790555060408201518160020190816200021591906200055a565b506060820151816003015550505084600690816200023491906200055a565b5083600790816200024691906200055a565b508260098190555081600860006101000a81548160ff021916908360ff16021790555080600a8190555082600b60008060009054906101000a900473ffffffffffffffffffffffffffffffffffffffff1673ffffffffffffffffffffffffffffffffffffffff1673ffffffffffffffffffffffffffffffffffffffff16815260200190815260200160002081905550505050505062000641565b600081519050919050565b7f4e487b7100000000000000000000000000000000000000000000000000000000600052604160045260246000fd5b7f4e487b7100000000000000000000000000000000000000000000000000000000600052602260045260246000fd5b600060028204905060018216806200036257607f821691505b6020821081036200037857620003776200031a565b5b50919050565b60008190508160005260206000209050919050565b60006020601f8301049050919050565b600082821b905092915050565b600060088302620003e27fffffffffffffffffffffffffffffffffffffffffffffffffffffffffffffffff82620003a3565b620003ee8683620003a3565b95508019841693508086168417925050509392505050565b6000819050919050565b6000819050919050565b60006200043b620004356200042f8462000406565b62000410565b62000406565b9050919050565b6000819050919050565b62000457836200041a565b6200046f620004668262000442565b848454620003b0565b825550505050565b600090565b6200048662000477565b620004938184846200044c565b505050565b5b81811015620004bb57620004af6000826200047c565b60018101905062000499565b5050565b601f8211156200050a57620004d4816200037e565b620004df8462000393565b81016020851015620004ef578190505b62000507620004fe8562000393565b83018262000498565b50505b505050565b600082821c905092915050565b60006200052f600019846008026200050f565b1980831691505092915050565b60006200054a83836200051c565b9150826002028217905092915050565b6200056582620002e0565b67ffffffffffffffff811115620005815762000580620002eb565b5b6200058d825462000349565b6200059a828285620004bf565b600060209050601f831160018114620005d25760008415620005bd578287015190505b620005c985826200053c565b86555062000639565b601f198416620005e2866200037e565b60005b828110156200060c57848901518255600182019150602085019450602081019050620005e5565b868310156200062c578489015162000628601f8916826200051c565b8355505b6001600288020188555050505b505050505050565b614c1780620006516000396000f3fe608060405234801561001057600080fd5b50600436106101cf5760003560e01c806370a0823111610104578063a9059cbb116100a2578063e041692611610071578063e0416926146105aa578063e15cfad2146105da578063e2ab691d1461060a578063faa5e4e21461063a576101cf565b8063a9059cbb146104f9578063c3b49d0414610529578063c785f5931461055c578063dd62ed3e1461057a576101cf565b80637d1d8cc0116100de5780637d1d8cc014610470578063893d20e81461048c57806395d89b41146104aa578063a79ac7a0146104c8576101cf565b806370a08231146103f4578063785a3ed2146104245780637a3d949914610454576101cf565b806329cb924d116101715780634a9596ce1161014b5780634a9596ce146103585780634b8e3961146103765780635935573614610394578063641244f9146103c4576101cf565b806329cb924d146102ec578063313ce5671461030a57806343928cfd14610328576101cf565b806318160ddd116101ad57806318160ddd146102525780631e1413cb14610270578063210e870d1461028c57806323b872dd146102bc576101cf565b806306fdde03146101d4578063095ea7b3146101f257806313869f8514610222575b600080fd5b6101dc61066a565b6040516101e9919061346b565b60405180910390f35b61020c60048036038101906102079190613535565b6106f8565b6040516102199190613590565b60405180910390f35b61023c600480360381019061023791906135ab565b6107dc565b6040516102499190613590565b60405180910390f35b61025a61095a565b60405161026791906135e7565b60405180910390f35b61028a60048036038101906102859190613602565b610960565b005b6102a660048036038101906102a191906137c8565b610cc1565b6040516102b39190613590565b60405180910390f35b6102d660048036038101906102d19190613867565b6111a6565b6040516102e39190613590565b60405180910390f35b6102f461161b565b60405161030191906135e7565b60405180910390f35b610312611623565b60405161031f91906138d6565b60405180910390f35b610342600480360381019061033d91906138f1565b611636565b60405161034f91906135e7565b60405180910390f35b610360611930565b60405161036d91906135e7565b60405180910390f35b61037e611936565b60405161038b91906135e7565b60405180910390f35b6103ae60048036038101906103a991906138f1565b61193c565b6040516103bb91906135e7565b60405180910390f35b6103de60048036038101906103d9919061391e565b611954565b6040516103eb91906135e7565b60405180910390f35b61040e600480360381019061040991906138f1565b6119db565b60405161041b91906135e7565b60405180910390f35b61043e6004803603810190610439919061391e565b611a24565b60405161044b91906135e7565b60405180910390f35b61046e60048036038101906104699190613867565b611aae565b005b61048a600480360381019061048591906135ab565b611dbe565b005b610494612006565b6040516104a1919061396d565b60405180910390f35b6104b261202f565b6040516104bf919061346b565b60405180910390f35b6104e260048036038101906104dd9190613867565b6120bd565b6040516104f0929190613988565b60405180910390f35b610513600480360381019061050e9190613535565b612196565b6040516105209190613590565b60405180910390f35b610543600480360381019061053e91906135ab565b61266a565b60405161055394939291906139c0565b60405180910390f35b6105646127da565b60405161057191906135e7565b60405180910390f35b610594600480360381019061058f919061391e565b6127e0565b6040516105a191906135e7565b60405180910390f35b6105c460048036038101906105bf91906138f1565b612867565b6040516105d191906135e7565b60405180910390f35b6105f460048036038101906105ef9190613a13565b61287f565b60405161060191906135e7565b60405180910390f35b610624600480360381019061061f9190613602565b6128c5565b60405161063191906135e7565b60405180910390f35b610654600480360381019061064f91906138f1565b612dcb565b60405161066191906135e7565b60405180910390f35b6006805461067790613a82565b80601f01602080910402602001604051908101604052809291908181526020018280546106a390613a82565b80156106f05780601f106106c5576101008083540402835291602001916106f0565b820191906000526020600020905b8154815290600101906020018083116106d357829003601f168201915b505050505081565b600080600360003373ffffffffffffffffffffffffffffffffffffffff1673ffffffffffffffffffffffffffffffffffffffff1681526020019081526020016000205414158061078857506000600460003373ffffffffffffffffffffffffffffffffffffffff1673ffffffffffffffffffffffffffffffffffffffff1681526020019081526020016000205414155b6107c7576040517f08c379a00000000000000000000000000000000000000000000000000000000081526004016107be90613b25565b60405180910390fd5b6107d2338484612de3565b6001905092915050565b60008060009054906101000a900473ffffffffffffffffffffffffffffffffffffffff1673ffffffffffffffffffffffffffffffffffffffff163373ffffffffffffffffffffffffffffffffffffffff161461086d576040517f08c379a000000000000000000000000000000000000000000000000000000000815260040161086490613b91565b60405180910390fd5b8160095461087b9190613be0565b60098190555081600b60008060009054906101000a900473ffffffffffffffffffffffffffffffffffffffff1673ffffffffffffffffffffffffffffffffffffffff1673ffffffffffffffffffffffffffffffffffffffff168152602001908152602001600020546108ed9190613be0565b600b60008060009054906101000a900473ffffffffffffffffffffffffffffffffffffffff1673ffffffffffffffffffffffffffffffffffffffff1673ffffffffffffffffffffffffffffffffffffffff1681526020019081526020016000208190555060019050919050565b60095481565b6000600360003373ffffffffffffffffffffffffffffffffffffffff1673ffffffffffffffffffffffffffffffffffffffff168152602001908152602001600020541415806109fa575060008054906101000a900473ffffffffffffffffffffffffffffffffffffffff1673ffffffffffffffffffffffffffffffffffffffff163373ffffffffffffffffffffffffffffffffffffffff16145b610a39576040517f08c379a0000000000000000000000000000000000000000000000000000000008152600401610a3090613c86565b60405180910390fd5b6000600e60003373ffffffffffffffffffffffffffffffffffffffff1673ffffffffffffffffffffffffffffffffffffffff16815260200190815260200160002060008573ffffffffffffffffffffffffffffffffffffffff1673ffffffffffffffffffffffffffffffffffffffff1681526020019081526020016000208381548110610ac957610ac8613ca6565b5b906000526020600020906002020160405180604001604052908160008201548152602001600182015481525050905081816000015111610b3e576040517f08c379a0000000000000000000000000000000000000000000000000000000008152600401610b3590613d21565b60405180910390fd5b42816020015111610b84576040517f08c379a0000000000000000000000000000000000000000000000000000000008152600401610b7b90613db3565b60405180910390fd5b818160000151610b949190613dd3565b600e60003373ffffffffffffffffffffffffffffffffffffffff1673ffffffffffffffffffffffffffffffffffffffff16815260200190815260200160002060008673ffffffffffffffffffffffffffffffffffffffff1673ffffffffffffffffffffffffffffffffffffffff1681526020019081526020016000208481548110610c2257610c21613ca6565b5b90600052602060002090600202016000018190555081600f60008673ffffffffffffffffffffffffffffffffffffffff1673ffffffffffffffffffffffffffffffffffffffff1681526020019081526020016000206000828254610c869190613dd3565b92505081905550610cba601060009054906101000a900473ffffffffffffffffffffffffffffffffffffffff163384612f7c565b5050505050565b60008060009054906101000a900473ffffffffffffffffffffffffffffffffffffffff1673ffffffffffffffffffffffffffffffffffffffff163373ffffffffffffffffffffffffffffffffffffffff1614610d52576040517f08c379a0000000000000000000000000000000000000000000000000000000008152600401610d4990613b91565b60405180910390fd5b83600073ffffffffffffffffffffffffffffffffffffffff168173ffffffffffffffffffffffffffffffffffffffff1603610dc2576040517f08c379a0000000000000000000000000000000000000000000000000000000008152600401610db990613e53565b60405180910390fd5b6000600360008773ffffffffffffffffffffffffffffffffffffffff1673ffffffffffffffffffffffffffffffffffffffff1681526020019081526020016000205414610e44576040517f08c379a0000000000000000000000000000000000000000000000000000000008152600401610e3b90613ee5565b60405180910390fd5b60008054906101000a900473ffffffffffffffffffffffffffffffffffffffff1673ffffffffffffffffffffffffffffffffffffffff168573ffffffffffffffffffffffffffffffffffffffff1603610ed2576040517f08c379a0000000000000000000000000000000000000000000000000000000008152600401610ec990613f77565b60405180910390fd5b6000600460008773ffffffffffffffffffffffffffffffffffffffff1673ffffffffffffffffffffffffffffffffffffffff1681526020019081526020016000205414610f54576040517f08c379a0000000000000000000000000000000000000000000000000000000008152600401610f4b90614009565b60405180910390fd5b6001831015610f98576040517f08c379a0000000000000000000000000000000000000000000000000000000008152600401610f8f906140c1565b60405180910390fd5b600060405180608001604052808881526020018773ffffffffffffffffffffffffffffffffffffffff16815260200186815260200185815250905060028190806001815401808255809150506001900390600052602060002090600402016000909190919091506000820151816000019081611014919061428d565b5060208201518160010160006101000a81548173ffffffffffffffffffffffffffffffffffffffff021916908373ffffffffffffffffffffffffffffffffffffffff1602179055506040820151816002019081611071919061428d565b5060608201518160030155505060016000815461108d9061435f565b91905081905550600154600360008873ffffffffffffffffffffffffffffffffffffffff1673ffffffffffffffffffffffffffffffffffffffff168152602001908152602001600020819055508573ffffffffffffffffffffffffffffffffffffffff1660026001548154811061110757611106613ca6565b5b906000526020600020906004020160010160009054906101000a900473ffffffffffffffffffffffffffffffffffffffff1673ffffffffffffffffffffffffffffffffffffffff161461115d5761115c6143a7565b5b7f6b5d098d49c45279cf1afc02eec71018b4e172ec66e1834863c5d62febaa50b7600154886040516111909291906143d6565b60405180910390a1600192505050949350505050565b60008033905060008054906101000a900473ffffffffffffffffffffffffffffffffffffffff1673ffffffffffffffffffffffffffffffffffffffff168573ffffffffffffffffffffffffffffffffffffffff1603611286576000600360008673ffffffffffffffffffffffffffffffffffffffff1673ffffffffffffffffffffffffffffffffffffffff1681526020019081526020016000205403611281576040517f08c379a000000000000000000000000000000000000000000000000000000000815260040161127890614478565b60405180910390fd5b6115f7565b6000600360008773ffffffffffffffffffffffffffffffffffffffff1673ffffffffffffffffffffffffffffffffffffffff16815260200190815260200160002054146113ab576000600460008673ffffffffffffffffffffffffffffffffffffffff1673ffffffffffffffffffffffffffffffffffffffff16815260200190815260200160002054141580611367575060008054906101000a900473ffffffffffffffffffffffffffffffffffffffff1673ffffffffffffffffffffffffffffffffffffffff168473ffffffffffffffffffffffffffffffffffffffff16145b6113a6576040517f08c379a000000000000000000000000000000000000000000000000000000000815260040161139d9061450a565b60405180910390fd5b6115f6565b6000600460008773ffffffffffffffffffffffffffffffffffffffff1673ffffffffffffffffffffffffffffffffffffffff16815260200190815260200160002054146115eb576000600460008673ffffffffffffffffffffffffffffffffffffffff1673ffffffffffffffffffffffffffffffffffffffff16815260200190815260200160002054146114c157600a54600b60008773ffffffffffffffffffffffffffffffffffffffff1673ffffffffffffffffffffffffffffffffffffffff16815260200190815260200160002054106114bc576040517f08c379a00000000000000000000000000000000000000000000000000000000081526004016114b39061459c565b60405180910390fd5b6115e6565b60008054906101000a900473ffffffffffffffffffffffffffffffffffffffff1673ffffffffffffffffffffffffffffffffffffffff168473ffffffffffffffffffffffffffffffffffffffff16148061155b57506000600360008673ffffffffffffffffffffffffffffffffffffffff1673ffffffffffffffffffffffffffffffffffffffff1681526020019081526020016000205414155b156115e557600a54600b60008773ffffffffffffffffffffffffffffffffffffffff1673ffffffffffffffffffffffffffffffffffffffff1681526020019081526020016000205410156115e4576040517f08c379a00000000000000000000000000000000000000000000000000000000081526004016115db9061462e565b60405180910390fd5b5b5b6115f5565b6000915050611614565b5b5b61160285828561310a565b61160d858585612f7c565b5060019150505b9392505050565b600042905090565b600860009054906101000a900460ff1681565b60008060009054906101000a900473ffffffffffffffffffffffffffffffffffffffff1673ffffffffffffffffffffffffffffffffffffffff163373ffffffffffffffffffffffffffffffffffffffff16146116c7576040517f08c379a00000000000000000000000000000000000000000000000000000000081526004016116be90613b91565b60405180910390fd5b81600073ffffffffffffffffffffffffffffffffffffffff168173ffffffffffffffffffffffffffffffffffffffff1603611737576040517f08c379a000000000000000000000000000000000000000000000000000000000815260040161172e90613e53565b60405180910390fd5b6000600460008573ffffffffffffffffffffffffffffffffffffffff1673ffffffffffffffffffffffffffffffffffffffff16815260200190815260200160002054146117b9576040517f08c379a00000000000000000000000000000000000000000000000000000000081526004016117b09061469a565b60405180910390fd5b6000600360008573ffffffffffffffffffffffffffffffffffffffff1673ffffffffffffffffffffffffffffffffffffffff168152602001908152602001600020541461183b576040517f08c379a00000000000000000000000000000000000000000000000000000000081526004016118329061472c565b60405180910390fd5b60008054906101000a900473ffffffffffffffffffffffffffffffffffffffff1673ffffffffffffffffffffffffffffffffffffffff168373ffffffffffffffffffffffffffffffffffffffff16036118c9576040517f08c379a00000000000000000000000000000000000000000000000000000000081526004016118c0906147be565b60405180910390fd5b6005600081546118d89061435f565b91905081905550600554600460008573ffffffffffffffffffffffffffffffffffffffff1673ffffffffffffffffffffffffffffffffffffffff16815260200190815260200160002081905550600554915050919050565b60015481565b600a5481565b600f6020528060005260406000206000915090505481565b6000600d60008473ffffffffffffffffffffffffffffffffffffffff1673ffffffffffffffffffffffffffffffffffffffff16815260200190815260200160002060008373ffffffffffffffffffffffffffffffffffffffff1673ffffffffffffffffffffffffffffffffffffffff16815260200190815260200160002054905092915050565b6000600b60008373ffffffffffffffffffffffffffffffffffffffff1673ffffffffffffffffffffffffffffffffffffffff168152602001908152602001600020549050919050565b6000600e60008473ffffffffffffffffffffffffffffffffffffffff1673ffffffffffffffffffffffffffffffffffffffff16815260200190815260200160002060008373ffffffffffffffffffffffffffffffffffffffff1673ffffffffffffffffffffffffffffffffffffffff16815260200190815260200160002080549050905092915050565b60008054906101000a900473ffffffffffffffffffffffffffffffffffffffff1673ffffffffffffffffffffffffffffffffffffffff163373ffffffffffffffffffffffffffffffffffffffff1614611b3c576040517f08c379a0000000000000000000000000000000000000000000000000000000008152600401611b3390613b91565b60405180910390fd5b6000600e60008573ffffffffffffffffffffffffffffffffffffffff1673ffffffffffffffffffffffffffffffffffffffff16815260200190815260200160002060008473ffffffffffffffffffffffffffffffffffffffff1673ffffffffffffffffffffffffffffffffffffffff1681526020019081526020016000208281548110611bcc57611bcb613ca6565b5b90600052602060002090600202016040518060400160405290816000820154815260200160018201548152505090504281602001511115611c42576040517f08c379a0000000000000000000000000000000000000000000000000000000008152600401611c3990614850565b60405180910390fd5b611c73601060009054906101000a900473ffffffffffffffffffffffffffffffffffffffff16848360000151612f7c565b508060000151600f60008573ffffffffffffffffffffffffffffffffffffffff1673ffffffffffffffffffffffffffffffffffffffff1681526020019081526020016000206000828254611cc79190613dd3565b92505081905550600e60008573ffffffffffffffffffffffffffffffffffffffff1673ffffffffffffffffffffffffffffffffffffffff16815260200190815260200160002060008473ffffffffffffffffffffffffffffffffffffffff1673ffffffffffffffffffffffffffffffffffffffff1681526020019081526020016000208281548110611d5c57611d5b613ca6565b5b9060005260206000209060020201600080820160009055600182016000905550507f2d87480f50083e2b2759522a8fdda59802650a8055e609a7772cf70c07748f52848484604051611db093929190614870565b60405180910390a150505050565b60008054906101000a900473ffffffffffffffffffffffffffffffffffffffff1673ffffffffffffffffffffffffffffffffffffffff163373ffffffffffffffffffffffffffffffffffffffff1614611e4c576040517f08c379a0000000000000000000000000000000000000000000000000000000008152600401611e4390613b91565b60405180910390fd5b600060028281548110611e6257611e61613ca6565b5b90600052602060002090600402019050611f248160010160009054906101000a900473ffffffffffffffffffffffffffffffffffffffff1660008054906101000a900473ffffffffffffffffffffffffffffffffffffffff16600b60008560010160009054906101000a900473ffffffffffffffffffffffffffffffffffffffff1673ffffffffffffffffffffffffffffffffffffffff1673ffffffffffffffffffffffffffffffffffffffff16815260200190815260200160002054612f7c565b506000600360008360010160009054906101000a900473ffffffffffffffffffffffffffffffffffffffff1673ffffffffffffffffffffffffffffffffffffffff1673ffffffffffffffffffffffffffffffffffffffff1681526020019081526020016000208190555060028281548110611fa257611fa1613ca6565b5b906000526020600020906004020160008082016000611fc1919061337e565b6001820160006101000a81549073ffffffffffffffffffffffffffffffffffffffff0219169055600282016000611ff8919061337e565b600382016000905550505050565b60008060009054906101000a900473ffffffffffffffffffffffffffffffffffffffff16905090565b6007805461203c90613a82565b80601f016020809104026020016040519081016040528092919081815260200182805461206890613a82565b80156120b55780601f1061208a576101008083540402835291602001916120b5565b820191906000526020600020905b81548152906001019060200180831161209857829003601f168201915b505050505081565b6000806000600e60008773ffffffffffffffffffffffffffffffffffffffff1673ffffffffffffffffffffffffffffffffffffffff16815260200190815260200160002060008673ffffffffffffffffffffffffffffffffffffffff1673ffffffffffffffffffffffffffffffffffffffff16815260200190815260200160002084815481106121505761214f613ca6565b5b9060005260206000209060020201604051806040016040529081600082015481526020016001820154815250509050806000015181602001519250925050935093915050565b600082600073ffffffffffffffffffffffffffffffffffffffff168173ffffffffffffffffffffffffffffffffffffffff1603612208576040517f08c379a00000000000000000000000000000000000000000000000000000000081526004016121ff90613e53565b60405180910390fd5b60008054906101000a900473ffffffffffffffffffffffffffffffffffffffff1673ffffffffffffffffffffffffffffffffffffffff163373ffffffffffffffffffffffffffffffffffffffff16036122e2576000600360008673ffffffffffffffffffffffffffffffffffffffff1673ffffffffffffffffffffffffffffffffffffffff16815260200190815260200160002054036122dd576040517f08c379a00000000000000000000000000000000000000000000000000000000081526004016122d490614478565b60405180910390fd5b612652565b6000600360003373ffffffffffffffffffffffffffffffffffffffff1673ffffffffffffffffffffffffffffffffffffffff1681526020019081526020016000205414612407576000600460008673ffffffffffffffffffffffffffffffffffffffff1673ffffffffffffffffffffffffffffffffffffffff168152602001908152602001600020541415806123c3575060008054906101000a900473ffffffffffffffffffffffffffffffffffffffff1673ffffffffffffffffffffffffffffffffffffffff168473ffffffffffffffffffffffffffffffffffffffff16145b612402576040517f08c379a00000000000000000000000000000000000000000000000000000000081526004016123f99061450a565b60405180910390fd5b612651565b6000600460003373ffffffffffffffffffffffffffffffffffffffff1673ffffffffffffffffffffffffffffffffffffffff1681526020019081526020016000205414612647576000600460008673ffffffffffffffffffffffffffffffffffffffff1673ffffffffffffffffffffffffffffffffffffffff168152602001908152602001600020541461251d57600a54600b60003373ffffffffffffffffffffffffffffffffffffffff1673ffffffffffffffffffffffffffffffffffffffff1681526020019081526020016000205410612518576040517f08c379a000000000000000000000000000000000000000000000000000000000815260040161250f9061459c565b60405180910390fd5b612642565b60008054906101000a900473ffffffffffffffffffffffffffffffffffffffff1673ffffffffffffffffffffffffffffffffffffffff168473ffffffffffffffffffffffffffffffffffffffff1614806125b757506000600360008673ffffffffffffffffffffffffffffffffffffffff1673ffffffffffffffffffffffffffffffffffffffff1681526020019081526020016000205414155b1561264157600a54600b60003373ffffffffffffffffffffffffffffffffffffffff1673ffffffffffffffffffffffffffffffffffffffff168152602001908152602001600020541015612640576040517f08c379a00000000000000000000000000000000000000000000000000000000081526004016126379061462e565b60405180910390fd5b5b5b612650565b60009150612663565b5b5b61265d338585612f7c565b50600191505b5092915050565b6002818154811061267a57600080fd5b906000526020600020906004020160009150905080600001805461269d90613a82565b80601f01602080910402602001604051908101604052809291908181526020018280546126c990613a82565b80156127165780601f106126eb57610100808354040283529160200191612716565b820191906000526020600020905b8154815290600101906020018083116126f957829003601f168201915b5050505050908060010160009054906101000a900473ffffffffffffffffffffffffffffffffffffffff169080600201805461275190613a82565b80601f016020809104026020016040519081016040528092919081815260200182805461277d90613a82565b80156127ca5780601f1061279f576101008083540402835291602001916127ca565b820191906000526020600020905b8154815290600101906020018083116127ad57829003601f168201915b5050505050908060030154905084565b60055481565b6000600c60008473ffffffffffffffffffffffffffffffffffffffff1673ffffffffffffffffffffffffffffffffffffffff16815260200190815260200160002060008373ffffffffffffffffffffffffffffffffffffffff1673ffffffffffffffffffffffffffffffffffffffff16815260200190815260200160002054905092915050565b60036020528060005260406000206000915090505481565b6000806002838154811061289657612895613ca6565b5b9060005260206000209060040201905060008160030154856128b891906148d6565b9050809250505092915050565b600080600360003373ffffffffffffffffffffffffffffffffffffffff1673ffffffffffffffffffffffffffffffffffffffff16815260200190815260200160002054141580612960575060008054906101000a900473ffffffffffffffffffffffffffffffffffffffff1673ffffffffffffffffffffffffffffffffffffffff163373ffffffffffffffffffffffffffffffffffffffff16145b61299f576040517f08c379a000000000000000000000000000000000000000000000000000000000815260040161299690614979565b60405180910390fd5b60008054906101000a900473ffffffffffffffffffffffffffffffffffffffff1673ffffffffffffffffffffffffffffffffffffffff163373ffffffffffffffffffffffffffffffffffffffff1603612a79576000600360008673ffffffffffffffffffffffffffffffffffffffff1673ffffffffffffffffffffffffffffffffffffffff1681526020019081526020016000205403612a74576040517f08c379a0000000000000000000000000000000000000000000000000000000008152600401612a6b90614a0b565b60405180910390fd5b612b9b565b6000600360003373ffffffffffffffffffffffffffffffffffffffff1673ffffffffffffffffffffffffffffffffffffffff1681526020019081526020016000205414612b9a576000600460008673ffffffffffffffffffffffffffffffffffffffff1673ffffffffffffffffffffffffffffffffffffffff16815260200190815260200160002054141580612b5a575060008054906101000a900473ffffffffffffffffffffffffffffffffffffffff1673ffffffffffffffffffffffffffffffffffffffff168473ffffffffffffffffffffffffffffffffffffffff16145b612b99576040517f08c379a0000000000000000000000000000000000000000000000000000000008152600401612b9090614a9d565b60405180910390fd5b5b5b612bc833601060009054906101000a900473ffffffffffffffffffffffffffffffffffffffff1685612f7c565b5060006040518060400160405280858152602001848152509050600e60003373ffffffffffffffffffffffffffffffffffffffff1673ffffffffffffffffffffffffffffffffffffffff16815260200190815260200160002060008673ffffffffffffffffffffffffffffffffffffffff1673ffffffffffffffffffffffffffffffffffffffff1681526020019081526020016000208190806001815401808255809150506001900390600052602060002090600202016000909190919091506000820151816000015560208201518160010155505083600f60008773ffffffffffffffffffffffffffffffffffffffff1673ffffffffffffffffffffffffffffffffffffffff1681526020019081526020016000206000828254612ced9190613be0565b9250508190555060006001600e60003373ffffffffffffffffffffffffffffffffffffffff1673ffffffffffffffffffffffffffffffffffffffff16815260200190815260200160002060008873ffffffffffffffffffffffffffffffffffffffff1673ffffffffffffffffffffffffffffffffffffffff16815260200190815260200160002080549050612d829190613dd3565b90507f989eaa915cbb416ea3d6f9a63b1a3de51770c7674b11fe21ecdf76b4e1d13910338783604051612db793929190614870565b60405180910390a180925050509392505050565b60046020528060005260406000206000915090505481565b81600073ffffffffffffffffffffffffffffffffffffffff168173ffffffffffffffffffffffffffffffffffffffff1603612e53576040517f08c379a0000000000000000000000000000000000000000000000000000000008152600401612e4a90613e53565b60405180910390fd5b600073ffffffffffffffffffffffffffffffffffffffff168473ffffffffffffffffffffffffffffffffffffffff1603612e9057612e8f6143a7565b5b81600c60008673ffffffffffffffffffffffffffffffffffffffff1673ffffffffffffffffffffffffffffffffffffffff16815260200190815260200160002060008573ffffffffffffffffffffffffffffffffffffffff1673ffffffffffffffffffffffffffffffffffffffff168152602001908152602001600020819055508273ffffffffffffffffffffffffffffffffffffffff168473ffffffffffffffffffffffffffffffffffffffff167f8c5be1e5ebec7d5bd14f71427d1e84f3dd0314c0f7b2291e5b200ac8c7c3b92584604051612f6e91906135e7565b60405180910390a350505050565b600081600b60008673ffffffffffffffffffffffffffffffffffffffff1673ffffffffffffffffffffffffffffffffffffffff16815260200190815260200160002054612fc99190613dd3565b600b60008673ffffffffffffffffffffffffffffffffffffffff1673ffffffffffffffffffffffffffffffffffffffff1681526020019081526020016000208190555081600b60008573ffffffffffffffffffffffffffffffffffffffff1673ffffffffffffffffffffffffffffffffffffffff168152602001908152602001600020546130579190613be0565b600b60008573ffffffffffffffffffffffffffffffffffffffff1673ffffffffffffffffffffffffffffffffffffffff168152602001908152602001600020819055508273ffffffffffffffffffffffffffffffffffffffff168473ffffffffffffffffffffffffffffffffffffffff167fddf252ad1be2c89b69c2b068fc378daa952ba7f163c4a11628f55a4df523b3ef846040516130f791906135e7565b60405180910390a3600190509392505050565b6000600d60008573ffffffffffffffffffffffffffffffffffffffff1673ffffffffffffffffffffffffffffffffffffffff16815260200190815260200160002060008473ffffffffffffffffffffffffffffffffffffffff1673ffffffffffffffffffffffffffffffffffffffff1681526020019081526020016000205490506000600c60008673ffffffffffffffffffffffffffffffffffffffff1673ffffffffffffffffffffffffffffffffffffffff16815260200190815260200160002060008573ffffffffffffffffffffffffffffffffffffffff1673ffffffffffffffffffffffffffffffffffffffff1681526020019081526020016000205490506000818310156132255782826132229190613dd3565b90505b83811015613268576040517f08c379a000000000000000000000000000000000000000000000000000000000815260040161325f90614b2f565b60405180910390fd5b83600b60008873ffffffffffffffffffffffffffffffffffffffff1673ffffffffffffffffffffffffffffffffffffffff1681526020019081526020016000205410156132ea576040517f08c379a00000000000000000000000000000000000000000000000000000000081526004016132e190614bc1565b60405180910390fd5b83836132f69190613be0565b600d60008873ffffffffffffffffffffffffffffffffffffffff1673ffffffffffffffffffffffffffffffffffffffff16815260200190815260200160002060008773ffffffffffffffffffffffffffffffffffffffff1673ffffffffffffffffffffffffffffffffffffffff16815260200190815260200160002081905550505050505050565b50805461338a90613a82565b6000825580601f1061339c57506133bb565b601f0160209004906000526020600020908101906133ba91906133be565b5b50565b5b808211156133d75760008160009055506001016133bf565b5090565b600081519050919050565b600082825260208201905092915050565b60005b838110156134155780820151818401526020810190506133fa565b60008484015250505050565b6000601f19601f8301169050919050565b600061343d826133db565b61344781856133e6565b93506134578185602086016133f7565b61346081613421565b840191505092915050565b600060208201905081810360008301526134858184613432565b905092915050565b6000604051905090565b600080fd5b600080fd5b600073ffffffffffffffffffffffffffffffffffffffff82169050919050565b60006134cc826134a1565b9050919050565b6134dc816134c1565b81146134e757600080fd5b50565b6000813590506134f9816134d3565b92915050565b6000819050919050565b613512816134ff565b811461351d57600080fd5b50565b60008135905061352f81613509565b92915050565b6000806040838503121561354c5761354b613497565b5b600061355a858286016134ea565b925050602061356b85828601613520565b9150509250929050565b60008115159050919050565b61358a81613575565b82525050565b60006020820190506135a56000830184613581565b92915050565b6000602082840312156135c1576135c0613497565b5b60006135cf84828501613520565b91505092915050565b6135e1816134ff565b82525050565b60006020820190506135fc60008301846135d8565b92915050565b60008060006060848603121561361b5761361a613497565b5b6000613629868287016134ea565b935050602061363a86828701613520565b925050604061364b86828701613520565b9150509250925092565b600080fd5b600080fd5b7f4e487b7100000000000000000000000000000000000000000000000000000000600052604160045260246000fd5b61369782613421565b810181811067ffffffffffffffff821117156136b6576136b561365f565b5b80604052505050565b60006136c961348d565b90506136d5828261368e565b919050565b600067ffffffffffffffff8211156136f5576136f461365f565b5b6136fe82613421565b9050602081019050919050565b82818337600083830152505050565b600061372d613728846136da565b6136bf565b9050828152602081018484840111156137495761374861365a565b5b61375484828561370b565b509392505050565b600082601f83011261377157613770613655565b5b813561378184826020860161371a565b91505092915050565b6000613795826134a1565b9050919050565b6137a58161378a565b81146137b057600080fd5b50565b6000813590506137c28161379c565b92915050565b600080600080608085870312156137e2576137e1613497565b5b600085013567ffffffffffffffff811115613800576137ff61349c565b5b61380c8782880161375c565b945050602061381d878288016137b3565b935050604085013567ffffffffffffffff81111561383e5761383d61349c565b5b61384a8782880161375c565b925050606061385b87828801613520565b91505092959194509250565b6000806000606084860312156138805761387f613497565b5b600061388e868287016134ea565b935050602061389f868287016134ea565b92505060406138b086828701613520565b9150509250925092565b600060ff82169050919050565b6138d0816138ba565b82525050565b60006020820190506138eb60008301846138c7565b92915050565b60006020828403121561390757613906613497565b5b6000613915848285016134ea565b91505092915050565b6000806040838503121561393557613934613497565b5b6000613943858286016134ea565b9250506020613954858286016134ea565b9150509250929050565b613967816134c1565b82525050565b6000602082019050613982600083018461395e565b92915050565b600060408201905061399d60008301856135d8565b6139aa60208301846135d8565b9392505050565b6139ba8161378a565b82525050565b600060808201905081810360008301526139da8187613432565b90506139e960208301866139b1565b81810360408301526139fb8185613432565b9050613a0a60608301846135d8565b95945050505050565b60008060408385031215613a2a57613a29613497565b5b6000613a3885828601613520565b9250506020613a4985828601613520565b9150509250929050565b7f4e487b7100000000000000000000000000000000000000000000000000000000600052602260045260246000fd5b60006002820490506001821680613a9a57607f821691505b602082108103613aad57613aac613a53565b5b50919050565b7f45524332303a204f6e6c7920706172746e65727320616e6420636c69656e732060008201527f63616e20617070726f7665207370656e646572732e0000000000000000000000602082015250565b6000613b0f6035836133e6565b9150613b1a82613ab3565b604082019050919050565b60006020820190508181036000830152613b3e81613b02565b9050919050565b7f4f776e65723a2043616c6c6572206973206e6f74206f776e6572000000000000600082015250565b6000613b7b601a836133e6565b9150613b8682613b45565b602082019050919050565b60006020820190508181036000830152613baa81613b6e565b9050919050565b7f4e487b7100000000000000000000000000000000000000000000000000000000600052601160045260246000fd5b6000613beb826134ff565b9150613bf6836134ff565b9250828201905080821115613c0e57613c0d613bb1565b5b92915050565b7f4c6f636b65723a204f6e6c7920706172746e657273206f72206f776e6572206360008201527f616e20616c7465722061206c6f636b2e00000000000000000000000000000000602082015250565b6000613c706030836133e6565b9150613c7b82613c14565b604082019050919050565b60006020820190508181036000830152613c9f81613c63565b9050919050565b7f4e487b7100000000000000000000000000000000000000000000000000000000600052603260045260246000fd5b7f4c6f636b65723a20416d6f756e7420697320746f6f20686967682e0000000000600082015250565b6000613d0b601b836133e6565b9150613d1682613cd5565b602082019050919050565b60006020820190508181036000830152613d3a81613cfe565b9050919050565b7f4c6f636b65723a204f7074696f6e207265647563696e67206c6f636b6564207460008201527f6f6b656e7320697320657870697265642e000000000000000000000000000000602082015250565b6000613d9d6031836133e6565b9150613da882613d41565b604082019050919050565b60006020820190508181036000830152613dcc81613d90565b9050919050565b6000613dde826134ff565b9150613de9836134ff565b9250828203905081811115613e0157613e00613bb1565b5b92915050565b7f456e74657265642061646472657373206973206e756c6c2e0000000000000000600082015250565b6000613e3d6018836133e6565b9150613e4882613e07565b602082019050919050565b60006020820190508181036000830152613e6c81613e30565b9050919050565b7f506172746e65723a20546865206164647265737320697320616c72656164792060008201527f6120706172746e65722e00000000000000000000000000000000000000000000602082015250565b6000613ecf602a836133e6565b9150613eda82613e73565b604082019050919050565b60006020820190508181036000830152613efe81613ec2565b9050919050565b7f506172746e65723a20546865206f776e65722063616e6e6f742062652061207060008201527f6172746e65722e00000000000000000000000000000000000000000000000000602082015250565b6000613f616027836133e6565b9150613f6c82613f05565b604082019050919050565b60006020820190508181036000830152613f9081613f54565b9050919050565b7f506172746e65723a204120636c69656e742063616e6e6f74206265206120706160008201527f72746e65722e0000000000000000000000000000000000000000000000000000602082015250565b6000613ff36026836133e6565b9150613ffe82613f97565b604082019050919050565b6000602082019050818103600083015261402281613fe6565b9050919050565b7f506172746e65723a205468652076616c756520666f72206120546f6b656e207360008201527f686f756c64206265206174206c65617374203120696e2074686520637572726560208201527f6e63792e00000000000000000000000000000000000000000000000000000000604082015250565b60006140ab6044836133e6565b91506140b682614029565b606082019050919050565b600060208201905081810360008301526140da8161409e565b9050919050565b60008190508160005260206000209050919050565b60006020601f8301049050919050565b600082821b905092915050565b6000600883026141437fffffffffffffffffffffffffffffffffffffffffffffffffffffffffffffffff82614106565b61414d8683614106565b95508019841693508086168417925050509392505050565b6000819050919050565b600061418a614185614180846134ff565b614165565b6134ff565b9050919050565b6000819050919050565b6141a48361416f565b6141b86141b082614191565b848454614113565b825550505050565b600090565b6141cd6141c0565b6141d881848461419b565b505050565b5b818110156141fc576141f16000826141c5565b6001810190506141de565b5050565b601f82111561424157614212816140e1565b61421b846140f6565b8101602085101561422a578190505b61423e614236856140f6565b8301826141dd565b50505b505050565b600082821c905092915050565b600061426460001984600802614246565b1980831691505092915050565b600061427d8383614253565b9150826002028217905092915050565b614296826133db565b67ffffffffffffffff8111156142af576142ae61365f565b5b6142b98254613a82565b6142c4828285614200565b600060209050601f8311600181146142f757600084156142e5578287015190505b6142ef8582614271565b865550614357565b601f198416614305866140e1565b60005b8281101561432d57848901518255600182019150602085019450602081019050614308565b8683101561434a5784890151614346601f891682614253565b8355505b6001600288020188555050505b505050505050565b600061436a826134ff565b91507fffffffffffffffffffffffffffffffffffffffffffffffffffffffffffffffff820361439c5761439b613bb1565b5b600182019050919050565b7f4e487b7100000000000000000000000000000000000000000000000000000000600052600160045260246000fd5b60006040820190506143eb60008301856135d8565b81810360208301526143fd8184613432565b90509392505050565b7f45524332303a204f776e65722063616e206f6e6c792073656e6420746f20706160008201527f72746e6572732e00000000000000000000000000000000000000000000000000602082015250565b60006144626027836133e6565b915061446d82614406565b604082019050919050565b6000602082019050818103600083015261449181614455565b9050919050565b7f45524332303a20506172746e6572732063616e206f6e6c792073656e6420746f60008201527f20636c69656e747320616e64206f776e65722e00000000000000000000000000602082015250565b60006144f46033836133e6565b91506144ff82614498565b604082019050919050565b60006020820190508181036000830152614523816144e7565b9050919050565b7f45524332303a20436c69656e74732062616c616e63652069732068696768657260008201527f207468616e206d696e546f6b656e73546f52656465656d2e0000000000000000602082015250565b60006145866038836133e6565b91506145918261452a565b604082019050919050565b600060208201905081810360008301526145b581614579565b9050919050565b7f45524332303a20436c69656e74732062616c616e6365206973206c6f7765722060008201527f7468616e206d696e546f6b656e73546f52656465656d2e000000000000000000602082015250565b60006146186037836133e6565b9150614623826145bc565b604082019050919050565b600060208201905081810360008301526146478161460b565b9050919050565b7f436c69656e743a20436c69656e7420616c726561647920657869737473000000600082015250565b6000614684601d836133e6565b915061468f8261464e565b602082019050919050565b600060208201905081810360008301526146b381614677565b9050919050565b7f436c69656e743a20546865206164647265737320697320616c7265616479206160008201527f20706172746e6572210000000000000000000000000000000000000000000000602082015250565b60006147166029836133e6565b9150614721826146ba565b604082019050919050565b6000602082019050818103600083015261474581614709565b9050919050565b7f436c69656e743a20436f6e7472616374206f776e65722063616e6e6f7420626560008201527f206120636c69656e740000000000000000000000000000000000000000000000602082015250565b60006147a86029836133e6565b91506147b38261474c565b604082019050919050565b600060208201905081810360008301526147d78161479b565b9050919050565b7f4c6f636b65723a204974206973206561726c7920746f2072656c65617365207460008201527f686520746f6b656e732e00000000000000000000000000000000000000000000602082015250565b600061483a602a836133e6565b9150614845826147de565b604082019050919050565b600060208201905081810360008301526148698161482d565b9050919050565b6000606082019050614885600083018661395e565b614892602083018561395e565b61489f60408301846135d8565b949350505050565b7f4e487b7100000000000000000000000000000000000000000000000000000000600052601260045260246000fd5b60006148e1826134ff565b91506148ec836134ff565b9250826148fc576148fb6148a7565b5b828204905092915050565b7f4c6f636b65723a204f6e6c7920706172746e657273206f72206f776e6572206360008201527f616e206c6f636b2e000000000000000000000000000000000000000000000000602082015250565b60006149636028836133e6565b915061496e82614907565b604082019050919050565b6000602082019050818103600083015261499281614956565b9050919050565b7f45524332303a204f776e65722063616e206f6e6c79206c6f636b207472616e7360008201527f616374696f6e7320746f20706172746e6572732e000000000000000000000000602082015250565b60006149f56034836133e6565b9150614a0082614999565b604082019050919050565b60006020820190508181036000830152614a24816149e8565b9050919050565b7f45524332303a20506172746e6572732063616e206f6e6c79206c6f636b20747260008201527f616e73616374696f6e7320746f20636c69656e747320616e64206f776e65722e602082015250565b6000614a876040836133e6565b9150614a9282614a2b565b604082019050919050565b60006020820190508181036000830152614ab681614a7a565b9050919050565b7f45524332303a20616d6f756e7420697320686967686572207468616e2074686560008201527f207370656e64696e67207265737420616c6c6f7765642e000000000000000000602082015250565b6000614b196037836133e6565b9150614b2482614abd565b604082019050919050565b60006020820190508181036000830152614b4881614b0c565b9050919050565b7f45524332303a20746865206f776e657220646f65736e2774206861766520656e60008201527f6f75676820746f6b656e7320746f206265207370656e742e0000000000000000602082015250565b6000614bab6038836133e6565b9150614bb682614b4f565b604082019050919050565b60006020820190508181036000830152614bda81614b9e565b905091905056fea2646970667358221220fae077f50ebe705f4283e03394d3e1aaf1591912364dd13ef53a18f9f8f4cbb264736f6c63430008130033",
  "immutableReferences": {},
  "source": "// SPDX-License-Identifier: MIT\r\npragma solidity ^0.8.19;\r\nimport \"./3_PaybackToken.sol\";\r\n\r\n//(https://www.payback.group/de/payback-group/ueber-payback/daten-und-fakten)\r\n// Gesammelte Punkte im Wert von 500 Mio. EUR => 50 Mrd. Tokens\r\n\r\ncontract PaybackLocker is PaybackToken(\"PayBackToken\", \"PBT\", 1000000, 0, 300) {\r\n    struct Item {\r\n        uint256 amount;\r\n        uint256 unlockDate;\r\n    }\r\n\r\n    mapping(address => mapping(address => Item[]))\r\n        private lockerToReceiverToItem;\r\n\r\n    mapping(address => uint256) public lockedBalanceOf;\r\n    address private _contractAddr = address(this);\r\n\r\n    event Locked(address locker, address receiver, uint256 id);\r\n    event Released(address locker, address receiver, uint256 id);\r\n\r\n    /**\r\n     * @dev Transfers the _amount of tokens from the msg.senders account \r\n     * to this contract until the _unlockDate\r\n     * @param _receiver - The address where tokens should be transferred \r\n     * after time is up.\r\n     * \r\n     * locking is done by the contract owner or partner\r\n     * @return A uint specifying the id of the locked item.\r\n     */\r\n    function lock(\r\n        address _receiver,\r\n        uint256 _amount,\r\n        uint256 _unlockDate\r\n    ) public returns (uint256) {\r\n        require(\r\n            addrToPartnerId[msg.sender] != 0 || msg.sender == _owner,\r\n            \"Locker: Only partners or owner can lock.\"\r\n        );\r\n\r\n        // case 1. sender is owner\r\n        if (msg.sender == _owner) {\r\n            require(\r\n                addrToPartnerId[_receiver] != 0,\r\n                \"ERC20: Owner can only lock transactions to partners.\"\r\n            );\r\n        }\r\n        //case 2. sender is partner\r\n        else if (addrToPartnerId[msg.sender] != 0) {\r\n            require(\r\n                addrToClientId[_receiver] != 0 || _receiver == _owner,\r\n                \"ERC20: Partners can only lock transactions to clients and owner.\"\r\n            );\r\n        }\r\n        _transfer(msg.sender, _contractAddr, _amount);\r\n\r\n        Item memory newItem = Item(_amount, _unlockDate);\r\n        lockerToReceiverToItem[msg.sender][_receiver].push(newItem);\r\n        lockedBalanceOf[_receiver] += _amount;\r\n        uint256 id = lockerToReceiverToItem[msg.sender][_receiver].length - 1;\r\n        emit Locked(msg.sender, _receiver, id);\r\n\r\n        return id;\r\n    }\r\n\r\n    // @dev Enables the contract owner to release locked items if their unlockDate allows\r\n    function releaseLock(\r\n        address _locker,\r\n        address _receiver,\r\n        uint256 _id\r\n    ) public isOwner {\r\n        //https://medium.com/coinmonks/solidity-storage-vs-memory-vs-calldata-8c7e8c38bce\r\n        Item memory the_item = lockerToReceiverToItem[_locker][_receiver][_id];\r\n\r\n        require(\r\n            the_item.unlockDate <= block.timestamp,\r\n            \"Locker: It is early to release the tokens.\"\r\n        );\r\n\r\n        _transfer(_contractAddr, _receiver, the_item.amount);\r\n        lockedBalanceOf[_receiver] -= the_item.amount;\r\n        delete lockerToReceiverToItem[_locker][_receiver][_id];\r\n        emit Released(_locker, _receiver, _id);\r\n    }\r\n\r\n    // @dev Lets the locker to alter the locked amount before the release Date is due.\r\n    function reduceItemTokens(\r\n        address _receiver,\r\n        uint256 _id,\r\n        uint256 _amount\r\n    ) public {\r\n        require(\r\n            addrToPartnerId[msg.sender] != 0 || msg.sender == _owner,\r\n            \"Locker: Only partners or owner can alter a lock.\"\r\n        );\r\n        Item memory the_item = lockerToReceiverToItem[msg.sender][_receiver][\r\n            _id\r\n        ];\r\n\r\n        require(the_item.amount > _amount, \"Locker: Amount is too high.\");\r\n\r\n        require(\r\n            the_item.unlockDate > block.timestamp,\r\n            \"Locker: Option reducing locked tokens is expired.\"\r\n        );\r\n        lockerToReceiverToItem[msg.sender][_receiver][_id].amount =\r\n            the_item.amount -\r\n            _amount;\r\n        lockedBalanceOf[_receiver] -= _amount;\r\n        _transfer(_contractAddr, msg.sender, _amount);\r\n    }\r\n\r\n    // @returns the current time in the blockchain in epoch seconds\r\n    function getCurrentTime() public view returns (uint256) {\r\n        return block.timestamp;\r\n    }\r\n\r\n    // @returns the number of locked items between 2 users\r\n    function getNrLockedItems(address _locker, address _receiver)\r\n        public\r\n        view\r\n        returns (uint256)\r\n    {\r\n        return lockerToReceiverToItem[_locker][_receiver].length;\r\n    }\r\n\r\n    // @returns the locked item between 2 users with specific id\r\n    function getLockedItem(\r\n        address _locker,\r\n        address _receiver,\r\n        uint256 _id\r\n    ) public view returns (uint256, uint256) {\r\n        Item memory the_item = lockerToReceiverToItem[_locker][_receiver][_id];\r\n        return (the_item.amount, the_item.unlockDate);\r\n    }\r\n}\r\n",
  "sourcePath": "C:\\Users\\aselim\\Documents\\GitHub\\PayBackOnBlockchain\\payback-token-truffle\\contracts\\4_PayBackLocker.sol",
  "compiler": {
    "name": "solc",
    "version": "0.8.19+commit.7dd6d404.Emscripten.clang"
  },
  "schemaVersion": "3.4.14",
  "updatedAt": "2023-09-20T17:32:08.546Z",
  "networkType": "ethereum",
  "devdoc": {
    "events": {
      "Approval(address,address,uint256)": {
        "details": "Emitted when the allowance of a `spender` for an `owner` is set by a call to {approve}. `value` is the new allowance."
      },
      "Transfer(address,address,uint256)": {
        "details": "Emitted when `value` tokens are moved from one account (`from`) to another (`to`). Note that `value` may be zero."
      }
    },
    "kind": "dev",
    "methods": {
      "addClient(address)": {
        "details": "Owner can add new clients",
        "returns": {
          "_0": "new client id"
        }
      },
      "allowance(address,address)": {
        "details": "Function to check the total amount of  tokens than an owner allowed to a spender.",
        "params": {
          "_owner": "address The address which owns the funds.",
          "_spender": "address The address which will spend the funds."
        },
        "returns": {
          "_0": "A uint specifying the total amount of tokens that  the spender is allowed to spend."
        }
      },
      "approve(address,uint256)": {
        "details": "Sets `amount` as the allowance of `spender` over the caller's tokens. Partners and clients can allow accounts or  smart contracts to manage their tokens. The owner is also allowed to be the spender. Returns a boolean value indicating whether the operation succeeded. Emits an {Approval} event."
      },
      "balanceOf(address)": {
        "details": "Returns the amount of tokens owned by `account`."
      },
      "getOwner()": {
        "details": "Return owner address",
        "returns": {
          "_0": "address of owner"
        }
      },
      "lock(address,uint256,uint256)": {
        "details": "Transfers the _amount of tokens from the msg.senders account  to this contract until the _unlockDate",
        "params": {
          "_receiver": "- The address where tokens should be transferred  after time is up.  locking is done by the contract owner or partner"
        },
        "returns": {
          "_0": "A uint specifying the id of the locked item."
        }
      },
      "transfer(address,uint256)": {
        "details": "Requirements: - `to` cannot be the zero address. - the caller must have a balance of at least `amount`. - transfers of 0 values MUST be treated as normal transfers and fire the Transfer event."
      },
      "transferFrom(address,address,uint256)": {
        "details": "Moves `amount` tokens from `from` to `to` using the allowance mechanism. `amount` is then deducted from the caller's allowance. Returns a boolean value indicating whether the operation succeeded. Emits a {Transfer} event."
      },
      "transferredFromAllowance(address,address)": {
        "details": "Function to check the amount of tokens actually  transferred from an owner to a spender. this separation is needed to avoid the Multiple Withdrawal Attack",
        "params": {
          "_owner": "address The address which owns the funds.",
          "_spender": "address The address which will spend the funds."
        },
        "returns": {
          "_0": "A uint specifying the amount of tokens that  the spender actually has spend."
        }
      }
    },
    "version": 1
  },
  "userdoc": {
    "kind": "user",
    "methods": {},
    "version": 1
  }
}