{
  "contractName": "PayBackToken",
  "abi": [
    {
      "inputs": [
        {
          "internalType": "string",
          "name": "name_",
          "type": "string"
        },
        {
          "internalType": "string",
          "name": "symbol_",
          "type": "string"
        },
        {
          "internalType": "uint256",
          "name": "initialSupply_",
          "type": "uint256"
        },
        {
          "internalType": "uint256",
          "name": "decimals_",
          "type": "uint256"
        }
      ],
      "stateMutability": "nonpayable",
      "type": "constructor"
    },
    {
      "anonymous": false,
      "inputs": [
        {
          "indexed": true,
          "internalType": "address",
          "name": "owner",
          "type": "address"
        },
        {
          "indexed": true,
          "internalType": "address",
          "name": "spender",
          "type": "address"
        },
        {
          "indexed": false,
          "internalType": "uint256",
          "name": "value",
          "type": "uint256"
        }
      ],
      "name": "Approval",
      "type": "event"
    },
    {
      "anonymous": false,
      "inputs": [
        {
          "indexed": true,
          "internalType": "address",
          "name": "oldOwner",
          "type": "address"
        },
        {
          "indexed": true,
          "internalType": "address",
          "name": "newOwner",
          "type": "address"
        }
      ],
      "name": "OwnerSet",
      "type": "event"
    },
    {
      "anonymous": false,
      "inputs": [
        {
          "indexed": false,
          "internalType": "uint256",
          "name": "partnerId",
          "type": "uint256"
        },
        {
          "indexed": false,
          "internalType": "string",
          "name": "name",
          "type": "string"
        }
      ],
      "name": "PartnerAdded",
      "type": "event"
    },
    {
      "anonymous": false,
      "inputs": [
        {
          "indexed": true,
          "internalType": "address",
          "name": "from",
          "type": "address"
        },
        {
          "indexed": true,
          "internalType": "address",
          "name": "to",
          "type": "address"
        },
        {
          "indexed": false,
          "internalType": "uint256",
          "name": "value",
          "type": "uint256"
        }
      ],
      "name": "Transfer",
      "type": "event"
    },
    {
      "inputs": [],
      "name": "_decimals",
      "outputs": [
        {
          "internalType": "uint256",
          "name": "",
          "type": "uint256"
        }
      ],
      "stateMutability": "view",
      "type": "function",
      "constant": true
    },
    {
      "inputs": [
        {
          "internalType": "string",
          "name": "_name",
          "type": "string"
        },
        {
          "internalType": "address payable",
          "name": "_addr",
          "type": "address"
        },
        {
          "internalType": "string",
          "name": "_currency",
          "type": "string"
        },
        {
          "internalType": "uint256",
          "name": "_valueForToken",
          "type": "uint256"
        }
      ],
      "name": "addPartner",
      "outputs": [
        {
          "internalType": "bool",
          "name": "",
          "type": "bool"
        }
      ],
      "stateMutability": "nonpayable",
      "type": "function"
    },
    {
      "inputs": [
        {
          "internalType": "address",
          "name": "",
          "type": "address"
        }
      ],
      "name": "addrToPartner",
      "outputs": [
        {
          "internalType": "string",
          "name": "name",
          "type": "string"
        },
        {
          "internalType": "address payable",
          "name": "walletAddr",
          "type": "address"
        },
        {
          "internalType": "string",
          "name": "currency",
          "type": "string"
        },
        {
          "internalType": "uint256",
          "name": "valueForToken",
          "type": "uint256"
        }
      ],
      "stateMutability": "view",
      "type": "function",
      "constant": true
    },
    {
      "inputs": [
        {
          "internalType": "uint256",
          "name": "_roundValue",
          "type": "uint256"
        },
        {
          "internalType": "uint256",
          "name": "_partnerId",
          "type": "uint256"
        }
      ],
      "name": "calcPointsToEarn",
      "outputs": [
        {
          "internalType": "uint256",
          "name": "",
          "type": "uint256"
        }
      ],
      "stateMutability": "view",
      "type": "function",
      "constant": true
    },
    {
      "inputs": [],
      "name": "getOwner",
      "outputs": [
        {
          "internalType": "address",
          "name": "",
          "type": "address"
        }
      ],
      "stateMutability": "view",
      "type": "function",
      "constant": true
    },
    {
      "inputs": [],
      "name": "numPartner",
      "outputs": [
        {
          "internalType": "uint256",
          "name": "",
          "type": "uint256"
        }
      ],
      "stateMutability": "view",
      "type": "function",
      "constant": true
    },
    {
      "inputs": [
        {
          "internalType": "uint256",
          "name": "",
          "type": "uint256"
        }
      ],
      "name": "partners",
      "outputs": [
        {
          "internalType": "string",
          "name": "name",
          "type": "string"
        },
        {
          "internalType": "address payable",
          "name": "walletAddr",
          "type": "address"
        },
        {
          "internalType": "string",
          "name": "currency",
          "type": "string"
        },
        {
          "internalType": "uint256",
          "name": "valueForToken",
          "type": "uint256"
        }
      ],
      "stateMutability": "view",
      "type": "function",
      "constant": true
    },
    {
      "inputs": [],
      "name": "totalSupply",
      "outputs": [
        {
          "internalType": "uint256",
          "name": "",
          "type": "uint256"
        }
      ],
      "stateMutability": "view",
      "type": "function",
      "constant": true
    },
    {
      "inputs": [
        {
          "internalType": "address",
          "name": "account",
          "type": "address"
        }
      ],
      "name": "balanceOf",
      "outputs": [
        {
          "internalType": "uint256",
          "name": "",
          "type": "uint256"
        }
      ],
      "stateMutability": "view",
      "type": "function",
      "constant": true
    },
    {
      "inputs": [
        {
          "internalType": "address",
          "name": "_to",
          "type": "address"
        },
        {
          "internalType": "uint256",
          "name": "_amount",
          "type": "uint256"
        }
      ],
      "name": "transfer",
      "outputs": [
        {
          "internalType": "bool",
          "name": "",
          "type": "bool"
        }
      ],
      "stateMutability": "nonpayable",
      "type": "function"
    },
    {
      "inputs": [
        {
          "internalType": "address",
          "name": "_owner",
          "type": "address"
        },
        {
          "internalType": "address",
          "name": "_spender",
          "type": "address"
        }
      ],
      "name": "allowance",
      "outputs": [
        {
          "internalType": "uint256",
          "name": "",
          "type": "uint256"
        }
      ],
      "stateMutability": "view",
      "type": "function",
      "constant": true
    },
    {
      "inputs": [
        {
          "internalType": "address",
          "name": "_spender",
          "type": "address"
        },
        {
          "internalType": "uint256",
          "name": "_amount",
          "type": "uint256"
        }
      ],
      "name": "approve",
      "outputs": [
        {
          "internalType": "bool",
          "name": "",
          "type": "bool"
        }
      ],
      "stateMutability": "nonpayable",
      "type": "function"
    },
    {
      "inputs": [
        {
          "internalType": "address",
          "name": "_from",
          "type": "address"
        },
        {
          "internalType": "address",
          "name": "_to",
          "type": "address"
        },
        {
          "internalType": "uint256",
          "name": "_amount",
          "type": "uint256"
        }
      ],
      "name": "transferFrom",
      "outputs": [
        {
          "internalType": "bool",
          "name": "",
          "type": "bool"
        }
      ],
      "stateMutability": "nonpayable",
      "type": "function"
    },
    {
      "inputs": [
        {
          "internalType": "uint256",
          "name": "_amount",
          "type": "uint256"
        }
      ],
      "name": "loadTotalSupply",
      "outputs": [
        {
          "internalType": "bool",
          "name": "",
          "type": "bool"
        }
      ],
      "stateMutability": "nonpayable",
      "type": "function"
    }
  ],
  "bytecode": "0x60806040523480156200001157600080fd5b5060405162002ea838038062002ea8833981810160405281019062000037919062000369565b336000806101000a81548173ffffffffffffffffffffffffffffffffffffffff021916908373ffffffffffffffffffffffffffffffffffffffff16021790555060008054906101000a900473ffffffffffffffffffffffffffffffffffffffff1673ffffffffffffffffffffffffffffffffffffffff16600073ffffffffffffffffffffffffffffffffffffffff167f342827c97908e5e2f71151c08502a66d44b6f758e3ac2f1de95f02eb95f0a73560405160405180910390a3600060018190555083600790816200010b91906200065a565b5082600890816200011d91906200065a565b50816006819055508060098190555081600460008060009054906101000a900473ffffffffffffffffffffffffffffffffffffffff1673ffffffffffffffffffffffffffffffffffffffff1673ffffffffffffffffffffffffffffffffffffffff168152602001908152602001600020819055505050505062000741565b6000604051905090565b600080fd5b600080fd5b600080fd5b600080fd5b6000601f19601f8301169050919050565b7f4e487b7100000000000000000000000000000000000000000000000000000000600052604160045260246000fd5b6200020482620001b9565b810181811067ffffffffffffffff82111715620002265762000225620001ca565b5b80604052505050565b60006200023b6200019b565b9050620002498282620001f9565b919050565b600067ffffffffffffffff8211156200026c576200026b620001ca565b5b6200027782620001b9565b9050602081019050919050565b60005b83811015620002a457808201518184015260208101905062000287565b60008484015250505050565b6000620002c7620002c1846200024e565b6200022f565b905082815260208101848484011115620002e657620002e5620001b4565b5b620002f384828562000284565b509392505050565b600082601f830112620003135762000312620001af565b5b815162000325848260208601620002b0565b91505092915050565b6000819050919050565b62000343816200032e565b81146200034f57600080fd5b50565b600081519050620003638162000338565b92915050565b60008060008060808587031215620003865762000385620001a5565b5b600085015167ffffffffffffffff811115620003a757620003a6620001aa565b5b620003b587828801620002fb565b945050602085015167ffffffffffffffff811115620003d957620003d8620001aa565b5b620003e787828801620002fb565b9350506040620003fa8782880162000352565b92505060606200040d8782880162000352565b91505092959194509250565b600081519050919050565b7f4e487b7100000000000000000000000000000000000000000000000000000000600052602260045260246000fd5b600060028204905060018216806200046c57607f821691505b60208210810362000482576200048162000424565b5b50919050565b60008190508160005260206000209050919050565b60006020601f8301049050919050565b600082821b905092915050565b600060088302620004ec7fffffffffffffffffffffffffffffffffffffffffffffffffffffffffffffffff82620004ad565b620004f88683620004ad565b95508019841693508086168417925050509392505050565b6000819050919050565b60006200053b620005356200052f846200032e565b62000510565b6200032e565b9050919050565b6000819050919050565b62000557836200051a565b6200056f620005668262000542565b848454620004ba565b825550505050565b600090565b6200058662000577565b620005938184846200054c565b505050565b5b81811015620005bb57620005af6000826200057c565b60018101905062000599565b5050565b601f8211156200060a57620005d48162000488565b620005df846200049d565b81016020851015620005ef578190505b62000607620005fe856200049d565b83018262000598565b50505b505050565b600082821c905092915050565b60006200062f600019846008026200060f565b1980831691505092915050565b60006200064a83836200061c565b9150826002028217905092915050565b620006658262000419565b67ffffffffffffffff811115620006815762000680620001ca565b5b6200068d825462000453565b6200069a828285620005bf565b600060209050601f831160018114620006d25760008415620006bd578287015190505b620006c985826200063c565b86555062000739565b601f198416620006e28662000488565b60005b828110156200070c57848901518255600182019150602085019450602081019050620006e5565b868310156200072c578489015162000728601f8916826200061c565b8355505b6001600288020188555050505b505050505050565b61275780620007516000396000f3fe608060405234801561001057600080fd5b50600436106100ea5760003560e01c806370a082311161008c578063a9059cbb11610066578063a9059cbb1461028a578063c3b49d04146102ba578063dd62ed3e146102ed578063e15cfad21461031d576100ea565b806370a0823114610209578063893d20e8146102395780639610f3bd14610257576100ea565b8063210e870d116100c8578063210e870d1461016d57806323b872dd1461019d57806332424aa3146101cd5780634a9596ce146101eb576100ea565b8063095ea7b3146100ef57806313869f851461011f57806318160ddd1461014f575b600080fd5b61010960048036038101906101049190611881565b61034d565b60405161011691906118dc565b60405180910390f35b610139600480360381019061013491906118f7565b610369565b60405161014691906118dc565b60405180910390f35b6101576104da565b6040516101649190611933565b60405180910390f35b61018760048036038101906101829190611ad2565b6104e4565b60405161019491906118dc565b60405180910390f35b6101b760048036038101906101b29190611b71565b610993565b6040516101c491906118dc565b60405180910390f35b6101d5610e48565b6040516101e29190611933565b60405180910390f35b6101f3610e4e565b6040516102009190611933565b60405180910390f35b610223600480360381019061021e9190611bc4565b610e54565b6040516102309190611933565b60405180910390f35b610241610e9d565b60405161024e9190611c00565b60405180910390f35b610271600480360381019061026c9190611bc4565b610ec6565b6040516102819493929190611ca9565b60405180910390f35b6102a4600480360381019061029f9190611881565b611026565b6040516102b191906118dc565b60405180910390f35b6102d460048036038101906102cf91906118f7565b61135e565b6040516102e49493929190611ca9565b60405180910390f35b61030760048036038101906103029190611cfc565b6114ce565b6040516103149190611933565b60405180910390f35b61033760048036038101906103329190611d3c565b611555565b6040516103449190611933565b60405180910390f35b60008033905061035e8185856115a2565b600191505092915050565b60008060009054906101000a900473ffffffffffffffffffffffffffffffffffffffff1673ffffffffffffffffffffffffffffffffffffffff163373ffffffffffffffffffffffffffffffffffffffff16146103fa576040517f08c379a00000000000000000000000000000000000000000000000000000000081526004016103f190611dc8565b60405180910390fd5b61046d82600460008060009054906101000a900473ffffffffffffffffffffffffffffffffffffffff1673ffffffffffffffffffffffffffffffffffffffff1673ffffffffffffffffffffffffffffffffffffffff1681526020019081526020016000205461176b90919063ffffffff16565b600460008060009054906101000a900473ffffffffffffffffffffffffffffffffffffffff1673ffffffffffffffffffffffffffffffffffffffff1673ffffffffffffffffffffffffffffffffffffffff1681526020019081526020016000208190555060019050919050565b6000600654905090565b60008060009054906101000a900473ffffffffffffffffffffffffffffffffffffffff1673ffffffffffffffffffffffffffffffffffffffff163373ffffffffffffffffffffffffffffffffffffffff1614610575576040517f08c379a000000000000000000000000000000000000000000000000000000000815260040161056c90611dc8565b60405180910390fd5b83600073ffffffffffffffffffffffffffffffffffffffff168173ffffffffffffffffffffffffffffffffffffffff16036105e5576040517f08c379a00000000000000000000000000000000000000000000000000000000081526004016105dc90611e34565b60405180910390fd5b6000600360008773ffffffffffffffffffffffffffffffffffffffff1673ffffffffffffffffffffffffffffffffffffffff1681526020019081526020016000209050600073ffffffffffffffffffffffffffffffffffffffff168160010160009054906101000a900473ffffffffffffffffffffffffffffffffffffffff1673ffffffffffffffffffffffffffffffffffffffff16146106bb576040517f08c379a00000000000000000000000000000000000000000000000000000000081526004016106b290611ec6565b60405180910390fd5b60008054906101000a900473ffffffffffffffffffffffffffffffffffffffff1673ffffffffffffffffffffffffffffffffffffffff168673ffffffffffffffffffffffffffffffffffffffff1603610749576040517f08c379a000000000000000000000000000000000000000000000000000000000815260040161074090611f32565b60405180910390fd5b600184101561078d576040517f08c379a000000000000000000000000000000000000000000000000000000000815260040161078490611fc4565b60405180910390fd5b600060405180608001604052808981526020018873ffffffffffffffffffffffffffffffffffffffff1681526020018781526020018681525090506002819080600181540180825580915050600190039060005260206000209060040201600090919091909150600082015181600001908161080991906121f0565b5060208201518160010160006101000a81548173ffffffffffffffffffffffffffffffffffffffff021916908373ffffffffffffffffffffffffffffffffffffffff160217905550604082015181600201908161086691906121f0565b506060820151816003015550506108886001805461176b90919063ffffffff16565b5080600360008973ffffffffffffffffffffffffffffffffffffffff1673ffffffffffffffffffffffffffffffffffffffff16815260200190815260200160002060008201518160000190816108de91906121f0565b5060208201518160010160006101000a81548173ffffffffffffffffffffffffffffffffffffffff021916908373ffffffffffffffffffffffffffffffffffffffff160217905550604082015181600201908161093b91906121f0565b50606082015181600301559050507f6b5d098d49c45279cf1afc02eec71018b4e172ec66e1834863c5d62febaa50b76001548960405161097c9291906122c2565b60405180910390a160019350505050949350505050565b600081600460008673ffffffffffffffffffffffffffffffffffffffff1673ffffffffffffffffffffffffffffffffffffffff168152602001908152602001600020541015610a17576040517f08c379a0000000000000000000000000000000000000000000000000000000008152600401610a0e90612364565b60405180910390fd5b6000600360008673ffffffffffffffffffffffffffffffffffffffff1673ffffffffffffffffffffffffffffffffffffffff1681526020019081526020016000209050600073ffffffffffffffffffffffffffffffffffffffff168160010160009054906101000a900473ffffffffffffffffffffffffffffffffffffffff1673ffffffffffffffffffffffffffffffffffffffff1614610be157610b0483600460008873ffffffffffffffffffffffffffffffffffffffff1673ffffffffffffffffffffffffffffffffffffffff1681526020019081526020016000205461179790919063ffffffff16565b600460008773ffffffffffffffffffffffffffffffffffffffff1673ffffffffffffffffffffffffffffffffffffffff16815260200190815260200160002081905550610b9983600460008773ffffffffffffffffffffffffffffffffffffffff1673ffffffffffffffffffffffffffffffffffffffff1681526020019081526020016000205461176b90919063ffffffff16565b600460008673ffffffffffffffffffffffffffffffffffffffff1673ffffffffffffffffffffffffffffffffffffffff16815260200190815260200160002081905550610e3c565b6000600360008673ffffffffffffffffffffffffffffffffffffffff1673ffffffffffffffffffffffffffffffffffffffff1681526020019081526020016000209050600073ffffffffffffffffffffffffffffffffffffffff168160010160009054906101000a900473ffffffffffffffffffffffffffffffffffffffff1673ffffffffffffffffffffffffffffffffffffffff1614610cb7576040517f08c379a0000000000000000000000000000000000000000000000000000000008152600401610cae906123f6565b60405180910390fd5b600073ffffffffffffffffffffffffffffffffffffffff168160010160009054906101000a900473ffffffffffffffffffffffffffffffffffffffff1673ffffffffffffffffffffffffffffffffffffffff1614610e3a57610d6184600460008973ffffffffffffffffffffffffffffffffffffffff1673ffffffffffffffffffffffffffffffffffffffff1681526020019081526020016000205461179790919063ffffffff16565b600460008873ffffffffffffffffffffffffffffffffffffffff1673ffffffffffffffffffffffffffffffffffffffff16815260200190815260200160002081905550610df684600460008873ffffffffffffffffffffffffffffffffffffffff1673ffffffffffffffffffffffffffffffffffffffff1681526020019081526020016000205461176b90919063ffffffff16565b600460008773ffffffffffffffffffffffffffffffffffffffff1673ffffffffffffffffffffffffffffffffffffffff168152602001908152602001600020819055505b505b60019150509392505050565b60095481565b60015481565b6000600460008373ffffffffffffffffffffffffffffffffffffffff1673ffffffffffffffffffffffffffffffffffffffff168152602001908152602001600020549050919050565b60008060009054906101000a900473ffffffffffffffffffffffffffffffffffffffff16905090565b6003602052806000526040600020600091509050806000018054610ee990612013565b80601f0160208091040260200160405190810160405280929190818152602001828054610f1590612013565b8015610f625780601f10610f3757610100808354040283529160200191610f62565b820191906000526020600020905b815481529060010190602001808311610f4557829003601f168201915b5050505050908060010160009054906101000a900473ffffffffffffffffffffffffffffffffffffffff1690806002018054610f9d90612013565b80601f0160208091040260200160405190810160405280929190818152602001828054610fc990612013565b80156110165780601f10610feb57610100808354040283529160200191611016565b820191906000526020600020905b815481529060010190602001808311610ff957829003601f168201915b5050505050908060030154905084565b600082600073ffffffffffffffffffffffffffffffffffffffff168173ffffffffffffffffffffffffffffffffffffffff1603611098576040517f08c379a000000000000000000000000000000000000000000000000000000000815260040161108f90611e34565b60405180910390fd5b6000600360003373ffffffffffffffffffffffffffffffffffffffff1673ffffffffffffffffffffffffffffffffffffffff168152602001908152602001600020905060008054906101000a900473ffffffffffffffffffffffffffffffffffffffff1673ffffffffffffffffffffffffffffffffffffffff163373ffffffffffffffffffffffffffffffffffffffff16148061118457508060010160009054906101000a900473ffffffffffffffffffffffffffffffffffffffff1673ffffffffffffffffffffffffffffffffffffffff163373ffffffffffffffffffffffffffffffffffffffff16145b6111c3576040517f08c379a00000000000000000000000000000000000000000000000000000000081526004016111ba90612488565b60405180910390fd5b61121584600460003373ffffffffffffffffffffffffffffffffffffffff1673ffffffffffffffffffffffffffffffffffffffff1681526020019081526020016000205461179790919063ffffffff16565b600460003373ffffffffffffffffffffffffffffffffffffffff1673ffffffffffffffffffffffffffffffffffffffff168152602001908152602001600020819055506112aa84600460008873ffffffffffffffffffffffffffffffffffffffff1673ffffffffffffffffffffffffffffffffffffffff1681526020019081526020016000205461176b90919063ffffffff16565b600460008773ffffffffffffffffffffffffffffffffffffffff1673ffffffffffffffffffffffffffffffffffffffff168152602001908152602001600020819055508473ffffffffffffffffffffffffffffffffffffffff163373ffffffffffffffffffffffffffffffffffffffff167fddf252ad1be2c89b69c2b068fc378daa952ba7f163c4a11628f55a4df523b3ef8660405161134a9190611933565b60405180910390a360019250505092915050565b6002818154811061136e57600080fd5b906000526020600020906004020160009150905080600001805461139190612013565b80601f01602080910402602001604051908101604052809291908181526020018280546113bd90612013565b801561140a5780601f106113df5761010080835404028352916020019161140a565b820191906000526020600020905b8154815290600101906020018083116113ed57829003601f168201915b5050505050908060010160009054906101000a900473ffffffffffffffffffffffffffffffffffffffff169080600201805461144590612013565b80601f016020809104026020016040519081016040528092919081815260200182805461147190612013565b80156114be5780601f10611493576101008083540402835291602001916114be565b820191906000526020600020905b8154815290600101906020018083116114a157829003601f168201915b5050505050908060030154905084565b6000600560008473ffffffffffffffffffffffffffffffffffffffff1673ffffffffffffffffffffffffffffffffffffffff16815260200190815260200160002060008373ffffffffffffffffffffffffffffffffffffffff1673ffffffffffffffffffffffffffffffffffffffff16815260200190815260200160002054905092915050565b6000806002838154811061156c5761156b6124a8565b5b9060005260206000209060040201905060006115958260030154866117be90919063ffffffff16565b9050809250505092915050565b600073ffffffffffffffffffffffffffffffffffffffff168373ffffffffffffffffffffffffffffffffffffffff1603611611576040517f08c379a000000000000000000000000000000000000000000000000000000000815260040161160890612549565b60405180910390fd5b600073ffffffffffffffffffffffffffffffffffffffff168273ffffffffffffffffffffffffffffffffffffffff1603611680576040517f08c379a0000000000000000000000000000000000000000000000000000000008152600401611677906125db565b60405180910390fd5b80600560008573ffffffffffffffffffffffffffffffffffffffff1673ffffffffffffffffffffffffffffffffffffffff16815260200190815260200160002060008473ffffffffffffffffffffffffffffffffffffffff1673ffffffffffffffffffffffffffffffffffffffff168152602001908152602001600020819055508173ffffffffffffffffffffffffffffffffffffffff168373ffffffffffffffffffffffffffffffffffffffff167f8c5be1e5ebec7d5bd14f71427d1e84f3dd0314c0f7b2291e5b200ac8c7c3b9258360405161175e9190611933565b60405180910390a3505050565b600080828461177a919061262a565b90508381101561178d5761178c61265e565b5b8091505092915050565b6000828211156117aa576117a961265e565b5b81836117b6919061268d565b905092915050565b60008082846117cd91906126f0565b90508091505092915050565b6000604051905090565b600080fd5b600080fd5b600073ffffffffffffffffffffffffffffffffffffffff82169050919050565b6000611818826117ed565b9050919050565b6118288161180d565b811461183357600080fd5b50565b6000813590506118458161181f565b92915050565b6000819050919050565b61185e8161184b565b811461186957600080fd5b50565b60008135905061187b81611855565b92915050565b60008060408385031215611898576118976117e3565b5b60006118a685828601611836565b92505060206118b78582860161186c565b9150509250929050565b60008115159050919050565b6118d6816118c1565b82525050565b60006020820190506118f160008301846118cd565b92915050565b60006020828403121561190d5761190c6117e3565b5b600061191b8482850161186c565b91505092915050565b61192d8161184b565b82525050565b60006020820190506119486000830184611924565b92915050565b600080fd5b600080fd5b6000601f19601f8301169050919050565b7f4e487b7100000000000000000000000000000000000000000000000000000000600052604160045260246000fd5b6119a182611958565b810181811067ffffffffffffffff821117156119c0576119bf611969565b5b80604052505050565b60006119d36117d9565b90506119df8282611998565b919050565b600067ffffffffffffffff8211156119ff576119fe611969565b5b611a0882611958565b9050602081019050919050565b82818337600083830152505050565b6000611a37611a32846119e4565b6119c9565b905082815260208101848484011115611a5357611a52611953565b5b611a5e848285611a15565b509392505050565b600082601f830112611a7b57611a7a61194e565b5b8135611a8b848260208601611a24565b91505092915050565b6000611a9f826117ed565b9050919050565b611aaf81611a94565b8114611aba57600080fd5b50565b600081359050611acc81611aa6565b92915050565b60008060008060808587031215611aec57611aeb6117e3565b5b600085013567ffffffffffffffff811115611b0a57611b096117e8565b5b611b1687828801611a66565b9450506020611b2787828801611abd565b935050604085013567ffffffffffffffff811115611b4857611b476117e8565b5b611b5487828801611a66565b9250506060611b658782880161186c565b91505092959194509250565b600080600060608486031215611b8a57611b896117e3565b5b6000611b9886828701611836565b9350506020611ba986828701611836565b9250506040611bba8682870161186c565b9150509250925092565b600060208284031215611bda57611bd96117e3565b5b6000611be884828501611836565b91505092915050565b611bfa8161180d565b82525050565b6000602082019050611c156000830184611bf1565b92915050565b600081519050919050565b600082825260208201905092915050565b60005b83811015611c55578082015181840152602081019050611c3a565b60008484015250505050565b6000611c6c82611c1b565b611c768185611c26565b9350611c86818560208601611c37565b611c8f81611958565b840191505092915050565b611ca381611a94565b82525050565b60006080820190508181036000830152611cc38187611c61565b9050611cd26020830186611c9a565b8181036040830152611ce48185611c61565b9050611cf36060830184611924565b95945050505050565b60008060408385031215611d1357611d126117e3565b5b6000611d2185828601611836565b9250506020611d3285828601611836565b9150509250929050565b60008060408385031215611d5357611d526117e3565b5b6000611d618582860161186c565b9250506020611d728582860161186c565b9150509250929050565b7f43616c6c6572206973206e6f74206f776e657200000000000000000000000000600082015250565b6000611db2601383611c26565b9150611dbd82611d7c565b602082019050919050565b60006020820190508181036000830152611de181611da5565b9050919050565b7f456e74657265642061646472657373206973206e756c6c2e0000000000000000600082015250565b6000611e1e601883611c26565b9150611e2982611de8565b602082019050919050565b60006020820190508181036000830152611e4d81611e11565b9050919050565b7f456e7465726564206164647265737320697320616c726561647920612070617260008201527f746e657221000000000000000000000000000000000000000000000000000000602082015250565b6000611eb0602583611c26565b9150611ebb82611e54565b604082019050919050565b60006020820190508181036000830152611edf81611ea3565b9050919050565b7f546865206f776e65722063616e6e6f74206265206120706172746e6572210000600082015250565b6000611f1c601e83611c26565b9150611f2782611ee6565b602082019050919050565b60006020820190508181036000830152611f4b81611f0f565b9050919050565b7f5468652076616c756520666f72206120546f6b656e2073686f756c642062652060008201527f6174206c65617374203120696e207468652063757272656e63792e0000000000602082015250565b6000611fae603b83611c26565b9150611fb982611f52565b604082019050919050565b60006020820190508181036000830152611fdd81611fa1565b9050919050565b7f4e487b7100000000000000000000000000000000000000000000000000000000600052602260045260246000fd5b6000600282049050600182168061202b57607f821691505b60208210810361203e5761203d611fe4565b5b50919050565b60008190508160005260206000209050919050565b60006020601f8301049050919050565b600082821b905092915050565b6000600883026120a67fffffffffffffffffffffffffffffffffffffffffffffffffffffffffffffffff82612069565b6120b08683612069565b95508019841693508086168417925050509392505050565b6000819050919050565b60006120ed6120e86120e38461184b565b6120c8565b61184b565b9050919050565b6000819050919050565b612107836120d2565b61211b612113826120f4565b848454612076565b825550505050565b600090565b612130612123565b61213b8184846120fe565b505050565b5b8181101561215f57612154600082612128565b600181019050612141565b5050565b601f8211156121a45761217581612044565b61217e84612059565b8101602085101561218d578190505b6121a161219985612059565b830182612140565b50505b505050565b600082821c905092915050565b60006121c7600019846008026121a9565b1980831691505092915050565b60006121e083836121b6565b9150826002028217905092915050565b6121f982611c1b565b67ffffffffffffffff81111561221257612211611969565b5b61221c8254612013565b612227828285612163565b600060209050601f83116001811461225a5760008415612248578287015190505b61225285826121d4565b8655506122ba565b601f19841661226886612044565b60005b828110156122905784890151825560018201915060208501945060208101905061226b565b868310156122ad57848901516122a9601f8916826121b6565b8355505b6001600288020188555050505b505050505050565b60006040820190506122d76000830185611924565b81810360208301526122e98184611c61565b90509392505050565b7f546865206164647265737320646f65736e2774206861766520656e6f7567682060008201527f62616c616e636520746f2073656e642074686520616d6f756e742e0000000000602082015250565b600061234e603b83611c26565b9150612359826122f2565b604082019050919050565b6000602082019050818103600083015261237d81612341565b9050919050565b7f5468652072656365697665722061646472657373206973206e6f74206120706160008201527f72746e65722e0000000000000000000000000000000000000000000000000000602082015250565b60006123e0602683611c26565b91506123eb82612384565b604082019050919050565b6000602082019050818103600083015261240f816123d3565b9050919050565b7f4f6e6c7920746865206f776e6572206f7220706172746e6572732063616e207460008201527f72616e7366657220746f6b656e732e0000000000000000000000000000000000602082015250565b6000612472602f83611c26565b915061247d82612416565b604082019050919050565b600060208201905081810360008301526124a181612465565b9050919050565b7f4e487b7100000000000000000000000000000000000000000000000000000000600052603260045260246000fd5b7f45524332303a20617070726f76652066726f6d20746865207a65726f2061646460008201527f7265737300000000000000000000000000000000000000000000000000000000602082015250565b6000612533602483611c26565b915061253e826124d7565b604082019050919050565b6000602082019050818103600083015261256281612526565b9050919050565b7f45524332303a20617070726f766520746f20746865207a65726f20616464726560008201527f7373000000000000000000000000000000000000000000000000000000000000602082015250565b60006125c5602283611c26565b91506125d082612569565b604082019050919050565b600060208201905081810360008301526125f4816125b8565b9050919050565b7f4e487b7100000000000000000000000000000000000000000000000000000000600052601160045260246000fd5b60006126358261184b565b91506126408361184b565b9250828201905080821115612658576126576125fb565b5b92915050565b7f4e487b7100000000000000000000000000000000000000000000000000000000600052600160045260246000fd5b60006126988261184b565b91506126a38361184b565b92508282039050818111156126bb576126ba6125fb565b5b92915050565b7f4e487b7100000000000000000000000000000000000000000000000000000000600052601260045260246000fd5b60006126fb8261184b565b91506127068361184b565b925082612716576127156126c1565b5b82820490509291505056fea2646970667358221220ce900df7a7b2a31290c1f88f6bd498b5170c965a25dd1025183b87f7b2271d7d64736f6c63430008130033",
  "immutableReferences": {},
  "source": "// SPDX-License-Identifier: MIT\r\npragma solidity ^0.8.19;\r\n\r\nimport \"@openzeppelin/contracts/token/ERC20/IERC20.sol\";\r\nimport \"./2_PayBackPartnership.sol\";\r\n\r\ncontract PayBackToken is IERC20, PayBackPartnership {\r\n    using SafeMath for uint256;\r\n\r\n    //should be private?\r\n    mapping(address => uint256) private _balances;\r\n    //the owner->spender->amount\r\n    mapping(address => mapping(address => uint256)) private _allowed;\r\n\r\n    uint256 private _totalSupply;\r\n    string private _name;\r\n    string private _symbol;\r\n    uint256 public _decimals;\r\n\r\n    /**\r\n     * @dev Sets the values for {name} and {symbol}.\r\n     *\r\n     * All two of these values are immutable: they can only be set once during\r\n     * construction.\r\n     */\r\n    constructor(\r\n        string memory name_,\r\n        string memory symbol_,\r\n        uint256 initialSupply_,\r\n        uint256 decimals_\r\n    ) {\r\n        _name = name_;\r\n        _symbol = symbol_;\r\n        _totalSupply = initialSupply_;\r\n        _decimals = decimals_;\r\n\r\n        _balances[_owner] = initialSupply_;\r\n    }\r\n\r\n    /**\r\n     * @dev Returns the amount of tokens in existence.\r\n     */\r\n    function totalSupply() public view returns (uint256) {\r\n        return _totalSupply;\r\n    }\r\n\r\n    /**\r\n     * @dev Returns the amount of tokens owned by `account`.\r\n     */\r\n    function balanceOf(address account) public view returns (uint256) {\r\n        return _balances[account];\r\n    }\r\n\r\n    /**\r\n     * @dev Moves `amount` tokens from the caller's account to `to`.\r\n     *\r\n     * Returns a boolean value indicating whether the operation succeeded.\r\n     *\r\n     * Emits a {Transfer} event.\r\n     */\r\n    /**\r\n     * @dev See {IERC20-transfer}.\r\n     *\r\n     * Requirements:\r\n     *\r\n     * - `to` cannot be the zero address.\r\n     * - the caller must have a balance of at least `amount`.\r\n     */\r\n\r\n    function transfer(address _to, uint256 _amount)\r\n        public\r\n        addrNotNull(_to)\r\n        returns (bool)\r\n    {\r\n        //there are 2 cases!\r\n        // check if the msg.sender is owner or partner\r\n        Partner storage p = addrToPartner[msg.sender];\r\n        require(\r\n            msg.sender == _owner || msg.sender == p.walletAddr,\r\n            \"Only the owner or partners can transfer tokens.\"\r\n        );\r\n\r\n        //CASE 1: Contract Owner Payback wants to send his partner some tokens\r\n        //CASE 2: Partner wants to sent his client some tokens\r\n        _balances[msg.sender] = _balances[msg.sender].sub(_amount);\r\n        _balances[_to] = _balances[_to].add(_amount);\r\n\r\n        emit Transfer(msg.sender, _to, _amount);\r\n\r\n        return true;\r\n    }\r\n\r\n    /**\r\n     * @dev Function to check the amount of tokens than an owner allowed to a spender.\r\n     * @param _owner address The address which owns the funds.\r\n     * @param _spender address The address which will spend the funds.\r\n     * @return A uint specifying the amount of tokens still available for the spender.\r\n     */\r\n    function allowance(address _owner, address _spender)\r\n        public\r\n        view\r\n        returns (uint256)\r\n    {\r\n        //the owner is the owner of the tokens that allows someone else to transfer the amount for him\r\n        return _allowed[_owner][_spender];\r\n    }\r\n\r\n    //\r\n    function approve(address _spender, uint256 _amount) public returns (bool) {\r\n        address owner = msg.sender;\r\n        _approve(owner, _spender, _amount);\r\n        return true;\r\n    }\r\n\r\n    function _approve(\r\n        address owner,\r\n        address spender,\r\n        uint256 amount\r\n    ) internal virtual {\r\n        require(owner != address(0), \"ERC20: approve from the zero address\");\r\n        require(spender != address(0), \"ERC20: approve to the zero address\");\r\n\r\n        _allowed[owner][spender] = amount;\r\n        emit Approval(owner, spender, amount);\r\n    }\r\n\r\n    function transferFrom(\r\n        address _from,\r\n        address _to,\r\n        uint256 _amount\r\n    ) public returns (bool) {\r\n        //you allow someone to spend your tokens\r\n        //\r\n        //TODO who can start this function????\r\n\r\n        //check if the amount they want to send is real\r\n        require(\r\n            _balances[_from] >= _amount,\r\n            \"The address doesn't have enough balance to send the amount.\"\r\n        );\r\n\r\n        Partner storage p_sender = addrToPartner[_from];\r\n\r\n        if (p_sender.walletAddr != address(0)) {\r\n            // if the sender is a partner, he can send tokens\r\n            _balances[_from] = _balances[_from].sub(_amount);\r\n            _balances[_to] = _balances[_to].add(_amount);\r\n        } else {\r\n            //if the sender is not a partner check if the receiver is partner\r\n            Partner storage p_receiver = addrToPartner[_to];\r\n            require(\r\n                p_receiver.walletAddr == address(0),\r\n                \"The receiver address is not a partner.\"\r\n            );\r\n\r\n            if (p_receiver.walletAddr != address(0)) {\r\n                // sending to partner\r\n                // check if the amount is round?\r\n                _balances[_from] = _balances[_from].sub(_amount);\r\n                _balances[_to] = _balances[_to].add(_amount);\r\n            }\r\n        }\r\n        //if the from is a partner.. then its okay to send\r\n        //else if the from is a normal user.. he can only send to partner\r\n        //check if the amount is above\r\n\r\n        return true;\r\n    }\r\n\r\n    //----------------------------------Additional functions----------------------------------\r\n\r\n    function loadTotalSupply(uint256 _amount) public isOwner returns (bool) {\r\n        //ACH ... there can be a max amout to load\r\n        _balances[_owner] = _balances[_owner].add(_amount);\r\n        return true;\r\n    }\r\n\r\n    // TODO : Implement all other functions,\r\n    // make the specific function for out Token virtual and external? override?\r\n}\r\n",
  "sourcePath": "D:\\PersonalStuff\\GitProjects\\PayBackOnBlockchain\\payback-token-truffle\\contracts\\3_PayBackToken.sol",
  "compiler": {
    "name": "solc",
    "version": "0.8.19+commit.7dd6d404.Emscripten.clang"
  },
  "schemaVersion": "3.4.14",
  "updatedAt": "2023-06-26T09:28:49.752Z",
  "networkType": "ethereum",
  "devdoc": {
    "events": {
      "Approval(address,address,uint256)": {
        "details": "Emitted when the allowance of a `spender` for an `owner` is set by a call to {approve}. `value` is the new allowance."
      },
      "Transfer(address,address,uint256)": {
        "details": "Emitted when `value` tokens are moved from one account (`from`) to another (`to`). Note that `value` may be zero."
      }
    },
    "kind": "dev",
    "methods": {
      "allowance(address,address)": {
        "details": "Function to check the amount of tokens than an owner allowed to a spender.",
        "params": {
          "_owner": "address The address which owns the funds.",
          "_spender": "address The address which will spend the funds."
        },
        "returns": {
          "_0": "A uint specifying the amount of tokens still available for the spender."
        }
      },
      "balanceOf(address)": {
        "details": "Returns the amount of tokens owned by `account`."
      },
      "constructor": {
        "details": "Sets the values for {name} and {symbol}. All two of these values are immutable: they can only be set once during construction."
      },
      "getOwner()": {
        "details": "Return owner address ",
        "returns": {
          "_0": "address of owner"
        }
      },
      "totalSupply()": {
        "details": "Returns the amount of tokens in existence."
      },
      "transfer(address,uint256)": {
        "details": "See {IERC20-transfer}. Requirements: - `to` cannot be the zero address. - the caller must have a balance of at least `amount`."
      }
    },
    "version": 1
  },
  "userdoc": {
    "kind": "user",
    "methods": {},
    "version": 1
  }
}