{
  "contractName": "PayBackToken",
  "abi": [
    {
      "inputs": [
        {
          "internalType": "string",
          "name": "name_",
          "type": "string"
        },
        {
          "internalType": "string",
          "name": "symbol_",
          "type": "string"
        },
        {
          "internalType": "uint256",
          "name": "initialSupply_",
          "type": "uint256"
        },
        {
          "internalType": "uint256",
          "name": "decimals_",
          "type": "uint256"
        }
      ],
      "stateMutability": "nonpayable",
      "type": "constructor"
    },
    {
      "anonymous": false,
      "inputs": [
        {
          "indexed": true,
          "internalType": "address",
          "name": "owner",
          "type": "address"
        },
        {
          "indexed": true,
          "internalType": "address",
          "name": "spender",
          "type": "address"
        },
        {
          "indexed": false,
          "internalType": "uint256",
          "name": "value",
          "type": "uint256"
        }
      ],
      "name": "Approval",
      "type": "event"
    },
    {
      "anonymous": false,
      "inputs": [
        {
          "indexed": true,
          "internalType": "address",
          "name": "_addr",
          "type": "address"
        }
      ],
      "name": "ClientCreated",
      "type": "event"
    },
    {
      "anonymous": false,
      "inputs": [
        {
          "indexed": true,
          "internalType": "address",
          "name": "oldOwner",
          "type": "address"
        },
        {
          "indexed": true,
          "internalType": "address",
          "name": "newOwner",
          "type": "address"
        }
      ],
      "name": "OwnerSet",
      "type": "event"
    },
    {
      "anonymous": false,
      "inputs": [
        {
          "indexed": false,
          "internalType": "uint256",
          "name": "partnerId",
          "type": "uint256"
        },
        {
          "indexed": false,
          "internalType": "string",
          "name": "name",
          "type": "string"
        }
      ],
      "name": "PartnerAdded",
      "type": "event"
    },
    {
      "anonymous": false,
      "inputs": [
        {
          "indexed": true,
          "internalType": "address",
          "name": "from",
          "type": "address"
        },
        {
          "indexed": true,
          "internalType": "address",
          "name": "to",
          "type": "address"
        },
        {
          "indexed": false,
          "internalType": "uint256",
          "name": "value",
          "type": "uint256"
        }
      ],
      "name": "Transfer",
      "type": "event"
    },
    {
      "inputs": [],
      "name": "_decimals",
      "outputs": [
        {
          "internalType": "uint256",
          "name": "",
          "type": "uint256"
        }
      ],
      "stateMutability": "view",
      "type": "function",
      "constant": true
    },
    {
      "inputs": [
        {
          "internalType": "address",
          "name": "_addr",
          "type": "address"
        }
      ],
      "name": "addClient",
      "outputs": [
        {
          "internalType": "uint256",
          "name": "",
          "type": "uint256"
        }
      ],
      "stateMutability": "nonpayable",
      "type": "function"
    },
    {
      "inputs": [
        {
          "internalType": "string",
          "name": "_name",
          "type": "string"
        },
        {
          "internalType": "address payable",
          "name": "_addr",
          "type": "address"
        },
        {
          "internalType": "string",
          "name": "_currency",
          "type": "string"
        },
        {
          "internalType": "uint256",
          "name": "_valueForToken",
          "type": "uint256"
        }
      ],
      "name": "addPartner",
      "outputs": [
        {
          "internalType": "bool",
          "name": "",
          "type": "bool"
        }
      ],
      "stateMutability": "nonpayable",
      "type": "function"
    },
    {
      "inputs": [
        {
          "internalType": "address",
          "name": "",
          "type": "address"
        }
      ],
      "name": "addrToPartner",
      "outputs": [
        {
          "internalType": "string",
          "name": "name",
          "type": "string"
        },
        {
          "internalType": "address payable",
          "name": "walletAddr",
          "type": "address"
        },
        {
          "internalType": "string",
          "name": "currency",
          "type": "string"
        },
        {
          "internalType": "uint256",
          "name": "valueForToken",
          "type": "uint256"
        }
      ],
      "stateMutability": "view",
      "type": "function",
      "constant": true
    },
    {
      "inputs": [
        {
          "internalType": "uint256",
          "name": "_roundValue",
          "type": "uint256"
        },
        {
          "internalType": "uint256",
          "name": "_partnerId",
          "type": "uint256"
        }
      ],
      "name": "calcPointsToEarn",
      "outputs": [
        {
          "internalType": "uint256",
          "name": "",
          "type": "uint256"
        }
      ],
      "stateMutability": "view",
      "type": "function",
      "constant": true
    },
    {
      "inputs": [
        {
          "internalType": "address",
          "name": "_addr",
          "type": "address"
        }
      ],
      "name": "getClientId",
      "outputs": [
        {
          "internalType": "uint256",
          "name": "",
          "type": "uint256"
        }
      ],
      "stateMutability": "view",
      "type": "function",
      "constant": true
    },
    {
      "inputs": [],
      "name": "getOwner",
      "outputs": [
        {
          "internalType": "address",
          "name": "",
          "type": "address"
        }
      ],
      "stateMutability": "view",
      "type": "function",
      "constant": true
    },
    {
      "inputs": [],
      "name": "numClient",
      "outputs": [
        {
          "internalType": "uint256",
          "name": "",
          "type": "uint256"
        }
      ],
      "stateMutability": "view",
      "type": "function",
      "constant": true
    },
    {
      "inputs": [],
      "name": "numPartner",
      "outputs": [
        {
          "internalType": "uint256",
          "name": "",
          "type": "uint256"
        }
      ],
      "stateMutability": "view",
      "type": "function",
      "constant": true
    },
    {
      "inputs": [
        {
          "internalType": "uint256",
          "name": "",
          "type": "uint256"
        }
      ],
      "name": "partnerIdToAddr",
      "outputs": [
        {
          "internalType": "address",
          "name": "",
          "type": "address"
        }
      ],
      "stateMutability": "view",
      "type": "function",
      "constant": true
    },
    {
      "inputs": [
        {
          "internalType": "uint256",
          "name": "",
          "type": "uint256"
        }
      ],
      "name": "partners",
      "outputs": [
        {
          "internalType": "string",
          "name": "name",
          "type": "string"
        },
        {
          "internalType": "address payable",
          "name": "walletAddr",
          "type": "address"
        },
        {
          "internalType": "string",
          "name": "currency",
          "type": "string"
        },
        {
          "internalType": "uint256",
          "name": "valueForToken",
          "type": "uint256"
        }
      ],
      "stateMutability": "view",
      "type": "function",
      "constant": true
    },
    {
      "inputs": [],
      "name": "totalSupply",
      "outputs": [
        {
          "internalType": "uint256",
          "name": "",
          "type": "uint256"
        }
      ],
      "stateMutability": "view",
      "type": "function",
      "constant": true
    },
    {
      "inputs": [
        {
          "internalType": "address",
          "name": "account",
          "type": "address"
        }
      ],
      "name": "balanceOf",
      "outputs": [
        {
          "internalType": "uint256",
          "name": "",
          "type": "uint256"
        }
      ],
      "stateMutability": "view",
      "type": "function",
      "constant": true
    },
    {
      "inputs": [
        {
          "internalType": "address",
          "name": "_to",
          "type": "address"
        },
        {
          "internalType": "uint256",
          "name": "_amount",
          "type": "uint256"
        }
      ],
      "name": "transfer",
      "outputs": [
        {
          "internalType": "bool",
          "name": "",
          "type": "bool"
        }
      ],
      "stateMutability": "nonpayable",
      "type": "function"
    },
    {
      "inputs": [
        {
          "internalType": "address",
          "name": "_owner",
          "type": "address"
        },
        {
          "internalType": "address",
          "name": "_spender",
          "type": "address"
        }
      ],
      "name": "allowance",
      "outputs": [
        {
          "internalType": "uint256",
          "name": "",
          "type": "uint256"
        }
      ],
      "stateMutability": "view",
      "type": "function",
      "constant": true
    },
    {
      "inputs": [
        {
          "internalType": "address",
          "name": "_spender",
          "type": "address"
        },
        {
          "internalType": "uint256",
          "name": "_amount",
          "type": "uint256"
        }
      ],
      "name": "approve",
      "outputs": [
        {
          "internalType": "bool",
          "name": "",
          "type": "bool"
        }
      ],
      "stateMutability": "nonpayable",
      "type": "function"
    },
    {
      "inputs": [
        {
          "internalType": "address",
          "name": "_from",
          "type": "address"
        },
        {
          "internalType": "address",
          "name": "_to",
          "type": "address"
        },
        {
          "internalType": "uint256",
          "name": "_amount",
          "type": "uint256"
        }
      ],
      "name": "transferFrom",
      "outputs": [
        {
          "internalType": "bool",
          "name": "",
          "type": "bool"
        }
      ],
      "stateMutability": "nonpayable",
      "type": "function"
    },
    {
      "inputs": [
        {
          "internalType": "uint256",
          "name": "_amount",
          "type": "uint256"
        }
      ],
      "name": "loadTotalSupply",
      "outputs": [
        {
          "internalType": "bool",
          "name": "",
          "type": "bool"
        }
      ],
      "stateMutability": "nonpayable",
      "type": "function"
    }
  ],
  "bytecode": "0x60806040523480156200001157600080fd5b5060405162003a4338038062003a43833981810160405281019062000037919062000371565b336000806101000a81548173ffffffffffffffffffffffffffffffffffffffff021916908373ffffffffffffffffffffffffffffffffffffffff16021790555060008054906101000a900473ffffffffffffffffffffffffffffffffffffffff1673ffffffffffffffffffffffffffffffffffffffff16600073ffffffffffffffffffffffffffffffffffffffff167f342827c97908e5e2f71151c08502a66d44b6f758e3ac2f1de95f02eb95f0a73560405160405180910390a36000600181905550600060068190555083600a908162000113919062000662565b5082600b908162000125919062000662565b508160098190555080600c8190555081600760008060009054906101000a900473ffffffffffffffffffffffffffffffffffffffff1673ffffffffffffffffffffffffffffffffffffffff1673ffffffffffffffffffffffffffffffffffffffff168152602001908152602001600020819055505050505062000749565b6000604051905090565b600080fd5b600080fd5b600080fd5b600080fd5b6000601f19601f8301169050919050565b7f4e487b7100000000000000000000000000000000000000000000000000000000600052604160045260246000fd5b6200020c82620001c1565b810181811067ffffffffffffffff821117156200022e576200022d620001d2565b5b80604052505050565b600062000243620001a3565b905062000251828262000201565b919050565b600067ffffffffffffffff821115620002745762000273620001d2565b5b6200027f82620001c1565b9050602081019050919050565b60005b83811015620002ac5780820151818401526020810190506200028f565b60008484015250505050565b6000620002cf620002c98462000256565b62000237565b905082815260208101848484011115620002ee57620002ed620001bc565b5b620002fb8482856200028c565b509392505050565b600082601f8301126200031b576200031a620001b7565b5b81516200032d848260208601620002b8565b91505092915050565b6000819050919050565b6200034b8162000336565b81146200035757600080fd5b50565b6000815190506200036b8162000340565b92915050565b600080600080608085870312156200038e576200038d620001ad565b5b600085015167ffffffffffffffff811115620003af57620003ae620001b2565b5b620003bd8782880162000303565b945050602085015167ffffffffffffffff811115620003e157620003e0620001b2565b5b620003ef8782880162000303565b935050604062000402878288016200035a565b925050606062000415878288016200035a565b91505092959194509250565b600081519050919050565b7f4e487b7100000000000000000000000000000000000000000000000000000000600052602260045260246000fd5b600060028204905060018216806200047457607f821691505b6020821081036200048a57620004896200042c565b5b50919050565b60008190508160005260206000209050919050565b60006020601f8301049050919050565b600082821b905092915050565b600060088302620004f47fffffffffffffffffffffffffffffffffffffffffffffffffffffffffffffffff82620004b5565b620005008683620004b5565b95508019841693508086168417925050509392505050565b6000819050919050565b6000620005436200053d620005378462000336565b62000518565b62000336565b9050919050565b6000819050919050565b6200055f8362000522565b620005776200056e826200054a565b848454620004c2565b825550505050565b600090565b6200058e6200057f565b6200059b81848462000554565b505050565b5b81811015620005c357620005b760008262000584565b600181019050620005a1565b5050565b601f8211156200061257620005dc8162000490565b620005e784620004a5565b81016020851015620005f7578190505b6200060f6200060685620004a5565b830182620005a0565b50505b505050565b600082821c905092915050565b6000620006376000198460080262000617565b1980831691505092915050565b600062000652838362000624565b9150826002028217905092915050565b6200066d8262000421565b67ffffffffffffffff811115620006895762000688620001d2565b5b6200069582546200045b565b620006a2828285620005c7565b600060209050601f831160018114620006da5760008415620006c5578287015190505b620006d1858262000644565b86555062000741565b601f198416620006ea8662000490565b60005b828110156200071457848901518255600182019150602085019450602081019050620006ed565b8683101562000734578489015162000730601f89168262000624565b8355505b6001600288020188555050505b505050505050565b6132ea80620007596000396000f3fe608060405234801561001057600080fd5b50600436106101165760003560e01c806370a08231116100a2578063c3b49d0411610071578063c3b49d0414610346578063c785f59314610379578063dd62ed3e14610397578063e15cfad2146103c7578063f23f4026146103f757610116565b806370a0823114610295578063893d20e8146102c55780639610f3bd146102e3578063a9059cbb1461031657610116565b806323b872dd116100e957806323b872dd146101c957806332424aa3146101f957806343928cfd146102175780634a9596ce1461024757806362ae1e941461026557610116565b8063095ea7b31461011b57806313869f851461014b57806318160ddd1461017b578063210e870d14610199575b600080fd5b61013560048036038101906101309190612068565b610427565b60405161014291906120c3565b60405180910390f35b610165600480360381019061016091906120de565b61075b565b60405161017291906120c3565b60405180910390f35b6101836108cc565b604051610190919061211a565b60405180910390f35b6101b360048036038101906101ae91906122b9565b6108d6565b6040516101c091906120c3565b60405180910390f35b6101e360048036038101906101de9190612358565b610dde565b6040516101f091906120c3565b60405180910390f35b610201610e07565b60405161020e919061211a565b60405180910390f35b610231600480360381019061022c91906123ab565b610e0d565b60405161023e919061211a565b60405180910390f35b61024f6111a5565b60405161025c919061211a565b60405180910390f35b61027f600480360381019061027a91906123ab565b6111ab565b60405161028c919061211a565b60405180910390f35b6102af60048036038101906102aa91906123ab565b6111f4565b6040516102bc919061211a565b60405180910390f35b6102cd61123d565b6040516102da91906123e7565b60405180910390f35b6102fd60048036038101906102f891906123ab565b611266565b60405161030d9493929190612490565b60405180910390f35b610330600480360381019061032b9190612068565b6113c6565b60405161033d91906120c3565b60405180910390f35b610360600480360381019061035b91906120de565b61172c565b6040516103709493929190612490565b60405180910390f35b61038161189c565b60405161038e919061211a565b60405180910390f35b6103b160048036038101906103ac91906124e3565b6118a2565b6040516103be919061211a565b60405180910390f35b6103e160048036038101906103dc9190612523565b611929565b6040516103ee919061211a565b60405180910390f35b610411600480360381019061040c91906120de565b611976565b60405161041e91906123e7565b60405180910390f35b6000336000600560008373ffffffffffffffffffffffffffffffffffffffff1673ffffffffffffffffffffffffffffffffffffffff16815260200190815260200160002054036104ac576040517f08c379a00000000000000000000000000000000000000000000000000000000081526004016104a3906125af565b60405180910390fd5b600083036104ef576040517f08c379a00000000000000000000000000000000000000000000000000000000081526004016104e69061261b565b60405180910390fd5b600760003373ffffffffffffffffffffffffffffffffffffffff1673ffffffffffffffffffffffffffffffffffffffff16815260200190815260200160002054831115610571576040517f08c379a0000000000000000000000000000000000000000000000000000000008152600401610568906126ad565b60405180910390fd5b6000600360003373ffffffffffffffffffffffffffffffffffffffff1673ffffffffffffffffffffffffffffffffffffffff168152602001908152602001600020905060008054906101000a900473ffffffffffffffffffffffffffffffffffffffff1673ffffffffffffffffffffffffffffffffffffffff163373ffffffffffffffffffffffffffffffffffffffff161415801561066057508060010160009054906101000a900473ffffffffffffffffffffffffffffffffffffffff1673ffffffffffffffffffffffffffffffffffffffff163373ffffffffffffffffffffffffffffffffffffffff1614155b61066d5761066c6126cd565b5b6000600360008773ffffffffffffffffffffffffffffffffffffffff1673ffffffffffffffffffffffffffffffffffffffff1681526020019081526020016000209050600073ffffffffffffffffffffffffffffffffffffffff168160010160009054906101000a900473ffffffffffffffffffffffffffffffffffffffff1673ffffffffffffffffffffffffffffffffffffffff1603610743576040517f08c379a000000000000000000000000000000000000000000000000000000000815260040161073a9061276e565b60405180910390fd5b61074e3387876119a9565b6001935050505092915050565b60008060009054906101000a900473ffffffffffffffffffffffffffffffffffffffff1673ffffffffffffffffffffffffffffffffffffffff163373ffffffffffffffffffffffffffffffffffffffff16146107ec576040517f08c379a00000000000000000000000000000000000000000000000000000000081526004016107e3906127da565b60405180910390fd5b61085f82600760008060009054906101000a900473ffffffffffffffffffffffffffffffffffffffff1673ffffffffffffffffffffffffffffffffffffffff1673ffffffffffffffffffffffffffffffffffffffff16815260200190815260200160002054611c3190919063ffffffff16565b600760008060009054906101000a900473ffffffffffffffffffffffffffffffffffffffff1673ffffffffffffffffffffffffffffffffffffffff1673ffffffffffffffffffffffffffffffffffffffff1681526020019081526020016000208190555060019050919050565b6000600954905090565b60008060009054906101000a900473ffffffffffffffffffffffffffffffffffffffff1673ffffffffffffffffffffffffffffffffffffffff163373ffffffffffffffffffffffffffffffffffffffff1614610967576040517f08c379a000000000000000000000000000000000000000000000000000000000815260040161095e906127da565b60405180910390fd5b83600073ffffffffffffffffffffffffffffffffffffffff168173ffffffffffffffffffffffffffffffffffffffff16036109d7576040517f08c379a00000000000000000000000000000000000000000000000000000000081526004016109ce90612846565b60405180910390fd5b6000600360008773ffffffffffffffffffffffffffffffffffffffff1673ffffffffffffffffffffffffffffffffffffffff1681526020019081526020016000209050600073ffffffffffffffffffffffffffffffffffffffff168160010160009054906101000a900473ffffffffffffffffffffffffffffffffffffffff1673ffffffffffffffffffffffffffffffffffffffff1614610aad576040517f08c379a0000000000000000000000000000000000000000000000000000000008152600401610aa4906128d8565b60405180910390fd5b60008054906101000a900473ffffffffffffffffffffffffffffffffffffffff1673ffffffffffffffffffffffffffffffffffffffff168673ffffffffffffffffffffffffffffffffffffffff1603610b3b576040517f08c379a0000000000000000000000000000000000000000000000000000000008152600401610b3290612944565b60405180910390fd5b6001841015610b7f576040517f08c379a0000000000000000000000000000000000000000000000000000000008152600401610b76906129d6565b60405180910390fd5b600060405180608001604052808981526020018873ffffffffffffffffffffffffffffffffffffffff16815260200187815260200186815250905060028190806001815401808255809150506001900390600052602060002090600402016000909190919091506000820151816000019081610bfb9190612c02565b5060208201518160010160006101000a81548173ffffffffffffffffffffffffffffffffffffffff021916908373ffffffffffffffffffffffffffffffffffffffff1602179055506040820151816002019081610c589190612c02565b50606082015181600301555050610c7a60018054611c3190919063ffffffff16565b60018190555080600360008973ffffffffffffffffffffffffffffffffffffffff1673ffffffffffffffffffffffffffffffffffffffff1681526020019081526020016000206000820151816000019081610cd59190612c02565b5060208201518160010160006101000a81548173ffffffffffffffffffffffffffffffffffffffff021916908373ffffffffffffffffffffffffffffffffffffffff1602179055506040820151816002019081610d329190612c02565b50606082015181600301559050508660046000600154815260200190815260200160002060006101000a81548173ffffffffffffffffffffffffffffffffffffffff021916908373ffffffffffffffffffffffffffffffffffffffff1602179055507f6b5d098d49c45279cf1afc02eec71018b4e172ec66e1834863c5d62febaa50b760015489604051610dc7929190612cd4565b60405180910390a160019350505050949350505050565b600080339050610def858285611c5d565b610dfa858585611de2565b5060019150509392505050565b600c5481565b60008060009054906101000a900473ffffffffffffffffffffffffffffffffffffffff1673ffffffffffffffffffffffffffffffffffffffff163373ffffffffffffffffffffffffffffffffffffffff1614610e9e576040517f08c379a0000000000000000000000000000000000000000000000000000000008152600401610e95906127da565b60405180910390fd5b81600073ffffffffffffffffffffffffffffffffffffffff168173ffffffffffffffffffffffffffffffffffffffff1603610f0e576040517f08c379a0000000000000000000000000000000000000000000000000000000008152600401610f0590612846565b60405180910390fd5b6000600360008573ffffffffffffffffffffffffffffffffffffffff1673ffffffffffffffffffffffffffffffffffffffff1681526020019081526020016000209050600073ffffffffffffffffffffffffffffffffffffffff168160010160009054906101000a900473ffffffffffffffffffffffffffffffffffffffff1673ffffffffffffffffffffffffffffffffffffffff1614610fe4576040517f08c379a0000000000000000000000000000000000000000000000000000000008152600401610fdb90612d50565b60405180910390fd5b60008054906101000a900473ffffffffffffffffffffffffffffffffffffffff1673ffffffffffffffffffffffffffffffffffffffff168473ffffffffffffffffffffffffffffffffffffffff1603611072576040517f08c379a000000000000000000000000000000000000000000000000000000000815260040161106990612de2565b60405180910390fd5b6000600560008673ffffffffffffffffffffffffffffffffffffffff1673ffffffffffffffffffffffffffffffffffffffff16815260200190815260200160002054146110f4576040517f08c379a00000000000000000000000000000000000000000000000000000000081526004016110eb90612e4e565b60405180910390fd5b61110a6001600654611c3190919063ffffffff16565b600681905550600654600560008673ffffffffffffffffffffffffffffffffffffffff1673ffffffffffffffffffffffffffffffffffffffff168152602001908152602001600020819055508373ffffffffffffffffffffffffffffffffffffffff167fbac77b32f9eac52b557987e1084037afcfe4d478ef2fc4c8cdae1eb5f86d40a360405160405180910390a260065492505050919050565b60015481565b6000600560008373ffffffffffffffffffffffffffffffffffffffff1673ffffffffffffffffffffffffffffffffffffffff168152602001908152602001600020549050919050565b6000600760008373ffffffffffffffffffffffffffffffffffffffff1673ffffffffffffffffffffffffffffffffffffffff168152602001908152602001600020549050919050565b60008060009054906101000a900473ffffffffffffffffffffffffffffffffffffffff16905090565b600360205280600052604060002060009150905080600001805461128990612a25565b80601f01602080910402602001604051908101604052809291908181526020018280546112b590612a25565b80156113025780601f106112d757610100808354040283529160200191611302565b820191906000526020600020905b8154815290600101906020018083116112e557829003601f168201915b5050505050908060010160009054906101000a900473ffffffffffffffffffffffffffffffffffffffff169080600201805461133d90612a25565b80601f016020809104026020016040519081016040528092919081815260200182805461136990612a25565b80156113b65780601f1061138b576101008083540402835291602001916113b6565b820191906000526020600020905b81548152906001019060200180831161139957829003601f168201915b5050505050908060030154905084565b600082600073ffffffffffffffffffffffffffffffffffffffff168173ffffffffffffffffffffffffffffffffffffffff1603611438576040517f08c379a000000000000000000000000000000000000000000000000000000000815260040161142f90612846565b60405180910390fd5b6000600360003373ffffffffffffffffffffffffffffffffffffffff1673ffffffffffffffffffffffffffffffffffffffff168152602001908152602001600020905060008054906101000a900473ffffffffffffffffffffffffffffffffffffffff1673ffffffffffffffffffffffffffffffffffffffff163373ffffffffffffffffffffffffffffffffffffffff16148061152457508060010160009054906101000a900473ffffffffffffffffffffffffffffffffffffffff1673ffffffffffffffffffffffffffffffffffffffff163373ffffffffffffffffffffffffffffffffffffffff16145b611563576040517f08c379a000000000000000000000000000000000000000000000000000000000815260040161155a90612ee0565b60405180910390fd5b60008054906101000a900473ffffffffffffffffffffffffffffffffffffffff1673ffffffffffffffffffffffffffffffffffffffff163373ffffffffffffffffffffffffffffffffffffffff1603611691576000600360008773ffffffffffffffffffffffffffffffffffffffff1673ffffffffffffffffffffffffffffffffffffffff16815260200190815260200160002090508060010160009054906101000a900473ffffffffffffffffffffffffffffffffffffffff1673ffffffffffffffffffffffffffffffffffffffff168673ffffffffffffffffffffffffffffffffffffffff161461168b576040517f08c379a000000000000000000000000000000000000000000000000000000000815260040161168290612f4c565b60405180910390fd5b50611714565b6000600560008773ffffffffffffffffffffffffffffffffffffffff1673ffffffffffffffffffffffffffffffffffffffff1681526020019081526020016000205403611713576040517f08c379a000000000000000000000000000000000000000000000000000000000815260040161170a906125af565b60405180910390fd5b5b61171f338686611de2565b5060019250505092915050565b6002818154811061173c57600080fd5b906000526020600020906004020160009150905080600001805461175f90612a25565b80601f016020809104026020016040519081016040528092919081815260200182805461178b90612a25565b80156117d85780601f106117ad576101008083540402835291602001916117d8565b820191906000526020600020905b8154815290600101906020018083116117bb57829003601f168201915b5050505050908060010160009054906101000a900473ffffffffffffffffffffffffffffffffffffffff169080600201805461181390612a25565b80601f016020809104026020016040519081016040528092919081815260200182805461183f90612a25565b801561188c5780601f106118615761010080835404028352916020019161188c565b820191906000526020600020905b81548152906001019060200180831161186f57829003601f168201915b5050505050908060030154905084565b60065481565b6000600860008473ffffffffffffffffffffffffffffffffffffffff1673ffffffffffffffffffffffffffffffffffffffff16815260200190815260200160002060008373ffffffffffffffffffffffffffffffffffffffff1673ffffffffffffffffffffffffffffffffffffffff16815260200190815260200160002054905092915050565b600080600283815481106119405761193f612f6c565b5b906000526020600020906004020190506000611969826003015486611f7e90919063ffffffff16565b9050809250505092915050565b60046020528060005260406000206000915054906101000a900473ffffffffffffffffffffffffffffffffffffffff1681565b600073ffffffffffffffffffffffffffffffffffffffff168373ffffffffffffffffffffffffffffffffffffffff1603611a18576040517f08c379a0000000000000000000000000000000000000000000000000000000008152600401611a0f9061300d565b60405180910390fd5b600073ffffffffffffffffffffffffffffffffffffffff168273ffffffffffffffffffffffffffffffffffffffff1603611a87576040517f08c379a0000000000000000000000000000000000000000000000000000000008152600401611a7e9061309f565b60405180910390fd5b6000600860008573ffffffffffffffffffffffffffffffffffffffff1673ffffffffffffffffffffffffffffffffffffffff16815260200190815260200160002060008473ffffffffffffffffffffffffffffffffffffffff1673ffffffffffffffffffffffffffffffffffffffff1681526020019081526020016000205414611b46576040517f08c379a0000000000000000000000000000000000000000000000000000000008152600401611b3d90613131565b60405180910390fd5b80600860008573ffffffffffffffffffffffffffffffffffffffff1673ffffffffffffffffffffffffffffffffffffffff16815260200190815260200160002060008473ffffffffffffffffffffffffffffffffffffffff1673ffffffffffffffffffffffffffffffffffffffff168152602001908152602001600020819055508173ffffffffffffffffffffffffffffffffffffffff168373ffffffffffffffffffffffffffffffffffffffff167f8c5be1e5ebec7d5bd14f71427d1e84f3dd0314c0f7b2291e5b200ac8c7c3b92583604051611c24919061211a565b60405180910390a3505050565b6000808284611c409190613180565b905083811015611c5357611c526126cd565b5b8091505092915050565b6000600860008573ffffffffffffffffffffffffffffffffffffffff1673ffffffffffffffffffffffffffffffffffffffff16815260200190815260200160002060008473ffffffffffffffffffffffffffffffffffffffff1673ffffffffffffffffffffffffffffffffffffffff1681526020019081526020016000205490507fffffffffffffffffffffffffffffffffffffffffffffffffffffffffffffffff8114611ddc5781811015611d48576040517f08c379a0000000000000000000000000000000000000000000000000000000008152600401611d3f90613200565b60405180910390fd5b611d5b8282611f9990919063ffffffff16565b600860008673ffffffffffffffffffffffffffffffffffffffff1673ffffffffffffffffffffffffffffffffffffffff16815260200190815260200160002060008573ffffffffffffffffffffffffffffffffffffffff1673ffffffffffffffffffffffffffffffffffffffff168152602001908152602001600020819055505b50505050565b6000611e3682600760008773ffffffffffffffffffffffffffffffffffffffff1673ffffffffffffffffffffffffffffffffffffffff16815260200190815260200160002054611f9990919063ffffffff16565b600760008673ffffffffffffffffffffffffffffffffffffffff1673ffffffffffffffffffffffffffffffffffffffff16815260200190815260200160002081905550611ecb82600760008673ffffffffffffffffffffffffffffffffffffffff1673ffffffffffffffffffffffffffffffffffffffff16815260200190815260200160002054611c3190919063ffffffff16565b600760008573ffffffffffffffffffffffffffffffffffffffff1673ffffffffffffffffffffffffffffffffffffffff168152602001908152602001600020819055508273ffffffffffffffffffffffffffffffffffffffff168473ffffffffffffffffffffffffffffffffffffffff167fddf252ad1be2c89b69c2b068fc378daa952ba7f163c4a11628f55a4df523b3ef84604051611f6b919061211a565b60405180910390a3600190509392505050565b6000808284611f8d919061324f565b90508091505092915050565b600082821115611fac57611fab6126cd565b5b8183611fb89190613280565b905092915050565b6000604051905090565b600080fd5b600080fd5b600073ffffffffffffffffffffffffffffffffffffffff82169050919050565b6000611fff82611fd4565b9050919050565b61200f81611ff4565b811461201a57600080fd5b50565b60008135905061202c81612006565b92915050565b6000819050919050565b61204581612032565b811461205057600080fd5b50565b6000813590506120628161203c565b92915050565b6000806040838503121561207f5761207e611fca565b5b600061208d8582860161201d565b925050602061209e85828601612053565b9150509250929050565b60008115159050919050565b6120bd816120a8565b82525050565b60006020820190506120d860008301846120b4565b92915050565b6000602082840312156120f4576120f3611fca565b5b600061210284828501612053565b91505092915050565b61211481612032565b82525050565b600060208201905061212f600083018461210b565b92915050565b600080fd5b600080fd5b6000601f19601f8301169050919050565b7f4e487b7100000000000000000000000000000000000000000000000000000000600052604160045260246000fd5b6121888261213f565b810181811067ffffffffffffffff821117156121a7576121a6612150565b5b80604052505050565b60006121ba611fc0565b90506121c6828261217f565b919050565b600067ffffffffffffffff8211156121e6576121e5612150565b5b6121ef8261213f565b9050602081019050919050565b82818337600083830152505050565b600061221e612219846121cb565b6121b0565b90508281526020810184848401111561223a5761223961213a565b5b6122458482856121fc565b509392505050565b600082601f83011261226257612261612135565b5b813561227284826020860161220b565b91505092915050565b600061228682611fd4565b9050919050565b6122968161227b565b81146122a157600080fd5b50565b6000813590506122b38161228d565b92915050565b600080600080608085870312156122d3576122d2611fca565b5b600085013567ffffffffffffffff8111156122f1576122f0611fcf565b5b6122fd8782880161224d565b945050602061230e878288016122a4565b935050604085013567ffffffffffffffff81111561232f5761232e611fcf565b5b61233b8782880161224d565b925050606061234c87828801612053565b91505092959194509250565b60008060006060848603121561237157612370611fca565b5b600061237f8682870161201d565b93505060206123908682870161201d565b92505060406123a186828701612053565b9150509250925092565b6000602082840312156123c1576123c0611fca565b5b60006123cf8482850161201d565b91505092915050565b6123e181611ff4565b82525050565b60006020820190506123fc60008301846123d8565b92915050565b600081519050919050565b600082825260208201905092915050565b60005b8381101561243c578082015181840152602081019050612421565b60008484015250505050565b600061245382612402565b61245d818561240d565b935061246d81856020860161241e565b6124768161213f565b840191505092915050565b61248a8161227b565b82525050565b600060808201905081810360008301526124aa8187612448565b90506124b96020830186612481565b81810360408301526124cb8185612448565b90506124da606083018461210b565b95945050505050565b600080604083850312156124fa576124f9611fca565b5b60006125088582860161201d565b92505060206125198582860161201d565b9150509250929050565b6000806040838503121561253a57612539611fca565b5b600061254885828601612053565b925050602061255985828601612053565b9150509250929050565b7f546869732061646472657373206973206e6f74206120636c69656e7400000000600082015250565b6000612599601c8361240d565b91506125a482612563565b602082019050919050565b600060208201905081810360008301526125c88161258c565b9050919050565b7f45524332303a20416d6f756e742063616e6e6f74206265203000000000000000600082015250565b600061260560198361240d565b9150612610826125cf565b602082019050919050565b60006020820190508181036000830152612634816125f8565b9050919050565b7f416d6f756e742063616e6e6f742062652067726561746572207468616e20626160008201527f6c616e6365000000000000000000000000000000000000000000000000000000602082015250565b600061269760258361240d565b91506126a28261263b565b604082019050919050565b600060208201905081810360008301526126c68161268a565b9050919050565b7f4e487b7100000000000000000000000000000000000000000000000000000000600052600160045260246000fd5b7f45524332303a20746865207370656e6465722073686f756c642062652061207060008201527f6172746e65720000000000000000000000000000000000000000000000000000602082015250565b600061275860268361240d565b9150612763826126fc565b604082019050919050565b600060208201905081810360008301526127878161274b565b9050919050565b7f43616c6c6572206973206e6f74206f776e657200000000000000000000000000600082015250565b60006127c460138361240d565b91506127cf8261278e565b602082019050919050565b600060208201905081810360008301526127f3816127b7565b9050919050565b7f456e74657265642061646472657373206973206e756c6c2e0000000000000000600082015250565b600061283060188361240d565b915061283b826127fa565b602082019050919050565b6000602082019050818103600083015261285f81612823565b9050919050565b7f456e7465726564206164647265737320697320616c726561647920612070617260008201527f746e657221000000000000000000000000000000000000000000000000000000602082015250565b60006128c260258361240d565b91506128cd82612866565b604082019050919050565b600060208201905081810360008301526128f1816128b5565b9050919050565b7f546865206f776e65722063616e6e6f74206265206120706172746e6572210000600082015250565b600061292e601e8361240d565b9150612939826128f8565b602082019050919050565b6000602082019050818103600083015261295d81612921565b9050919050565b7f5468652076616c756520666f72206120546f6b656e2073686f756c642062652060008201527f6174206c65617374203120696e207468652063757272656e63792e0000000000602082015250565b60006129c0603b8361240d565b91506129cb82612964565b604082019050919050565b600060208201905081810360008301526129ef816129b3565b9050919050565b7f4e487b7100000000000000000000000000000000000000000000000000000000600052602260045260246000fd5b60006002820490506001821680612a3d57607f821691505b602082108103612a5057612a4f6129f6565b5b50919050565b60008190508160005260206000209050919050565b60006020601f8301049050919050565b600082821b905092915050565b600060088302612ab87fffffffffffffffffffffffffffffffffffffffffffffffffffffffffffffffff82612a7b565b612ac28683612a7b565b95508019841693508086168417925050509392505050565b6000819050919050565b6000612aff612afa612af584612032565b612ada565b612032565b9050919050565b6000819050919050565b612b1983612ae4565b612b2d612b2582612b06565b848454612a88565b825550505050565b600090565b612b42612b35565b612b4d818484612b10565b505050565b5b81811015612b7157612b66600082612b3a565b600181019050612b53565b5050565b601f821115612bb657612b8781612a56565b612b9084612a6b565b81016020851015612b9f578190505b612bb3612bab85612a6b565b830182612b52565b50505b505050565b600082821c905092915050565b6000612bd960001984600802612bbb565b1980831691505092915050565b6000612bf28383612bc8565b9150826002028217905092915050565b612c0b82612402565b67ffffffffffffffff811115612c2457612c23612150565b5b612c2e8254612a25565b612c39828285612b75565b600060209050601f831160018114612c6c5760008415612c5a578287015190505b612c648582612be6565b865550612ccc565b601f198416612c7a86612a56565b60005b82811015612ca257848901518255600182019150602085019450602081019050612c7d565b86831015612cbf5784890151612cbb601f891682612bc8565b8355505b6001600288020188555050505b505050505050565b6000604082019050612ce9600083018561210b565b8181036020830152612cfb8184612448565b90509392505050565b7f506172746e65722063616e6e6f74206265206120636c69656e74000000000000600082015250565b6000612d3a601a8361240d565b9150612d4582612d04565b602082019050919050565b60006020820190508181036000830152612d6981612d2d565b9050919050565b7f436f6e7472616374206f776e65722063616e6e6f74206265206120636c69656e60008201527f7400000000000000000000000000000000000000000000000000000000000000602082015250565b6000612dcc60218361240d565b9150612dd782612d70565b604082019050919050565b60006020820190508181036000830152612dfb81612dbf565b9050919050565b7f436c69656e7420616c7265616479206578697374730000000000000000000000600082015250565b6000612e3860158361240d565b9150612e4382612e02565b602082019050919050565b60006020820190508181036000830152612e6781612e2b565b9050919050565b7f4f6e6c7920746865206f776e6572206f7220706172746e6572732063616e207460008201527f72616e7366657220746f6b656e732e0000000000000000000000000000000000602082015250565b6000612eca602f8361240d565b9150612ed582612e6e565b604082019050919050565b60006020820190508181036000830152612ef981612ebd565b9050919050565b7f4f776e65722063616e206f6e6c792073656e6420746f20706172746e6572732e600082015250565b6000612f3660208361240d565b9150612f4182612f00565b602082019050919050565b60006020820190508181036000830152612f6581612f29565b9050919050565b7f4e487b7100000000000000000000000000000000000000000000000000000000600052603260045260246000fd5b7f45524332303a20617070726f76652066726f6d20746865207a65726f2061646460008201527f7265737300000000000000000000000000000000000000000000000000000000602082015250565b6000612ff760248361240d565b915061300282612f9b565b604082019050919050565b6000602082019050818103600083015261302681612fea565b9050919050565b7f45524332303a20617070726f766520746f20746865207a65726f20616464726560008201527f7373000000000000000000000000000000000000000000000000000000000000602082015250565b600061308960228361240d565b91506130948261302d565b604082019050919050565b600060208201905081810360008301526130b88161307c565b9050919050565b7f4669727374207370656e6420746865206578697374696e6720616c6c6f77656460008201527f20616d6f756e742e000000000000000000000000000000000000000000000000602082015250565b600061311b60288361240d565b9150613126826130bf565b604082019050919050565b6000602082019050818103600083015261314a8161310e565b9050919050565b7f4e487b7100000000000000000000000000000000000000000000000000000000600052601160045260246000fd5b600061318b82612032565b915061319683612032565b92508282019050808211156131ae576131ad613151565b5b92915050565b7f45524332303a20696e73756666696369656e7420616c6c6f77616e6365000000600082015250565b60006131ea601d8361240d565b91506131f5826131b4565b602082019050919050565b60006020820190508181036000830152613219816131dd565b9050919050565b7f4e487b7100000000000000000000000000000000000000000000000000000000600052601260045260246000fd5b600061325a82612032565b915061326583612032565b92508261327557613274613220565b5b828204905092915050565b600061328b82612032565b915061329683612032565b92508282039050818111156132ae576132ad613151565b5b9291505056fea2646970667358221220c2ecd628401fa53ba3ff60d4433bfb1b9f7383d04d6dbca2bf90cbb91be0e3b864736f6c63430008130033",
  "immutableReferences": {},
  "source": "// SPDX-License-Identifier: MIT\r\npragma solidity ^0.8.19;\r\n\r\nimport \"@openzeppelin/contracts/token/ERC20/IERC20.sol\";\r\nimport \"./2_PayBackPartnership.sol\";\r\nimport \"./3_PayBackClients.sol\";\r\n\r\ncontract PayBackToken is IERC20, PayBackPartnership, PayBackClients {\r\n    using SafeMath for uint256;\r\n\r\n    //should be private?\r\n    mapping(address => uint256) private _balances;\r\n    //the owner->spender->amount\r\n    mapping(address => mapping(address => uint256)) private _allowed;\r\n\r\n    uint256 private _totalSupply;\r\n    string private _name;\r\n    string private _symbol;\r\n    uint256 public _decimals;\r\n\r\n    /**\r\n     * @dev Sets the values for {name} and {symbol}.\r\n     *\r\n     * All two of these values are immutable: they can only be set once during\r\n     * construction.\r\n     */\r\n    constructor(\r\n        string memory name_,\r\n        string memory symbol_,\r\n        uint256 initialSupply_,\r\n        uint256 decimals_\r\n    ) {\r\n        _name = name_;\r\n        _symbol = symbol_;\r\n        _totalSupply = initialSupply_;\r\n        _decimals = decimals_;\r\n\r\n        _balances[_owner] = initialSupply_;\r\n    }\r\n\r\n    /**\r\n     * @dev Returns the amount of tokens in existence.\r\n     */\r\n    function totalSupply() public view returns (uint256) {\r\n        return _totalSupply;\r\n    }\r\n\r\n    /**\r\n     * @dev Returns the amount of tokens owned by `account`.\r\n     */\r\n    function balanceOf(address account) public view returns (uint256) {\r\n        return _balances[account];\r\n    }\r\n\r\n    /**\r\n     * @dev Moves `amount` tokens from the caller's account to `to`.\r\n     *\r\n     * Returns a boolean value indicating whether the operation succeeded.\r\n     *\r\n     * Emits a {Transfer} event.\r\n     */\r\n    /**\r\n     * @dev See {IERC20-transfer}.\r\n     *\r\n     * Requirements:\r\n     *\r\n     * - `to` cannot be the zero address.\r\n     * - the caller must have a balance of at least `amount`.\r\n     */\r\n\r\n    function transfer(address _to, uint256 _amount)\r\n        public\r\n        addrNotNull(_to)\r\n        returns (bool)\r\n    {\r\n        //there is no min or max value here\r\n        //there are 2 cases!\r\n        // check if the msg.sender is owner or partner\r\n        Partner storage p_sender = addrToPartner[msg.sender];\r\n        require(\r\n            msg.sender == _owner || msg.sender == p_sender.walletAddr,\r\n            \"Only the owner or partners can transfer tokens.\"\r\n        );\r\n\r\n        //CASE 1: Contract Owner Payback wants to send his partner some tokens\r\n        if (msg.sender == _owner) {\r\n            Partner storage p_to = addrToPartner[_to];\r\n            require(_to == p_to.walletAddr, \"Owner can only send to partners.\");\r\n        }\r\n        //CASE 2: Partner wants to sent his client some tokens\r\n        else {\r\n            //check if _to is a registered client\r\n            require(_clientAddrToId[_to] != 0, \"This address is not a client\");\r\n        }\r\n\r\n        _transfer(msg.sender, _to, _amount);\r\n\r\n        return true;\r\n    }\r\n\r\n    function _transfer(\r\n        address _from,\r\n        address _to,\r\n        uint256 _amount\r\n    ) internal returns (bool) {\r\n        _balances[_from] = _balances[_from].sub(_amount);\r\n        _balances[_to] = _balances[_to].add(_amount);\r\n\r\n        emit Transfer(_from, _to, _amount);\r\n        return true;\r\n    }\r\n\r\n    /**\r\n     * @dev Function to check the amount of tokens than an owner allowed to a spender.\r\n     * @param _owner address The address which owns the funds.\r\n     * @param _spender address The address which will spend the funds.\r\n     * @return A uint specifying the amount of tokens still available for the spender.\r\n     */\r\n    function allowance(address _owner, address _spender)\r\n        public\r\n        view\r\n        returns (uint256)\r\n    {\r\n        //the owner is the owner of the tokens that allows someone else to transfer the amount for him\r\n        return _allowed[_owner][_spender];\r\n    }\r\n\r\n    \r\n    function approve(address _spender, uint256 _amount) public isClient(msg.sender) returns (bool) {\r\n      \r\n\r\n        //the amount\r\n        require(_amount != 0, \"ERC20: Amount cannot be 0\");\r\n        require(\r\n            _amount <= _balances[msg.sender],\r\n            \"Amount cannot be greater than balance\"\r\n        );\r\n        //the owner is a client, means cannot be partner or contract owner\r\n        //should never happen\r\n        Partner storage p_sender = addrToPartner[msg.sender];\r\n        assert(msg.sender != _owner && msg.sender != p_sender.walletAddr);\r\n\r\n        //MAYBE : Spender can also be the contract owner? TO DECIDE WHO IS PAYING FOR THE TRANSACTIONS OF THE PARTNERS\r\n        //the spender is partner, not contract owner\r\n        Partner storage p_spender = addrToPartner[_spender];\r\n        require(\r\n            p_spender.walletAddr != address(0),\r\n            \"ERC20: the spender should be a partner\"\r\n        );\r\n        //the amount should be 100, 200, 1000, 2000, 5000?\r\n        //check if msg.sender is client?\r\n        //check if spender is partner\r\n        _approve(msg.sender, _spender, _amount);\r\n        return true;\r\n    }\r\n\r\n    function _approve(\r\n        address owner,\r\n        address spender,\r\n        uint256 amount\r\n    ) internal virtual {\r\n        //addresses are not zero\r\n        require(owner != address(0), \"ERC20: approve from the zero address\");\r\n        require(spender != address(0), \"ERC20: approve to the zero address\");      \r\n\r\n        //cannot create a new allowance before the existing is spent\r\n        require(\r\n            _allowed[owner][spender] == 0,\r\n            \"First spend the existing allowed amount.\"\r\n        );\r\n\r\n        _allowed[owner][spender] = amount;\r\n        emit Approval(owner, spender, amount);\r\n    }\r\n\r\n    function transferFrom(\r\n        address _from,\r\n        address _to,\r\n        uint256 _amount\r\n    ) public returns (bool) {\r\n\r\n        address spender = msg.sender;\r\n \r\n        _spendAllowance(_from, spender, _amount);\r\n        _transfer(_from, _to, _amount);\r\n        \r\n        return true;\r\n    }\r\n\r\n    function _spendAllowance(\r\n        address owner,\r\n        address spender,\r\n        uint256 amount\r\n    ) internal virtual {\r\n        //get the allowed amount and check if is allowed in the same time\r\n        uint256 currentAllowance = _allowed[owner][spender];\r\n        if (currentAllowance != type(uint256).max) {\r\n            require(\r\n                currentAllowance >= amount,\r\n                \"ERC20: insufficient allowance\"\r\n            );\r\n            _allowed[owner][spender] = currentAllowance.sub(amount);\r\n        }\r\n    }\r\n\r\n    //----------------------------------Additional functions----------------------------------\r\n\r\n    function loadTotalSupply(uint256 _amount) public isOwner returns (bool) {\r\n        //ACH ... there can be a max amout to load\r\n        _balances[_owner] = _balances[_owner].add(_amount);\r\n        return true;\r\n    }\r\n}\r\n",
  "sourcePath": "C:\\Users\\aselim\\Documents\\GitHub\\PayBackOnBlockchain\\payback-token-truffle\\contracts\\4_PayBackToken.sol",
  "compiler": {
    "name": "solc",
    "version": "0.8.19+commit.7dd6d404.Emscripten.clang"
  },
  "schemaVersion": "3.4.14",
  "updatedAt": "2023-07-31T10:36:30.776Z",
  "networkType": "ethereum",
  "devdoc": {
    "events": {
      "Approval(address,address,uint256)": {
        "details": "Emitted when the allowance of a `spender` for an `owner` is set by a call to {approve}. `value` is the new allowance."
      },
      "Transfer(address,address,uint256)": {
        "details": "Emitted when `value` tokens are moved from one account (`from`) to another (`to`). Note that `value` may be zero."
      }
    },
    "kind": "dev",
    "methods": {
      "allowance(address,address)": {
        "details": "Function to check the amount of tokens than an owner allowed to a spender.",
        "params": {
          "_owner": "address The address which owns the funds.",
          "_spender": "address The address which will spend the funds."
        },
        "returns": {
          "_0": "A uint specifying the amount of tokens still available for the spender."
        }
      },
      "balanceOf(address)": {
        "details": "Returns the amount of tokens owned by `account`."
      },
      "constructor": {
        "details": "Sets the values for {name} and {symbol}. All two of these values are immutable: they can only be set once during construction."
      },
      "getOwner()": {
        "details": "Return owner address ",
        "returns": {
          "_0": "address of owner"
        }
      },
      "totalSupply()": {
        "details": "Returns the amount of tokens in existence."
      },
      "transfer(address,uint256)": {
        "details": "See {IERC20-transfer}. Requirements: - `to` cannot be the zero address. - the caller must have a balance of at least `amount`."
      }
    },
    "version": 1
  },
  "userdoc": {
    "kind": "user",
    "methods": {},
    "version": 1
  }
}