{
  "contractName": "PayBackToken",
  "abi": [
    {
      "inputs": [
        {
          "internalType": "string",
          "name": "_name",
          "type": "string"
        },
        {
          "internalType": "string",
          "name": "_symbol",
          "type": "string"
        },
        {
          "internalType": "uint256",
          "name": "_initialSupply",
          "type": "uint256"
        },
        {
          "internalType": "uint8",
          "name": "_decimals",
          "type": "uint8"
        },
        {
          "internalType": "uint256",
          "name": "_minTokensToRedeem",
          "type": "uint256"
        }
      ],
      "stateMutability": "nonpayable",
      "type": "constructor"
    },
    {
      "anonymous": false,
      "inputs": [
        {
          "indexed": true,
          "internalType": "address",
          "name": "owner",
          "type": "address"
        },
        {
          "indexed": true,
          "internalType": "address",
          "name": "spender",
          "type": "address"
        },
        {
          "indexed": false,
          "internalType": "uint256",
          "name": "value",
          "type": "uint256"
        }
      ],
      "name": "Approval",
      "type": "event"
    },
    {
      "anonymous": false,
      "inputs": [
        {
          "indexed": true,
          "internalType": "address",
          "name": "_addr",
          "type": "address"
        }
      ],
      "name": "ClientRegistered",
      "type": "event"
    },
    {
      "anonymous": false,
      "inputs": [
        {
          "indexed": false,
          "internalType": "uint256",
          "name": "partnerId",
          "type": "uint256"
        },
        {
          "indexed": false,
          "internalType": "string",
          "name": "name",
          "type": "string"
        }
      ],
      "name": "PartnerAdded",
      "type": "event"
    },
    {
      "anonymous": false,
      "inputs": [
        {
          "indexed": true,
          "internalType": "address",
          "name": "from",
          "type": "address"
        },
        {
          "indexed": true,
          "internalType": "address",
          "name": "to",
          "type": "address"
        },
        {
          "indexed": false,
          "internalType": "uint256",
          "name": "value",
          "type": "uint256"
        }
      ],
      "name": "Transfer",
      "type": "event"
    },
    {
      "inputs": [
        {
          "internalType": "address",
          "name": "_addr",
          "type": "address"
        }
      ],
      "name": "addClient",
      "outputs": [
        {
          "internalType": "uint256",
          "name": "",
          "type": "uint256"
        }
      ],
      "stateMutability": "nonpayable",
      "type": "function"
    },
    {
      "inputs": [
        {
          "internalType": "string",
          "name": "_name",
          "type": "string"
        },
        {
          "internalType": "address payable",
          "name": "_addr",
          "type": "address"
        },
        {
          "internalType": "string",
          "name": "_currency",
          "type": "string"
        },
        {
          "internalType": "uint256",
          "name": "_valueForToken",
          "type": "uint256"
        }
      ],
      "name": "addPartner",
      "outputs": [
        {
          "internalType": "bool",
          "name": "",
          "type": "bool"
        }
      ],
      "stateMutability": "nonpayable",
      "type": "function"
    },
    {
      "inputs": [
        {
          "internalType": "address",
          "name": "",
          "type": "address"
        }
      ],
      "name": "addrToClientId",
      "outputs": [
        {
          "internalType": "uint256",
          "name": "",
          "type": "uint256"
        }
      ],
      "stateMutability": "view",
      "type": "function"
    },
    {
      "inputs": [
        {
          "internalType": "address",
          "name": "",
          "type": "address"
        }
      ],
      "name": "addrToPartnerId",
      "outputs": [
        {
          "internalType": "uint256",
          "name": "",
          "type": "uint256"
        }
      ],
      "stateMutability": "view",
      "type": "function"
    },
    {
      "inputs": [
        {
          "internalType": "uint256",
          "name": "_roundValue",
          "type": "uint256"
        },
        {
          "internalType": "uint256",
          "name": "_partnerId",
          "type": "uint256"
        }
      ],
      "name": "calcPointsToEarn",
      "outputs": [
        {
          "internalType": "uint256",
          "name": "",
          "type": "uint256"
        }
      ],
      "stateMutability": "view",
      "type": "function"
    },
    {
      "inputs": [],
      "name": "decimals",
      "outputs": [
        {
          "internalType": "uint8",
          "name": "",
          "type": "uint8"
        }
      ],
      "stateMutability": "view",
      "type": "function"
    },
    {
      "inputs": [],
      "name": "getOwner",
      "outputs": [
        {
          "internalType": "address",
          "name": "",
          "type": "address"
        }
      ],
      "stateMutability": "view",
      "type": "function"
    },
    {
      "inputs": [],
      "name": "minTokensToRedeem",
      "outputs": [
        {
          "internalType": "uint256",
          "name": "",
          "type": "uint256"
        }
      ],
      "stateMutability": "view",
      "type": "function"
    },
    {
      "inputs": [],
      "name": "name",
      "outputs": [
        {
          "internalType": "string",
          "name": "",
          "type": "string"
        }
      ],
      "stateMutability": "view",
      "type": "function"
    },
    {
      "inputs": [],
      "name": "numClient",
      "outputs": [
        {
          "internalType": "uint256",
          "name": "",
          "type": "uint256"
        }
      ],
      "stateMutability": "view",
      "type": "function"
    },
    {
      "inputs": [],
      "name": "numPartner",
      "outputs": [
        {
          "internalType": "uint256",
          "name": "",
          "type": "uint256"
        }
      ],
      "stateMutability": "view",
      "type": "function"
    },
    {
      "inputs": [
        {
          "internalType": "uint256",
          "name": "",
          "type": "uint256"
        }
      ],
      "name": "partners",
      "outputs": [
        {
          "internalType": "string",
          "name": "name",
          "type": "string"
        },
        {
          "internalType": "address payable",
          "name": "walletAddr",
          "type": "address"
        },
        {
          "internalType": "string",
          "name": "currency",
          "type": "string"
        },
        {
          "internalType": "uint256",
          "name": "valueForToken",
          "type": "uint256"
        }
      ],
      "stateMutability": "view",
      "type": "function"
    },
    {
      "inputs": [
        {
          "internalType": "uint256",
          "name": "id",
          "type": "uint256"
        }
      ],
      "name": "removePartner",
      "outputs": [],
      "stateMutability": "nonpayable",
      "type": "function"
    },
    {
      "inputs": [],
      "name": "symbol",
      "outputs": [
        {
          "internalType": "string",
          "name": "",
          "type": "string"
        }
      ],
      "stateMutability": "view",
      "type": "function"
    },
    {
      "inputs": [],
      "name": "totalSupply",
      "outputs": [
        {
          "internalType": "uint256",
          "name": "",
          "type": "uint256"
        }
      ],
      "stateMutability": "view",
      "type": "function"
    },
    {
      "inputs": [
        {
          "internalType": "address",
          "name": "account",
          "type": "address"
        }
      ],
      "name": "balanceOf",
      "outputs": [
        {
          "internalType": "uint256",
          "name": "",
          "type": "uint256"
        }
      ],
      "stateMutability": "view",
      "type": "function"
    },
    {
      "inputs": [
        {
          "internalType": "address",
          "name": "_to",
          "type": "address"
        },
        {
          "internalType": "uint256",
          "name": "_amount",
          "type": "uint256"
        }
      ],
      "name": "transfer",
      "outputs": [
        {
          "internalType": "bool",
          "name": "",
          "type": "bool"
        }
      ],
      "stateMutability": "nonpayable",
      "type": "function"
    },
    {
      "inputs": [
        {
          "internalType": "address",
          "name": "_owner",
          "type": "address"
        },
        {
          "internalType": "address",
          "name": "_spender",
          "type": "address"
        }
      ],
      "name": "allowance",
      "outputs": [
        {
          "internalType": "uint256",
          "name": "",
          "type": "uint256"
        }
      ],
      "stateMutability": "view",
      "type": "function"
    },
    {
      "inputs": [
        {
          "internalType": "address",
          "name": "_spender",
          "type": "address"
        },
        {
          "internalType": "uint256",
          "name": "_amount",
          "type": "uint256"
        }
      ],
      "name": "approve",
      "outputs": [
        {
          "internalType": "bool",
          "name": "",
          "type": "bool"
        }
      ],
      "stateMutability": "nonpayable",
      "type": "function"
    },
    {
      "inputs": [
        {
          "internalType": "address",
          "name": "_from",
          "type": "address"
        },
        {
          "internalType": "address",
          "name": "_to",
          "type": "address"
        },
        {
          "internalType": "uint256",
          "name": "_amount",
          "type": "uint256"
        }
      ],
      "name": "transferFrom",
      "outputs": [
        {
          "internalType": "bool",
          "name": "",
          "type": "bool"
        }
      ],
      "stateMutability": "nonpayable",
      "type": "function"
    },
    {
      "inputs": [
        {
          "internalType": "uint256",
          "name": "_amount",
          "type": "uint256"
        }
      ],
      "name": "loadTotalSupply",
      "outputs": [
        {
          "internalType": "bool",
          "name": "",
          "type": "bool"
        }
      ],
      "stateMutability": "nonpayable",
      "type": "function"
    }
  ],
  "bytecode": "0x60806040523480156200001157600080fd5b5060405162003a9838038062003a9883398181016040528101906200003791906200045b565b336000806101000a81548173ffffffffffffffffffffffffffffffffffffffff021916908373ffffffffffffffffffffffffffffffffffffffff160217905550600060018190555060006040518060800160405280604051806020016040528060008152508152602001600073ffffffffffffffffffffffffffffffffffffffff16815260200160405180602001604052806000815250815260200160008152509050600281908060018154018082558091505060019003906000526020600020906004020160009091909190915060008201518160000190816200011d919062000762565b5060208201518160010160006101000a81548173ffffffffffffffffffffffffffffffffffffffff021916908373ffffffffffffffffffffffffffffffffffffffff16021790555060408201518160020190816200017c919062000762565b506060820151816003015550505060006005819055508460069081620001a3919062000762565b508360079081620001b5919062000762565b508260098190555081600860006101000a81548160ff021916908360ff16021790555080600a8190555082600b60008060009054906101000a900473ffffffffffffffffffffffffffffffffffffffff1673ffffffffffffffffffffffffffffffffffffffff1673ffffffffffffffffffffffffffffffffffffffff16815260200190815260200160002081905550505050505062000849565b6000604051905090565b600080fd5b600080fd5b600080fd5b600080fd5b6000601f19601f8301169050919050565b7f4e487b7100000000000000000000000000000000000000000000000000000000600052604160045260246000fd5b620002b8826200026d565b810181811067ffffffffffffffff82111715620002da57620002d96200027e565b5b80604052505050565b6000620002ef6200024f565b9050620002fd8282620002ad565b919050565b600067ffffffffffffffff82111562000320576200031f6200027e565b5b6200032b826200026d565b9050602081019050919050565b60005b83811015620003585780820151818401526020810190506200033b565b60008484015250505050565b60006200037b620003758462000302565b620002e3565b9050828152602081018484840111156200039a576200039962000268565b5b620003a784828562000338565b509392505050565b600082601f830112620003c757620003c662000263565b5b8151620003d984826020860162000364565b91505092915050565b6000819050919050565b620003f781620003e2565b81146200040357600080fd5b50565b6000815190506200041781620003ec565b92915050565b600060ff82169050919050565b62000435816200041d565b81146200044157600080fd5b50565b60008151905062000455816200042a565b92915050565b600080600080600060a086880312156200047a576200047962000259565b5b600086015167ffffffffffffffff8111156200049b576200049a6200025e565b5b620004a988828901620003af565b955050602086015167ffffffffffffffff811115620004cd57620004cc6200025e565b5b620004db88828901620003af565b9450506040620004ee8882890162000406565b9350506060620005018882890162000444565b9250506080620005148882890162000406565b9150509295509295909350565b600081519050919050565b7f4e487b7100000000000000000000000000000000000000000000000000000000600052602260045260246000fd5b600060028204905060018216806200057457607f821691505b6020821081036200058a57620005896200052c565b5b50919050565b60008190508160005260206000209050919050565b60006020601f8301049050919050565b600082821b905092915050565b600060088302620005f47fffffffffffffffffffffffffffffffffffffffffffffffffffffffffffffffff82620005b5565b620006008683620005b5565b95508019841693508086168417925050509392505050565b6000819050919050565b6000620006436200063d6200063784620003e2565b62000618565b620003e2565b9050919050565b6000819050919050565b6200065f8362000622565b620006776200066e826200064a565b848454620005c2565b825550505050565b600090565b6200068e6200067f565b6200069b81848462000654565b505050565b5b81811015620006c357620006b760008262000684565b600181019050620006a1565b5050565b601f8211156200071257620006dc8162000590565b620006e784620005a5565b81016020851015620006f7578190505b6200070f6200070685620005a5565b830182620006a0565b50505b505050565b600082821c905092915050565b6000620007376000198460080262000717565b1980831691505092915050565b600062000752838362000724565b9150826002028217905092915050565b6200076d8262000521565b67ffffffffffffffff8111156200078957620007886200027e565b5b6200079582546200055b565b620007a2828285620006c7565b600060209050601f831160018114620007da5760008415620007c5578287015190505b620007d1858262000744565b86555062000841565b601f198416620007ea8662000590565b60005b828110156200081457848901518255600182019150602085019450602081019050620007ed565b8683101562000834578489015162000830601f89168262000724565b8355505b6001600288020188555050505b505050505050565b61323f80620008596000396000f3fe608060405234801561001057600080fd5b50600436106101375760003560e01c806370a08231116100b8578063c3b49d041161007c578063c3b49d041461037a578063c785f593146103ad578063dd62ed3e146103cb578063e0416926146103fb578063e15cfad21461042b578063faa5e4e21461045b57610137565b806370a08231146102c25780637d1d8cc0146102f2578063893d20e81461030e57806395d89b411461032c578063a9059cbb1461034a57610137565b806323b872dd116100ff57806323b872dd14610208578063313ce5671461023857806343928cfd146102565780634a9596ce146102865780634b8e3961146102a457610137565b806306fdde031461013c578063095ea7b31461015a57806313869f851461018a57806318160ddd146101ba578063210e870d146101d8575b600080fd5b61014461048b565b6040516101519190611f64565b60405180910390f35b610174600480360381019061016f919061202e565b610519565b6040516101819190612089565b60405180910390f35b6101a4600480360381019061019f91906120a4565b6106c2565b6040516101b19190612089565b60405180910390f35b6101c261082c565b6040516101cf91906120e0565b60405180910390f35b6101f260048036038101906101ed919061226e565b610832565b6040516101ff9190612089565b60405180910390f35b610222600480360381019061021d919061230d565b610c95565b60405161022f9190612089565b60405180910390f35b610240610ce0565b60405161024d919061237c565b60405180910390f35b610270600480360381019061026b9190612397565b610cf3565b60405161027d91906120e0565b60405180910390f35b61028e611030565b60405161029b91906120e0565b60405180910390f35b6102ac611036565b6040516102b991906120e0565b60405180910390f35b6102dc60048036038101906102d79190612397565b61103c565b6040516102e991906120e0565b60405180910390f35b61030c600480360381019061030791906120a4565b611085565b005b61031661118a565b60405161032391906123d3565b60405180910390f35b6103346111b3565b6040516103419190611f64565b60405180910390f35b610364600480360381019061035f919061202e565b611241565b6040516103719190612089565b60405180910390f35b610394600480360381019061038f91906120a4565b611715565b6040516103a494939291906123fd565b60405180910390f35b6103b5611885565b6040516103c291906120e0565b60405180910390f35b6103e560048036038101906103e09190612450565b61188b565b6040516103f291906120e0565b60405180910390f35b61041560048036038101906104109190612397565b611912565b60405161042291906120e0565b60405180910390f35b61044560048036038101906104409190612490565b61192a565b60405161045291906120e0565b60405180910390f35b61047560048036038101906104709190612397565b611970565b60405161048291906120e0565b60405180910390f35b60068054610498906124ff565b80601f01602080910402602001604051908101604052809291908181526020018280546104c4906124ff565b80156105115780601f106104e657610100808354040283529160200191610511565b820191906000526020600020905b8154815290600101906020018083116104f457829003601f168201915b505050505081565b600080600360003373ffffffffffffffffffffffffffffffffffffffff1673ffffffffffffffffffffffffffffffffffffffff168152602001908152602001600020541415806105a957506000600460003373ffffffffffffffffffffffffffffffffffffffff1673ffffffffffffffffffffffffffffffffffffffff1681526020019081526020016000205414155b6105e8576040517f08c379a00000000000000000000000000000000000000000000000000000000081526004016105df906125a2565b60405180910390fd5b6000820361062b576040517f08c379a00000000000000000000000000000000000000000000000000000000081526004016106229061260e565b60405180910390fd5b81600b60003373ffffffffffffffffffffffffffffffffffffffff1673ffffffffffffffffffffffffffffffffffffffff1681526020019081526020016000205410156106ad576040517f08c379a00000000000000000000000000000000000000000000000000000000081526004016106a4906126a0565b60405180910390fd5b6106b8338484611988565b6001905092915050565b60008060009054906101000a900473ffffffffffffffffffffffffffffffffffffffff1673ffffffffffffffffffffffffffffffffffffffff163373ffffffffffffffffffffffffffffffffffffffff1614610753576040517f08c379a000000000000000000000000000000000000000000000000000000000815260040161074a9061270c565b60405180910390fd5b81600b60008060009054906101000a900473ffffffffffffffffffffffffffffffffffffffff1673ffffffffffffffffffffffffffffffffffffffff1673ffffffffffffffffffffffffffffffffffffffff168152602001908152602001600020546107bf919061275b565b600b60008060009054906101000a900473ffffffffffffffffffffffffffffffffffffffff1673ffffffffffffffffffffffffffffffffffffffff1673ffffffffffffffffffffffffffffffffffffffff1681526020019081526020016000208190555060019050919050565b60095481565b60008060009054906101000a900473ffffffffffffffffffffffffffffffffffffffff1673ffffffffffffffffffffffffffffffffffffffff163373ffffffffffffffffffffffffffffffffffffffff16146108c3576040517f08c379a00000000000000000000000000000000000000000000000000000000081526004016108ba9061270c565b60405180910390fd5b83600073ffffffffffffffffffffffffffffffffffffffff168173ffffffffffffffffffffffffffffffffffffffff1603610933576040517f08c379a000000000000000000000000000000000000000000000000000000000815260040161092a90612801565b60405180910390fd5b6000600360008773ffffffffffffffffffffffffffffffffffffffff1673ffffffffffffffffffffffffffffffffffffffff16815260200190815260200160002054146109b5576040517f08c379a00000000000000000000000000000000000000000000000000000000081526004016109ac90612893565b60405180910390fd5b60008054906101000a900473ffffffffffffffffffffffffffffffffffffffff1673ffffffffffffffffffffffffffffffffffffffff168573ffffffffffffffffffffffffffffffffffffffff1603610a43576040517f08c379a0000000000000000000000000000000000000000000000000000000008152600401610a3a90612925565b60405180910390fd5b6001831015610a87576040517f08c379a0000000000000000000000000000000000000000000000000000000008152600401610a7e906129dd565b60405180910390fd5b600060405180608001604052808881526020018773ffffffffffffffffffffffffffffffffffffffff16815260200186815260200185815250905060028190806001815401808255809150506001900390600052602060002090600402016000909190919091506000820151816000019081610b039190612ba9565b5060208201518160010160006101000a81548173ffffffffffffffffffffffffffffffffffffffff021916908373ffffffffffffffffffffffffffffffffffffffff1602179055506040820151816002019081610b609190612ba9565b50606082015181600301555050600160008154610b7c90612c7b565b91905081905550600154600360008873ffffffffffffffffffffffffffffffffffffffff1673ffffffffffffffffffffffffffffffffffffffff168152602001908152602001600020819055508573ffffffffffffffffffffffffffffffffffffffff16600260015481548110610bf657610bf5612cc3565b5b906000526020600020906004020160010160009054906101000a900473ffffffffffffffffffffffffffffffffffffffff1673ffffffffffffffffffffffffffffffffffffffff1614610c4c57610c4b612cf2565b5b7f6b5d098d49c45279cf1afc02eec71018b4e172ec66e1834863c5d62febaa50b760015488604051610c7f929190612d21565b60405180910390a1600192505050949350505050565b6000803390506000610ca8868386611b1f565b90506001151581151503610cc757610cc1868686611ce9565b50610cd2565b600092505050610cd9565b6001925050505b9392505050565b600860009054906101000a900460ff1681565b60008060009054906101000a900473ffffffffffffffffffffffffffffffffffffffff1673ffffffffffffffffffffffffffffffffffffffff163373ffffffffffffffffffffffffffffffffffffffff1614610d84576040517f08c379a0000000000000000000000000000000000000000000000000000000008152600401610d7b9061270c565b60405180910390fd5b81600073ffffffffffffffffffffffffffffffffffffffff168173ffffffffffffffffffffffffffffffffffffffff1603610df4576040517f08c379a0000000000000000000000000000000000000000000000000000000008152600401610deb90612801565b60405180910390fd5b6000600360008573ffffffffffffffffffffffffffffffffffffffff1673ffffffffffffffffffffffffffffffffffffffff1681526020019081526020016000205414610e76576040517f08c379a0000000000000000000000000000000000000000000000000000000008152600401610e6d90612893565b60405180910390fd5b60008054906101000a900473ffffffffffffffffffffffffffffffffffffffff1673ffffffffffffffffffffffffffffffffffffffff168373ffffffffffffffffffffffffffffffffffffffff1603610f04576040517f08c379a0000000000000000000000000000000000000000000000000000000008152600401610efb90612dc3565b60405180910390fd5b6000600460008573ffffffffffffffffffffffffffffffffffffffff1673ffffffffffffffffffffffffffffffffffffffff1681526020019081526020016000205414610f86576040517f08c379a0000000000000000000000000000000000000000000000000000000008152600401610f7d90612e2f565b60405180910390fd5b600560008154610f9590612c7b565b91905081905550600554600460008573ffffffffffffffffffffffffffffffffffffffff1673ffffffffffffffffffffffffffffffffffffffff168152602001908152602001600020819055508273ffffffffffffffffffffffffffffffffffffffff167f2ce5ee634dc8e65bbbad43d4ca6b4413f261b6a5dd89d79f5db67892e4512d1a60405160405180910390a2600554915050919050565b60015481565b600a5481565b6000600b60008373ffffffffffffffffffffffffffffffffffffffff1673ffffffffffffffffffffffffffffffffffffffff168152602001908152602001600020549050919050565b60008054906101000a900473ffffffffffffffffffffffffffffffffffffffff1673ffffffffffffffffffffffffffffffffffffffff163373ffffffffffffffffffffffffffffffffffffffff1614611113576040517f08c379a000000000000000000000000000000000000000000000000000000000815260040161110a9061270c565b60405180910390fd5b6002818154811061112757611126612cc3565b5b9060005260206000209060040201600080820160006111469190611e77565b6001820160006101000a81549073ffffffffffffffffffffffffffffffffffffffff021916905560028201600061117d9190611e77565b6003820160009055505050565b60008060009054906101000a900473ffffffffffffffffffffffffffffffffffffffff16905090565b600780546111c0906124ff565b80601f01602080910402602001604051908101604052809291908181526020018280546111ec906124ff565b80156112395780601f1061120e57610100808354040283529160200191611239565b820191906000526020600020905b81548152906001019060200180831161121c57829003601f168201915b505050505081565b600082600073ffffffffffffffffffffffffffffffffffffffff168173ffffffffffffffffffffffffffffffffffffffff16036112b3576040517f08c379a00000000000000000000000000000000000000000000000000000000081526004016112aa90612801565b60405180910390fd5b60008054906101000a900473ffffffffffffffffffffffffffffffffffffffff1673ffffffffffffffffffffffffffffffffffffffff163373ffffffffffffffffffffffffffffffffffffffff160361138d576000600360008673ffffffffffffffffffffffffffffffffffffffff1673ffffffffffffffffffffffffffffffffffffffff1681526020019081526020016000205403611388576040517f08c379a000000000000000000000000000000000000000000000000000000000815260040161137f90612ec1565b60405180910390fd5b6116fd565b6000600360003373ffffffffffffffffffffffffffffffffffffffff1673ffffffffffffffffffffffffffffffffffffffff16815260200190815260200160002054146114b2576000600460008673ffffffffffffffffffffffffffffffffffffffff1673ffffffffffffffffffffffffffffffffffffffff1681526020019081526020016000205414158061146e575060008054906101000a900473ffffffffffffffffffffffffffffffffffffffff1673ffffffffffffffffffffffffffffffffffffffff168473ffffffffffffffffffffffffffffffffffffffff16145b6114ad576040517f08c379a00000000000000000000000000000000000000000000000000000000081526004016114a490612f53565b60405180910390fd5b6116fc565b6000600460003373ffffffffffffffffffffffffffffffffffffffff1673ffffffffffffffffffffffffffffffffffffffff16815260200190815260200160002054146116f2576000600460008673ffffffffffffffffffffffffffffffffffffffff1673ffffffffffffffffffffffffffffffffffffffff16815260200190815260200160002054146115c857600a54600b60003373ffffffffffffffffffffffffffffffffffffffff1673ffffffffffffffffffffffffffffffffffffffff16815260200190815260200160002054106115c3576040517f08c379a00000000000000000000000000000000000000000000000000000000081526004016115ba9061300b565b60405180910390fd5b6116ed565b60008054906101000a900473ffffffffffffffffffffffffffffffffffffffff1673ffffffffffffffffffffffffffffffffffffffff168473ffffffffffffffffffffffffffffffffffffffff16148061166257506000600360008673ffffffffffffffffffffffffffffffffffffffff1673ffffffffffffffffffffffffffffffffffffffff1681526020019081526020016000205414155b156116ec57600a54600b60003373ffffffffffffffffffffffffffffffffffffffff1673ffffffffffffffffffffffffffffffffffffffff1681526020019081526020016000205410156116eb576040517f08c379a00000000000000000000000000000000000000000000000000000000081526004016116e2906130c3565b60405180910390fd5b5b5b6116fb565b6000915061170e565b5b5b611708338585611ce9565b50600191505b5092915050565b6002818154811061172557600080fd5b9060005260206000209060040201600091509050806000018054611748906124ff565b80601f0160208091040260200160405190810160405280929190818152602001828054611774906124ff565b80156117c15780601f10611796576101008083540402835291602001916117c1565b820191906000526020600020905b8154815290600101906020018083116117a457829003601f168201915b5050505050908060010160009054906101000a900473ffffffffffffffffffffffffffffffffffffffff16908060020180546117fc906124ff565b80601f0160208091040260200160405190810160405280929190818152602001828054611828906124ff565b80156118755780601f1061184a57610100808354040283529160200191611875565b820191906000526020600020905b81548152906001019060200180831161185857829003601f168201915b5050505050908060030154905084565b60055481565b6000600c60008473ffffffffffffffffffffffffffffffffffffffff1673ffffffffffffffffffffffffffffffffffffffff16815260200190815260200160002060008373ffffffffffffffffffffffffffffffffffffffff1673ffffffffffffffffffffffffffffffffffffffff16815260200190815260200160002054905092915050565b60036020528060005260406000206000915090505481565b6000806002838154811061194157611940612cc3565b5b9060005260206000209060040201905060008160030154856119639190613112565b9050809250505092915050565b60046020528060005260406000206000915090505481565b600073ffffffffffffffffffffffffffffffffffffffff168373ffffffffffffffffffffffffffffffffffffffff16036119c5576119c4612cf2565b5b600073ffffffffffffffffffffffffffffffffffffffff168273ffffffffffffffffffffffffffffffffffffffff1603611a34576040517f08c379a0000000000000000000000000000000000000000000000000000000008152600401611a2b906131b5565b60405180910390fd5b80600c60008573ffffffffffffffffffffffffffffffffffffffff1673ffffffffffffffffffffffffffffffffffffffff16815260200190815260200160002060008473ffffffffffffffffffffffffffffffffffffffff1673ffffffffffffffffffffffffffffffffffffffff168152602001908152602001600020819055508173ffffffffffffffffffffffffffffffffffffffff168373ffffffffffffffffffffffffffffffffffffffff167f8c5be1e5ebec7d5bd14f71427d1e84f3dd0314c0f7b2291e5b200ac8c7c3b92583604051611b1291906120e0565b60405180910390a3505050565b600080600d60008573ffffffffffffffffffffffffffffffffffffffff1673ffffffffffffffffffffffffffffffffffffffff16815260200190815260200160002060008673ffffffffffffffffffffffffffffffffffffffff1673ffffffffffffffffffffffffffffffffffffffff1681526020019081526020016000205490506000600c60008673ffffffffffffffffffffffffffffffffffffffff1673ffffffffffffffffffffffffffffffffffffffff16815260200190815260200160002060008773ffffffffffffffffffffffffffffffffffffffff1673ffffffffffffffffffffffffffffffffffffffff168152602001908152602001600020549050600081831015611c3b578282611c3891906131d5565b90505b808511611cda578483611c4e919061275b565b600d60008873ffffffffffffffffffffffffffffffffffffffff1673ffffffffffffffffffffffffffffffffffffffff16815260200190815260200160002060008973ffffffffffffffffffffffffffffffffffffffff1673ffffffffffffffffffffffffffffffffffffffff1681526020019081526020016000208190555060019350505050611ce2565b600093505050505b9392505050565b600081600b60008673ffffffffffffffffffffffffffffffffffffffff1673ffffffffffffffffffffffffffffffffffffffff16815260200190815260200160002054611d3691906131d5565b600b60008673ffffffffffffffffffffffffffffffffffffffff1673ffffffffffffffffffffffffffffffffffffffff1681526020019081526020016000208190555081600b60008573ffffffffffffffffffffffffffffffffffffffff1673ffffffffffffffffffffffffffffffffffffffff16815260200190815260200160002054611dc4919061275b565b600b60008573ffffffffffffffffffffffffffffffffffffffff1673ffffffffffffffffffffffffffffffffffffffff168152602001908152602001600020819055508273ffffffffffffffffffffffffffffffffffffffff168473ffffffffffffffffffffffffffffffffffffffff167fddf252ad1be2c89b69c2b068fc378daa952ba7f163c4a11628f55a4df523b3ef84604051611e6491906120e0565b60405180910390a3600190509392505050565b508054611e83906124ff565b6000825580601f10611e955750611eb4565b601f016020900490600052602060002090810190611eb39190611eb7565b5b50565b5b80821115611ed0576000816000905550600101611eb8565b5090565b600081519050919050565b600082825260208201905092915050565b60005b83811015611f0e578082015181840152602081019050611ef3565b60008484015250505050565b6000601f19601f8301169050919050565b6000611f3682611ed4565b611f408185611edf565b9350611f50818560208601611ef0565b611f5981611f1a565b840191505092915050565b60006020820190508181036000830152611f7e8184611f2b565b905092915050565b6000604051905090565b600080fd5b600080fd5b600073ffffffffffffffffffffffffffffffffffffffff82169050919050565b6000611fc582611f9a565b9050919050565b611fd581611fba565b8114611fe057600080fd5b50565b600081359050611ff281611fcc565b92915050565b6000819050919050565b61200b81611ff8565b811461201657600080fd5b50565b60008135905061202881612002565b92915050565b6000806040838503121561204557612044611f90565b5b600061205385828601611fe3565b925050602061206485828601612019565b9150509250929050565b60008115159050919050565b6120838161206e565b82525050565b600060208201905061209e600083018461207a565b92915050565b6000602082840312156120ba576120b9611f90565b5b60006120c884828501612019565b91505092915050565b6120da81611ff8565b82525050565b60006020820190506120f560008301846120d1565b92915050565b600080fd5b600080fd5b7f4e487b7100000000000000000000000000000000000000000000000000000000600052604160045260246000fd5b61213d82611f1a565b810181811067ffffffffffffffff8211171561215c5761215b612105565b5b80604052505050565b600061216f611f86565b905061217b8282612134565b919050565b600067ffffffffffffffff82111561219b5761219a612105565b5b6121a482611f1a565b9050602081019050919050565b82818337600083830152505050565b60006121d36121ce84612180565b612165565b9050828152602081018484840111156121ef576121ee612100565b5b6121fa8482856121b1565b509392505050565b600082601f830112612217576122166120fb565b5b81356122278482602086016121c0565b91505092915050565b600061223b82611f9a565b9050919050565b61224b81612230565b811461225657600080fd5b50565b60008135905061226881612242565b92915050565b6000806000806080858703121561228857612287611f90565b5b600085013567ffffffffffffffff8111156122a6576122a5611f95565b5b6122b287828801612202565b94505060206122c387828801612259565b935050604085013567ffffffffffffffff8111156122e4576122e3611f95565b5b6122f087828801612202565b925050606061230187828801612019565b91505092959194509250565b60008060006060848603121561232657612325611f90565b5b600061233486828701611fe3565b935050602061234586828701611fe3565b925050604061235686828701612019565b9150509250925092565b600060ff82169050919050565b61237681612360565b82525050565b6000602082019050612391600083018461236d565b92915050565b6000602082840312156123ad576123ac611f90565b5b60006123bb84828501611fe3565b91505092915050565b6123cd81611fba565b82525050565b60006020820190506123e860008301846123c4565b92915050565b6123f781612230565b82525050565b600060808201905081810360008301526124178187611f2b565b905061242660208301866123ee565b81810360408301526124388185611f2b565b905061244760608301846120d1565b95945050505050565b6000806040838503121561246757612466611f90565b5b600061247585828601611fe3565b925050602061248685828601611fe3565b9150509250929050565b600080604083850312156124a7576124a6611f90565b5b60006124b585828601612019565b92505060206124c685828601612019565b9150509250929050565b7f4e487b7100000000000000000000000000000000000000000000000000000000600052602260045260246000fd5b6000600282049050600182168061251757607f821691505b60208210810361252a576125296124d0565b5b50919050565b7f4f6e6c7920706172746e65727320616e6420636c69656e732063616e2061707060008201527f726f7665207370656e646572732e000000000000000000000000000000000000602082015250565b600061258c602e83611edf565b915061259782612530565b604082019050919050565b600060208201905081810360008301526125bb8161257f565b9050919050565b7f45524332303a20416d6f756e742063616e6e6f74206265203000000000000000600082015250565b60006125f8601983611edf565b9150612603826125c2565b602082019050919050565b60006020820190508181036000830152612627816125eb565b9050919050565b7f45524332303a20416d6f756e742063616e6e6f7420626520677265617465722060008201527f7468616e2062616c616e63650000000000000000000000000000000000000000602082015250565b600061268a602c83611edf565b91506126958261262e565b604082019050919050565b600060208201905081810360008301526126b98161267d565b9050919050565b7f4f776e65723a2043616c6c6572206973206e6f74206f776e6572000000000000600082015250565b60006126f6601a83611edf565b9150612701826126c0565b602082019050919050565b60006020820190508181036000830152612725816126e9565b9050919050565b7f4e487b7100000000000000000000000000000000000000000000000000000000600052601160045260246000fd5b600061276682611ff8565b915061277183611ff8565b92508282019050808211156127895761278861272c565b5b92915050565b7f506172746e65723a20456e74657265642061646472657373206973206e756c6c60008201527f2e00000000000000000000000000000000000000000000000000000000000000602082015250565b60006127eb602183611edf565b91506127f68261278f565b604082019050919050565b6000602082019050818103600083015261281a816127de565b9050919050565b7f506172746e65723a20546865206164647265737320697320616c72656164792060008201527f6120706172746e65722100000000000000000000000000000000000000000000602082015250565b600061287d602a83611edf565b915061288882612821565b604082019050919050565b600060208201905081810360008301526128ac81612870565b9050919050565b7f506172746e65723a20546865206f776e65722063616e6e6f742062652061207060008201527f6172746e65722100000000000000000000000000000000000000000000000000602082015250565b600061290f602783611edf565b915061291a826128b3565b604082019050919050565b6000602082019050818103600083015261293e81612902565b9050919050565b7f506172746e65723a205468652076616c756520666f72206120546f6b656e207360008201527f686f756c64206265206174206c65617374203120696e2074686520637572726560208201527f6e63792e00000000000000000000000000000000000000000000000000000000604082015250565b60006129c7604483611edf565b91506129d282612945565b606082019050919050565b600060208201905081810360008301526129f6816129ba565b9050919050565b60008190508160005260206000209050919050565b60006020601f8301049050919050565b600082821b905092915050565b600060088302612a5f7fffffffffffffffffffffffffffffffffffffffffffffffffffffffffffffffff82612a22565b612a698683612a22565b95508019841693508086168417925050509392505050565b6000819050919050565b6000612aa6612aa1612a9c84611ff8565b612a81565b611ff8565b9050919050565b6000819050919050565b612ac083612a8b565b612ad4612acc82612aad565b848454612a2f565b825550505050565b600090565b612ae9612adc565b612af4818484612ab7565b505050565b5b81811015612b1857612b0d600082612ae1565b600181019050612afa565b5050565b601f821115612b5d57612b2e816129fd565b612b3784612a12565b81016020851015612b46578190505b612b5a612b5285612a12565b830182612af9565b50505b505050565b600082821c905092915050565b6000612b8060001984600802612b62565b1980831691505092915050565b6000612b998383612b6f565b9150826002028217905092915050565b612bb282611ed4565b67ffffffffffffffff811115612bcb57612bca612105565b5b612bd582546124ff565b612be0828285612b1c565b600060209050601f831160018114612c135760008415612c01578287015190505b612c0b8582612b8d565b865550612c73565b601f198416612c21866129fd565b60005b82811015612c4957848901518255600182019150602085019450602081019050612c24565b86831015612c665784890151612c62601f891682612b6f565b8355505b6001600288020188555050505b505050505050565b6000612c8682611ff8565b91507fffffffffffffffffffffffffffffffffffffffffffffffffffffffffffffffff8203612cb857612cb761272c565b5b600182019050919050565b7f4e487b7100000000000000000000000000000000000000000000000000000000600052603260045260246000fd5b7f4e487b7100000000000000000000000000000000000000000000000000000000600052600160045260246000fd5b6000604082019050612d3660008301856120d1565b8181036020830152612d488184611f2b565b90509392505050565b7f436c69656e743a20436f6e7472616374206f776e65722063616e6e6f7420626560008201527f206120636c69656e740000000000000000000000000000000000000000000000602082015250565b6000612dad602983611edf565b9150612db882612d51565b604082019050919050565b60006020820190508181036000830152612ddc81612da0565b9050919050565b7f436c69656e743a20436c69656e7420616c726561647920657869737473000000600082015250565b6000612e19601d83611edf565b9150612e2482612de3565b602082019050919050565b60006020820190508181036000830152612e4881612e0c565b9050919050565b7f45524332303a204f776e65722063616e206f6e6c792073656e6420746f20706160008201527f72746e6572732e00000000000000000000000000000000000000000000000000602082015250565b6000612eab602783611edf565b9150612eb682612e4f565b604082019050919050565b60006020820190508181036000830152612eda81612e9e565b9050919050565b7f45524332303a20506172746e6572732063616e206f6e6c792073656e6420746f60008201527f20636c69656e747320616e64206f776e65722e00000000000000000000000000602082015250565b6000612f3d603383611edf565b9150612f4882612ee1565b604082019050919050565b60006020820190508181036000830152612f6c81612f30565b9050919050565b7f45524332303a20436c69656e7473207769746820612062616c616e636520686960008201527f67686572207468616e206d696e546f6b656e73546f52656465656d2063616e6e60208201527f6f742073656e6420746f20616e6f7468657220636c69656e742e000000000000604082015250565b6000612ff5605a83611edf565b915061300082612f73565b606082019050919050565b6000602082019050818103600083015261302481612fe8565b9050919050565b7f45524332303a20436c69656e7473207769746820612062616c616e6365206c6f60008201527f776572207468616e206d696e546f6b656e73546f52656465656d2063616e6e6f60208201527f742072656465656d20746f6b656e732e00000000000000000000000000000000604082015250565b60006130ad605083611edf565b91506130b88261302b565b606082019050919050565b600060208201905081810360008301526130dc816130a0565b9050919050565b7f4e487b7100000000000000000000000000000000000000000000000000000000600052601260045260246000fd5b600061311d82611ff8565b915061312883611ff8565b925082613138576131376130e3565b5b828204905092915050565b7f45524332303a20617070726f766520746f20746865207a65726f20616464726560008201527f73732e0000000000000000000000000000000000000000000000000000000000602082015250565b600061319f602383611edf565b91506131aa82613143565b604082019050919050565b600060208201905081810360008301526131ce81613192565b9050919050565b60006131e082611ff8565b91506131eb83611ff8565b92508282039050818111156132035761320261272c565b5b9291505056fea264697066735822122072c8c24d88f60d708505dfaefe175fcf190a032331c5b5281de4661d692d574264736f6c63430008130033",
  "immutableReferences": {},
  "source": "// SPDX-License-Identifier: MIT\r\npragma solidity ^0.8.19;\r\n\r\nimport \"@openzeppelin/contracts/token/ERC20/IERC20.sol\";\r\nimport \"./2_PayBackPartnership.sol\";\r\nimport \"./3_PayBackClients.sol\";\r\n\r\ncontract PayBackToken is IERC20, PayBackPartnership, PayBackClients {\r\n    string public name;\r\n    string public symbol;\r\n    uint8 public decimals;\r\n    uint256 public totalSupply; //Returns the amount of tokens in existence.\r\n\r\n    uint256 public minTokensToRedeem;\r\n\r\n    mapping(address => uint256) private _balances;\r\n\r\n    //the owner->spender->amount\r\n    mapping(address => mapping(address => uint256)) private _allowance;\r\n    mapping(address => mapping(address => uint256)) private _transferred;\r\n\r\n    /**\r\n     * @dev Sets the values for {name} and {symbol}.\r\n     *\r\n     * All two of these values are immutable: they can only be set once during\r\n     * construction.\r\n     */\r\n    constructor(\r\n        string memory _name, // PayBackToken\r\n        string memory _symbol, // PBT\r\n        uint256 _initialSupply, // 1000000 . How many points in circulation? Gesammelte Punkte im Wert von 500 Mio. EUR (https://www.payback.group/de/payback-group/ueber-payback/daten-und-fakten) 1 Token = 1 Cent => 50 Mrd. -> wir machen sie zuerst 1 Mio. dann kann man neue minten. Auch Collaterall einfgen.. :)\r\n        uint8 _decimals, // 0\r\n        uint256 _minTokensToRedeem // 300\r\n    ) {\r\n        name = _name;\r\n        symbol = _symbol;\r\n        totalSupply = _initialSupply;\r\n        decimals = _decimals;\r\n        minTokensToRedeem = _minTokensToRedeem;\r\n\r\n        _balances[_owner] = _initialSupply;\r\n    }\r\n\r\n    /**\r\n     * @dev Returns the amount of tokens owned by `account`.\r\n     */\r\n    function balanceOf(address account) public view returns (uint256) {\r\n        return _balances[account];\r\n    }\r\n\r\n    /**\r\n     * @dev Moves `amount` tokens from the caller's account to `to`.\r\n     *\r\n     * Returns a boolean value indicating whether the operation succeeded.\r\n     *\r\n     * Emits a {Transfer} event.\r\n     */\r\n    /**\r\n     * @dev See {IERC20-transfer}.\r\n     *\r\n     * Requirements:\r\n     *\r\n     * - `to` cannot be the zero address.\r\n     * - the caller must have a balance of at least `amount`.\r\n     */\r\n\r\n    function transfer(address _to, uint256 _amount)\r\n        public\r\n        addrNotNull(_to)\r\n        returns (bool)\r\n    {\r\n        // -------- Closed ecosystem for posession of Tokens --------\r\n        // external adresses(not owner, partner or client) cannot own tokens\r\n\r\n        // Client can transfer to Owner/Partner > 500\r\n        // Clients can transfer to Clients or Other address only < 500\r\n\r\n        // Partners can transfer only to clients and owner\r\n\r\n        // Owner can transfer only to partners // if wants to open a store should register himself as a partner]\r\n\r\n        // others cannot transfer to themselves, unless it is a smart contract\r\n\r\n        //Owner can trans\r\n\r\n        // Possbile scenations:\r\n        // Client -> Owner || Partner\r\n        // Partner -> Client\r\n        // Owner -> Partner\r\n        // Partner -> Owner\r\n        // Client -> Client (if balance of sender < 500)\r\n        // Client -> Owner || Partner (if balance of spender >= 500)\r\n\r\n        // Forbidden\r\n        // 1) Partner -> Partner // when new partner registers and they fail...  just send them back to the owner!\r\n        // 2) Client -> Client when balance of sender >= 500\r\n        // 3) Client -> Partner || Owner when balance of sender < 500\r\n        // 4) Owner -> Client. only to partner!\r\n\r\n        // case 1. sender is owner\r\n        if (msg.sender == _owner) {\r\n            require(\r\n                addrToPartnerId[_to] != 0,\r\n                \"ERC20: Owner can only send to partners.\"\r\n            );\r\n        }\r\n        //case 2. sender is partner\r\n        else if (addrToPartnerId[msg.sender] != 0) {\r\n            require(\r\n                addrToClientId[_to] != 0 || _to == _owner,\r\n                \"ERC20: Partners can only send to clients and owner.\"\r\n            );\r\n        }\r\n        //case 3. sender is client\r\n        else if (addrToClientId[msg.sender] != 0) {\r\n            // receiver is another client\r\n            if (addrToClientId[_to] != 0) {\r\n                require(\r\n                    _balances[msg.sender] < minTokensToRedeem,\r\n                    \"ERC20: Clients with a balance higher than minTokensToRedeem cannot send to another client.\"\r\n                );\r\n            }\r\n            //receiver is owner or partner\r\n            else if (_to == _owner || addrToPartnerId[_to] != 0) {\r\n                require(\r\n                    _balances[msg.sender] >= minTokensToRedeem,\r\n                    \"ERC20: Clients with a balance lower than minTokensToRedeem cannot redeem tokens.\"\r\n                );\r\n            }\r\n        } else {\r\n            return false;\r\n        }\r\n\r\n        // Note from ERC20 Standard: Transfers of 0 values MUST be treated as normal transfers and fire the Transfer event.\r\n        _transfer(msg.sender, _to, _amount);\r\n\r\n        return true;\r\n    }\r\n\r\n    function _transfer(\r\n        address _from,\r\n        address _to,\r\n        uint256 _amount\r\n    ) internal returns (bool) {\r\n        _balances[_from] = _balances[_from] - _amount;\r\n        _balances[_to] = _balances[_to] + _amount;\r\n\r\n        //The allowence is not blocking the transfer?, no because they are not blocked.. it is just an allowance. It doesn't matter if the tokens are there or not\r\n\r\n        emit Transfer(_from, _to, _amount);\r\n        return true;\r\n    }\r\n\r\n    /**\r\n     * @dev Function to check the amount of tokens than an owner allowed to a spender.\r\n     * @param _owner address The address which owns the funds.\r\n     * @param _spender address The address which will spend the funds.\r\n     * @return A uint specifying the amount of tokens still available for the spender.\r\n     */\r\n    function allowance(address _owner, address _spender)\r\n        public\r\n        view\r\n        returns (uint256)\r\n    {\r\n        //the owner is the owner of the tokens that allows someone else to transfer the amount for him\r\n        return _allowance[_owner][_spender];\r\n    }\r\n\r\n    function approve(address _spender, uint256 _amount) public returns (bool) {\r\n        // partners and clients can allow addresses or smart contracts to manage their tokens, even the owner is allowed to be the spender\r\n\r\n        require(\r\n            addrToPartnerId[msg.sender] != 0 || addrToClientId[msg.sender] != 0,\r\n            \"Only partners and cliens can approve spenders.\"\r\n        );\r\n        require(_amount != 0, \"ERC20: Amount cannot be 0\");\r\n        require(\r\n            _balances[msg.sender] >= _amount,\r\n            \"ERC20: Amount cannot be greater than balance\"\r\n        );\r\n\r\n        _approve(msg.sender, _spender, _amount);\r\n        return true;\r\n    }\r\n\r\n    //https://www.researchgate.net/publication/334161350_Resolving_the_Multiple_Withdrawal_Attack_on_ERC20_Tokens\r\n    function _approve(\r\n        address _owner,\r\n        address _spender,\r\n        uint256 _amount\r\n    ) internal virtual {\r\n        //addresses are not zero\r\n        assert(_owner != address(0));\r\n        require(_spender != address(0), \"ERC20: approve to the zero address.\");\r\n        // uint256 newAllowance = 0;\r\n        // uint256 transferred = _transferred[_owner][_spender]; 100\r\n        // uint256 allowed = _allowance[_owner][_spender]; 50\r\n\r\n        // increasing allowance\r\n        // The allowance can be smaller than the transferred amount.\r\n        // if (_amount > allowed) {\r\n        //     newAllowance = _amount;\r\n        //     // this is not working in that case....\r\n        //     // uint256 newAllowanceRest = _amount - transferred;\r\n        //     // newAllowance = transferred + newAllowanceRest;\r\n        // }\r\n        // // reducing allowance\r\n        // else if (_amount < allowed) {\r\n\r\n        //     // uint256 newAllowanceRest = 0;\r\n        //     // if (_amount < transferred) {\r\n        //     //     newAllowance = 0;\r\n        //     // } else {\r\n        //     //     newAllowance = _amount;\r\n        //     // }\r\n        // }\r\n        _allowance[_owner][_spender] = _amount;\r\n        emit Approval(_owner, _spender, _amount);\r\n    }\r\n\r\n    function transferFrom(\r\n        address _from,\r\n        address _to,\r\n        uint256 _amount\r\n    ) public returns (bool) {\r\n        address spender = msg.sender;\r\n\r\n        bool spending = _spendAllowance(_from, spender, _amount);\r\n        if (spending == true) {\r\n            _transfer(_from, _to, _amount);\r\n        } else {\r\n            return false;\r\n        }\r\n        return true;\r\n    }\r\n\r\n    function _spendAllowance(\r\n        address _spender,\r\n        address _owner,\r\n        uint256 _amount\r\n    ) private returns (bool) {\r\n        uint256 transferred = _transferred[_owner][_spender];\r\n        uint256 allowed = _allowance[_owner][_spender];\r\n        uint256 spendingRest = 0;\r\n\r\n        if (transferred < allowed) {\r\n            spendingRest = allowed - transferred;\r\n        }\r\n        if (_amount <= spendingRest) {\r\n            _transferred[_owner][_spender] = transferred + _amount;\r\n            return true;\r\n        }\r\n        return false;\r\n    }\r\n\r\n    // function _spendAllowance(\r\n    //     address owner,\r\n    //     address spender,\r\n    //     uint256 amount\r\n    // ) internal virtual {\r\n    //     //get the allowed amount and check if is allowed in the same time\r\n    //     uint256 currentAllowance = allowance[owner][spender]; //10\r\n    //     if (currentAllowance != type(uint256).max) {\r\n    //         require(\r\n    //             currentAllowance >= amount, //10 >= 5\r\n    //             \"ERC20: insufficient allowance\"\r\n    //         );\r\n    //         _allowed[owner][spender] = currentAllowance - amount;\r\n    //     }\r\n    // }\r\n\r\n    //----------------------------------Additional functions----------------------------------\r\n\r\n    function loadTotalSupply(uint256 _amount) public isOwner returns (bool) {\r\n        _balances[_owner] = _balances[_owner] + _amount;\r\n        return true;\r\n    }\r\n}\r\n",
  "sourcePath": "C:\\Users\\aselim\\Documents\\GitHub\\PayBackOnBlockchain\\payback-token-truffle\\contracts\\4_PayBackToken.sol",
  "compiler": {
    "name": "solc",
    "version": "0.8.19+commit.7dd6d404.Emscripten.clang"
  },
  "schemaVersion": "3.4.14",
  "updatedAt": "2023-08-18T14:35:59.288Z",
  "devdoc": {
    "events": {
      "Approval(address,address,uint256)": {
        "details": "Emitted when the allowance of a `spender` for an `owner` is set by a call to {approve}. `value` is the new allowance."
      },
      "Transfer(address,address,uint256)": {
        "details": "Emitted when `value` tokens are moved from one account (`from`) to another (`to`). Note that `value` may be zero."
      }
    },
    "kind": "dev",
    "methods": {
      "allowance(address,address)": {
        "details": "Function to check the amount of tokens than an owner allowed to a spender.",
        "params": {
          "_owner": "address The address which owns the funds.",
          "_spender": "address The address which will spend the funds."
        },
        "returns": {
          "_0": "A uint specifying the amount of tokens still available for the spender."
        }
      },
      "balanceOf(address)": {
        "details": "Returns the amount of tokens owned by `account`."
      },
      "constructor": {
        "details": "Sets the values for {name} and {symbol}. All two of these values are immutable: they can only be set once during construction."
      },
      "getOwner()": {
        "details": "Return owner address ",
        "returns": {
          "_0": "address of owner"
        }
      },
      "transfer(address,uint256)": {
        "details": "See {IERC20-transfer}. Requirements: - `to` cannot be the zero address. - the caller must have a balance of at least `amount`."
      }
    },
    "stateVariables": {
      "totalSupply": {
        "details": "Returns the amount of tokens in existence."
      }
    },
    "version": 1
  },
  "userdoc": {
    "kind": "user",
    "methods": {},
    "version": 1
  }
}