{
  "contractName": "PayBackToken",
  "abi": [
    {
      "inputs": [
        {
          "internalType": "string",
          "name": "name_",
          "type": "string"
        },
        {
          "internalType": "string",
          "name": "symbol_",
          "type": "string"
        },
        {
          "internalType": "uint256",
          "name": "initialSupply_",
          "type": "uint256"
        },
        {
          "internalType": "uint256",
          "name": "decimals_",
          "type": "uint256"
        }
      ],
      "stateMutability": "nonpayable",
      "type": "constructor"
    },
    {
      "anonymous": false,
      "inputs": [
        {
          "indexed": true,
          "internalType": "address",
          "name": "owner",
          "type": "address"
        },
        {
          "indexed": true,
          "internalType": "address",
          "name": "spender",
          "type": "address"
        },
        {
          "indexed": false,
          "internalType": "uint256",
          "name": "value",
          "type": "uint256"
        }
      ],
      "name": "Approval",
      "type": "event"
    },
    {
      "anonymous": false,
      "inputs": [
        {
          "indexed": true,
          "internalType": "address",
          "name": "oldOwner",
          "type": "address"
        },
        {
          "indexed": true,
          "internalType": "address",
          "name": "newOwner",
          "type": "address"
        }
      ],
      "name": "OwnerSet",
      "type": "event"
    },
    {
      "anonymous": false,
      "inputs": [
        {
          "indexed": false,
          "internalType": "uint256",
          "name": "partnerId",
          "type": "uint256"
        },
        {
          "indexed": false,
          "internalType": "string",
          "name": "name",
          "type": "string"
        }
      ],
      "name": "PartnerAdded",
      "type": "event"
    },
    {
      "anonymous": false,
      "inputs": [
        {
          "indexed": true,
          "internalType": "address",
          "name": "from",
          "type": "address"
        },
        {
          "indexed": true,
          "internalType": "address",
          "name": "to",
          "type": "address"
        },
        {
          "indexed": false,
          "internalType": "uint256",
          "name": "value",
          "type": "uint256"
        }
      ],
      "name": "Transfer",
      "type": "event"
    },
    {
      "inputs": [],
      "name": "_decimals",
      "outputs": [
        {
          "internalType": "uint256",
          "name": "",
          "type": "uint256"
        }
      ],
      "stateMutability": "view",
      "type": "function"
    },
    {
      "inputs": [
        {
          "internalType": "string",
          "name": "_name",
          "type": "string"
        },
        {
          "internalType": "address payable",
          "name": "_addr",
          "type": "address"
        },
        {
          "internalType": "string",
          "name": "_currency",
          "type": "string"
        },
        {
          "internalType": "uint256",
          "name": "_valueForToken",
          "type": "uint256"
        }
      ],
      "name": "addPartner",
      "outputs": [
        {
          "internalType": "bool",
          "name": "",
          "type": "bool"
        }
      ],
      "stateMutability": "nonpayable",
      "type": "function"
    },
    {
      "inputs": [
        {
          "internalType": "address",
          "name": "",
          "type": "address"
        }
      ],
      "name": "addrToPartner",
      "outputs": [
        {
          "internalType": "string",
          "name": "name",
          "type": "string"
        },
        {
          "internalType": "address payable",
          "name": "walletAddr",
          "type": "address"
        },
        {
          "internalType": "string",
          "name": "currency",
          "type": "string"
        },
        {
          "internalType": "uint256",
          "name": "valueForToken",
          "type": "uint256"
        }
      ],
      "stateMutability": "view",
      "type": "function"
    },
    {
      "inputs": [
        {
          "internalType": "uint256",
          "name": "_roundValue",
          "type": "uint256"
        },
        {
          "internalType": "uint256",
          "name": "_partnerId",
          "type": "uint256"
        }
      ],
      "name": "calcPointsToEarn",
      "outputs": [
        {
          "internalType": "uint256",
          "name": "",
          "type": "uint256"
        }
      ],
      "stateMutability": "view",
      "type": "function"
    },
    {
      "inputs": [],
      "name": "getOwner",
      "outputs": [
        {
          "internalType": "address",
          "name": "",
          "type": "address"
        }
      ],
      "stateMutability": "view",
      "type": "function"
    },
    {
      "inputs": [],
      "name": "numPartner",
      "outputs": [
        {
          "internalType": "uint256",
          "name": "",
          "type": "uint256"
        }
      ],
      "stateMutability": "view",
      "type": "function"
    },
    {
      "inputs": [
        {
          "internalType": "uint256",
          "name": "",
          "type": "uint256"
        }
      ],
      "name": "partners",
      "outputs": [
        {
          "internalType": "string",
          "name": "name",
          "type": "string"
        },
        {
          "internalType": "address payable",
          "name": "walletAddr",
          "type": "address"
        },
        {
          "internalType": "string",
          "name": "currency",
          "type": "string"
        },
        {
          "internalType": "uint256",
          "name": "valueForToken",
          "type": "uint256"
        }
      ],
      "stateMutability": "view",
      "type": "function"
    },
    {
      "inputs": [],
      "name": "totalSupply",
      "outputs": [
        {
          "internalType": "uint256",
          "name": "",
          "type": "uint256"
        }
      ],
      "stateMutability": "view",
      "type": "function"
    },
    {
      "inputs": [
        {
          "internalType": "address",
          "name": "account",
          "type": "address"
        }
      ],
      "name": "balanceOf",
      "outputs": [
        {
          "internalType": "uint256",
          "name": "",
          "type": "uint256"
        }
      ],
      "stateMutability": "view",
      "type": "function"
    },
    {
      "inputs": [
        {
          "internalType": "address",
          "name": "_to",
          "type": "address"
        },
        {
          "internalType": "uint256",
          "name": "_amount",
          "type": "uint256"
        }
      ],
      "name": "transfer",
      "outputs": [
        {
          "internalType": "bool",
          "name": "",
          "type": "bool"
        }
      ],
      "stateMutability": "nonpayable",
      "type": "function"
    },
    {
      "inputs": [
        {
          "internalType": "address",
          "name": "_owner",
          "type": "address"
        },
        {
          "internalType": "address",
          "name": "_spender",
          "type": "address"
        }
      ],
      "name": "allowance",
      "outputs": [
        {
          "internalType": "uint256",
          "name": "",
          "type": "uint256"
        }
      ],
      "stateMutability": "view",
      "type": "function"
    },
    {
      "inputs": [
        {
          "internalType": "address",
          "name": "_spender",
          "type": "address"
        },
        {
          "internalType": "uint256",
          "name": "_amount",
          "type": "uint256"
        }
      ],
      "name": "approve",
      "outputs": [
        {
          "internalType": "bool",
          "name": "",
          "type": "bool"
        }
      ],
      "stateMutability": "nonpayable",
      "type": "function"
    },
    {
      "inputs": [
        {
          "internalType": "address",
          "name": "_from",
          "type": "address"
        },
        {
          "internalType": "address",
          "name": "_to",
          "type": "address"
        },
        {
          "internalType": "uint256",
          "name": "_amount",
          "type": "uint256"
        }
      ],
      "name": "transferFrom",
      "outputs": [
        {
          "internalType": "bool",
          "name": "",
          "type": "bool"
        }
      ],
      "stateMutability": "nonpayable",
      "type": "function"
    },
    {
      "inputs": [
        {
          "internalType": "uint256",
          "name": "_amount",
          "type": "uint256"
        }
      ],
      "name": "loadTotalSupply",
      "outputs": [
        {
          "internalType": "bool",
          "name": "",
          "type": "bool"
        }
      ],
      "stateMutability": "nonpayable",
      "type": "function"
    }
  ],
  "bytecode": "0x608060405234801562000010575f80fd5b5060405162002dda38038062002dda833981810160405281019062000036919062000350565b335f806101000a81548173ffffffffffffffffffffffffffffffffffffffff021916908373ffffffffffffffffffffffffffffffffffffffff1602179055505f8054906101000a900473ffffffffffffffffffffffffffffffffffffffff1673ffffffffffffffffffffffffffffffffffffffff165f73ffffffffffffffffffffffffffffffffffffffff167f342827c97908e5e2f71151c08502a66d44b6f758e3ac2f1de95f02eb95f0a73560405160405180910390a35f60018190555083600790816200010691906200062b565b5082600890816200011891906200062b565b5081600681905550806009819055508160045f805f9054906101000a900473ffffffffffffffffffffffffffffffffffffffff1673ffffffffffffffffffffffffffffffffffffffff1673ffffffffffffffffffffffffffffffffffffffff1681526020019081526020015f2081905550505050506200070f565b5f604051905090565b5f80fd5b5f80fd5b5f80fd5b5f80fd5b5f601f19601f8301169050919050565b7f4e487b71000000000000000000000000000000000000000000000000000000005f52604160045260245ffd5b620001f482620001ac565b810181811067ffffffffffffffff82111715620002165762000215620001bc565b5b80604052505050565b5f6200022a62000193565b9050620002388282620001e9565b919050565b5f67ffffffffffffffff8211156200025a5762000259620001bc565b5b6200026582620001ac565b9050602081019050919050565b5f5b838110156200029157808201518184015260208101905062000274565b5f8484015250505050565b5f620002b2620002ac846200023d565b6200021f565b905082815260208101848484011115620002d157620002d0620001a8565b5b620002de84828562000272565b509392505050565b5f82601f830112620002fd57620002fc620001a4565b5b81516200030f8482602086016200029c565b91505092915050565b5f819050919050565b6200032c8162000318565b811462000337575f80fd5b50565b5f815190506200034a8162000321565b92915050565b5f805f80608085870312156200036b576200036a6200019c565b5b5f85015167ffffffffffffffff8111156200038b576200038a620001a0565b5b6200039987828801620002e6565b945050602085015167ffffffffffffffff811115620003bd57620003bc620001a0565b5b620003cb87828801620002e6565b9350506040620003de878288016200033a565b9250506060620003f1878288016200033a565b91505092959194509250565b5f81519050919050565b7f4e487b71000000000000000000000000000000000000000000000000000000005f52602260045260245ffd5b5f60028204905060018216806200044c57607f821691505b60208210810362000462576200046162000407565b5b50919050565b5f819050815f5260205f209050919050565b5f6020601f8301049050919050565b5f82821b905092915050565b5f60088302620004c67fffffffffffffffffffffffffffffffffffffffffffffffffffffffffffffffff8262000489565b620004d2868362000489565b95508019841693508086168417925050509392505050565b5f819050919050565b5f620005136200050d620005078462000318565b620004ea565b62000318565b9050919050565b5f819050919050565b6200052e83620004f3565b620005466200053d826200051a565b84845462000495565b825550505050565b5f90565b6200055c6200054e565b6200056981848462000523565b505050565b5b818110156200059057620005845f8262000552565b6001810190506200056f565b5050565b601f821115620005df57620005a98162000468565b620005b4846200047a565b81016020851015620005c4578190505b620005dc620005d3856200047a565b8301826200056e565b50505b505050565b5f82821c905092915050565b5f620006015f1984600802620005e4565b1980831691505092915050565b5f6200061b8383620005f0565b9150826002028217905092915050565b6200063682620003fd565b67ffffffffffffffff811115620006525762000651620001bc565b5b6200065e825462000434565b6200066b82828562000594565b5f60209050601f831160018114620006a1575f84156200068c578287015190505b6200069885826200060e565b86555062000707565b601f198416620006b18662000468565b5f5b82811015620006da57848901518255600182019150602085019450602081019050620006b3565b86831015620006fa5784890151620006f6601f891682620005f0565b8355505b6001600288020188555050505b505050505050565b6126bd806200071d5f395ff3fe608060405234801561000f575f80fd5b50600436106100e8575f3560e01c806370a082311161008a578063a9059cbb11610064578063a9059cbb14610287578063c3b49d04146102b7578063dd62ed3e146102ea578063e15cfad21461031a576100e8565b806370a0823114610206578063893d20e8146102365780639610f3bd14610254576100e8565b8063210e870d116100c6578063210e870d1461016a57806323b872dd1461019a57806332424aa3146101ca5780634a9596ce146101e8576100e8565b8063095ea7b3146100ec57806313869f851461011c57806318160ddd1461014c575b5f80fd5b6101066004803603810190610101919061185c565b61034a565b60405161011391906118b4565b60405180910390f35b610136600480360381019061013191906118cd565b610365565b60405161014391906118b4565b60405180910390f35b6101546104ce565b6040516101619190611907565b60405180910390f35b610184600480360381019061017f9190611a97565b6104d7565b60405161019191906118b4565b60405180910390f35b6101b460048036038101906101af9190611b33565b610971565b6040516101c191906118b4565b60405180910390f35b6101d2610e07565b6040516101df9190611907565b60405180910390f35b6101f0610e0d565b6040516101fd9190611907565b60405180910390f35b610220600480360381019061021b9190611b83565b610e13565b60405161022d9190611907565b60405180910390f35b61023e610e59565b60405161024b9190611bbd565b60405180910390f35b61026e60048036038101906102699190611b83565b610e80565b60405161027e9493929190611c5f565b60405180910390f35b6102a1600480360381019061029c919061185c565b610fd7565b6040516102ae91906118b4565b60405180910390f35b6102d160048036038101906102cc91906118cd565b61135f565b6040516102e19493929190611c5f565b60405180910390f35b61030460048036038101906102ff9190611cb0565b6114c5565b6040516103119190611907565b60405180910390f35b610334600480360381019061032f9190611cee565b611547565b6040516103419190611907565b60405180910390f35b5f8033905061035a818585611590565b600191505092915050565b5f805f9054906101000a900473ffffffffffffffffffffffffffffffffffffffff1673ffffffffffffffffffffffffffffffffffffffff163373ffffffffffffffffffffffffffffffffffffffff16146103f4576040517f08c379a00000000000000000000000000000000000000000000000000000000081526004016103eb90611d76565b60405180910390fd5b6104648260045f805f9054906101000a900473ffffffffffffffffffffffffffffffffffffffff1673ffffffffffffffffffffffffffffffffffffffff1673ffffffffffffffffffffffffffffffffffffffff1681526020019081526020015f205461175390919063ffffffff16565b60045f805f9054906101000a900473ffffffffffffffffffffffffffffffffffffffff1673ffffffffffffffffffffffffffffffffffffffff1673ffffffffffffffffffffffffffffffffffffffff1681526020019081526020015f208190555060019050919050565b5f600654905090565b5f805f9054906101000a900473ffffffffffffffffffffffffffffffffffffffff1673ffffffffffffffffffffffffffffffffffffffff163373ffffffffffffffffffffffffffffffffffffffff1614610566576040517f08c379a000000000000000000000000000000000000000000000000000000000815260040161055d90611d76565b60405180910390fd5b835f73ffffffffffffffffffffffffffffffffffffffff168173ffffffffffffffffffffffffffffffffffffffff16036105d5576040517f08c379a00000000000000000000000000000000000000000000000000000000081526004016105cc90611dde565b60405180910390fd5b5f60035f8773ffffffffffffffffffffffffffffffffffffffff1673ffffffffffffffffffffffffffffffffffffffff1681526020019081526020015f2090505f73ffffffffffffffffffffffffffffffffffffffff16816001015f9054906101000a900473ffffffffffffffffffffffffffffffffffffffff1673ffffffffffffffffffffffffffffffffffffffff16146106a6576040517f08c379a000000000000000000000000000000000000000000000000000000000815260040161069d90611e6c565b60405180910390fd5b5f8054906101000a900473ffffffffffffffffffffffffffffffffffffffff1673ffffffffffffffffffffffffffffffffffffffff168673ffffffffffffffffffffffffffffffffffffffff1603610733576040517f08c379a000000000000000000000000000000000000000000000000000000000815260040161072a90611ed4565b60405180910390fd5b6001841015610777576040517f08c379a000000000000000000000000000000000000000000000000000000000815260040161076e90611f62565b60405180910390fd5b5f60405180608001604052808981526020018873ffffffffffffffffffffffffffffffffffffffff168152602001878152602001868152509050600281908060018154018082558091505060019003905f5260205f2090600402015f909190919091505f820151815f0190816107ed919061217a565b506020820151816001015f6101000a81548173ffffffffffffffffffffffffffffffffffffffff021916908373ffffffffffffffffffffffffffffffffffffffff1602179055506040820151816002019081610849919061217a565b5060608201518160030155505061086b6001805461175390919063ffffffff16565b508060035f8973ffffffffffffffffffffffffffffffffffffffff1673ffffffffffffffffffffffffffffffffffffffff1681526020019081526020015f205f820151815f0190816108bd919061217a565b506020820151816001015f6101000a81548173ffffffffffffffffffffffffffffffffffffffff021916908373ffffffffffffffffffffffffffffffffffffffff1602179055506040820151816002019081610919919061217a565b50606082015181600301559050507f6b5d098d49c45279cf1afc02eec71018b4e172ec66e1834863c5d62febaa50b76001548960405161095a929190612249565b60405180910390a160019350505050949350505050565b5f8160045f8673ffffffffffffffffffffffffffffffffffffffff1673ffffffffffffffffffffffffffffffffffffffff1681526020019081526020015f205410156109f2576040517f08c379a00000000000000000000000000000000000000000000000000000000081526004016109e9906122e7565b60405180910390fd5b5f60035f8673ffffffffffffffffffffffffffffffffffffffff1673ffffffffffffffffffffffffffffffffffffffff1681526020019081526020015f2090505f73ffffffffffffffffffffffffffffffffffffffff16816001015f9054906101000a900473ffffffffffffffffffffffffffffffffffffffff1673ffffffffffffffffffffffffffffffffffffffff1614610baf57610ad88360045f8873ffffffffffffffffffffffffffffffffffffffff1673ffffffffffffffffffffffffffffffffffffffff1681526020019081526020015f205461177e90919063ffffffff16565b60045f8773ffffffffffffffffffffffffffffffffffffffff1673ffffffffffffffffffffffffffffffffffffffff1681526020019081526020015f2081905550610b698360045f8773ffffffffffffffffffffffffffffffffffffffff1673ffffffffffffffffffffffffffffffffffffffff1681526020019081526020015f205461175390919063ffffffff16565b60045f8673ffffffffffffffffffffffffffffffffffffffff1673ffffffffffffffffffffffffffffffffffffffff1681526020019081526020015f2081905550610dfb565b5f60035f8673ffffffffffffffffffffffffffffffffffffffff1673ffffffffffffffffffffffffffffffffffffffff1681526020019081526020015f2090505f73ffffffffffffffffffffffffffffffffffffffff16816001015f9054906101000a900473ffffffffffffffffffffffffffffffffffffffff1673ffffffffffffffffffffffffffffffffffffffff1614610c80576040517f08c379a0000000000000000000000000000000000000000000000000000000008152600401610c7790612375565b60405180910390fd5b5f73ffffffffffffffffffffffffffffffffffffffff16816001015f9054906101000a900473ffffffffffffffffffffffffffffffffffffffff1673ffffffffffffffffffffffffffffffffffffffff1614610df957610d268460045f8973ffffffffffffffffffffffffffffffffffffffff1673ffffffffffffffffffffffffffffffffffffffff1681526020019081526020015f205461177e90919063ffffffff16565b60045f8873ffffffffffffffffffffffffffffffffffffffff1673ffffffffffffffffffffffffffffffffffffffff1681526020019081526020015f2081905550610db78460045f8873ffffffffffffffffffffffffffffffffffffffff1673ffffffffffffffffffffffffffffffffffffffff1681526020019081526020015f205461175390919063ffffffff16565b60045f8773ffffffffffffffffffffffffffffffffffffffff1673ffffffffffffffffffffffffffffffffffffffff1681526020019081526020015f20819055505b505b60019150509392505050565b60095481565b60015481565b5f60045f8373ffffffffffffffffffffffffffffffffffffffff1673ffffffffffffffffffffffffffffffffffffffff1681526020019081526020015f20549050919050565b5f805f9054906101000a900473ffffffffffffffffffffffffffffffffffffffff16905090565b6003602052805f5260405f205f91509050805f018054610e9f90611fad565b80601f0160208091040260200160405190810160405280929190818152602001828054610ecb90611fad565b8015610f165780601f10610eed57610100808354040283529160200191610f16565b820191905f5260205f20905b815481529060010190602001808311610ef957829003601f168201915b505050505090806001015f9054906101000a900473ffffffffffffffffffffffffffffffffffffffff1690806002018054610f5090611fad565b80601f0160208091040260200160405190810160405280929190818152602001828054610f7c90611fad565b8015610fc75780601f10610f9e57610100808354040283529160200191610fc7565b820191905f5260205f20905b815481529060010190602001808311610faa57829003601f168201915b5050505050908060030154905084565b5f825f73ffffffffffffffffffffffffffffffffffffffff168173ffffffffffffffffffffffffffffffffffffffff1603611047576040517f08c379a000000000000000000000000000000000000000000000000000000000815260040161103e90611dde565b60405180910390fd5b5f8054906101000a900473ffffffffffffffffffffffffffffffffffffffff1673ffffffffffffffffffffffffffffffffffffffff163373ffffffffffffffffffffffffffffffffffffffff16146110d4576040517f08c379a00000000000000000000000000000000000000000000000000000000081526004016110cb90611d76565b60405180910390fd5b835f60035f8373ffffffffffffffffffffffffffffffffffffffff1673ffffffffffffffffffffffffffffffffffffffff1681526020019081526020015f2090505f73ffffffffffffffffffffffffffffffffffffffff16816001015f9054906101000a900473ffffffffffffffffffffffffffffffffffffffff1673ffffffffffffffffffffffffffffffffffffffff16036111a6576040517f08c379a000000000000000000000000000000000000000000000000000000000815260040161119d90612403565b60405180910390fd5b5f805f9054906101000a900473ffffffffffffffffffffffffffffffffffffffff16905061121a8660045f8473ffffffffffffffffffffffffffffffffffffffff1673ffffffffffffffffffffffffffffffffffffffff1681526020019081526020015f205461177e90919063ffffffff16565b60045f8373ffffffffffffffffffffffffffffffffffffffff1673ffffffffffffffffffffffffffffffffffffffff1681526020019081526020015f20819055506112ab8660045f8a73ffffffffffffffffffffffffffffffffffffffff1673ffffffffffffffffffffffffffffffffffffffff1681526020019081526020015f205461175390919063ffffffff16565b60045f8973ffffffffffffffffffffffffffffffffffffffff1673ffffffffffffffffffffffffffffffffffffffff1681526020019081526020015f20819055508673ffffffffffffffffffffffffffffffffffffffff168173ffffffffffffffffffffffffffffffffffffffff167fddf252ad1be2c89b69c2b068fc378daa952ba7f163c4a11628f55a4df523b3ef886040516113499190611907565b60405180910390a3600194505050505092915050565b6002818154811061136e575f80fd5b905f5260205f2090600402015f91509050805f01805461138d90611fad565b80601f01602080910402602001604051908101604052809291908181526020018280546113b990611fad565b80156114045780601f106113db57610100808354040283529160200191611404565b820191905f5260205f20905b8154815290600101906020018083116113e757829003601f168201915b505050505090806001015f9054906101000a900473ffffffffffffffffffffffffffffffffffffffff169080600201805461143e90611fad565b80601f016020809104026020016040519081016040528092919081815260200182805461146a90611fad565b80156114b55780601f1061148c576101008083540402835291602001916114b5565b820191905f5260205f20905b81548152906001019060200180831161149857829003601f168201915b5050505050908060030154905084565b5f60055f8473ffffffffffffffffffffffffffffffffffffffff1673ffffffffffffffffffffffffffffffffffffffff1681526020019081526020015f205f8373ffffffffffffffffffffffffffffffffffffffff1673ffffffffffffffffffffffffffffffffffffffff1681526020019081526020015f2054905092915050565b5f806002838154811061155d5761155c612421565b5b905f5260205f20906004020190505f6115838260030154866117a490919063ffffffff16565b9050809250505092915050565b5f73ffffffffffffffffffffffffffffffffffffffff168373ffffffffffffffffffffffffffffffffffffffff16036115fe576040517f08c379a00000000000000000000000000000000000000000000000000000000081526004016115f5906124be565b60405180910390fd5b5f73ffffffffffffffffffffffffffffffffffffffff168273ffffffffffffffffffffffffffffffffffffffff160361166c576040517f08c379a00000000000000000000000000000000000000000000000000000000081526004016116639061254c565b60405180910390fd5b8060055f8573ffffffffffffffffffffffffffffffffffffffff1673ffffffffffffffffffffffffffffffffffffffff1681526020019081526020015f205f8473ffffffffffffffffffffffffffffffffffffffff1673ffffffffffffffffffffffffffffffffffffffff1681526020019081526020015f20819055508173ffffffffffffffffffffffffffffffffffffffff168373ffffffffffffffffffffffffffffffffffffffff167f8c5be1e5ebec7d5bd14f71427d1e84f3dd0314c0f7b2291e5b200ac8c7c3b925836040516117469190611907565b60405180910390a3505050565b5f8082846117619190612597565b905083811015611774576117736125ca565b5b8091505092915050565b5f828211156117905761178f6125ca565b5b818361179c91906125f7565b905092915050565b5f8082846117b29190612657565b90508091505092915050565b5f604051905090565b5f80fd5b5f80fd5b5f73ffffffffffffffffffffffffffffffffffffffff82169050919050565b5f6117f8826117cf565b9050919050565b611808816117ee565b8114611812575f80fd5b50565b5f81359050611823816117ff565b92915050565b5f819050919050565b61183b81611829565b8114611845575f80fd5b50565b5f8135905061185681611832565b92915050565b5f8060408385031215611872576118716117c7565b5b5f61187f85828601611815565b925050602061189085828601611848565b9150509250929050565b5f8115159050919050565b6118ae8161189a565b82525050565b5f6020820190506118c75f8301846118a5565b92915050565b5f602082840312156118e2576118e16117c7565b5b5f6118ef84828501611848565b91505092915050565b61190181611829565b82525050565b5f60208201905061191a5f8301846118f8565b92915050565b5f80fd5b5f80fd5b5f601f19601f8301169050919050565b7f4e487b71000000000000000000000000000000000000000000000000000000005f52604160045260245ffd5b61196e82611928565b810181811067ffffffffffffffff8211171561198d5761198c611938565b5b80604052505050565b5f61199f6117be565b90506119ab8282611965565b919050565b5f67ffffffffffffffff8211156119ca576119c9611938565b5b6119d382611928565b9050602081019050919050565b828183375f83830152505050565b5f611a006119fb846119b0565b611996565b905082815260208101848484011115611a1c57611a1b611924565b5b611a278482856119e0565b509392505050565b5f82601f830112611a4357611a42611920565b5b8135611a538482602086016119ee565b91505092915050565b5f611a66826117cf565b9050919050565b611a7681611a5c565b8114611a80575f80fd5b50565b5f81359050611a9181611a6d565b92915050565b5f805f8060808587031215611aaf57611aae6117c7565b5b5f85013567ffffffffffffffff811115611acc57611acb6117cb565b5b611ad887828801611a2f565b9450506020611ae987828801611a83565b935050604085013567ffffffffffffffff811115611b0a57611b096117cb565b5b611b1687828801611a2f565b9250506060611b2787828801611848565b91505092959194509250565b5f805f60608486031215611b4a57611b496117c7565b5b5f611b5786828701611815565b9350506020611b6886828701611815565b9250506040611b7986828701611848565b9150509250925092565b5f60208284031215611b9857611b976117c7565b5b5f611ba584828501611815565b91505092915050565b611bb7816117ee565b82525050565b5f602082019050611bd05f830184611bae565b92915050565b5f81519050919050565b5f82825260208201905092915050565b5f5b83811015611c0d578082015181840152602081019050611bf2565b5f8484015250505050565b5f611c2282611bd6565b611c2c8185611be0565b9350611c3c818560208601611bf0565b611c4581611928565b840191505092915050565b611c5981611a5c565b82525050565b5f6080820190508181035f830152611c778187611c18565b9050611c866020830186611c50565b8181036040830152611c988185611c18565b9050611ca760608301846118f8565b95945050505050565b5f8060408385031215611cc657611cc56117c7565b5b5f611cd385828601611815565b9250506020611ce485828601611815565b9150509250929050565b5f8060408385031215611d0457611d036117c7565b5b5f611d1185828601611848565b9250506020611d2285828601611848565b9150509250929050565b7f43616c6c6572206973206e6f74206f776e6572000000000000000000000000005f82015250565b5f611d60601383611be0565b9150611d6b82611d2c565b602082019050919050565b5f6020820190508181035f830152611d8d81611d54565b9050919050565b7f456e74657265642061646472657373206973206e756c6c2e00000000000000005f82015250565b5f611dc8601883611be0565b9150611dd382611d94565b602082019050919050565b5f6020820190508181035f830152611df581611dbc565b9050919050565b7f456e7465726564206164647265737320697320616c72656164792061207061725f8201527f746e657221000000000000000000000000000000000000000000000000000000602082015250565b5f611e56602583611be0565b9150611e6182611dfc565b604082019050919050565b5f6020820190508181035f830152611e8381611e4a565b9050919050565b7f546865206f776e65722063616e6e6f74206265206120706172746e65722100005f82015250565b5f611ebe601e83611be0565b9150611ec982611e8a565b602082019050919050565b5f6020820190508181035f830152611eeb81611eb2565b9050919050565b7f5468652076616c756520666f72206120546f6b656e2073686f756c64206265205f8201527f6174206c65617374203120696e207468652063757272656e63792e0000000000602082015250565b5f611f4c603b83611be0565b9150611f5782611ef2565b604082019050919050565b5f6020820190508181035f830152611f7981611f40565b9050919050565b7f4e487b71000000000000000000000000000000000000000000000000000000005f52602260045260245ffd5b5f6002820490506001821680611fc457607f821691505b602082108103611fd757611fd6611f80565b5b50919050565b5f819050815f5260205f209050919050565b5f6020601f8301049050919050565b5f82821b905092915050565b5f600883026120397fffffffffffffffffffffffffffffffffffffffffffffffffffffffffffffffff82611ffe565b6120438683611ffe565b95508019841693508086168417925050509392505050565b5f819050919050565b5f61207e61207961207484611829565b61205b565b611829565b9050919050565b5f819050919050565b61209783612064565b6120ab6120a382612085565b84845461200a565b825550505050565b5f90565b6120bf6120b3565b6120ca81848461208e565b505050565b5b818110156120ed576120e25f826120b7565b6001810190506120d0565b5050565b601f8211156121325761210381611fdd565b61210c84611fef565b8101602085101561211b578190505b61212f61212785611fef565b8301826120cf565b50505b505050565b5f82821c905092915050565b5f6121525f1984600802612137565b1980831691505092915050565b5f61216a8383612143565b9150826002028217905092915050565b61218382611bd6565b67ffffffffffffffff81111561219c5761219b611938565b5b6121a68254611fad565b6121b18282856120f1565b5f60209050601f8311600181146121e2575f84156121d0578287015190505b6121da858261215f565b865550612241565b601f1984166121f086611fdd565b5f5b82811015612217578489015182556001820191506020850194506020810190506121f2565b868310156122345784890151612230601f891682612143565b8355505b6001600288020188555050505b505050505050565b5f60408201905061225c5f8301856118f8565b818103602083015261226e8184611c18565b90509392505050565b7f546865206164647265737320646f65736e2774206861766520656e6f756768205f8201527f62616c616e636520746f2073656e642074686520616d6f756e742e0000000000602082015250565b5f6122d1603b83611be0565b91506122dc82612277565b604082019050919050565b5f6020820190508181035f8301526122fe816122c5565b9050919050565b7f5468652072656365697665722061646472657373206973206e6f7420612070615f8201527f72746e65722e0000000000000000000000000000000000000000000000000000602082015250565b5f61235f602683611be0565b915061236a82612305565b604082019050919050565b5f6020820190508181035f83015261238c81612353565b9050919050565b7f456e74657265642061646472657373206973206e6f74206120706172746e65725f8201527f2100000000000000000000000000000000000000000000000000000000000000602082015250565b5f6123ed602183611be0565b91506123f882612393565b604082019050919050565b5f6020820190508181035f83015261241a816123e1565b9050919050565b7f4e487b71000000000000000000000000000000000000000000000000000000005f52603260045260245ffd5b7f45524332303a20617070726f76652066726f6d20746865207a65726f206164645f8201527f7265737300000000000000000000000000000000000000000000000000000000602082015250565b5f6124a8602483611be0565b91506124b38261244e565b604082019050919050565b5f6020820190508181035f8301526124d58161249c565b9050919050565b7f45524332303a20617070726f766520746f20746865207a65726f2061646472655f8201527f7373000000000000000000000000000000000000000000000000000000000000602082015250565b5f612536602283611be0565b9150612541826124dc565b604082019050919050565b5f6020820190508181035f8301526125638161252a565b9050919050565b7f4e487b71000000000000000000000000000000000000000000000000000000005f52601160045260245ffd5b5f6125a182611829565b91506125ac83611829565b92508282019050808211156125c4576125c361256a565b5b92915050565b7f4e487b71000000000000000000000000000000000000000000000000000000005f52600160045260245ffd5b5f61260182611829565b915061260c83611829565b92508282039050818111156126245761262361256a565b5b92915050565b7f4e487b71000000000000000000000000000000000000000000000000000000005f52601260045260245ffd5b5f61266182611829565b915061266c83611829565b92508261267c5761267b61262a565b5b82820490509291505056fea26469706673582212205c63856f5aae536b7fee4dd69bc47d50e22d3ac86e4e124f8dd244d43178b7ae64736f6c63430008140033",
  "immutableReferences": {},
  "source": "// SPDX-License-Identifier: MIT\r\npragma solidity ^0.8.20;\r\n\r\nimport \"@openzeppelin/contracts/token/ERC20/IERC20.sol\";\r\nimport \"./2_PayBackPartnership.sol\";\r\n\r\n\r\ncontract PayBackToken is IERC20, PayBackPartnership {\r\n    using SafeMath for uint256;\r\n\r\n    //should be private?\r\n    mapping(address => uint256) private _balances;\r\n    //the owner->spender->amount\r\n    mapping(address => mapping(address => uint256)) private _allowed;\r\n\r\n    uint256 private _totalSupply;\r\n    string private _name;\r\n    string private _symbol;\r\n    uint256 public _decimals;\r\n\r\n    /**\r\n     * @dev Sets the values for {name} and {symbol}.\r\n     *\r\n     * All two of these values are immutable: they can only be set once during\r\n     * construction.\r\n     */\r\n    constructor(\r\n        string memory name_,\r\n        string memory symbol_,\r\n        uint256 initialSupply_,\r\n        uint256 decimals_\r\n    ) {\r\n        _name = name_;\r\n        _symbol = symbol_;\r\n        _totalSupply = initialSupply_;\r\n        _decimals = decimals_;\r\n\r\n        _balances[_owner] = initialSupply_;\r\n    }\r\n\r\n    /**\r\n     * @dev Returns the amount of tokens in existence.\r\n     */\r\n    function totalSupply() public view returns (uint256) {\r\n        return _totalSupply;\r\n    }\r\n\r\n    /**\r\n     * @dev Returns the amount of tokens owned by `account`.\r\n     */\r\n    function balanceOf(address account) public view returns (uint256) {\r\n        return _balances[account];\r\n    }\r\n\r\n    /**\r\n     * @dev Moves `amount` tokens from the caller's account to `to`.\r\n     *\r\n     * Returns a boolean value indicating whether the operation succeeded.\r\n     *\r\n     * Emits a {Transfer} event.\r\n     */\r\n    /**\r\n     * @dev See {IERC20-transfer}.\r\n     *\r\n     * Requirements:\r\n     *\r\n     * - `to` cannot be the zero address.\r\n     * - the caller must have a balance of at least `amount`.\r\n     */\r\n\r\n    function transfer(address _to, uint256 _amount)\r\n        public\r\n        addrNotNull(_to)\r\n        isOwner\r\n        addrIsPartner(_to)\r\n        returns (bool)\r\n    {\r\n        //the to addr shouldnt be zero\r\n        // the amount should be as much is available\r\n        //only the owner can distribute Tokens to its partners\r\n        //check if the address is partner\r\n        address from = _owner;\r\n        _balances[from] = _balances[from].sub(_amount);\r\n        _balances[_to] = _balances[_to].add(_amount);\r\n        emit Transfer(from, _to, _amount);\r\n\r\n        return true;\r\n    }\r\n\r\n    /**\r\n     * @dev Function to check the amount of tokens than an owner allowed to a spender.\r\n     * @param _owner address The address which owns the funds.\r\n     * @param _spender address The address which will spend the funds.\r\n     * @return A uint specifying the amount of tokens still available for the spender.\r\n     */\r\n    function allowance(address _owner, address _spender)\r\n        public\r\n        view\r\n        returns (uint256)\r\n    {\r\n        //the owner is the owner of the tokens that allows someone else to transfer the amount for him\r\n        return _allowed[_owner][_spender];\r\n    }\r\n\r\n    //\r\n    function approve(address _spender, uint256 _amount) public returns (bool) {\r\n        address owner = msg.sender;\r\n        _approve(owner, _spender, _amount);\r\n        return true;\r\n    }\r\n\r\n    function _approve(\r\n        address owner,\r\n        address spender,\r\n        uint256 amount\r\n    ) internal virtual {\r\n        require(owner != address(0), \"ERC20: approve from the zero address\");\r\n        require(spender != address(0), \"ERC20: approve to the zero address\");\r\n\r\n        _allowed[owner][spender] = amount;\r\n        emit Approval(owner, spender, amount);\r\n    }\r\n\r\n    function transferFrom(\r\n        address _from,\r\n        address _to,\r\n        uint256 _amount\r\n    ) public returns (bool) {\r\n\r\n        //you allow someone to spend your tokens\r\n        //\r\n        //TODO who can start this function????\r\n\r\n        //check if the amount they want to send is real\r\n        require(\r\n            _balances[_from] >= _amount,\r\n            \"The address doesn't have enough balance to send the amount.\"\r\n        );\r\n\r\n        Partner storage p_sender = addrToPartner[_from];\r\n\r\n        if (p_sender.walletAddr != address(0)) {\r\n            // if the sender is a partner, he can send tokens\r\n            _balances[_from] = _balances[_from].sub(_amount);\r\n            _balances[_to] = _balances[_to].add(_amount);\r\n        } else {\r\n            //if the sender is not a partner check if the receiver is partner\r\n            Partner storage p_receiver = addrToPartner[_to];\r\n            require(\r\n                p_receiver.walletAddr == address(0),\r\n                \"The receiver address is not a partner.\"\r\n            );\r\n\r\n            if (p_receiver.walletAddr != address(0)) {\r\n                // sending to partner\r\n                // check if the amount is round?\r\n                _balances[_from] = _balances[_from].sub(_amount);\r\n                _balances[_to] = _balances[_to].add(_amount);\r\n            }\r\n        }\r\n        //if the from is a partner.. then its okay to send\r\n        //else if the from is a normal user.. he can only send to partner\r\n        //check if the amount is above\r\n\r\n        return true;\r\n    }\r\n\r\n    //----------------------------------Additional functions----------------------------------\r\n\r\n    function loadTotalSupply(uint256 _amount) public isOwner returns (bool) {\r\n        //ACH ... there can be a max amout to load\r\n        _balances[_owner] = _balances[_owner].add(_amount);\r\n        return true;\r\n    }\r\n\r\n    // TODO : Implement all other functions,\r\n    // make the specific function for out Token virtual and external? override?\r\n}\r\n",
  "sourcePath": "D:\\PersonalStuff\\GitProjects\\PayBackOnBlockchain\\payback-token-truffle\\contracts\\3_PayBackToken.sol",
  "compiler": {
    "name": "solc",
    "version": "0.8.20+commit.a1b79de6.Emscripten.clang"
  },
  "schemaVersion": "3.4.14",
  "updatedAt": "2023-06-21T14:44:13.655Z",
  "devdoc": {
    "events": {
      "Approval(address,address,uint256)": {
        "details": "Emitted when the allowance of a `spender` for an `owner` is set by a call to {approve}. `value` is the new allowance."
      },
      "Transfer(address,address,uint256)": {
        "details": "Emitted when `value` tokens are moved from one account (`from`) to another (`to`). Note that `value` may be zero."
      }
    },
    "kind": "dev",
    "methods": {
      "allowance(address,address)": {
        "details": "Function to check the amount of tokens than an owner allowed to a spender.",
        "params": {
          "_owner": "address The address which owns the funds.",
          "_spender": "address The address which will spend the funds."
        },
        "returns": {
          "_0": "A uint specifying the amount of tokens still available for the spender."
        }
      },
      "balanceOf(address)": {
        "details": "Returns the amount of tokens owned by `account`."
      },
      "constructor": {
        "details": "Sets the values for {name} and {symbol}. All two of these values are immutable: they can only be set once during construction."
      },
      "getOwner()": {
        "details": "Return owner address ",
        "returns": {
          "_0": "address of owner"
        }
      },
      "totalSupply()": {
        "details": "Returns the amount of tokens in existence."
      },
      "transfer(address,uint256)": {
        "details": "See {IERC20-transfer}. Requirements: - `to` cannot be the zero address. - the caller must have a balance of at least `amount`."
      }
    },
    "version": 1
  },
  "userdoc": {
    "kind": "user",
    "methods": {},
    "version": 1
  }
}